{
	"Shipping.sol": {
		"Shipping": {
			"abi": [
				{
					"inputs": [],
					"stateMutability": "nonpayable",
					"type": "constructor"
				},
				{
					"inputs": [],
					"name": "cancel",
					"outputs": [],
					"stateMutability": "nonpayable",
					"type": "function"
				},
				{
					"inputs": [],
					"name": "currentStatus",
					"outputs": [
						{
							"internalType": "enum Shipping.Status",
							"name": "",
							"type": "uint8"
						}
					],
					"stateMutability": "view",
					"type": "function"
				},
				{
					"inputs": [],
					"name": "get",
					"outputs": [
						{
							"internalType": "enum Shipping.Status",
							"name": "",
							"type": "uint8"
						}
					],
					"stateMutability": "view",
					"type": "function"
				},
				{
					"inputs": [],
					"name": "getTitle",
					"outputs": [],
					"stateMutability": "nonpayable",
					"type": "function"
				},
				{
					"inputs": [],
					"name": "myBook",
					"outputs": [
						{
							"internalType": "string",
							"name": "Title",
							"type": "string"
						},
						{
							"internalType": "string",
							"name": "Author",
							"type": "string"
						},
						{
							"internalType": "uint256",
							"name": "years_of_publication",
							"type": "uint256"
						}
					],
					"stateMutability": "view",
					"type": "function"
				},
				{
					"inputs": [],
					"name": "reset",
					"outputs": [],
					"stateMutability": "nonpayable",
					"type": "function"
				},
				{
					"inputs": [
						{
							"internalType": "enum Shipping.Status",
							"name": "_status",
							"type": "uint8"
						}
					],
					"name": "set",
					"outputs": [],
					"stateMutability": "nonpayable",
					"type": "function"
				},
				{
					"inputs": [],
					"name": "setBook",
					"outputs": [],
					"stateMutability": "nonpayable",
					"type": "function"
				}
			],
			"devdoc": {
				"kind": "dev",
				"methods": {},
				"version": 1
			},
			"evm": {
				"assembly": "    /* \"Shipping.sol\":58:889  contract Shipping{... */\n  mstore(0x40, 0x80)\n    /* \"Shipping.sol\":362:426  constructor(){... */\n  callvalue\n  dup1\n  iszero\n  tag_1\n  jumpi\n  0x00\n  dup1\n  revert\ntag_1:\n  pop\n    /* \"Shipping.sol\":402:416  Status.Pending */\n  0x00\n    /* \"Shipping.sol\":386:399  currentStatus */\n  dup1\n  0x00\n    /* \"Shipping.sol\":386:416  currentStatus = Status.Pending */\n  0x0100\n  exp\n  dup2\n  sload\n  dup2\n  0xff\n  mul\n  not\n  and\n  swap1\n  dup4\n  0x04\n  dup2\n  gt\n  iszero\n  tag_4\n  jumpi\n  tag_5\n  tag_6\n  jump\t// in\ntag_5:\ntag_4:\n  mul\n  or\n  swap1\n  sstore\n  pop\n    /* \"Shipping.sol\":58:889  contract Shipping{... */\n  jump(tag_7)\n    /* \"#utility.yul\":7:187   */\ntag_6:\n    /* \"#utility.yul\":55:132   */\n  0x4e487b7100000000000000000000000000000000000000000000000000000000\n    /* \"#utility.yul\":52:53   */\n  0x00\n    /* \"#utility.yul\":45:133   */\n  mstore\n    /* \"#utility.yul\":152:156   */\n  0x21\n    /* \"#utility.yul\":149:150   */\n  0x04\n    /* \"#utility.yul\":142:157   */\n  mstore\n    /* \"#utility.yul\":176:180   */\n  0x24\n    /* \"#utility.yul\":173:174   */\n  0x00\n    /* \"#utility.yul\":166:181   */\n  revert\n    /* \"Shipping.sol\":58:889  contract Shipping{... */\ntag_7:\n  dataSize(sub_0)\n  dup1\n  dataOffset(sub_0)\n  0x00\n  codecopy\n  0x00\n  return\nstop\n\nsub_0: assembly {\n        /* \"Shipping.sol\":58:889  contract Shipping{... */\n      mstore(0x40, 0x80)\n      callvalue\n      dup1\n      iszero\n      tag_1\n      jumpi\n      0x00\n      dup1\n      revert\n    tag_1:\n      pop\n      jumpi(tag_2, lt(calldatasize, 0x04))\n      shr(0xe0, calldataload(0x00))\n      dup1\n      0xd826f88f\n      gt\n      tag_11\n      jumpi\n      dup1\n      0xd826f88f\n      eq\n      tag_7\n      jumpi\n      dup1\n      0xea8a1af0\n      eq\n      tag_8\n      jumpi\n      dup1\n      0xef8a9235\n      eq\n      tag_9\n      jumpi\n      dup1\n      0xff3c1a8f\n      eq\n      tag_10\n      jumpi\n      jump(tag_2)\n    tag_11:\n      dup1\n      0x24b8ba5f\n      eq\n      tag_3\n      jumpi\n      dup1\n      0x6d4ce63c\n      eq\n      tag_4\n      jumpi\n      dup1\n      0xaab27ef7\n      eq\n      tag_5\n      jumpi\n      dup1\n      0xd629546c\n      eq\n      tag_6\n      jumpi\n    tag_2:\n      0x00\n      dup1\n      revert\n        /* \"Shipping.sol\":667:744  function set(Status _status) public{... */\n    tag_3:\n      tag_12\n      0x04\n      dup1\n      calldatasize\n      sub\n      dup2\n      add\n      swap1\n      tag_13\n      swap2\n      swap1\n      tag_14\n      jump\t// in\n    tag_13:\n      tag_15\n      jump\t// in\n    tag_12:\n      stop\n        /* \"Shipping.sol\":579:661  function get() public  view returns (Status){... */\n    tag_4:\n      tag_16\n      tag_17\n      jump\t// in\n    tag_16:\n      mload(0x40)\n      tag_18\n      swap2\n      swap1\n      tag_19\n      jump\t// in\n    tag_18:\n      mload(0x40)\n      dup1\n      swap2\n      sub\n      swap1\n      return\n        /* \"Shipping.sol\":333:353  Books public  myBook */\n    tag_5:\n      tag_20\n      tag_21\n      jump\t// in\n    tag_20:\n      mload(0x40)\n      tag_22\n      swap4\n      swap3\n      swap2\n      swap1\n      tag_23\n      jump\t// in\n    tag_22:\n      mload(0x40)\n      dup1\n      swap2\n      sub\n      swap1\n      return\n        /* \"Shipping.sol\":438:531  function setBook() public {... */\n    tag_6:\n      tag_24\n      tag_25\n      jump\t// in\n    tag_24:\n      stop\n        /* \"Shipping.sol\":827:887  function reset() public{... */\n    tag_7:\n      tag_26\n      tag_27\n      jump\t// in\n    tag_26:\n      stop\n        /* \"Shipping.sol\":749:822  function cancel() public {... */\n    tag_8:\n      tag_28\n      tag_29\n      jump\t// in\n    tag_28:\n      stop\n        /* \"Shipping.sol\":300:327  Status public currentStatus */\n    tag_9:\n      tag_30\n      tag_31\n      jump\t// in\n    tag_30:\n      mload(0x40)\n      tag_32\n      swap2\n      swap1\n      tag_19\n      jump\t// in\n    tag_32:\n      mload(0x40)\n      dup1\n      swap2\n      sub\n      swap1\n      return\n        /* \"Shipping.sol\":538:573  function getTitle() public{... */\n    tag_10:\n      tag_33\n      tag_34\n      jump\t// in\n    tag_33:\n      stop\n        /* \"Shipping.sol\":667:744  function set(Status _status) public{... */\n    tag_15:\n        /* \"Shipping.sol\":730:737  _status */\n      dup1\n        /* \"Shipping.sol\":714:727  currentStatus */\n      0x00\n      dup1\n        /* \"Shipping.sol\":714:737  currentStatus = _status */\n      0x0100\n      exp\n      dup2\n      sload\n      dup2\n      0xff\n      mul\n      not\n      and\n      swap1\n      dup4\n      0x04\n      dup2\n      gt\n      iszero\n      tag_36\n      jumpi\n      tag_37\n      tag_38\n      jump\t// in\n    tag_37:\n    tag_36:\n      mul\n      or\n      swap1\n      sstore\n      pop\n        /* \"Shipping.sol\":667:744  function set(Status _status) public{... */\n      pop\n      jump\t// out\n        /* \"Shipping.sol\":579:661  function get() public  view returns (Status){... */\n    tag_17:\n        /* \"Shipping.sol\":616:622  Status */\n      0x00\n        /* \"Shipping.sol\":641:654  currentStatus */\n      dup1\n      0x00\n      swap1\n      sload\n      swap1\n      0x0100\n      exp\n      swap1\n      div\n      0xff\n      and\n        /* \"Shipping.sol\":634:654  return currentStatus */\n      swap1\n      pop\n        /* \"Shipping.sol\":579:661  function get() public  view returns (Status){... */\n      swap1\n      jump\t// out\n        /* \"Shipping.sol\":333:353  Books public  myBook */\n    tag_21:\n      0x01\n      dup1\n      0x00\n      add\n      dup1\n      sload\n      tag_40\n      swap1\n      tag_41\n      jump\t// in\n    tag_40:\n      dup1\n      0x1f\n      add\n      0x20\n      dup1\n      swap2\n      div\n      mul\n      0x20\n      add\n      mload(0x40)\n      swap1\n      dup2\n      add\n      0x40\n      mstore\n      dup1\n      swap3\n      swap2\n      swap1\n      dup2\n      dup2\n      mstore\n      0x20\n      add\n      dup3\n      dup1\n      sload\n      tag_42\n      swap1\n      tag_41\n      jump\t// in\n    tag_42:\n      dup1\n      iszero\n      tag_43\n      jumpi\n      dup1\n      0x1f\n      lt\n      tag_44\n      jumpi\n      0x0100\n      dup1\n      dup4\n      sload\n      div\n      mul\n      dup4\n      mstore\n      swap2\n      0x20\n      add\n      swap2\n      jump(tag_43)\n    tag_44:\n      dup3\n      add\n      swap2\n      swap1\n      0x00\n      mstore\n      keccak256(0x00, 0x20)\n      swap1\n    tag_45:\n      dup2\n      sload\n      dup2\n      mstore\n      swap1\n      0x01\n      add\n      swap1\n      0x20\n      add\n      dup1\n      dup4\n      gt\n      tag_45\n      jumpi\n      dup3\n      swap1\n      sub\n      0x1f\n      and\n      dup3\n      add\n      swap2\n    tag_43:\n      pop\n      pop\n      pop\n      pop\n      pop\n      swap1\n      dup1\n      0x01\n      add\n      dup1\n      sload\n      tag_46\n      swap1\n      tag_41\n      jump\t// in\n    tag_46:\n      dup1\n      0x1f\n      add\n      0x20\n      dup1\n      swap2\n      div\n      mul\n      0x20\n      add\n      mload(0x40)\n      swap1\n      dup2\n      add\n      0x40\n      mstore\n      dup1\n      swap3\n      swap2\n      swap1\n      dup2\n      dup2\n      mstore\n      0x20\n      add\n      dup3\n      dup1\n      sload\n      tag_47\n      swap1\n      tag_41\n      jump\t// in\n    tag_47:\n      dup1\n      iszero\n      tag_48\n      jumpi\n      dup1\n      0x1f\n      lt\n      tag_49\n      jumpi\n      0x0100\n      dup1\n      dup4\n      sload\n      div\n      mul\n      dup4\n      mstore\n      swap2\n      0x20\n      add\n      swap2\n      jump(tag_48)\n    tag_49:\n      dup3\n      add\n      swap2\n      swap1\n      0x00\n      mstore\n      keccak256(0x00, 0x20)\n      swap1\n    tag_50:\n      dup2\n      sload\n      dup2\n      mstore\n      swap1\n      0x01\n      add\n      swap1\n      0x20\n      add\n      dup1\n      dup4\n      gt\n      tag_50\n      jumpi\n      dup3\n      swap1\n      sub\n      0x1f\n      and\n      dup3\n      add\n      swap2\n    tag_48:\n      pop\n      pop\n      pop\n      pop\n      pop\n      swap1\n      dup1\n      0x02\n      add\n      sload\n      swap1\n      pop\n      dup4\n      jump\t// out\n        /* \"Shipping.sol\":438:531  function setBook() public {... */\n    tag_25:\n        /* \"Shipping.sol\":482:523  Books(\"Atomic habit\",\"James Clear\", 2000) */\n      mload(0x40)\n      dup1\n      0x60\n      add\n      0x40\n      mstore\n      dup1\n      mload(0x40)\n      dup1\n      0x40\n      add\n      0x40\n      mstore\n      dup1\n      0x0c\n      dup2\n      mstore\n      0x20\n      add\n      0x41746f6d69632068616269740000000000000000000000000000000000000000\n      dup2\n      mstore\n      pop\n      dup2\n      mstore\n      0x20\n      add\n      mload(0x40)\n      dup1\n      0x40\n      add\n      0x40\n      mstore\n      dup1\n      0x0b\n      dup2\n      mstore\n      0x20\n      add\n      0x4a616d657320436c656172000000000000000000000000000000000000000000\n      dup2\n      mstore\n      pop\n      dup2\n      mstore\n      0x20\n      add\n        /* \"Shipping.sol\":518:522  2000 */\n      0x07d0\n        /* \"Shipping.sol\":482:523  Books(\"Atomic habit\",\"James Clear\", 2000) */\n      dup2\n      mstore\n      pop\n        /* \"Shipping.sol\":475:481  myBook */\n      0x01\n        /* \"Shipping.sol\":475:523  myBook=Books(\"Atomic habit\",\"James Clear\", 2000) */\n      0x00\n      dup3\n      add\n      mload\n      dup2\n      0x00\n      add\n      swap1\n      dup2\n      tag_52\n      swap2\n      swap1\n      tag_53\n      jump\t// in\n    tag_52:\n      pop\n      0x20\n      dup3\n      add\n      mload\n      dup2\n      0x01\n      add\n      swap1\n      dup2\n      tag_54\n      swap2\n      swap1\n      tag_53\n      jump\t// in\n    tag_54:\n      pop\n      0x40\n      dup3\n      add\n      mload\n      dup2\n      0x02\n      add\n      sstore\n      swap1\n      pop\n      pop\n        /* \"Shipping.sol\":438:531  function setBook() public {... */\n      jump\t// out\n        /* \"Shipping.sol\":827:887  function reset() public{... */\n    tag_27:\n        /* \"Shipping.sol\":867:880  currentStatus */\n      0x00\n      dup1\n        /* \"Shipping.sol\":860:880  delete currentStatus */\n      0x0100\n      exp\n      dup2\n      sload\n      swap1\n      0xff\n      mul\n      not\n      and\n      swap1\n      sstore\n        /* \"Shipping.sol\":827:887  function reset() public{... */\n      jump\t// out\n        /* \"Shipping.sol\":749:822  function cancel() public {... */\n    tag_29:\n        /* \"Shipping.sol\":800:815  Status.Canceled */\n      0x04\n        /* \"Shipping.sol\":784:797  currentStatus */\n      0x00\n      dup1\n        /* \"Shipping.sol\":784:815  currentStatus = Status.Canceled */\n      0x0100\n      exp\n      dup2\n      sload\n      dup2\n      0xff\n      mul\n      not\n      and\n      swap1\n      dup4\n      0x04\n      dup2\n      gt\n      iszero\n      tag_57\n      jumpi\n      tag_58\n      tag_38\n      jump\t// in\n    tag_58:\n    tag_57:\n      mul\n      or\n      swap1\n      sstore\n      pop\n        /* \"Shipping.sol\":749:822  function cancel() public {... */\n      jump\t// out\n        /* \"Shipping.sol\":300:327  Status public currentStatus */\n    tag_31:\n      0x00\n      dup1\n      sload\n      swap1\n      0x0100\n      exp\n      swap1\n      div\n      0xff\n      and\n      dup2\n      jump\t// out\n        /* \"Shipping.sol\":538:573  function getTitle() public{... */\n    tag_34:\n      jump\t// out\n        /* \"#utility.yul\":88:205   */\n    tag_61:\n        /* \"#utility.yul\":197:198   */\n      0x00\n        /* \"#utility.yul\":194:195   */\n      dup1\n        /* \"#utility.yul\":187:199   */\n      revert\n        /* \"#utility.yul\":334:441   */\n    tag_63:\n        /* \"#utility.yul\":415:416   */\n      0x05\n        /* \"#utility.yul\":408:413   */\n      dup2\n        /* \"#utility.yul\":405:417   */\n      lt\n        /* \"#utility.yul\":395:435   */\n      tag_98\n      jumpi\n        /* \"#utility.yul\":431:432   */\n      0x00\n        /* \"#utility.yul\":428:429   */\n      dup1\n        /* \"#utility.yul\":421:433   */\n      revert\n        /* \"#utility.yul\":395:435   */\n    tag_98:\n        /* \"#utility.yul\":334:441   */\n      pop\n      jump\t// out\n        /* \"#utility.yul\":447:602   */\n    tag_64:\n        /* \"#utility.yul\":501:506   */\n      0x00\n        /* \"#utility.yul\":539:545   */\n      dup2\n        /* \"#utility.yul\":526:546   */\n      calldataload\n        /* \"#utility.yul\":517:546   */\n      swap1\n      pop\n        /* \"#utility.yul\":555:596   */\n      tag_100\n        /* \"#utility.yul\":590:595   */\n      dup2\n        /* \"#utility.yul\":555:596   */\n      tag_63\n      jump\t// in\n    tag_100:\n        /* \"#utility.yul\":447:602   */\n      swap3\n      swap2\n      pop\n      pop\n      jump\t// out\n        /* \"#utility.yul\":608:953   */\n    tag_14:\n        /* \"#utility.yul\":675:681   */\n      0x00\n        /* \"#utility.yul\":724:726   */\n      0x20\n        /* \"#utility.yul\":712:721   */\n      dup3\n        /* \"#utility.yul\":703:710   */\n      dup5\n        /* \"#utility.yul\":699:722   */\n      sub\n        /* \"#utility.yul\":695:727   */\n      slt\n        /* \"#utility.yul\":692:811   */\n      iszero\n      tag_102\n      jumpi\n        /* \"#utility.yul\":730:809   */\n      tag_103\n      tag_61\n      jump\t// in\n    tag_103:\n        /* \"#utility.yul\":692:811   */\n    tag_102:\n        /* \"#utility.yul\":850:851   */\n      0x00\n        /* \"#utility.yul\":875:936   */\n      tag_104\n        /* \"#utility.yul\":928:935   */\n      dup5\n        /* \"#utility.yul\":919:925   */\n      dup3\n        /* \"#utility.yul\":908:917   */\n      dup6\n        /* \"#utility.yul\":904:926   */\n      add\n        /* \"#utility.yul\":875:936   */\n      tag_64\n      jump\t// in\n    tag_104:\n        /* \"#utility.yul\":865:936   */\n      swap2\n      pop\n        /* \"#utility.yul\":821:946   */\n      pop\n        /* \"#utility.yul\":608:953   */\n      swap3\n      swap2\n      pop\n      pop\n      jump\t// out\n        /* \"#utility.yul\":959:1139   */\n    tag_38:\n        /* \"#utility.yul\":1007:1084   */\n      0x4e487b7100000000000000000000000000000000000000000000000000000000\n        /* \"#utility.yul\":1004:1005   */\n      0x00\n        /* \"#utility.yul\":997:1085   */\n      mstore\n        /* \"#utility.yul\":1104:1108   */\n      0x21\n        /* \"#utility.yul\":1101:1102   */\n      0x04\n        /* \"#utility.yul\":1094:1109   */\n      mstore\n        /* \"#utility.yul\":1128:1132   */\n      0x24\n        /* \"#utility.yul\":1125:1126   */\n      0x00\n        /* \"#utility.yul\":1118:1133   */\n      revert\n        /* \"#utility.yul\":1145:1258   */\n    tag_65:\n        /* \"#utility.yul\":1226:1227   */\n      0x05\n        /* \"#utility.yul\":1219:1224   */\n      dup2\n        /* \"#utility.yul\":1216:1228   */\n      lt\n        /* \"#utility.yul\":1206:1252   */\n      tag_107\n      jumpi\n        /* \"#utility.yul\":1232:1250   */\n      tag_108\n      tag_38\n      jump\t// in\n    tag_108:\n        /* \"#utility.yul\":1206:1252   */\n    tag_107:\n        /* \"#utility.yul\":1145:1258   */\n      pop\n      jump\t// out\n        /* \"#utility.yul\":1264:1391   */\n    tag_66:\n        /* \"#utility.yul\":1309:1316   */\n      0x00\n        /* \"#utility.yul\":1338:1343   */\n      dup2\n        /* \"#utility.yul\":1327:1343   */\n      swap1\n      pop\n        /* \"#utility.yul\":1344:1385   */\n      tag_110\n        /* \"#utility.yul\":1379:1384   */\n      dup3\n        /* \"#utility.yul\":1344:1385   */\n      tag_65\n      jump\t// in\n    tag_110:\n        /* \"#utility.yul\":1264:1391   */\n      swap2\n      swap1\n      pop\n      jump\t// out\n        /* \"#utility.yul\":1397:1524   */\n    tag_67:\n        /* \"#utility.yul\":1453:1462   */\n      0x00\n        /* \"#utility.yul\":1486:1518   */\n      tag_112\n        /* \"#utility.yul\":1512:1517   */\n      dup3\n        /* \"#utility.yul\":1486:1518   */\n      tag_66\n      jump\t// in\n    tag_112:\n        /* \"#utility.yul\":1473:1518   */\n      swap1\n      pop\n        /* \"#utility.yul\":1397:1524   */\n      swap2\n      swap1\n      pop\n      jump\t// out\n        /* \"#utility.yul\":1530:1673   */\n    tag_68:\n        /* \"#utility.yul\":1623:1666   */\n      tag_114\n        /* \"#utility.yul\":1660:1665   */\n      dup2\n        /* \"#utility.yul\":1623:1666   */\n      tag_67\n      jump\t// in\n    tag_114:\n        /* \"#utility.yul\":1618:1621   */\n      dup3\n        /* \"#utility.yul\":1611:1667   */\n      mstore\n        /* \"#utility.yul\":1530:1673   */\n      pop\n      pop\n      jump\t// out\n        /* \"#utility.yul\":1679:1913   */\n    tag_19:\n        /* \"#utility.yul\":1778:1782   */\n      0x00\n        /* \"#utility.yul\":1816:1818   */\n      0x20\n        /* \"#utility.yul\":1805:1814   */\n      dup3\n        /* \"#utility.yul\":1801:1819   */\n      add\n        /* \"#utility.yul\":1793:1819   */\n      swap1\n      pop\n        /* \"#utility.yul\":1829:1906   */\n      tag_116\n        /* \"#utility.yul\":1903:1904   */\n      0x00\n        /* \"#utility.yul\":1892:1901   */\n      dup4\n        /* \"#utility.yul\":1888:1905   */\n      add\n        /* \"#utility.yul\":1879:1885   */\n      dup5\n        /* \"#utility.yul\":1829:1906   */\n      tag_68\n      jump\t// in\n    tag_116:\n        /* \"#utility.yul\":1679:1913   */\n      swap3\n      swap2\n      pop\n      pop\n      jump\t// out\n        /* \"#utility.yul\":1919:2018   */\n    tag_69:\n        /* \"#utility.yul\":1971:1977   */\n      0x00\n        /* \"#utility.yul\":2005:2010   */\n      dup2\n        /* \"#utility.yul\":1999:2011   */\n      mload\n        /* \"#utility.yul\":1989:2011   */\n      swap1\n      pop\n        /* \"#utility.yul\":1919:2018   */\n      swap2\n      swap1\n      pop\n      jump\t// out\n        /* \"#utility.yul\":2024:2193   */\n    tag_70:\n        /* \"#utility.yul\":2108:2119   */\n      0x00\n        /* \"#utility.yul\":2142:2148   */\n      dup3\n        /* \"#utility.yul\":2137:2140   */\n      dup3\n        /* \"#utility.yul\":2130:2149   */\n      mstore\n        /* \"#utility.yul\":2182:2186   */\n      0x20\n        /* \"#utility.yul\":2177:2180   */\n      dup3\n        /* \"#utility.yul\":2173:2187   */\n      add\n        /* \"#utility.yul\":2158:2187   */\n      swap1\n      pop\n        /* \"#utility.yul\":2024:2193   */\n      swap3\n      swap2\n      pop\n      pop\n      jump\t// out\n        /* \"#utility.yul\":2199:2338   */\n    tag_71:\n        /* \"#utility.yul\":2288:2294   */\n      dup3\n        /* \"#utility.yul\":2283:2286   */\n      dup2\n        /* \"#utility.yul\":2278:2281   */\n      dup4\n        /* \"#utility.yul\":2272:2295   */\n      mcopy\n        /* \"#utility.yul\":2329:2330   */\n      0x00\n        /* \"#utility.yul\":2320:2326   */\n      dup4\n        /* \"#utility.yul\":2315:2318   */\n      dup4\n        /* \"#utility.yul\":2311:2327   */\n      add\n        /* \"#utility.yul\":2304:2331   */\n      mstore\n        /* \"#utility.yul\":2199:2338   */\n      pop\n      pop\n      pop\n      jump\t// out\n        /* \"#utility.yul\":2344:2446   */\n    tag_72:\n        /* \"#utility.yul\":2385:2391   */\n      0x00\n        /* \"#utility.yul\":2436:2438   */\n      0x1f\n        /* \"#utility.yul\":2432:2439   */\n      not\n        /* \"#utility.yul\":2427:2429   */\n      0x1f\n        /* \"#utility.yul\":2420:2425   */\n      dup4\n        /* \"#utility.yul\":2416:2430   */\n      add\n        /* \"#utility.yul\":2412:2440   */\n      and\n        /* \"#utility.yul\":2402:2440   */\n      swap1\n      pop\n        /* \"#utility.yul\":2344:2446   */\n      swap2\n      swap1\n      pop\n      jump\t// out\n        /* \"#utility.yul\":2452:2829   */\n    tag_73:\n        /* \"#utility.yul\":2540:2543   */\n      0x00\n        /* \"#utility.yul\":2568:2607   */\n      tag_122\n        /* \"#utility.yul\":2601:2606   */\n      dup3\n        /* \"#utility.yul\":2568:2607   */\n      tag_69\n      jump\t// in\n    tag_122:\n        /* \"#utility.yul\":2623:2694   */\n      tag_123\n        /* \"#utility.yul\":2687:2693   */\n      dup2\n        /* \"#utility.yul\":2682:2685   */\n      dup6\n        /* \"#utility.yul\":2623:2694   */\n      tag_70\n      jump\t// in\n    tag_123:\n        /* \"#utility.yul\":2616:2694   */\n      swap4\n      pop\n        /* \"#utility.yul\":2703:2768   */\n      tag_124\n        /* \"#utility.yul\":2761:2767   */\n      dup2\n        /* \"#utility.yul\":2756:2759   */\n      dup6\n        /* \"#utility.yul\":2749:2753   */\n      0x20\n        /* \"#utility.yul\":2742:2747   */\n      dup7\n        /* \"#utility.yul\":2738:2754   */\n      add\n        /* \"#utility.yul\":2703:2768   */\n      tag_71\n      jump\t// in\n    tag_124:\n        /* \"#utility.yul\":2793:2822   */\n      tag_125\n        /* \"#utility.yul\":2815:2821   */\n      dup2\n        /* \"#utility.yul\":2793:2822   */\n      tag_72\n      jump\t// in\n    tag_125:\n        /* \"#utility.yul\":2788:2791   */\n      dup5\n        /* \"#utility.yul\":2784:2823   */\n      add\n        /* \"#utility.yul\":2777:2823   */\n      swap2\n      pop\n        /* \"#utility.yul\":2544:2829   */\n      pop\n        /* \"#utility.yul\":2452:2829   */\n      swap3\n      swap2\n      pop\n      pop\n      jump\t// out\n        /* \"#utility.yul\":2835:2912   */\n    tag_74:\n        /* \"#utility.yul\":2872:2879   */\n      0x00\n        /* \"#utility.yul\":2901:2906   */\n      dup2\n        /* \"#utility.yul\":2890:2906   */\n      swap1\n      pop\n        /* \"#utility.yul\":2835:2912   */\n      swap2\n      swap1\n      pop\n      jump\t// out\n        /* \"#utility.yul\":2918:3036   */\n    tag_75:\n        /* \"#utility.yul\":3005:3029   */\n      tag_128\n        /* \"#utility.yul\":3023:3028   */\n      dup2\n        /* \"#utility.yul\":3005:3029   */\n      tag_74\n      jump\t// in\n    tag_128:\n        /* \"#utility.yul\":3000:3003   */\n      dup3\n        /* \"#utility.yul\":2993:3030   */\n      mstore\n        /* \"#utility.yul\":2918:3036   */\n      pop\n      pop\n      jump\t// out\n        /* \"#utility.yul\":3042:3666   */\n    tag_23:\n        /* \"#utility.yul\":3231:3235   */\n      0x00\n        /* \"#utility.yul\":3269:3271   */\n      0x60\n        /* \"#utility.yul\":3258:3267   */\n      dup3\n        /* \"#utility.yul\":3254:3272   */\n      add\n        /* \"#utility.yul\":3246:3272   */\n      swap1\n      pop\n        /* \"#utility.yul\":3318:3327   */\n      dup2\n        /* \"#utility.yul\":3312:3316   */\n      dup2\n        /* \"#utility.yul\":3308:3328   */\n      sub\n        /* \"#utility.yul\":3304:3305   */\n      0x00\n        /* \"#utility.yul\":3293:3302   */\n      dup4\n        /* \"#utility.yul\":3289:3306   */\n      add\n        /* \"#utility.yul\":3282:3329   */\n      mstore\n        /* \"#utility.yul\":3346:3424   */\n      tag_130\n        /* \"#utility.yul\":3419:3423   */\n      dup2\n        /* \"#utility.yul\":3410:3416   */\n      dup7\n        /* \"#utility.yul\":3346:3424   */\n      tag_73\n      jump\t// in\n    tag_130:\n        /* \"#utility.yul\":3338:3424   */\n      swap1\n      pop\n        /* \"#utility.yul\":3471:3480   */\n      dup2\n        /* \"#utility.yul\":3465:3469   */\n      dup2\n        /* \"#utility.yul\":3461:3481   */\n      sub\n        /* \"#utility.yul\":3456:3458   */\n      0x20\n        /* \"#utility.yul\":3445:3454   */\n      dup4\n        /* \"#utility.yul\":3441:3459   */\n      add\n        /* \"#utility.yul\":3434:3482   */\n      mstore\n        /* \"#utility.yul\":3499:3577   */\n      tag_131\n        /* \"#utility.yul\":3572:3576   */\n      dup2\n        /* \"#utility.yul\":3563:3569   */\n      dup6\n        /* \"#utility.yul\":3499:3577   */\n      tag_73\n      jump\t// in\n    tag_131:\n        /* \"#utility.yul\":3491:3577   */\n      swap1\n      pop\n        /* \"#utility.yul\":3587:3659   */\n      tag_132\n        /* \"#utility.yul\":3655:3657   */\n      0x40\n        /* \"#utility.yul\":3644:3653   */\n      dup4\n        /* \"#utility.yul\":3640:3658   */\n      add\n        /* \"#utility.yul\":3631:3637   */\n      dup5\n        /* \"#utility.yul\":3587:3659   */\n      tag_75\n      jump\t// in\n    tag_132:\n        /* \"#utility.yul\":3042:3666   */\n      swap5\n      swap4\n      pop\n      pop\n      pop\n      pop\n      jump\t// out\n        /* \"#utility.yul\":3672:3852   */\n    tag_76:\n        /* \"#utility.yul\":3720:3797   */\n      0x4e487b7100000000000000000000000000000000000000000000000000000000\n        /* \"#utility.yul\":3717:3718   */\n      0x00\n        /* \"#utility.yul\":3710:3798   */\n      mstore\n        /* \"#utility.yul\":3817:3821   */\n      0x22\n        /* \"#utility.yul\":3814:3815   */\n      0x04\n        /* \"#utility.yul\":3807:3822   */\n      mstore\n        /* \"#utility.yul\":3841:3845   */\n      0x24\n        /* \"#utility.yul\":3838:3839   */\n      0x00\n        /* \"#utility.yul\":3831:3846   */\n      revert\n        /* \"#utility.yul\":3858:4178   */\n    tag_41:\n        /* \"#utility.yul\":3902:3908   */\n      0x00\n        /* \"#utility.yul\":3939:3940   */\n      0x02\n        /* \"#utility.yul\":3933:3937   */\n      dup3\n        /* \"#utility.yul\":3929:3941   */\n      div\n        /* \"#utility.yul\":3919:3941   */\n      swap1\n      pop\n        /* \"#utility.yul\":3986:3987   */\n      0x01\n        /* \"#utility.yul\":3980:3984   */\n      dup3\n        /* \"#utility.yul\":3976:3988   */\n      and\n        /* \"#utility.yul\":4007:4025   */\n      dup1\n        /* \"#utility.yul\":3997:4078   */\n      tag_135\n      jumpi\n        /* \"#utility.yul\":4063:4067   */\n      0x7f\n        /* \"#utility.yul\":4055:4061   */\n      dup3\n        /* \"#utility.yul\":4051:4068   */\n      and\n        /* \"#utility.yul\":4041:4068   */\n      swap2\n      pop\n        /* \"#utility.yul\":3997:4078   */\n    tag_135:\n        /* \"#utility.yul\":4125:4127   */\n      0x20\n        /* \"#utility.yul\":4117:4123   */\n      dup3\n        /* \"#utility.yul\":4114:4128   */\n      lt\n        /* \"#utility.yul\":4094:4112   */\n      dup2\n        /* \"#utility.yul\":4091:4129   */\n      sub\n        /* \"#utility.yul\":4088:4172   */\n      tag_136\n      jumpi\n        /* \"#utility.yul\":4144:4162   */\n      tag_137\n      tag_76\n      jump\t// in\n    tag_137:\n        /* \"#utility.yul\":4088:4172   */\n    tag_136:\n        /* \"#utility.yul\":3909:4178   */\n      pop\n        /* \"#utility.yul\":3858:4178   */\n      swap2\n      swap1\n      pop\n      jump\t// out\n        /* \"#utility.yul\":4184:4364   */\n    tag_77:\n        /* \"#utility.yul\":4232:4309   */\n      0x4e487b7100000000000000000000000000000000000000000000000000000000\n        /* \"#utility.yul\":4229:4230   */\n      0x00\n        /* \"#utility.yul\":4222:4310   */\n      mstore\n        /* \"#utility.yul\":4329:4333   */\n      0x41\n        /* \"#utility.yul\":4326:4327   */\n      0x04\n        /* \"#utility.yul\":4319:4334   */\n      mstore\n        /* \"#utility.yul\":4353:4357   */\n      0x24\n        /* \"#utility.yul\":4350:4351   */\n      0x00\n        /* \"#utility.yul\":4343:4358   */\n      revert\n        /* \"#utility.yul\":4370:4511   */\n    tag_78:\n        /* \"#utility.yul\":4419:4423   */\n      0x00\n        /* \"#utility.yul\":4442:4445   */\n      dup2\n        /* \"#utility.yul\":4434:4445   */\n      swap1\n      pop\n        /* \"#utility.yul\":4465:4468   */\n      dup2\n        /* \"#utility.yul\":4462:4463   */\n      0x00\n        /* \"#utility.yul\":4455:4469   */\n      mstore\n        /* \"#utility.yul\":4499:4503   */\n      0x20\n        /* \"#utility.yul\":4496:4497   */\n      0x00\n        /* \"#utility.yul\":4486:4504   */\n      keccak256\n        /* \"#utility.yul\":4478:4504   */\n      swap1\n      pop\n        /* \"#utility.yul\":4370:4511   */\n      swap2\n      swap1\n      pop\n      jump\t// out\n        /* \"#utility.yul\":4517:4610   */\n    tag_79:\n        /* \"#utility.yul\":4554:4560   */\n      0x00\n        /* \"#utility.yul\":4601:4603   */\n      0x20\n        /* \"#utility.yul\":4596:4598   */\n      0x1f\n        /* \"#utility.yul\":4589:4594   */\n      dup4\n        /* \"#utility.yul\":4585:4599   */\n      add\n        /* \"#utility.yul\":4581:4604   */\n      div\n        /* \"#utility.yul\":4571:4604   */\n      swap1\n      pop\n        /* \"#utility.yul\":4517:4610   */\n      swap2\n      swap1\n      pop\n      jump\t// out\n        /* \"#utility.yul\":4616:4723   */\n    tag_80:\n        /* \"#utility.yul\":4660:4668   */\n      0x00\n        /* \"#utility.yul\":4710:4715   */\n      dup3\n        /* \"#utility.yul\":4704:4708   */\n      dup3\n        /* \"#utility.yul\":4700:4716   */\n      shl\n        /* \"#utility.yul\":4679:4716   */\n      swap1\n      pop\n        /* \"#utility.yul\":4616:4723   */\n      swap3\n      swap2\n      pop\n      pop\n      jump\t// out\n        /* \"#utility.yul\":4729:5122   */\n    tag_81:\n        /* \"#utility.yul\":4798:4804   */\n      0x00\n        /* \"#utility.yul\":4848:4849   */\n      0x08\n        /* \"#utility.yul\":4836:4846   */\n      dup4\n        /* \"#utility.yul\":4832:4850   */\n      mul\n        /* \"#utility.yul\":4871:4968   */\n      tag_143\n        /* \"#utility.yul\":4901:4967   */\n      0xffffffffffffffffffffffffffffffffffffffffffffffffffffffffffffffff\n        /* \"#utility.yul\":4890:4899   */\n      dup3\n        /* \"#utility.yul\":4871:4968   */\n      tag_80\n      jump\t// in\n    tag_143:\n        /* \"#utility.yul\":4989:5028   */\n      tag_144\n        /* \"#utility.yul\":5019:5027   */\n      dup7\n        /* \"#utility.yul\":5008:5017   */\n      dup4\n        /* \"#utility.yul\":4989:5028   */\n      tag_80\n      jump\t// in\n    tag_144:\n        /* \"#utility.yul\":4977:5028   */\n      swap6\n      pop\n        /* \"#utility.yul\":5061:5065   */\n      dup1\n        /* \"#utility.yul\":5057:5066   */\n      not\n        /* \"#utility.yul\":5050:5055   */\n      dup5\n        /* \"#utility.yul\":5046:5067   */\n      and\n        /* \"#utility.yul\":5037:5067   */\n      swap4\n      pop\n        /* \"#utility.yul\":5110:5114   */\n      dup1\n        /* \"#utility.yul\":5100:5108   */\n      dup7\n        /* \"#utility.yul\":5096:5115   */\n      and\n        /* \"#utility.yul\":5089:5094   */\n      dup5\n        /* \"#utility.yul\":5086:5116   */\n      or\n        /* \"#utility.yul\":5076:5116   */\n      swap3\n      pop\n        /* \"#utility.yul\":4805:5122   */\n      pop\n      pop\n        /* \"#utility.yul\":4729:5122   */\n      swap4\n      swap3\n      pop\n      pop\n      pop\n      jump\t// out\n        /* \"#utility.yul\":5128:5188   */\n    tag_82:\n        /* \"#utility.yul\":5156:5159   */\n      0x00\n        /* \"#utility.yul\":5177:5182   */\n      dup2\n        /* \"#utility.yul\":5170:5182   */\n      swap1\n      pop\n        /* \"#utility.yul\":5128:5188   */\n      swap2\n      swap1\n      pop\n      jump\t// out\n        /* \"#utility.yul\":5194:5336   */\n    tag_83:\n        /* \"#utility.yul\":5244:5253   */\n      0x00\n        /* \"#utility.yul\":5277:5330   */\n      tag_147\n        /* \"#utility.yul\":5295:5329   */\n      tag_148\n        /* \"#utility.yul\":5304:5328   */\n      tag_149\n        /* \"#utility.yul\":5322:5327   */\n      dup5\n        /* \"#utility.yul\":5304:5328   */\n      tag_74\n      jump\t// in\n    tag_149:\n        /* \"#utility.yul\":5295:5329   */\n      tag_82\n      jump\t// in\n    tag_148:\n        /* \"#utility.yul\":5277:5330   */\n      tag_74\n      jump\t// in\n    tag_147:\n        /* \"#utility.yul\":5264:5330   */\n      swap1\n      pop\n        /* \"#utility.yul\":5194:5336   */\n      swap2\n      swap1\n      pop\n      jump\t// out\n        /* \"#utility.yul\":5342:5417   */\n    tag_84:\n        /* \"#utility.yul\":5385:5388   */\n      0x00\n        /* \"#utility.yul\":5406:5411   */\n      dup2\n        /* \"#utility.yul\":5399:5411   */\n      swap1\n      pop\n        /* \"#utility.yul\":5342:5417   */\n      swap2\n      swap1\n      pop\n      jump\t// out\n        /* \"#utility.yul\":5423:5692   */\n    tag_85:\n        /* \"#utility.yul\":5533:5572   */\n      tag_152\n        /* \"#utility.yul\":5564:5571   */\n      dup4\n        /* \"#utility.yul\":5533:5572   */\n      tag_83\n      jump\t// in\n    tag_152:\n        /* \"#utility.yul\":5594:5685   */\n      tag_153\n        /* \"#utility.yul\":5643:5684   */\n      tag_154\n        /* \"#utility.yul\":5667:5683   */\n      dup3\n        /* \"#utility.yul\":5643:5684   */\n      tag_84\n      jump\t// in\n    tag_154:\n        /* \"#utility.yul\":5635:5641   */\n      dup5\n        /* \"#utility.yul\":5628:5632   */\n      dup5\n        /* \"#utility.yul\":5622:5633   */\n      sload\n        /* \"#utility.yul\":5594:5685   */\n      tag_81\n      jump\t// in\n    tag_153:\n        /* \"#utility.yul\":5588:5592   */\n      dup3\n        /* \"#utility.yul\":5581:5686   */\n      sstore\n        /* \"#utility.yul\":5499:5692   */\n      pop\n        /* \"#utility.yul\":5423:5692   */\n      pop\n      pop\n      pop\n      jump\t// out\n        /* \"#utility.yul\":5698:5771   */\n    tag_86:\n        /* \"#utility.yul\":5743:5746   */\n      0x00\n        /* \"#utility.yul\":5698:5771   */\n      swap1\n      jump\t// out\n        /* \"#utility.yul\":5777:5966   */\n    tag_87:\n        /* \"#utility.yul\":5854:5886   */\n      tag_157\n      tag_86\n      jump\t// in\n    tag_157:\n        /* \"#utility.yul\":5895:5960   */\n      tag_158\n        /* \"#utility.yul\":5953:5959   */\n      dup2\n        /* \"#utility.yul\":5945:5951   */\n      dup5\n        /* \"#utility.yul\":5939:5943   */\n      dup5\n        /* \"#utility.yul\":5895:5960   */\n      tag_85\n      jump\t// in\n    tag_158:\n        /* \"#utility.yul\":5830:5966   */\n      pop\n        /* \"#utility.yul\":5777:5966   */\n      pop\n      pop\n      jump\t// out\n        /* \"#utility.yul\":5972:6158   */\n    tag_88:\n        /* \"#utility.yul\":6032:6152   */\n    tag_160:\n        /* \"#utility.yul\":6049:6052   */\n      dup2\n        /* \"#utility.yul\":6042:6047   */\n      dup2\n        /* \"#utility.yul\":6039:6053   */\n      lt\n        /* \"#utility.yul\":6032:6152   */\n      iszero\n      tag_162\n      jumpi\n        /* \"#utility.yul\":6103:6142   */\n      tag_163\n        /* \"#utility.yul\":6140:6141   */\n      0x00\n        /* \"#utility.yul\":6133:6138   */\n      dup3\n        /* \"#utility.yul\":6103:6142   */\n      tag_87\n      jump\t// in\n    tag_163:\n        /* \"#utility.yul\":6076:6077   */\n      0x01\n        /* \"#utility.yul\":6069:6074   */\n      dup2\n        /* \"#utility.yul\":6065:6078   */\n      add\n        /* \"#utility.yul\":6056:6078   */\n      swap1\n      pop\n        /* \"#utility.yul\":6032:6152   */\n      jump(tag_160)\n    tag_162:\n        /* \"#utility.yul\":5972:6158   */\n      pop\n      pop\n      jump\t// out\n        /* \"#utility.yul\":6164:6707   */\n    tag_89:\n        /* \"#utility.yul\":6265:6267   */\n      0x1f\n        /* \"#utility.yul\":6260:6263   */\n      dup3\n        /* \"#utility.yul\":6257:6268   */\n      gt\n        /* \"#utility.yul\":6254:6700   */\n      iszero\n      tag_165\n      jumpi\n        /* \"#utility.yul\":6299:6337   */\n      tag_166\n        /* \"#utility.yul\":6331:6336   */\n      dup2\n        /* \"#utility.yul\":6299:6337   */\n      tag_78\n      jump\t// in\n    tag_166:\n        /* \"#utility.yul\":6383:6412   */\n      tag_167\n        /* \"#utility.yul\":6401:6411   */\n      dup5\n        /* \"#utility.yul\":6383:6412   */\n      tag_79\n      jump\t// in\n    tag_167:\n        /* \"#utility.yul\":6373:6381   */\n      dup2\n        /* \"#utility.yul\":6369:6413   */\n      add\n        /* \"#utility.yul\":6566:6568   */\n      0x20\n        /* \"#utility.yul\":6554:6564   */\n      dup6\n        /* \"#utility.yul\":6551:6569   */\n      lt\n        /* \"#utility.yul\":6548:6597   */\n      iszero\n      tag_168\n      jumpi\n        /* \"#utility.yul\":6587:6595   */\n      dup2\n        /* \"#utility.yul\":6572:6595   */\n      swap1\n      pop\n        /* \"#utility.yul\":6548:6597   */\n    tag_168:\n        /* \"#utility.yul\":6610:6690   */\n      tag_169\n        /* \"#utility.yul\":6666:6688   */\n      tag_170\n        /* \"#utility.yul\":6684:6687   */\n      dup6\n        /* \"#utility.yul\":6666:6688   */\n      tag_79\n      jump\t// in\n    tag_170:\n        /* \"#utility.yul\":6656:6664   */\n      dup4\n        /* \"#utility.yul\":6652:6689   */\n      add\n        /* \"#utility.yul\":6639:6650   */\n      dup3\n        /* \"#utility.yul\":6610:6690   */\n      tag_88\n      jump\t// in\n    tag_169:\n        /* \"#utility.yul\":6269:6700   */\n      pop\n      pop\n        /* \"#utility.yul\":6254:6700   */\n    tag_165:\n        /* \"#utility.yul\":6164:6707   */\n      pop\n      pop\n      pop\n      jump\t// out\n        /* \"#utility.yul\":6713:6830   */\n    tag_90:\n        /* \"#utility.yul\":6767:6775   */\n      0x00\n        /* \"#utility.yul\":6817:6822   */\n      dup3\n        /* \"#utility.yul\":6811:6815   */\n      dup3\n        /* \"#utility.yul\":6807:6823   */\n      shr\n        /* \"#utility.yul\":6786:6823   */\n      swap1\n      pop\n        /* \"#utility.yul\":6713:6830   */\n      swap3\n      swap2\n      pop\n      pop\n      jump\t// out\n        /* \"#utility.yul\":6836:7005   */\n    tag_91:\n        /* \"#utility.yul\":6880:6886   */\n      0x00\n        /* \"#utility.yul\":6913:6964   */\n      tag_173\n        /* \"#utility.yul\":6961:6962   */\n      0x00\n        /* \"#utility.yul\":6957:6963   */\n      not\n        /* \"#utility.yul\":6949:6954   */\n      dup5\n        /* \"#utility.yul\":6946:6947   */\n      0x08\n        /* \"#utility.yul\":6942:6955   */\n      mul\n        /* \"#utility.yul\":6913:6964   */\n      tag_90\n      jump\t// in\n    tag_173:\n        /* \"#utility.yul\":6909:6965   */\n      not\n        /* \"#utility.yul\":6994:6998   */\n      dup1\n        /* \"#utility.yul\":6988:6992   */\n      dup4\n        /* \"#utility.yul\":6984:6999   */\n      and\n        /* \"#utility.yul\":6974:6999   */\n      swap2\n      pop\n        /* \"#utility.yul\":6887:7005   */\n      pop\n        /* \"#utility.yul\":6836:7005   */\n      swap3\n      swap2\n      pop\n      pop\n      jump\t// out\n        /* \"#utility.yul\":7010:7305   */\n    tag_92:\n        /* \"#utility.yul\":7086:7090   */\n      0x00\n        /* \"#utility.yul\":7232:7261   */\n      tag_175\n        /* \"#utility.yul\":7257:7260   */\n      dup4\n        /* \"#utility.yul\":7251:7255   */\n      dup4\n        /* \"#utility.yul\":7232:7261   */\n      tag_91\n      jump\t// in\n    tag_175:\n        /* \"#utility.yul\":7224:7261   */\n      swap2\n      pop\n        /* \"#utility.yul\":7294:7297   */\n      dup3\n        /* \"#utility.yul\":7291:7292   */\n      0x02\n        /* \"#utility.yul\":7287:7298   */\n      mul\n        /* \"#utility.yul\":7281:7285   */\n      dup3\n        /* \"#utility.yul\":7278:7299   */\n      or\n        /* \"#utility.yul\":7270:7299   */\n      swap1\n      pop\n        /* \"#utility.yul\":7010:7305   */\n      swap3\n      swap2\n      pop\n      pop\n      jump\t// out\n        /* \"#utility.yul\":7310:8705   */\n    tag_53:\n        /* \"#utility.yul\":7427:7464   */\n      tag_177\n        /* \"#utility.yul\":7460:7463   */\n      dup3\n        /* \"#utility.yul\":7427:7464   */\n      tag_69\n      jump\t// in\n    tag_177:\n        /* \"#utility.yul\":7529:7547   */\n      0xffffffffffffffff\n        /* \"#utility.yul\":7521:7527   */\n      dup2\n        /* \"#utility.yul\":7518:7548   */\n      gt\n        /* \"#utility.yul\":7515:7571   */\n      iszero\n      tag_178\n      jumpi\n        /* \"#utility.yul\":7551:7569   */\n      tag_179\n      tag_77\n      jump\t// in\n    tag_179:\n        /* \"#utility.yul\":7515:7571   */\n    tag_178:\n        /* \"#utility.yul\":7595:7633   */\n      tag_180\n        /* \"#utility.yul\":7627:7631   */\n      dup3\n        /* \"#utility.yul\":7621:7632   */\n      sload\n        /* \"#utility.yul\":7595:7633   */\n      tag_41\n      jump\t// in\n    tag_180:\n        /* \"#utility.yul\":7680:7747   */\n      tag_181\n        /* \"#utility.yul\":7740:7746   */\n      dup3\n        /* \"#utility.yul\":7732:7738   */\n      dup3\n        /* \"#utility.yul\":7726:7730   */\n      dup6\n        /* \"#utility.yul\":7680:7747   */\n      tag_89\n      jump\t// in\n    tag_181:\n        /* \"#utility.yul\":7774:7775   */\n      0x00\n        /* \"#utility.yul\":7798:7802   */\n      0x20\n        /* \"#utility.yul\":7785:7802   */\n      swap1\n      pop\n        /* \"#utility.yul\":7830:7832   */\n      0x1f\n        /* \"#utility.yul\":7822:7828   */\n      dup4\n        /* \"#utility.yul\":7819:7833   */\n      gt\n        /* \"#utility.yul\":7847:7848   */\n      0x01\n        /* \"#utility.yul\":7842:8460   */\n      dup2\n      eq\n      tag_183\n      jumpi\n        /* \"#utility.yul\":8504:8505   */\n      0x00\n        /* \"#utility.yul\":8521:8527   */\n      dup5\n        /* \"#utility.yul\":8518:8595   */\n      iszero\n      tag_184\n      jumpi\n        /* \"#utility.yul\":8570:8579   */\n      dup3\n        /* \"#utility.yul\":8565:8568   */\n      dup8\n        /* \"#utility.yul\":8561:8580   */\n      add\n        /* \"#utility.yul\":8555:8581   */\n      mload\n        /* \"#utility.yul\":8546:8581   */\n      swap1\n      pop\n        /* \"#utility.yul\":8518:8595   */\n    tag_184:\n        /* \"#utility.yul\":8621:8688   */\n      tag_185\n        /* \"#utility.yul\":8681:8687   */\n      dup6\n        /* \"#utility.yul\":8674:8679   */\n      dup3\n        /* \"#utility.yul\":8621:8688   */\n      tag_92\n      jump\t// in\n    tag_185:\n        /* \"#utility.yul\":8615:8619   */\n      dup7\n        /* \"#utility.yul\":8608:8689   */\n      sstore\n        /* \"#utility.yul\":8477:8699   */\n      pop\n        /* \"#utility.yul\":7812:8699   */\n      jump(tag_182)\n        /* \"#utility.yul\":7842:8460   */\n    tag_183:\n        /* \"#utility.yul\":7894:7898   */\n      0x1f\n        /* \"#utility.yul\":7890:7899   */\n      not\n        /* \"#utility.yul\":7882:7888   */\n      dup5\n        /* \"#utility.yul\":7878:7900   */\n      and\n        /* \"#utility.yul\":7928:7965   */\n      tag_186\n        /* \"#utility.yul\":7960:7964   */\n      dup7\n        /* \"#utility.yul\":7928:7965   */\n      tag_78\n      jump\t// in\n    tag_186:\n        /* \"#utility.yul\":7987:7988   */\n      0x00\n        /* \"#utility.yul\":8001:8209   */\n    tag_187:\n        /* \"#utility.yul\":8015:8022   */\n      dup3\n        /* \"#utility.yul\":8012:8013   */\n      dup2\n        /* \"#utility.yul\":8009:8023   */\n      lt\n        /* \"#utility.yul\":8001:8209   */\n      iszero\n      tag_189\n      jumpi\n        /* \"#utility.yul\":8094:8103   */\n      dup5\n        /* \"#utility.yul\":8089:8092   */\n      dup10\n        /* \"#utility.yul\":8085:8104   */\n      add\n        /* \"#utility.yul\":8079:8105   */\n      mload\n        /* \"#utility.yul\":8071:8077   */\n      dup3\n        /* \"#utility.yul\":8064:8106   */\n      sstore\n        /* \"#utility.yul\":8145:8146   */\n      0x01\n        /* \"#utility.yul\":8137:8143   */\n      dup3\n        /* \"#utility.yul\":8133:8147   */\n      add\n        /* \"#utility.yul\":8123:8147   */\n      swap2\n      pop\n        /* \"#utility.yul\":8192:8194   */\n      0x20\n        /* \"#utility.yul\":8181:8190   */\n      dup6\n        /* \"#utility.yul\":8177:8195   */\n      add\n        /* \"#utility.yul\":8164:8195   */\n      swap5\n      pop\n        /* \"#utility.yul\":8038:8042   */\n      0x20\n        /* \"#utility.yul\":8035:8036   */\n      dup2\n        /* \"#utility.yul\":8031:8043   */\n      add\n        /* \"#utility.yul\":8026:8043   */\n      swap1\n      pop\n        /* \"#utility.yul\":8001:8209   */\n      jump(tag_187)\n    tag_189:\n        /* \"#utility.yul\":8237:8243   */\n      dup7\n        /* \"#utility.yul\":8228:8235   */\n      dup4\n        /* \"#utility.yul\":8225:8244   */\n      lt\n        /* \"#utility.yul\":8222:8401   */\n      iszero\n      tag_190\n      jumpi\n        /* \"#utility.yul\":8295:8304   */\n      dup5\n        /* \"#utility.yul\":8290:8293   */\n      dup10\n        /* \"#utility.yul\":8286:8305   */\n      add\n        /* \"#utility.yul\":8280:8306   */\n      mload\n        /* \"#utility.yul\":8338:8386   */\n      tag_191\n        /* \"#utility.yul\":8380:8384   */\n      0x1f\n        /* \"#utility.yul\":8372:8378   */\n      dup10\n        /* \"#utility.yul\":8368:8385   */\n      and\n        /* \"#utility.yul\":8357:8366   */\n      dup3\n        /* \"#utility.yul\":8338:8386   */\n      tag_91\n      jump\t// in\n    tag_191:\n        /* \"#utility.yul\":8330:8336   */\n      dup4\n        /* \"#utility.yul\":8323:8387   */\n      sstore\n        /* \"#utility.yul\":8245:8401   */\n      pop\n        /* \"#utility.yul\":8222:8401   */\n    tag_190:\n        /* \"#utility.yul\":8447:8448   */\n      0x01\n        /* \"#utility.yul\":8443:8444   */\n      0x02\n        /* \"#utility.yul\":8435:8441   */\n      dup9\n        /* \"#utility.yul\":8431:8445   */\n      mul\n        /* \"#utility.yul\":8427:8449   */\n      add\n        /* \"#utility.yul\":8421:8425   */\n      dup9\n        /* \"#utility.yul\":8414:8450   */\n      sstore\n        /* \"#utility.yul\":7849:8460   */\n      pop\n      pop\n      pop\n        /* \"#utility.yul\":7812:8699   */\n    tag_182:\n      pop\n        /* \"#utility.yul\":7402:8705   */\n      pop\n      pop\n      pop\n        /* \"#utility.yul\":7310:8705   */\n      pop\n      pop\n      jump\t// out\n\n    auxdata: 0xa2646970667358221220a23578cc1b4f97e2f24ca113d790a01e8c93488c76ea90672819654e3310f46264736f6c634300081a0033\n}\n",
				"bytecode": {
					"linkReferences": {},
					"object": "6080604052348015600e575f80fd5b505f805f6101000a81548160ff02191690836004811115602f57602e6038565b5b02179055506065565b7f4e487b71000000000000000000000000000000000000000000000000000000005f52602160045260245ffd5b610872806100725f395ff3fe608060405234801561000f575f80fd5b5060043610610086575f3560e01c8063d826f88f11610059578063d826f88f146100ee578063ea8a1af0146100f8578063ef8a923514610102578063ff3c1a8f1461012057610086565b806324b8ba5f1461008a5780636d4ce63c146100a6578063aab27ef7146100c4578063d629546c146100e4575b5f80fd5b6100a4600480360381019061009f91906103c4565b61012a565b005b6100ae610155565b6040516100bb9190610462565b60405180910390f35b6100cc610169565b6040516100db93929190610503565b60405180910390f35b6100ec61028c565b005b6100f661034e565b005b610100610360565b005b61010a61038b565b6040516101179190610462565b60405180910390f35b61012861039b565b005b805f806101000a81548160ff0219169083600481111561014d5761014c6103ef565b5b021790555050565b5f805f9054906101000a900460ff16905090565b6001805f01805461017990610573565b80601f01602080910402602001604051908101604052809291908181526020018280546101a590610573565b80156101f05780601f106101c7576101008083540402835291602001916101f0565b820191905f5260205f20905b8154815290600101906020018083116101d357829003601f168201915b50505050509080600101805461020590610573565b80601f016020809104026020016040519081016040528092919081815260200182805461023190610573565b801561027c5780601f106102535761010080835404028352916020019161027c565b820191905f5260205f20905b81548152906001019060200180831161025f57829003601f168201915b5050505050908060020154905083565b60405180606001604052806040518060400160405280600c81526020017f41746f6d6963206861626974000000000000000000000000000000000000000081525081526020016040518060400160405280600b81526020017f4a616d657320436c65617200000000000000000000000000000000000000000081525081526020016107d081525060015f820151815f019081610328919061076d565b50602082015181600101908161033e919061076d565b5060408201518160020155905050565b5f806101000a81549060ff0219169055565b60045f806101000a81548160ff02191690836004811115610384576103836103ef565b5b0217905550565b5f8054906101000a900460ff1681565b565b5f80fd5b600581106103ad575f80fd5b50565b5f813590506103be816103a1565b92915050565b5f602082840312156103d9576103d861039d565b5b5f6103e6848285016103b0565b91505092915050565b7f4e487b71000000000000000000000000000000000000000000000000000000005f52602160045260245ffd5b6005811061042d5761042c6103ef565b5b50565b5f81905061043d8261041c565b919050565b5f61044c82610430565b9050919050565b61045c81610442565b82525050565b5f6020820190506104755f830184610453565b92915050565b5f81519050919050565b5f82825260208201905092915050565b8281835e5f83830152505050565b5f601f19601f8301169050919050565b5f6104bd8261047b565b6104c78185610485565b93506104d7818560208601610495565b6104e0816104a3565b840191505092915050565b5f819050919050565b6104fd816104eb565b82525050565b5f6060820190508181035f83015261051b81866104b3565b9050818103602083015261052f81856104b3565b905061053e60408301846104f4565b949350505050565b7f4e487b71000000000000000000000000000000000000000000000000000000005f52602260045260245ffd5b5f600282049050600182168061058a57607f821691505b60208210810361059d5761059c610546565b5b50919050565b7f4e487b71000000000000000000000000000000000000000000000000000000005f52604160045260245ffd5b5f819050815f5260205f209050919050565b5f6020601f8301049050919050565b5f82821b905092915050565b5f6008830261062c7fffffffffffffffffffffffffffffffffffffffffffffffffffffffffffffffff826105f1565b61063686836105f1565b95508019841693508086168417925050509392505050565b5f819050919050565b5f61067161066c610667846104eb565b61064e565b6104eb565b9050919050565b5f819050919050565b61068a83610657565b61069e61069682610678565b8484546105fd565b825550505050565b5f90565b6106b26106a6565b6106bd818484610681565b505050565b5b818110156106e0576106d55f826106aa565b6001810190506106c3565b5050565b601f821115610725576106f6816105d0565b6106ff846105e2565b8101602085101561070e578190505b61072261071a856105e2565b8301826106c2565b50505b505050565b5f82821c905092915050565b5f6107455f198460080261072a565b1980831691505092915050565b5f61075d8383610736565b9150826002028217905092915050565b6107768261047b565b67ffffffffffffffff81111561078f5761078e6105a3565b5b6107998254610573565b6107a48282856106e4565b5f60209050601f8311600181146107d5575f84156107c3578287015190505b6107cd8582610752565b865550610834565b601f1984166107e3866105d0565b5f5b8281101561080a578489015182556001820191506020850194506020810190506107e5565b868310156108275784890151610823601f891682610736565b8355505b6001600288020188555050505b50505050505056fea2646970667358221220a23578cc1b4f97e2f24ca113d790a01e8c93488c76ea90672819654e3310f46264736f6c634300081a0033",
					"opcodes": "PUSH1 0x80 PUSH1 0x40 MSTORE CALLVALUE DUP1 ISZERO PUSH1 0xE JUMPI PUSH0 DUP1 REVERT JUMPDEST POP PUSH0 DUP1 PUSH0 PUSH2 0x100 EXP DUP2 SLOAD DUP2 PUSH1 0xFF MUL NOT AND SWAP1 DUP4 PUSH1 0x4 DUP2 GT ISZERO PUSH1 0x2F JUMPI PUSH1 0x2E PUSH1 0x38 JUMP JUMPDEST JUMPDEST MUL OR SWAP1 SSTORE POP PUSH1 0x65 JUMP JUMPDEST PUSH32 0x4E487B7100000000000000000000000000000000000000000000000000000000 PUSH0 MSTORE PUSH1 0x21 PUSH1 0x4 MSTORE PUSH1 0x24 PUSH0 REVERT JUMPDEST PUSH2 0x872 DUP1 PUSH2 0x72 PUSH0 CODECOPY PUSH0 RETURN INVALID PUSH1 0x80 PUSH1 0x40 MSTORE CALLVALUE DUP1 ISZERO PUSH2 0xF JUMPI PUSH0 DUP1 REVERT JUMPDEST POP PUSH1 0x4 CALLDATASIZE LT PUSH2 0x86 JUMPI PUSH0 CALLDATALOAD PUSH1 0xE0 SHR DUP1 PUSH4 0xD826F88F GT PUSH2 0x59 JUMPI DUP1 PUSH4 0xD826F88F EQ PUSH2 0xEE JUMPI DUP1 PUSH4 0xEA8A1AF0 EQ PUSH2 0xF8 JUMPI DUP1 PUSH4 0xEF8A9235 EQ PUSH2 0x102 JUMPI DUP1 PUSH4 0xFF3C1A8F EQ PUSH2 0x120 JUMPI PUSH2 0x86 JUMP JUMPDEST DUP1 PUSH4 0x24B8BA5F EQ PUSH2 0x8A JUMPI DUP1 PUSH4 0x6D4CE63C EQ PUSH2 0xA6 JUMPI DUP1 PUSH4 0xAAB27EF7 EQ PUSH2 0xC4 JUMPI DUP1 PUSH4 0xD629546C EQ PUSH2 0xE4 JUMPI JUMPDEST PUSH0 DUP1 REVERT JUMPDEST PUSH2 0xA4 PUSH1 0x4 DUP1 CALLDATASIZE SUB DUP2 ADD SWAP1 PUSH2 0x9F SWAP2 SWAP1 PUSH2 0x3C4 JUMP JUMPDEST PUSH2 0x12A JUMP JUMPDEST STOP JUMPDEST PUSH2 0xAE PUSH2 0x155 JUMP JUMPDEST PUSH1 0x40 MLOAD PUSH2 0xBB SWAP2 SWAP1 PUSH2 0x462 JUMP JUMPDEST PUSH1 0x40 MLOAD DUP1 SWAP2 SUB SWAP1 RETURN JUMPDEST PUSH2 0xCC PUSH2 0x169 JUMP JUMPDEST PUSH1 0x40 MLOAD PUSH2 0xDB SWAP4 SWAP3 SWAP2 SWAP1 PUSH2 0x503 JUMP JUMPDEST PUSH1 0x40 MLOAD DUP1 SWAP2 SUB SWAP1 RETURN JUMPDEST PUSH2 0xEC PUSH2 0x28C JUMP JUMPDEST STOP JUMPDEST PUSH2 0xF6 PUSH2 0x34E JUMP JUMPDEST STOP JUMPDEST PUSH2 0x100 PUSH2 0x360 JUMP JUMPDEST STOP JUMPDEST PUSH2 0x10A PUSH2 0x38B JUMP JUMPDEST PUSH1 0x40 MLOAD PUSH2 0x117 SWAP2 SWAP1 PUSH2 0x462 JUMP JUMPDEST PUSH1 0x40 MLOAD DUP1 SWAP2 SUB SWAP1 RETURN JUMPDEST PUSH2 0x128 PUSH2 0x39B JUMP JUMPDEST STOP JUMPDEST DUP1 PUSH0 DUP1 PUSH2 0x100 EXP DUP2 SLOAD DUP2 PUSH1 0xFF MUL NOT AND SWAP1 DUP4 PUSH1 0x4 DUP2 GT ISZERO PUSH2 0x14D JUMPI PUSH2 0x14C PUSH2 0x3EF JUMP JUMPDEST JUMPDEST MUL OR SWAP1 SSTORE POP POP JUMP JUMPDEST PUSH0 DUP1 PUSH0 SWAP1 SLOAD SWAP1 PUSH2 0x100 EXP SWAP1 DIV PUSH1 0xFF AND SWAP1 POP SWAP1 JUMP JUMPDEST PUSH1 0x1 DUP1 PUSH0 ADD DUP1 SLOAD PUSH2 0x179 SWAP1 PUSH2 0x573 JUMP JUMPDEST DUP1 PUSH1 0x1F ADD PUSH1 0x20 DUP1 SWAP2 DIV MUL PUSH1 0x20 ADD PUSH1 0x40 MLOAD SWAP1 DUP2 ADD PUSH1 0x40 MSTORE DUP1 SWAP3 SWAP2 SWAP1 DUP2 DUP2 MSTORE PUSH1 0x20 ADD DUP3 DUP1 SLOAD PUSH2 0x1A5 SWAP1 PUSH2 0x573 JUMP JUMPDEST DUP1 ISZERO PUSH2 0x1F0 JUMPI DUP1 PUSH1 0x1F LT PUSH2 0x1C7 JUMPI PUSH2 0x100 DUP1 DUP4 SLOAD DIV MUL DUP4 MSTORE SWAP2 PUSH1 0x20 ADD SWAP2 PUSH2 0x1F0 JUMP JUMPDEST DUP3 ADD SWAP2 SWAP1 PUSH0 MSTORE PUSH1 0x20 PUSH0 KECCAK256 SWAP1 JUMPDEST DUP2 SLOAD DUP2 MSTORE SWAP1 PUSH1 0x1 ADD SWAP1 PUSH1 0x20 ADD DUP1 DUP4 GT PUSH2 0x1D3 JUMPI DUP3 SWAP1 SUB PUSH1 0x1F AND DUP3 ADD SWAP2 JUMPDEST POP POP POP POP POP SWAP1 DUP1 PUSH1 0x1 ADD DUP1 SLOAD PUSH2 0x205 SWAP1 PUSH2 0x573 JUMP JUMPDEST DUP1 PUSH1 0x1F ADD PUSH1 0x20 DUP1 SWAP2 DIV MUL PUSH1 0x20 ADD PUSH1 0x40 MLOAD SWAP1 DUP2 ADD PUSH1 0x40 MSTORE DUP1 SWAP3 SWAP2 SWAP1 DUP2 DUP2 MSTORE PUSH1 0x20 ADD DUP3 DUP1 SLOAD PUSH2 0x231 SWAP1 PUSH2 0x573 JUMP JUMPDEST DUP1 ISZERO PUSH2 0x27C JUMPI DUP1 PUSH1 0x1F LT PUSH2 0x253 JUMPI PUSH2 0x100 DUP1 DUP4 SLOAD DIV MUL DUP4 MSTORE SWAP2 PUSH1 0x20 ADD SWAP2 PUSH2 0x27C JUMP JUMPDEST DUP3 ADD SWAP2 SWAP1 PUSH0 MSTORE PUSH1 0x20 PUSH0 KECCAK256 SWAP1 JUMPDEST DUP2 SLOAD DUP2 MSTORE SWAP1 PUSH1 0x1 ADD SWAP1 PUSH1 0x20 ADD DUP1 DUP4 GT PUSH2 0x25F JUMPI DUP3 SWAP1 SUB PUSH1 0x1F AND DUP3 ADD SWAP2 JUMPDEST POP POP POP POP POP SWAP1 DUP1 PUSH1 0x2 ADD SLOAD SWAP1 POP DUP4 JUMP JUMPDEST PUSH1 0x40 MLOAD DUP1 PUSH1 0x60 ADD PUSH1 0x40 MSTORE DUP1 PUSH1 0x40 MLOAD DUP1 PUSH1 0x40 ADD PUSH1 0x40 MSTORE DUP1 PUSH1 0xC DUP2 MSTORE PUSH1 0x20 ADD PUSH32 0x41746F6D69632068616269740000000000000000000000000000000000000000 DUP2 MSTORE POP DUP2 MSTORE PUSH1 0x20 ADD PUSH1 0x40 MLOAD DUP1 PUSH1 0x40 ADD PUSH1 0x40 MSTORE DUP1 PUSH1 0xB DUP2 MSTORE PUSH1 0x20 ADD PUSH32 0x4A616D657320436C656172000000000000000000000000000000000000000000 DUP2 MSTORE POP DUP2 MSTORE PUSH1 0x20 ADD PUSH2 0x7D0 DUP2 MSTORE POP PUSH1 0x1 PUSH0 DUP3 ADD MLOAD DUP2 PUSH0 ADD SWAP1 DUP2 PUSH2 0x328 SWAP2 SWAP1 PUSH2 0x76D JUMP JUMPDEST POP PUSH1 0x20 DUP3 ADD MLOAD DUP2 PUSH1 0x1 ADD SWAP1 DUP2 PUSH2 0x33E SWAP2 SWAP1 PUSH2 0x76D JUMP JUMPDEST POP PUSH1 0x40 DUP3 ADD MLOAD DUP2 PUSH1 0x2 ADD SSTORE SWAP1 POP POP JUMP JUMPDEST PUSH0 DUP1 PUSH2 0x100 EXP DUP2 SLOAD SWAP1 PUSH1 0xFF MUL NOT AND SWAP1 SSTORE JUMP JUMPDEST PUSH1 0x4 PUSH0 DUP1 PUSH2 0x100 EXP DUP2 SLOAD DUP2 PUSH1 0xFF MUL NOT AND SWAP1 DUP4 PUSH1 0x4 DUP2 GT ISZERO PUSH2 0x384 JUMPI PUSH2 0x383 PUSH2 0x3EF JUMP JUMPDEST JUMPDEST MUL OR SWAP1 SSTORE POP JUMP JUMPDEST PUSH0 DUP1 SLOAD SWAP1 PUSH2 0x100 EXP SWAP1 DIV PUSH1 0xFF AND DUP2 JUMP JUMPDEST JUMP JUMPDEST PUSH0 DUP1 REVERT JUMPDEST PUSH1 0x5 DUP2 LT PUSH2 0x3AD JUMPI PUSH0 DUP1 REVERT JUMPDEST POP JUMP JUMPDEST PUSH0 DUP2 CALLDATALOAD SWAP1 POP PUSH2 0x3BE DUP2 PUSH2 0x3A1 JUMP JUMPDEST SWAP3 SWAP2 POP POP JUMP JUMPDEST PUSH0 PUSH1 0x20 DUP3 DUP5 SUB SLT ISZERO PUSH2 0x3D9 JUMPI PUSH2 0x3D8 PUSH2 0x39D JUMP JUMPDEST JUMPDEST PUSH0 PUSH2 0x3E6 DUP5 DUP3 DUP6 ADD PUSH2 0x3B0 JUMP JUMPDEST SWAP2 POP POP SWAP3 SWAP2 POP POP JUMP JUMPDEST PUSH32 0x4E487B7100000000000000000000000000000000000000000000000000000000 PUSH0 MSTORE PUSH1 0x21 PUSH1 0x4 MSTORE PUSH1 0x24 PUSH0 REVERT JUMPDEST PUSH1 0x5 DUP2 LT PUSH2 0x42D JUMPI PUSH2 0x42C PUSH2 0x3EF JUMP JUMPDEST JUMPDEST POP JUMP JUMPDEST PUSH0 DUP2 SWAP1 POP PUSH2 0x43D DUP3 PUSH2 0x41C JUMP JUMPDEST SWAP2 SWAP1 POP JUMP JUMPDEST PUSH0 PUSH2 0x44C DUP3 PUSH2 0x430 JUMP JUMPDEST SWAP1 POP SWAP2 SWAP1 POP JUMP JUMPDEST PUSH2 0x45C DUP2 PUSH2 0x442 JUMP JUMPDEST DUP3 MSTORE POP POP JUMP JUMPDEST PUSH0 PUSH1 0x20 DUP3 ADD SWAP1 POP PUSH2 0x475 PUSH0 DUP4 ADD DUP5 PUSH2 0x453 JUMP JUMPDEST SWAP3 SWAP2 POP POP JUMP JUMPDEST PUSH0 DUP2 MLOAD SWAP1 POP SWAP2 SWAP1 POP JUMP JUMPDEST PUSH0 DUP3 DUP3 MSTORE PUSH1 0x20 DUP3 ADD SWAP1 POP SWAP3 SWAP2 POP POP JUMP JUMPDEST DUP3 DUP2 DUP4 MCOPY PUSH0 DUP4 DUP4 ADD MSTORE POP POP POP JUMP JUMPDEST PUSH0 PUSH1 0x1F NOT PUSH1 0x1F DUP4 ADD AND SWAP1 POP SWAP2 SWAP1 POP JUMP JUMPDEST PUSH0 PUSH2 0x4BD DUP3 PUSH2 0x47B JUMP JUMPDEST PUSH2 0x4C7 DUP2 DUP6 PUSH2 0x485 JUMP JUMPDEST SWAP4 POP PUSH2 0x4D7 DUP2 DUP6 PUSH1 0x20 DUP7 ADD PUSH2 0x495 JUMP JUMPDEST PUSH2 0x4E0 DUP2 PUSH2 0x4A3 JUMP JUMPDEST DUP5 ADD SWAP2 POP POP SWAP3 SWAP2 POP POP JUMP JUMPDEST PUSH0 DUP2 SWAP1 POP SWAP2 SWAP1 POP JUMP JUMPDEST PUSH2 0x4FD DUP2 PUSH2 0x4EB JUMP JUMPDEST DUP3 MSTORE POP POP JUMP JUMPDEST PUSH0 PUSH1 0x60 DUP3 ADD SWAP1 POP DUP2 DUP2 SUB PUSH0 DUP4 ADD MSTORE PUSH2 0x51B DUP2 DUP7 PUSH2 0x4B3 JUMP JUMPDEST SWAP1 POP DUP2 DUP2 SUB PUSH1 0x20 DUP4 ADD MSTORE PUSH2 0x52F DUP2 DUP6 PUSH2 0x4B3 JUMP JUMPDEST SWAP1 POP PUSH2 0x53E PUSH1 0x40 DUP4 ADD DUP5 PUSH2 0x4F4 JUMP JUMPDEST SWAP5 SWAP4 POP POP POP POP JUMP JUMPDEST PUSH32 0x4E487B7100000000000000000000000000000000000000000000000000000000 PUSH0 MSTORE PUSH1 0x22 PUSH1 0x4 MSTORE PUSH1 0x24 PUSH0 REVERT JUMPDEST PUSH0 PUSH1 0x2 DUP3 DIV SWAP1 POP PUSH1 0x1 DUP3 AND DUP1 PUSH2 0x58A JUMPI PUSH1 0x7F DUP3 AND SWAP2 POP JUMPDEST PUSH1 0x20 DUP3 LT DUP2 SUB PUSH2 0x59D JUMPI PUSH2 0x59C PUSH2 0x546 JUMP JUMPDEST JUMPDEST POP SWAP2 SWAP1 POP JUMP JUMPDEST PUSH32 0x4E487B7100000000000000000000000000000000000000000000000000000000 PUSH0 MSTORE PUSH1 0x41 PUSH1 0x4 MSTORE PUSH1 0x24 PUSH0 REVERT JUMPDEST PUSH0 DUP2 SWAP1 POP DUP2 PUSH0 MSTORE PUSH1 0x20 PUSH0 KECCAK256 SWAP1 POP SWAP2 SWAP1 POP JUMP JUMPDEST PUSH0 PUSH1 0x20 PUSH1 0x1F DUP4 ADD DIV SWAP1 POP SWAP2 SWAP1 POP JUMP JUMPDEST PUSH0 DUP3 DUP3 SHL SWAP1 POP SWAP3 SWAP2 POP POP JUMP JUMPDEST PUSH0 PUSH1 0x8 DUP4 MUL PUSH2 0x62C PUSH32 0xFFFFFFFFFFFFFFFFFFFFFFFFFFFFFFFFFFFFFFFFFFFFFFFFFFFFFFFFFFFFFFFF DUP3 PUSH2 0x5F1 JUMP JUMPDEST PUSH2 0x636 DUP7 DUP4 PUSH2 0x5F1 JUMP JUMPDEST SWAP6 POP DUP1 NOT DUP5 AND SWAP4 POP DUP1 DUP7 AND DUP5 OR SWAP3 POP POP POP SWAP4 SWAP3 POP POP POP JUMP JUMPDEST PUSH0 DUP2 SWAP1 POP SWAP2 SWAP1 POP JUMP JUMPDEST PUSH0 PUSH2 0x671 PUSH2 0x66C PUSH2 0x667 DUP5 PUSH2 0x4EB JUMP JUMPDEST PUSH2 0x64E JUMP JUMPDEST PUSH2 0x4EB JUMP JUMPDEST SWAP1 POP SWAP2 SWAP1 POP JUMP JUMPDEST PUSH0 DUP2 SWAP1 POP SWAP2 SWAP1 POP JUMP JUMPDEST PUSH2 0x68A DUP4 PUSH2 0x657 JUMP JUMPDEST PUSH2 0x69E PUSH2 0x696 DUP3 PUSH2 0x678 JUMP JUMPDEST DUP5 DUP5 SLOAD PUSH2 0x5FD JUMP JUMPDEST DUP3 SSTORE POP POP POP POP JUMP JUMPDEST PUSH0 SWAP1 JUMP JUMPDEST PUSH2 0x6B2 PUSH2 0x6A6 JUMP JUMPDEST PUSH2 0x6BD DUP2 DUP5 DUP5 PUSH2 0x681 JUMP JUMPDEST POP POP POP JUMP JUMPDEST JUMPDEST DUP2 DUP2 LT ISZERO PUSH2 0x6E0 JUMPI PUSH2 0x6D5 PUSH0 DUP3 PUSH2 0x6AA JUMP JUMPDEST PUSH1 0x1 DUP2 ADD SWAP1 POP PUSH2 0x6C3 JUMP JUMPDEST POP POP JUMP JUMPDEST PUSH1 0x1F DUP3 GT ISZERO PUSH2 0x725 JUMPI PUSH2 0x6F6 DUP2 PUSH2 0x5D0 JUMP JUMPDEST PUSH2 0x6FF DUP5 PUSH2 0x5E2 JUMP JUMPDEST DUP2 ADD PUSH1 0x20 DUP6 LT ISZERO PUSH2 0x70E JUMPI DUP2 SWAP1 POP JUMPDEST PUSH2 0x722 PUSH2 0x71A DUP6 PUSH2 0x5E2 JUMP JUMPDEST DUP4 ADD DUP3 PUSH2 0x6C2 JUMP JUMPDEST POP POP JUMPDEST POP POP POP JUMP JUMPDEST PUSH0 DUP3 DUP3 SHR SWAP1 POP SWAP3 SWAP2 POP POP JUMP JUMPDEST PUSH0 PUSH2 0x745 PUSH0 NOT DUP5 PUSH1 0x8 MUL PUSH2 0x72A JUMP JUMPDEST NOT DUP1 DUP4 AND SWAP2 POP POP SWAP3 SWAP2 POP POP JUMP JUMPDEST PUSH0 PUSH2 0x75D DUP4 DUP4 PUSH2 0x736 JUMP JUMPDEST SWAP2 POP DUP3 PUSH1 0x2 MUL DUP3 OR SWAP1 POP SWAP3 SWAP2 POP POP JUMP JUMPDEST PUSH2 0x776 DUP3 PUSH2 0x47B JUMP JUMPDEST PUSH8 0xFFFFFFFFFFFFFFFF DUP2 GT ISZERO PUSH2 0x78F JUMPI PUSH2 0x78E PUSH2 0x5A3 JUMP JUMPDEST JUMPDEST PUSH2 0x799 DUP3 SLOAD PUSH2 0x573 JUMP JUMPDEST PUSH2 0x7A4 DUP3 DUP3 DUP6 PUSH2 0x6E4 JUMP JUMPDEST PUSH0 PUSH1 0x20 SWAP1 POP PUSH1 0x1F DUP4 GT PUSH1 0x1 DUP2 EQ PUSH2 0x7D5 JUMPI PUSH0 DUP5 ISZERO PUSH2 0x7C3 JUMPI DUP3 DUP8 ADD MLOAD SWAP1 POP JUMPDEST PUSH2 0x7CD DUP6 DUP3 PUSH2 0x752 JUMP JUMPDEST DUP7 SSTORE POP PUSH2 0x834 JUMP JUMPDEST PUSH1 0x1F NOT DUP5 AND PUSH2 0x7E3 DUP7 PUSH2 0x5D0 JUMP JUMPDEST PUSH0 JUMPDEST DUP3 DUP2 LT ISZERO PUSH2 0x80A JUMPI DUP5 DUP10 ADD MLOAD DUP3 SSTORE PUSH1 0x1 DUP3 ADD SWAP2 POP PUSH1 0x20 DUP6 ADD SWAP5 POP PUSH1 0x20 DUP2 ADD SWAP1 POP PUSH2 0x7E5 JUMP JUMPDEST DUP7 DUP4 LT ISZERO PUSH2 0x827 JUMPI DUP5 DUP10 ADD MLOAD PUSH2 0x823 PUSH1 0x1F DUP10 AND DUP3 PUSH2 0x736 JUMP JUMPDEST DUP4 SSTORE POP JUMPDEST PUSH1 0x1 PUSH1 0x2 DUP9 MUL ADD DUP9 SSTORE POP POP POP JUMPDEST POP POP POP POP POP POP JUMP INVALID LOG2 PUSH5 0x6970667358 0x22 SLT KECCAK256 LOG2 CALLDATALOAD PUSH25 0xCC1B4F97E2F24CA113D790A01E8C93488C76EA90672819654E CALLER LT DELEGATECALL PUSH3 0x64736F PUSH13 0x634300081A0033000000000000 "
				},
				"gasEstimates": {
					"creation": {
						"codeDepositCost": "432400",
						"executionCost": "24763",
						"totalCost": "457163"
					},
					"external": {
						"cancel()": "24451",
						"currentStatus()": "2595",
						"get()": "2584",
						"getTitle()": "209",
						"myBook()": "infinite",
						"reset()": "24384",
						"set(uint8)": "24646",
						"setBook()": "infinite"
					}
				},
				"methodIdentifiers": {
					"cancel()": "ea8a1af0",
					"currentStatus()": "ef8a9235",
					"get()": "6d4ce63c",
					"getTitle()": "ff3c1a8f",
					"myBook()": "aab27ef7",
					"reset()": "d826f88f",
					"set(uint8)": "24b8ba5f",
					"setBook()": "d629546c"
				}
			},
			"storageLayout": {
				"storage": [
					{
						"astId": 17,
						"contract": "Shipping.sol:Shipping",
						"label": "currentStatus",
						"offset": 0,
						"slot": "0",
						"type": "t_enum(Status)7"
					},
					{
						"astId": 20,
						"contract": "Shipping.sol:Shipping",
						"label": "myBook",
						"offset": 0,
						"slot": "1",
						"type": "t_struct(Books)14_storage"
					}
				],
				"types": {
					"t_enum(Status)7": {
						"encoding": "inplace",
						"label": "enum Shipping.Status",
						"numberOfBytes": "1"
					},
					"t_string_storage": {
						"encoding": "bytes",
						"label": "string",
						"numberOfBytes": "32"
					},
					"t_struct(Books)14_storage": {
						"encoding": "inplace",
						"label": "struct Shipping.Books",
						"members": [
							{
								"astId": 9,
								"contract": "Shipping.sol:Shipping",
								"label": "Title",
								"offset": 0,
								"slot": "0",
								"type": "t_string_storage"
							},
							{
								"astId": 11,
								"contract": "Shipping.sol:Shipping",
								"label": "Author",
								"offset": 0,
								"slot": "1",
								"type": "t_string_storage"
							},
							{
								"astId": 13,
								"contract": "Shipping.sol:Shipping",
								"label": "years_of_publication",
								"offset": 0,
								"slot": "2",
								"type": "t_uint256"
							}
						],
						"numberOfBytes": "96"
					},
					"t_uint256": {
						"encoding": "inplace",
						"label": "uint256",
						"numberOfBytes": "32"
					}
				}
			},
			"userdoc": {
				"kind": "user",
				"methods": {},
				"version": 1
			}
		}
	}
}