{
	"hello.sol": {
		"StateVariables": {
			"abi": [
				{
					"inputs": [
						{
							"internalType": "string",
							"name": "_value",
							"type": "string"
						}
					],
					"name": "addValue",
					"outputs": [],
					"stateMutability": "nonpayable",
					"type": "function"
				},
				{
					"inputs": [
						{
							"internalType": "uint256",
							"name": "",
							"type": "uint256"
						},
						{
							"internalType": "uint256",
							"name": "",
							"type": "uint256"
						}
					],
					"name": "array2D",
					"outputs": [
						{
							"internalType": "uint256",
							"name": "",
							"type": "uint256"
						}
					],
					"stateMutability": "view",
					"type": "function"
				},
				{
					"inputs": [],
					"name": "arrayCount",
					"outputs": [
						{
							"internalType": "uint256[]",
							"name": "",
							"type": "uint256[]"
						}
					],
					"stateMutability": "view",
					"type": "function"
				},
				{
					"inputs": [],
					"name": "arrayString",
					"outputs": [
						{
							"internalType": "string[]",
							"name": "",
							"type": "string[]"
						}
					],
					"stateMutability": "view",
					"type": "function"
				},
				{
					"inputs": [
						{
							"internalType": "uint256",
							"name": "",
							"type": "uint256"
						}
					],
					"name": "emptyStirngArray",
					"outputs": [
						{
							"internalType": "string",
							"name": "",
							"type": "string"
						}
					],
					"stateMutability": "view",
					"type": "function"
				},
				{
					"inputs": [],
					"name": "maxIntNum",
					"outputs": [
						{
							"internalType": "int256",
							"name": "",
							"type": "int256"
						}
					],
					"stateMutability": "view",
					"type": "function"
				},
				{
					"inputs": [],
					"name": "maxNum",
					"outputs": [
						{
							"internalType": "uint256",
							"name": "",
							"type": "uint256"
						}
					],
					"stateMutability": "view",
					"type": "function"
				},
				{
					"inputs": [],
					"name": "myNum",
					"outputs": [
						{
							"internalType": "uint256",
							"name": "",
							"type": "uint256"
						}
					],
					"stateMutability": "view",
					"type": "function"
				},
				{
					"inputs": [],
					"name": "myState",
					"outputs": [
						{
							"internalType": "string",
							"name": "",
							"type": "string"
						}
					],
					"stateMutability": "view",
					"type": "function"
				},
				{
					"inputs": [],
					"name": "print2D",
					"outputs": [
						{
							"internalType": "uint256[][]",
							"name": "",
							"type": "uint256[][]"
						}
					],
					"stateMutability": "view",
					"type": "function"
				},
				{
					"inputs": [
						{
							"internalType": "uint256",
							"name": "",
							"type": "uint256"
						}
					],
					"name": "stringArray",
					"outputs": [
						{
							"internalType": "string",
							"name": "",
							"type": "string"
						}
					],
					"stateMutability": "view",
					"type": "function"
				},
				{
					"inputs": [
						{
							"internalType": "uint256",
							"name": "",
							"type": "uint256"
						}
					],
					"name": "uintArray",
					"outputs": [
						{
							"internalType": "uint256",
							"name": "",
							"type": "uint256"
						}
					],
					"stateMutability": "view",
					"type": "function"
				},
				{
					"inputs": [
						{
							"internalType": "string",
							"name": "_text",
							"type": "string"
						},
						{
							"internalType": "uint256",
							"name": "_no",
							"type": "uint256"
						}
					],
					"name": "update",
					"outputs": [],
					"stateMutability": "nonpayable",
					"type": "function"
				}
			],
			"devdoc": {
				"kind": "dev",
				"methods": {},
				"version": 1
			},
			"evm": {
				"assembly": "    /* \"hello.sol\":58:1282  contract StateVariables{ ... */\n  mstore(0x40, 0x80)\n    /* \"hello.sol\":404:418  type(uint).max */\n  0xffffffffffffffffffffffffffffffffffffffffffffffffffffffffffffffff\n    /* \"hello.sol\":385:418  uint public maxNum=type(uint).max */\n  0x02\n  sstore\n    /* \"hello.sol\":447:460  type(int).max */\n  0x7fffffffffffffffffffffffffffffffffffffffffffffffffffffffffffffff\n    /* \"hello.sol\":425:460  int public  maxIntNum=type(int).max */\n  0x03\n  sstore\n    /* \"hello.sol\":627:658  uint[] public uintArray=[1,2,3] */\n  mload(0x40)\n  dup1\n  0x60\n  add\n  0x40\n  mstore\n  dup1\n    /* \"hello.sol\":652:653  1 */\n  0x01\n    /* \"hello.sol\":627:658  uint[] public uintArray=[1,2,3] */\n  0xff\n  and\n  dup2\n  mstore\n  0x20\n  add\n    /* \"hello.sol\":654:655  2 */\n  0x02\n    /* \"hello.sol\":627:658  uint[] public uintArray=[1,2,3] */\n  0xff\n  and\n  dup2\n  mstore\n  0x20\n  add\n    /* \"hello.sol\":656:657  3 */\n  0x03\n    /* \"hello.sol\":627:658  uint[] public uintArray=[1,2,3] */\n  0xff\n  and\n  dup2\n  mstore\n  pop\n  0x04\n  swap1\n  0x03\n  tag_1\n  swap3\n  swap2\n  swap1\n  tag_2\n  jump\t// in\ntag_1:\n  pop\n    /* \"hello.sol\":689:745  string[] public stringArray=['james','victor', 'ochula'] */\n  mload(0x40)\n  dup1\n  0x60\n  add\n  0x40\n  mstore\n  dup1\n  mload(0x40)\n  dup1\n  0x40\n  add\n  0x40\n  mstore\n  dup1\n  0x05\n  dup2\n  mstore\n  0x20\n  add\n  0x6a616d6573000000000000000000000000000000000000000000000000000000\n  dup2\n  mstore\n  pop\n  dup2\n  mstore\n  0x20\n  add\n  mload(0x40)\n  dup1\n  0x40\n  add\n  0x40\n  mstore\n  dup1\n  0x06\n  dup2\n  mstore\n  0x20\n  add\n  0x766963746f720000000000000000000000000000000000000000000000000000\n  dup2\n  mstore\n  pop\n  dup2\n  mstore\n  0x20\n  add\n  mload(0x40)\n  dup1\n  0x40\n  add\n  0x40\n  mstore\n  dup1\n  0x06\n  dup2\n  mstore\n  0x20\n  add\n  0x6f6368756c610000000000000000000000000000000000000000000000000000\n  dup2\n  mstore\n  pop\n  dup2\n  mstore\n  pop\n  0x05\n  swap1\n  0x03\n  tag_3\n  swap3\n  swap2\n  swap1\n  tag_4\n  jump\t// in\ntag_3:\n  pop\n    /* \"hello.sol\":1142:1183  uint[][] public array2D=[[1,2,3],[4,5,6]] */\n  mload(0x40)\n  dup1\n  0x40\n  add\n  0x40\n  mstore\n  dup1\n  mload(0x40)\n  dup1\n  0x60\n  add\n  0x40\n  mstore\n  dup1\n    /* \"hello.sol\":1168:1169  1 */\n  0x01\n    /* \"hello.sol\":1142:1183  uint[][] public array2D=[[1,2,3],[4,5,6]] */\n  0xff\n  and\n  dup2\n  mstore\n  0x20\n  add\n    /* \"hello.sol\":1170:1171  2 */\n  0x02\n    /* \"hello.sol\":1142:1183  uint[][] public array2D=[[1,2,3],[4,5,6]] */\n  0xff\n  and\n  dup2\n  mstore\n  0x20\n  add\n    /* \"hello.sol\":1172:1173  3 */\n  0x03\n    /* \"hello.sol\":1142:1183  uint[][] public array2D=[[1,2,3],[4,5,6]] */\n  0xff\n  and\n  dup2\n  mstore\n  pop\n  dup2\n  mstore\n  0x20\n  add\n  mload(0x40)\n  dup1\n  0x60\n  add\n  0x40\n  mstore\n  dup1\n    /* \"hello.sol\":1176:1177  4 */\n  0x04\n    /* \"hello.sol\":1142:1183  uint[][] public array2D=[[1,2,3],[4,5,6]] */\n  0xff\n  and\n  dup2\n  mstore\n  0x20\n  add\n    /* \"hello.sol\":1178:1179  5 */\n  0x05\n    /* \"hello.sol\":1142:1183  uint[][] public array2D=[[1,2,3],[4,5,6]] */\n  0xff\n  and\n  dup2\n  mstore\n  0x20\n  add\n    /* \"hello.sol\":1180:1181  6 */\n  0x06\n    /* \"hello.sol\":1142:1183  uint[][] public array2D=[[1,2,3],[4,5,6]] */\n  0xff\n  and\n  dup2\n  mstore\n  pop\n  dup2\n  mstore\n  pop\n  0x07\n  swap1\n  0x02\n  tag_5\n  swap3\n  swap2\n  swap1\n  tag_6\n  jump\t// in\ntag_5:\n  pop\n    /* \"hello.sol\":58:1282  contract StateVariables{ ... */\n  callvalue\n  dup1\n  iszero\n  tag_7\n  jumpi\n  0x00\n  dup1\n  revert\ntag_7:\n  pop\n  jump(tag_8)\ntag_2:\n  dup3\n  dup1\n  sload\n  dup3\n  dup3\n  sstore\n  swap1\n  0x00\n  mstore\n  keccak256(0x00, 0x20)\n  swap1\n  dup2\n  add\n  swap3\n  dup3\n  iszero\n  tag_9\n  jumpi\n  swap2\n  0x20\n  mul\n  dup3\n  add\ntag_10:\n  dup3\n  dup2\n  gt\n  iszero\n  tag_11\n  jumpi\n  dup3\n  mload\n  dup3\n  swap1\n  0xff\n  and\n  swap1\n  sstore\n  swap2\n  0x20\n  add\n  swap2\n  swap1\n  0x01\n  add\n  swap1\n  jump(tag_10)\ntag_11:\ntag_9:\n  pop\n  swap1\n  pop\n  tag_12\n  swap2\n  swap1\n  tag_13\n  jump\t// in\ntag_12:\n  pop\n  swap1\n  jump\t// out\ntag_4:\n  dup3\n  dup1\n  sload\n  dup3\n  dup3\n  sstore\n  swap1\n  0x00\n  mstore\n  keccak256(0x00, 0x20)\n  swap1\n  dup2\n  add\n  swap3\n  dup3\n  iszero\n  tag_14\n  jumpi\n  swap2\n  0x20\n  mul\n  dup3\n  add\ntag_15:\n  dup3\n  dup2\n  gt\n  iszero\n  tag_16\n  jumpi\n  dup3\n  mload\n  dup3\n  swap1\n  dup2\n  tag_17\n  swap2\n  swap1\n  tag_18\n  jump\t// in\ntag_17:\n  pop\n  swap2\n  0x20\n  add\n  swap2\n  swap1\n  0x01\n  add\n  swap1\n  jump(tag_15)\ntag_16:\ntag_14:\n  pop\n  swap1\n  pop\n  tag_19\n  swap2\n  swap1\n  tag_20\n  jump\t// in\ntag_19:\n  pop\n  swap1\n  jump\t// out\ntag_6:\n  dup3\n  dup1\n  sload\n  dup3\n  dup3\n  sstore\n  swap1\n  0x00\n  mstore\n  keccak256(0x00, 0x20)\n  swap1\n  dup2\n  add\n  swap3\n  dup3\n  iszero\n  tag_21\n  jumpi\n  swap2\n  0x20\n  mul\n  dup3\n  add\ntag_22:\n  dup3\n  dup2\n  gt\n  iszero\n  tag_23\n  jumpi\n  dup3\n  mload\n  dup3\n  swap1\n  0x03\n  tag_24\n  swap3\n  swap2\n  swap1\n  tag_2\n  jump\t// in\ntag_24:\n  pop\n  swap2\n  0x20\n  add\n  swap2\n  swap1\n  0x01\n  add\n  swap1\n  jump(tag_22)\ntag_23:\ntag_21:\n  pop\n  swap1\n  pop\n  tag_25\n  swap2\n  swap1\n  tag_26\n  jump\t// in\ntag_25:\n  pop\n  swap1\n  jump\t// out\ntag_13:\ntag_27:\n  dup1\n  dup3\n  gt\n  iszero\n  tag_28\n  jumpi\n  0x00\n  dup2\n  0x00\n  swap1\n  sstore\n  pop\n  0x01\n  add\n  jump(tag_27)\ntag_28:\n  pop\n  swap1\n  jump\t// out\ntag_20:\ntag_29:\n  dup1\n  dup3\n  gt\n  iszero\n  tag_30\n  jumpi\n  0x00\n  dup2\n  dup2\n  tag_31\n  swap2\n  swap1\n  tag_32\n  jump\t// in\ntag_31:\n  pop\n  0x01\n  add\n  jump(tag_29)\ntag_30:\n  pop\n  swap1\n  jump\t// out\ntag_26:\ntag_33:\n  dup1\n  dup3\n  gt\n  iszero\n  tag_34\n  jumpi\n  0x00\n  dup2\n  dup2\n  tag_35\n  swap2\n  swap1\n  tag_36\n  jump\t// in\ntag_35:\n  pop\n  0x01\n  add\n  jump(tag_33)\ntag_34:\n  pop\n  swap1\n  jump\t// out\ntag_32:\n  pop\n  dup1\n  sload\n  tag_37\n  swap1\n  tag_38\n  jump\t// in\ntag_37:\n  0x00\n  dup3\n  sstore\n  dup1\n  0x1f\n  lt\n  tag_40\n  jumpi\n  pop\n  jump(tag_39)\ntag_40:\n  0x1f\n  add\n  0x20\n  swap1\n  div\n  swap1\n  0x00\n  mstore\n  keccak256(0x00, 0x20)\n  swap1\n  dup2\n  add\n  swap1\n  tag_41\n  swap2\n  swap1\n  tag_13\n  jump\t// in\ntag_41:\ntag_39:\n  pop\n  jump\t// out\ntag_36:\n  pop\n  dup1\n  sload\n  0x00\n  dup3\n  sstore\n  swap1\n  0x00\n  mstore\n  keccak256(0x00, 0x20)\n  swap1\n  dup2\n  add\n  swap1\n  tag_43\n  swap2\n  swap1\n  tag_13\n  jump\t// in\ntag_43:\n  pop\n  jump\t// out\n    /* \"#utility.yul\":7:106   */\ntag_44:\n    /* \"#utility.yul\":59:65   */\n  0x00\n    /* \"#utility.yul\":93:98   */\n  dup2\n    /* \"#utility.yul\":87:99   */\n  mload\n    /* \"#utility.yul\":77:99   */\n  swap1\n  pop\n    /* \"#utility.yul\":7:106   */\n  swap2\n  swap1\n  pop\n  jump\t// out\n    /* \"#utility.yul\":112:292   */\ntag_45:\n    /* \"#utility.yul\":160:237   */\n  0x4e487b7100000000000000000000000000000000000000000000000000000000\n    /* \"#utility.yul\":157:158   */\n  0x00\n    /* \"#utility.yul\":150:238   */\n  mstore\n    /* \"#utility.yul\":257:261   */\n  0x41\n    /* \"#utility.yul\":254:255   */\n  0x04\n    /* \"#utility.yul\":247:262   */\n  mstore\n    /* \"#utility.yul\":281:285   */\n  0x24\n    /* \"#utility.yul\":278:279   */\n  0x00\n    /* \"#utility.yul\":271:286   */\n  revert\n    /* \"#utility.yul\":298:478   */\ntag_46:\n    /* \"#utility.yul\":346:423   */\n  0x4e487b7100000000000000000000000000000000000000000000000000000000\n    /* \"#utility.yul\":343:344   */\n  0x00\n    /* \"#utility.yul\":336:424   */\n  mstore\n    /* \"#utility.yul\":443:447   */\n  0x22\n    /* \"#utility.yul\":440:441   */\n  0x04\n    /* \"#utility.yul\":433:448   */\n  mstore\n    /* \"#utility.yul\":467:471   */\n  0x24\n    /* \"#utility.yul\":464:465   */\n  0x00\n    /* \"#utility.yul\":457:472   */\n  revert\n    /* \"#utility.yul\":484:804   */\ntag_38:\n    /* \"#utility.yul\":528:534   */\n  0x00\n    /* \"#utility.yul\":565:566   */\n  0x02\n    /* \"#utility.yul\":559:563   */\n  dup3\n    /* \"#utility.yul\":555:567   */\n  div\n    /* \"#utility.yul\":545:567   */\n  swap1\n  pop\n    /* \"#utility.yul\":612:613   */\n  0x01\n    /* \"#utility.yul\":606:610   */\n  dup3\n    /* \"#utility.yul\":602:614   */\n  and\n    /* \"#utility.yul\":633:651   */\n  dup1\n    /* \"#utility.yul\":623:704   */\n  tag_68\n  jumpi\n    /* \"#utility.yul\":689:693   */\n  0x7f\n    /* \"#utility.yul\":681:687   */\n  dup3\n    /* \"#utility.yul\":677:694   */\n  and\n    /* \"#utility.yul\":667:694   */\n  swap2\n  pop\n    /* \"#utility.yul\":623:704   */\ntag_68:\n    /* \"#utility.yul\":751:753   */\n  0x20\n    /* \"#utility.yul\":743:749   */\n  dup3\n    /* \"#utility.yul\":740:754   */\n  lt\n    /* \"#utility.yul\":720:738   */\n  dup2\n    /* \"#utility.yul\":717:755   */\n  sub\n    /* \"#utility.yul\":714:798   */\n  tag_69\n  jumpi\n    /* \"#utility.yul\":770:788   */\n  tag_70\n  tag_46\n  jump\t// in\ntag_70:\n    /* \"#utility.yul\":714:798   */\ntag_69:\n    /* \"#utility.yul\":535:804   */\n  pop\n    /* \"#utility.yul\":484:804   */\n  swap2\n  swap1\n  pop\n  jump\t// out\n    /* \"#utility.yul\":810:951   */\ntag_47:\n    /* \"#utility.yul\":859:863   */\n  0x00\n    /* \"#utility.yul\":882:885   */\n  dup2\n    /* \"#utility.yul\":874:885   */\n  swap1\n  pop\n    /* \"#utility.yul\":905:908   */\n  dup2\n    /* \"#utility.yul\":902:903   */\n  0x00\n    /* \"#utility.yul\":895:909   */\n  mstore\n    /* \"#utility.yul\":939:943   */\n  0x20\n    /* \"#utility.yul\":936:937   */\n  0x00\n    /* \"#utility.yul\":926:944   */\n  keccak256\n    /* \"#utility.yul\":918:944   */\n  swap1\n  pop\n    /* \"#utility.yul\":810:951   */\n  swap2\n  swap1\n  pop\n  jump\t// out\n    /* \"#utility.yul\":957:1050   */\ntag_48:\n    /* \"#utility.yul\":994:1000   */\n  0x00\n    /* \"#utility.yul\":1041:1043   */\n  0x20\n    /* \"#utility.yul\":1036:1038   */\n  0x1f\n    /* \"#utility.yul\":1029:1034   */\n  dup4\n    /* \"#utility.yul\":1025:1039   */\n  add\n    /* \"#utility.yul\":1021:1044   */\n  div\n    /* \"#utility.yul\":1011:1044   */\n  swap1\n  pop\n    /* \"#utility.yul\":957:1050   */\n  swap2\n  swap1\n  pop\n  jump\t// out\n    /* \"#utility.yul\":1056:1163   */\ntag_49:\n    /* \"#utility.yul\":1100:1108   */\n  0x00\n    /* \"#utility.yul\":1150:1155   */\n  dup3\n    /* \"#utility.yul\":1144:1148   */\n  dup3\n    /* \"#utility.yul\":1140:1156   */\n  shl\n    /* \"#utility.yul\":1119:1156   */\n  swap1\n  pop\n    /* \"#utility.yul\":1056:1163   */\n  swap3\n  swap2\n  pop\n  pop\n  jump\t// out\n    /* \"#utility.yul\":1169:1562   */\ntag_50:\n    /* \"#utility.yul\":1238:1244   */\n  0x00\n    /* \"#utility.yul\":1288:1289   */\n  0x08\n    /* \"#utility.yul\":1276:1286   */\n  dup4\n    /* \"#utility.yul\":1272:1290   */\n  mul\n    /* \"#utility.yul\":1311:1408   */\n  tag_75\n    /* \"#utility.yul\":1341:1407   */\n  0xffffffffffffffffffffffffffffffffffffffffffffffffffffffffffffffff\n    /* \"#utility.yul\":1330:1339   */\n  dup3\n    /* \"#utility.yul\":1311:1408   */\n  tag_49\n  jump\t// in\ntag_75:\n    /* \"#utility.yul\":1429:1468   */\n  tag_76\n    /* \"#utility.yul\":1459:1467   */\n  dup7\n    /* \"#utility.yul\":1448:1457   */\n  dup4\n    /* \"#utility.yul\":1429:1468   */\n  tag_49\n  jump\t// in\ntag_76:\n    /* \"#utility.yul\":1417:1468   */\n  swap6\n  pop\n    /* \"#utility.yul\":1501:1505   */\n  dup1\n    /* \"#utility.yul\":1497:1506   */\n  not\n    /* \"#utility.yul\":1490:1495   */\n  dup5\n    /* \"#utility.yul\":1486:1507   */\n  and\n    /* \"#utility.yul\":1477:1507   */\n  swap4\n  pop\n    /* \"#utility.yul\":1550:1554   */\n  dup1\n    /* \"#utility.yul\":1540:1548   */\n  dup7\n    /* \"#utility.yul\":1536:1555   */\n  and\n    /* \"#utility.yul\":1529:1534   */\n  dup5\n    /* \"#utility.yul\":1526:1556   */\n  or\n    /* \"#utility.yul\":1516:1556   */\n  swap3\n  pop\n    /* \"#utility.yul\":1245:1562   */\n  pop\n  pop\n    /* \"#utility.yul\":1169:1562   */\n  swap4\n  swap3\n  pop\n  pop\n  pop\n  jump\t// out\n    /* \"#utility.yul\":1568:1645   */\ntag_51:\n    /* \"#utility.yul\":1605:1612   */\n  0x00\n    /* \"#utility.yul\":1634:1639   */\n  dup2\n    /* \"#utility.yul\":1623:1639   */\n  swap1\n  pop\n    /* \"#utility.yul\":1568:1645   */\n  swap2\n  swap1\n  pop\n  jump\t// out\n    /* \"#utility.yul\":1651:1711   */\ntag_52:\n    /* \"#utility.yul\":1679:1682   */\n  0x00\n    /* \"#utility.yul\":1700:1705   */\n  dup2\n    /* \"#utility.yul\":1693:1705   */\n  swap1\n  pop\n    /* \"#utility.yul\":1651:1711   */\n  swap2\n  swap1\n  pop\n  jump\t// out\n    /* \"#utility.yul\":1717:1859   */\ntag_53:\n    /* \"#utility.yul\":1767:1776   */\n  0x00\n    /* \"#utility.yul\":1800:1853   */\n  tag_80\n    /* \"#utility.yul\":1818:1852   */\n  tag_81\n    /* \"#utility.yul\":1827:1851   */\n  tag_82\n    /* \"#utility.yul\":1845:1850   */\n  dup5\n    /* \"#utility.yul\":1827:1851   */\n  tag_51\n  jump\t// in\ntag_82:\n    /* \"#utility.yul\":1818:1852   */\n  tag_52\n  jump\t// in\ntag_81:\n    /* \"#utility.yul\":1800:1853   */\n  tag_51\n  jump\t// in\ntag_80:\n    /* \"#utility.yul\":1787:1853   */\n  swap1\n  pop\n    /* \"#utility.yul\":1717:1859   */\n  swap2\n  swap1\n  pop\n  jump\t// out\n    /* \"#utility.yul\":1865:1940   */\ntag_54:\n    /* \"#utility.yul\":1908:1911   */\n  0x00\n    /* \"#utility.yul\":1929:1934   */\n  dup2\n    /* \"#utility.yul\":1922:1934   */\n  swap1\n  pop\n    /* \"#utility.yul\":1865:1940   */\n  swap2\n  swap1\n  pop\n  jump\t// out\n    /* \"#utility.yul\":1946:2215   */\ntag_55:\n    /* \"#utility.yul\":2056:2095   */\n  tag_85\n    /* \"#utility.yul\":2087:2094   */\n  dup4\n    /* \"#utility.yul\":2056:2095   */\n  tag_53\n  jump\t// in\ntag_85:\n    /* \"#utility.yul\":2117:2208   */\n  tag_86\n    /* \"#utility.yul\":2166:2207   */\n  tag_87\n    /* \"#utility.yul\":2190:2206   */\n  dup3\n    /* \"#utility.yul\":2166:2207   */\n  tag_54\n  jump\t// in\ntag_87:\n    /* \"#utility.yul\":2158:2164   */\n  dup5\n    /* \"#utility.yul\":2151:2155   */\n  dup5\n    /* \"#utility.yul\":2145:2156   */\n  sload\n    /* \"#utility.yul\":2117:2208   */\n  tag_50\n  jump\t// in\ntag_86:\n    /* \"#utility.yul\":2111:2115   */\n  dup3\n    /* \"#utility.yul\":2104:2209   */\n  sstore\n    /* \"#utility.yul\":2022:2215   */\n  pop\n    /* \"#utility.yul\":1946:2215   */\n  pop\n  pop\n  pop\n  jump\t// out\n    /* \"#utility.yul\":2221:2294   */\ntag_56:\n    /* \"#utility.yul\":2266:2269   */\n  0x00\n    /* \"#utility.yul\":2221:2294   */\n  swap1\n  jump\t// out\n    /* \"#utility.yul\":2300:2489   */\ntag_57:\n    /* \"#utility.yul\":2377:2409   */\n  tag_90\n  tag_56\n  jump\t// in\ntag_90:\n    /* \"#utility.yul\":2418:2483   */\n  tag_91\n    /* \"#utility.yul\":2476:2482   */\n  dup2\n    /* \"#utility.yul\":2468:2474   */\n  dup5\n    /* \"#utility.yul\":2462:2466   */\n  dup5\n    /* \"#utility.yul\":2418:2483   */\n  tag_55\n  jump\t// in\ntag_91:\n    /* \"#utility.yul\":2353:2489   */\n  pop\n    /* \"#utility.yul\":2300:2489   */\n  pop\n  pop\n  jump\t// out\n    /* \"#utility.yul\":2495:2681   */\ntag_58:\n    /* \"#utility.yul\":2555:2675   */\ntag_93:\n    /* \"#utility.yul\":2572:2575   */\n  dup2\n    /* \"#utility.yul\":2565:2570   */\n  dup2\n    /* \"#utility.yul\":2562:2576   */\n  lt\n    /* \"#utility.yul\":2555:2675   */\n  iszero\n  tag_95\n  jumpi\n    /* \"#utility.yul\":2626:2665   */\n  tag_96\n    /* \"#utility.yul\":2663:2664   */\n  0x00\n    /* \"#utility.yul\":2656:2661   */\n  dup3\n    /* \"#utility.yul\":2626:2665   */\n  tag_57\n  jump\t// in\ntag_96:\n    /* \"#utility.yul\":2599:2600   */\n  0x01\n    /* \"#utility.yul\":2592:2597   */\n  dup2\n    /* \"#utility.yul\":2588:2601   */\n  add\n    /* \"#utility.yul\":2579:2601   */\n  swap1\n  pop\n    /* \"#utility.yul\":2555:2675   */\n  jump(tag_93)\ntag_95:\n    /* \"#utility.yul\":2495:2681   */\n  pop\n  pop\n  jump\t// out\n    /* \"#utility.yul\":2687:3230   */\ntag_59:\n    /* \"#utility.yul\":2788:2790   */\n  0x1f\n    /* \"#utility.yul\":2783:2786   */\n  dup3\n    /* \"#utility.yul\":2780:2791   */\n  gt\n    /* \"#utility.yul\":2777:3223   */\n  iszero\n  tag_98\n  jumpi\n    /* \"#utility.yul\":2822:2860   */\n  tag_99\n    /* \"#utility.yul\":2854:2859   */\n  dup2\n    /* \"#utility.yul\":2822:2860   */\n  tag_47\n  jump\t// in\ntag_99:\n    /* \"#utility.yul\":2906:2935   */\n  tag_100\n    /* \"#utility.yul\":2924:2934   */\n  dup5\n    /* \"#utility.yul\":2906:2935   */\n  tag_48\n  jump\t// in\ntag_100:\n    /* \"#utility.yul\":2896:2904   */\n  dup2\n    /* \"#utility.yul\":2892:2936   */\n  add\n    /* \"#utility.yul\":3089:3091   */\n  0x20\n    /* \"#utility.yul\":3077:3087   */\n  dup6\n    /* \"#utility.yul\":3074:3092   */\n  lt\n    /* \"#utility.yul\":3071:3120   */\n  iszero\n  tag_101\n  jumpi\n    /* \"#utility.yul\":3110:3118   */\n  dup2\n    /* \"#utility.yul\":3095:3118   */\n  swap1\n  pop\n    /* \"#utility.yul\":3071:3120   */\ntag_101:\n    /* \"#utility.yul\":3133:3213   */\n  tag_102\n    /* \"#utility.yul\":3189:3211   */\n  tag_103\n    /* \"#utility.yul\":3207:3210   */\n  dup6\n    /* \"#utility.yul\":3189:3211   */\n  tag_48\n  jump\t// in\ntag_103:\n    /* \"#utility.yul\":3179:3187   */\n  dup4\n    /* \"#utility.yul\":3175:3212   */\n  add\n    /* \"#utility.yul\":3162:3173   */\n  dup3\n    /* \"#utility.yul\":3133:3213   */\n  tag_58\n  jump\t// in\ntag_102:\n    /* \"#utility.yul\":2792:3223   */\n  pop\n  pop\n    /* \"#utility.yul\":2777:3223   */\ntag_98:\n    /* \"#utility.yul\":2687:3230   */\n  pop\n  pop\n  pop\n  jump\t// out\n    /* \"#utility.yul\":3236:3353   */\ntag_60:\n    /* \"#utility.yul\":3290:3298   */\n  0x00\n    /* \"#utility.yul\":3340:3345   */\n  dup3\n    /* \"#utility.yul\":3334:3338   */\n  dup3\n    /* \"#utility.yul\":3330:3346   */\n  shr\n    /* \"#utility.yul\":3309:3346   */\n  swap1\n  pop\n    /* \"#utility.yul\":3236:3353   */\n  swap3\n  swap2\n  pop\n  pop\n  jump\t// out\n    /* \"#utility.yul\":3359:3528   */\ntag_61:\n    /* \"#utility.yul\":3403:3409   */\n  0x00\n    /* \"#utility.yul\":3436:3487   */\n  tag_106\n    /* \"#utility.yul\":3484:3485   */\n  0x00\n    /* \"#utility.yul\":3480:3486   */\n  not\n    /* \"#utility.yul\":3472:3477   */\n  dup5\n    /* \"#utility.yul\":3469:3470   */\n  0x08\n    /* \"#utility.yul\":3465:3478   */\n  mul\n    /* \"#utility.yul\":3436:3487   */\n  tag_60\n  jump\t// in\ntag_106:\n    /* \"#utility.yul\":3432:3488   */\n  not\n    /* \"#utility.yul\":3517:3521   */\n  dup1\n    /* \"#utility.yul\":3511:3515   */\n  dup4\n    /* \"#utility.yul\":3507:3522   */\n  and\n    /* \"#utility.yul\":3497:3522   */\n  swap2\n  pop\n    /* \"#utility.yul\":3410:3528   */\n  pop\n    /* \"#utility.yul\":3359:3528   */\n  swap3\n  swap2\n  pop\n  pop\n  jump\t// out\n    /* \"#utility.yul\":3533:3828   */\ntag_62:\n    /* \"#utility.yul\":3609:3613   */\n  0x00\n    /* \"#utility.yul\":3755:3784   */\n  tag_108\n    /* \"#utility.yul\":3780:3783   */\n  dup4\n    /* \"#utility.yul\":3774:3778   */\n  dup4\n    /* \"#utility.yul\":3755:3784   */\n  tag_61\n  jump\t// in\ntag_108:\n    /* \"#utility.yul\":3747:3784   */\n  swap2\n  pop\n    /* \"#utility.yul\":3817:3820   */\n  dup3\n    /* \"#utility.yul\":3814:3815   */\n  0x02\n    /* \"#utility.yul\":3810:3821   */\n  mul\n    /* \"#utility.yul\":3804:3808   */\n  dup3\n    /* \"#utility.yul\":3801:3822   */\n  or\n    /* \"#utility.yul\":3793:3822   */\n  swap1\n  pop\n    /* \"#utility.yul\":3533:3828   */\n  swap3\n  swap2\n  pop\n  pop\n  jump\t// out\n    /* \"#utility.yul\":3833:5228   */\ntag_18:\n    /* \"#utility.yul\":3950:3987   */\n  tag_110\n    /* \"#utility.yul\":3983:3986   */\n  dup3\n    /* \"#utility.yul\":3950:3987   */\n  tag_44\n  jump\t// in\ntag_110:\n    /* \"#utility.yul\":4052:4070   */\n  0xffffffffffffffff\n    /* \"#utility.yul\":4044:4050   */\n  dup2\n    /* \"#utility.yul\":4041:4071   */\n  gt\n    /* \"#utility.yul\":4038:4094   */\n  iszero\n  tag_111\n  jumpi\n    /* \"#utility.yul\":4074:4092   */\n  tag_112\n  tag_45\n  jump\t// in\ntag_112:\n    /* \"#utility.yul\":4038:4094   */\ntag_111:\n    /* \"#utility.yul\":4118:4156   */\n  tag_113\n    /* \"#utility.yul\":4150:4154   */\n  dup3\n    /* \"#utility.yul\":4144:4155   */\n  sload\n    /* \"#utility.yul\":4118:4156   */\n  tag_38\n  jump\t// in\ntag_113:\n    /* \"#utility.yul\":4203:4270   */\n  tag_114\n    /* \"#utility.yul\":4263:4269   */\n  dup3\n    /* \"#utility.yul\":4255:4261   */\n  dup3\n    /* \"#utility.yul\":4249:4253   */\n  dup6\n    /* \"#utility.yul\":4203:4270   */\n  tag_59\n  jump\t// in\ntag_114:\n    /* \"#utility.yul\":4297:4298   */\n  0x00\n    /* \"#utility.yul\":4321:4325   */\n  0x20\n    /* \"#utility.yul\":4308:4325   */\n  swap1\n  pop\n    /* \"#utility.yul\":4353:4355   */\n  0x1f\n    /* \"#utility.yul\":4345:4351   */\n  dup4\n    /* \"#utility.yul\":4342:4356   */\n  gt\n    /* \"#utility.yul\":4370:4371   */\n  0x01\n    /* \"#utility.yul\":4365:4983   */\n  dup2\n  eq\n  tag_116\n  jumpi\n    /* \"#utility.yul\":5027:5028   */\n  0x00\n    /* \"#utility.yul\":5044:5050   */\n  dup5\n    /* \"#utility.yul\":5041:5118   */\n  iszero\n  tag_117\n  jumpi\n    /* \"#utility.yul\":5093:5102   */\n  dup3\n    /* \"#utility.yul\":5088:5091   */\n  dup8\n    /* \"#utility.yul\":5084:5103   */\n  add\n    /* \"#utility.yul\":5078:5104   */\n  mload\n    /* \"#utility.yul\":5069:5104   */\n  swap1\n  pop\n    /* \"#utility.yul\":5041:5118   */\ntag_117:\n    /* \"#utility.yul\":5144:5211   */\n  tag_118\n    /* \"#utility.yul\":5204:5210   */\n  dup6\n    /* \"#utility.yul\":5197:5202   */\n  dup3\n    /* \"#utility.yul\":5144:5211   */\n  tag_62\n  jump\t// in\ntag_118:\n    /* \"#utility.yul\":5138:5142   */\n  dup7\n    /* \"#utility.yul\":5131:5212   */\n  sstore\n    /* \"#utility.yul\":5000:5222   */\n  pop\n    /* \"#utility.yul\":4335:5222   */\n  jump(tag_115)\n    /* \"#utility.yul\":4365:4983   */\ntag_116:\n    /* \"#utility.yul\":4417:4421   */\n  0x1f\n    /* \"#utility.yul\":4413:4422   */\n  not\n    /* \"#utility.yul\":4405:4411   */\n  dup5\n    /* \"#utility.yul\":4401:4423   */\n  and\n    /* \"#utility.yul\":4451:4488   */\n  tag_119\n    /* \"#utility.yul\":4483:4487   */\n  dup7\n    /* \"#utility.yul\":4451:4488   */\n  tag_47\n  jump\t// in\ntag_119:\n    /* \"#utility.yul\":4510:4511   */\n  0x00\n    /* \"#utility.yul\":4524:4732   */\ntag_120:\n    /* \"#utility.yul\":4538:4545   */\n  dup3\n    /* \"#utility.yul\":4535:4536   */\n  dup2\n    /* \"#utility.yul\":4532:4546   */\n  lt\n    /* \"#utility.yul\":4524:4732   */\n  iszero\n  tag_122\n  jumpi\n    /* \"#utility.yul\":4617:4626   */\n  dup5\n    /* \"#utility.yul\":4612:4615   */\n  dup10\n    /* \"#utility.yul\":4608:4627   */\n  add\n    /* \"#utility.yul\":4602:4628   */\n  mload\n    /* \"#utility.yul\":4594:4600   */\n  dup3\n    /* \"#utility.yul\":4587:4629   */\n  sstore\n    /* \"#utility.yul\":4668:4669   */\n  0x01\n    /* \"#utility.yul\":4660:4666   */\n  dup3\n    /* \"#utility.yul\":4656:4670   */\n  add\n    /* \"#utility.yul\":4646:4670   */\n  swap2\n  pop\n    /* \"#utility.yul\":4715:4717   */\n  0x20\n    /* \"#utility.yul\":4704:4713   */\n  dup6\n    /* \"#utility.yul\":4700:4718   */\n  add\n    /* \"#utility.yul\":4687:4718   */\n  swap5\n  pop\n    /* \"#utility.yul\":4561:4565   */\n  0x20\n    /* \"#utility.yul\":4558:4559   */\n  dup2\n    /* \"#utility.yul\":4554:4566   */\n  add\n    /* \"#utility.yul\":4549:4566   */\n  swap1\n  pop\n    /* \"#utility.yul\":4524:4732   */\n  jump(tag_120)\ntag_122:\n    /* \"#utility.yul\":4760:4766   */\n  dup7\n    /* \"#utility.yul\":4751:4758   */\n  dup4\n    /* \"#utility.yul\":4748:4767   */\n  lt\n    /* \"#utility.yul\":4745:4924   */\n  iszero\n  tag_123\n  jumpi\n    /* \"#utility.yul\":4818:4827   */\n  dup5\n    /* \"#utility.yul\":4813:4816   */\n  dup10\n    /* \"#utility.yul\":4809:4828   */\n  add\n    /* \"#utility.yul\":4803:4829   */\n  mload\n    /* \"#utility.yul\":4861:4909   */\n  tag_124\n    /* \"#utility.yul\":4903:4907   */\n  0x1f\n    /* \"#utility.yul\":4895:4901   */\n  dup10\n    /* \"#utility.yul\":4891:4908   */\n  and\n    /* \"#utility.yul\":4880:4889   */\n  dup3\n    /* \"#utility.yul\":4861:4909   */\n  tag_61\n  jump\t// in\ntag_124:\n    /* \"#utility.yul\":4853:4859   */\n  dup4\n    /* \"#utility.yul\":4846:4910   */\n  sstore\n    /* \"#utility.yul\":4768:4924   */\n  pop\n    /* \"#utility.yul\":4745:4924   */\ntag_123:\n    /* \"#utility.yul\":4970:4971   */\n  0x01\n    /* \"#utility.yul\":4966:4967   */\n  0x02\n    /* \"#utility.yul\":4958:4964   */\n  dup9\n    /* \"#utility.yul\":4954:4968   */\n  mul\n    /* \"#utility.yul\":4950:4972   */\n  add\n    /* \"#utility.yul\":4944:4948   */\n  dup9\n    /* \"#utility.yul\":4937:4973   */\n  sstore\n    /* \"#utility.yul\":4372:4983   */\n  pop\n  pop\n  pop\n    /* \"#utility.yul\":4335:5222   */\ntag_115:\n  pop\n    /* \"#utility.yul\":3925:5228   */\n  pop\n  pop\n  pop\n    /* \"#utility.yul\":3833:5228   */\n  pop\n  pop\n  jump\t// out\n    /* \"hello.sol\":58:1282  contract StateVariables{ ... */\ntag_8:\n  dataSize(sub_0)\n  dup1\n  dataOffset(sub_0)\n  0x00\n  codecopy\n  0x00\n  return\nstop\n\nsub_0: assembly {\n        /* \"hello.sol\":58:1282  contract StateVariables{ ... */\n      mstore(0x40, 0x80)\n      callvalue\n      dup1\n      iszero\n      tag_1\n      jumpi\n      0x00\n      dup1\n      revert\n    tag_1:\n      pop\n      jumpi(tag_2, lt(calldatasize, 0x04))\n      shr(0xe0, calldataload(0x00))\n      dup1\n      0x9ae918c7\n      gt\n      tag_16\n      jumpi\n      dup1\n      0xcf6cda94\n      gt\n      tag_17\n      jumpi\n      dup1\n      0xcf6cda94\n      eq\n      tag_12\n      jumpi\n      dup1\n      0xd3268fc1\n      eq\n      tag_13\n      jumpi\n      dup1\n      0xd4da005a\n      eq\n      tag_14\n      jumpi\n      dup1\n      0xde814913\n      eq\n      tag_15\n      jumpi\n      jump(tag_2)\n    tag_17:\n      dup1\n      0x9ae918c7\n      eq\n      tag_9\n      jumpi\n      dup1\n      0xb28baa1d\n      eq\n      tag_10\n      jumpi\n      dup1\n      0xcdaf62d1\n      eq\n      tag_11\n      jumpi\n      jump(tag_2)\n    tag_16:\n      dup1\n      0x3a5fbaaa\n      eq\n      tag_3\n      jumpi\n      dup1\n      0x4dfdc21f\n      eq\n      tag_4\n      jumpi\n      dup1\n      0x4ee5c2ee\n      eq\n      tag_5\n      jumpi\n      dup1\n      0x6422c4c8\n      eq\n      tag_6\n      jumpi\n      dup1\n      0x6a771038\n      eq\n      tag_7\n      jumpi\n      dup1\n      0x8bf1799f\n      eq\n      tag_8\n      jumpi\n    tag_2:\n      0x00\n      dup1\n      revert\n        /* \"hello.sol\":804:897  function addValue(string memory _value) public {... */\n    tag_3:\n      tag_18\n      0x04\n      dup1\n      calldatasize\n      sub\n      dup2\n      add\n      swap1\n      tag_19\n      swap2\n      swap1\n      tag_20\n      jump\t// in\n    tag_19:\n      tag_21\n      jump\t// in\n    tag_18:\n      stop\n        /* \"hello.sol\":385:418  uint public maxNum=type(uint).max */\n    tag_4:\n      tag_22\n      tag_23\n      jump\t// in\n    tag_22:\n      mload(0x40)\n      tag_24\n      swap2\n      swap1\n      tag_25\n      jump\t// in\n    tag_24:\n      mload(0x40)\n      dup1\n      swap2\n      sub\n      swap1\n      return\n        /* \"hello.sol\":467:572  function update(string memory _text, uint _no) public {... */\n    tag_5:\n      tag_26\n      0x04\n      dup1\n      calldatasize\n      sub\n      dup2\n      add\n      swap1\n      tag_27\n      swap2\n      swap1\n      tag_28\n      jump\t// in\n    tag_27:\n      tag_29\n      jump\t// in\n    tag_26:\n      stop\n        /* \"hello.sol\":689:745  string[] public stringArray=['james','victor', 'ochula'] */\n    tag_6:\n      tag_30\n      0x04\n      dup1\n      calldatasize\n      sub\n      dup2\n      add\n      swap1\n      tag_31\n      swap2\n      swap1\n      tag_32\n      jump\t// in\n    tag_31:\n      tag_33\n      jump\t// in\n    tag_30:\n      mload(0x40)\n      tag_34\n      swap2\n      swap1\n      tag_35\n      jump\t// in\n    tag_34:\n      mload(0x40)\n      dup1\n      swap2\n      sub\n      swap1\n      return\n        /* \"hello.sol\":1190:1279  function print2D() public view  returns (uint[][] memory){... */\n    tag_7:\n      tag_36\n      tag_37\n      jump\t// in\n    tag_36:\n      mload(0x40)\n      tag_38\n      swap2\n      swap1\n      tag_39\n      jump\t// in\n    tag_38:\n      mload(0x40)\n      dup1\n      swap2\n      sub\n      swap1\n      return\n        /* \"hello.sol\":89:110  string public myState */\n    tag_8:\n      tag_40\n      tag_41\n      jump\t// in\n    tag_40:\n      mload(0x40)\n      tag_42\n      swap2\n      swap1\n      tag_35\n      jump\t// in\n    tag_42:\n      mload(0x40)\n      dup1\n      swap2\n      sub\n      swap1\n      return\n        /* \"hello.sol\":627:658  uint[] public uintArray=[1,2,3] */\n    tag_9:\n      tag_43\n      0x04\n      dup1\n      calldatasize\n      sub\n      dup2\n      add\n      swap1\n      tag_44\n      swap2\n      swap1\n      tag_32\n      jump\t// in\n    tag_44:\n      tag_45\n      jump\t// in\n    tag_43:\n      mload(0x40)\n      tag_46\n      swap2\n      swap1\n      tag_25\n      jump\t// in\n    tag_46:\n      mload(0x40)\n      dup1\n      swap2\n      sub\n      swap1\n      return\n        /* \"hello.sol\":903:992  function arrayCount()public view returns (uint[] memory){... */\n    tag_10:\n      tag_47\n      tag_48\n      jump\t// in\n    tag_47:\n      mload(0x40)\n      tag_49\n      swap2\n      swap1\n      tag_50\n      jump\t// in\n    tag_49:\n      mload(0x40)\n      dup1\n      swap2\n      sub\n      swap1\n      return\n        /* \"hello.sol\":997:1095  function arrayString() public view  returns (string[] memory){... */\n    tag_11:\n      tag_51\n      tag_52\n      jump\t// in\n    tag_51:\n      mload(0x40)\n      tag_53\n      swap2\n      swap1\n      tag_54\n      jump\t// in\n    tag_53:\n      mload(0x40)\n      dup1\n      swap2\n      sub\n      swap1\n      return\n        /* \"hello.sol\":425:460  int public  maxIntNum=type(int).max */\n    tag_12:\n      tag_55\n      tag_56\n      jump\t// in\n    tag_55:\n      mload(0x40)\n      tag_57\n      swap2\n      swap1\n      tag_58\n      jump\t// in\n    tag_57:\n      mload(0x40)\n      dup1\n      swap2\n      sub\n      swap1\n      return\n        /* \"hello.sol\":1142:1183  uint[][] public array2D=[[1,2,3],[4,5,6]] */\n    tag_13:\n      tag_59\n      0x04\n      dup1\n      calldatasize\n      sub\n      dup2\n      add\n      swap1\n      tag_60\n      swap2\n      swap1\n      tag_61\n      jump\t// in\n    tag_60:\n      tag_62\n      jump\t// in\n    tag_59:\n      mload(0x40)\n      tag_63\n      swap2\n      swap1\n      tag_25\n      jump\t// in\n    tag_63:\n      mload(0x40)\n      dup1\n      swap2\n      sub\n      swap1\n      return\n        /* \"hello.sol\":117:137  uint256 public myNum */\n    tag_14:\n      tag_64\n      tag_65\n      jump\t// in\n    tag_64:\n      mload(0x40)\n      tag_66\n      swap2\n      swap1\n      tag_25\n      jump\t// in\n    tag_66:\n      mload(0x40)\n      dup1\n      swap2\n      sub\n      swap1\n      return\n        /* \"hello.sol\":765:797  string[] public emptyStirngArray */\n    tag_15:\n      tag_67\n      0x04\n      dup1\n      calldatasize\n      sub\n      dup2\n      add\n      swap1\n      tag_68\n      swap2\n      swap1\n      tag_32\n      jump\t// in\n    tag_68:\n      tag_69\n      jump\t// in\n    tag_67:\n      mload(0x40)\n      tag_70\n      swap2\n      swap1\n      tag_35\n      jump\t// in\n    tag_70:\n      mload(0x40)\n      dup1\n      swap2\n      sub\n      swap1\n      return\n        /* \"hello.sol\":804:897  function addValue(string memory _value) public {... */\n    tag_21:\n        /* \"hello.sol\":861:877  emptyStirngArray */\n      0x06\n        /* \"hello.sol\":883:889  _value */\n      dup2\n        /* \"hello.sol\":861:890  emptyStirngArray.push(_value) */\n      swap1\n      dup1\n      0x01\n      dup2\n      sload\n      add\n      dup1\n      dup3\n      sstore\n      dup1\n      swap2\n      pop\n      pop\n      0x01\n      swap1\n      sub\n      swap1\n      0x00\n      mstore\n      keccak256(0x00, 0x20)\n      add\n      0x00\n      swap1\n      swap2\n      swap1\n      swap2\n      swap1\n      swap2\n      pop\n      swap1\n      dup2\n      tag_73\n      swap2\n      swap1\n      tag_74\n      jump\t// in\n    tag_73:\n      pop\n        /* \"hello.sol\":804:897  function addValue(string memory _value) public {... */\n      pop\n      jump\t// out\n        /* \"hello.sol\":385:418  uint public maxNum=type(uint).max */\n    tag_23:\n      sload(0x02)\n      dup2\n      jump\t// out\n        /* \"hello.sol\":467:572  function update(string memory _text, uint _no) public {... */\n    tag_29:\n        /* \"hello.sol\":540:545  _text */\n      dup2\n        /* \"hello.sol\":532:539  myState */\n      0x00\n        /* \"hello.sol\":532:545  myState=_text */\n      swap1\n      dup2\n      tag_76\n      swap2\n      swap1\n      tag_74\n      jump\t// in\n    tag_76:\n      pop\n        /* \"hello.sol\":562:565  _no */\n      dup1\n        /* \"hello.sol\":556:561  myNum */\n      0x01\n        /* \"hello.sol\":556:565  myNum=_no */\n      dup2\n      swap1\n      sstore\n      pop\n        /* \"hello.sol\":467:572  function update(string memory _text, uint _no) public {... */\n      pop\n      pop\n      jump\t// out\n        /* \"hello.sol\":689:745  string[] public stringArray=['james','victor', 'ochula'] */\n    tag_33:\n      0x05\n      dup2\n      dup2\n      sload\n      dup2\n      lt\n      tag_77\n      jumpi\n      0x00\n      dup1\n      revert\n    tag_77:\n      swap1\n      0x00\n      mstore\n      keccak256(0x00, 0x20)\n      add\n      0x00\n      swap2\n      pop\n      swap1\n      pop\n      dup1\n      sload\n      tag_79\n      swap1\n      tag_80\n      jump\t// in\n    tag_79:\n      dup1\n      0x1f\n      add\n      0x20\n      dup1\n      swap2\n      div\n      mul\n      0x20\n      add\n      mload(0x40)\n      swap1\n      dup2\n      add\n      0x40\n      mstore\n      dup1\n      swap3\n      swap2\n      swap1\n      dup2\n      dup2\n      mstore\n      0x20\n      add\n      dup3\n      dup1\n      sload\n      tag_81\n      swap1\n      tag_80\n      jump\t// in\n    tag_81:\n      dup1\n      iszero\n      tag_82\n      jumpi\n      dup1\n      0x1f\n      lt\n      tag_83\n      jumpi\n      0x0100\n      dup1\n      dup4\n      sload\n      div\n      mul\n      dup4\n      mstore\n      swap2\n      0x20\n      add\n      swap2\n      jump(tag_82)\n    tag_83:\n      dup3\n      add\n      swap2\n      swap1\n      0x00\n      mstore\n      keccak256(0x00, 0x20)\n      swap1\n    tag_84:\n      dup2\n      sload\n      dup2\n      mstore\n      swap1\n      0x01\n      add\n      swap1\n      0x20\n      add\n      dup1\n      dup4\n      gt\n      tag_84\n      jumpi\n      dup3\n      swap1\n      sub\n      0x1f\n      and\n      dup3\n      add\n      swap2\n    tag_82:\n      pop\n      pop\n      pop\n      pop\n      pop\n      dup2\n      jump\t// out\n        /* \"hello.sol\":1190:1279  function print2D() public view  returns (uint[][] memory){... */\n    tag_37:\n        /* \"hello.sol\":1231:1246  uint[][] memory */\n      0x60\n        /* \"hello.sol\":1265:1272  array2D */\n      0x07\n        /* \"hello.sol\":1257:1272  return  array2D */\n      dup1\n      sload\n      dup1\n      0x20\n      mul\n      0x20\n      add\n      mload(0x40)\n      swap1\n      dup2\n      add\n      0x40\n      mstore\n      dup1\n      swap3\n      swap2\n      swap1\n      dup2\n      dup2\n      mstore\n      0x20\n      add\n      0x00\n      swap1\n    tag_86:\n      dup3\n      dup3\n      lt\n      iszero\n      tag_87\n      jumpi\n      dup4\n      dup3\n      swap1\n      0x00\n      mstore\n      keccak256(0x00, 0x20)\n      add\n      dup1\n      sload\n      dup1\n      0x20\n      mul\n      0x20\n      add\n      mload(0x40)\n      swap1\n      dup2\n      add\n      0x40\n      mstore\n      dup1\n      swap3\n      swap2\n      swap1\n      dup2\n      dup2\n      mstore\n      0x20\n      add\n      dup3\n      dup1\n      sload\n      dup1\n      iszero\n      tag_89\n      jumpi\n      0x20\n      mul\n      dup3\n      add\n      swap2\n      swap1\n      0x00\n      mstore\n      keccak256(0x00, 0x20)\n      swap1\n    tag_90:\n      dup2\n      sload\n      dup2\n      mstore\n      0x20\n      add\n      swap1\n      0x01\n      add\n      swap1\n      dup1\n      dup4\n      gt\n      tag_90\n      jumpi\n    tag_89:\n      pop\n      pop\n      pop\n      pop\n      pop\n      dup2\n      mstore\n      0x20\n      add\n      swap1\n      0x01\n      add\n      swap1\n      jump(tag_86)\n    tag_87:\n      pop\n      pop\n      pop\n      pop\n      swap1\n      pop\n        /* \"hello.sol\":1190:1279  function print2D() public view  returns (uint[][] memory){... */\n      swap1\n      jump\t// out\n        /* \"hello.sol\":89:110  string public myState */\n    tag_41:\n      0x00\n      dup1\n      sload\n      tag_91\n      swap1\n      tag_80\n      jump\t// in\n    tag_91:\n      dup1\n      0x1f\n      add\n      0x20\n      dup1\n      swap2\n      div\n      mul\n      0x20\n      add\n      mload(0x40)\n      swap1\n      dup2\n      add\n      0x40\n      mstore\n      dup1\n      swap3\n      swap2\n      swap1\n      dup2\n      dup2\n      mstore\n      0x20\n      add\n      dup3\n      dup1\n      sload\n      tag_92\n      swap1\n      tag_80\n      jump\t// in\n    tag_92:\n      dup1\n      iszero\n      tag_93\n      jumpi\n      dup1\n      0x1f\n      lt\n      tag_94\n      jumpi\n      0x0100\n      dup1\n      dup4\n      sload\n      div\n      mul\n      dup4\n      mstore\n      swap2\n      0x20\n      add\n      swap2\n      jump(tag_93)\n    tag_94:\n      dup3\n      add\n      swap2\n      swap1\n      0x00\n      mstore\n      keccak256(0x00, 0x20)\n      swap1\n    tag_95:\n      dup2\n      sload\n      dup2\n      mstore\n      swap1\n      0x01\n      add\n      swap1\n      0x20\n      add\n      dup1\n      dup4\n      gt\n      tag_95\n      jumpi\n      dup3\n      swap1\n      sub\n      0x1f\n      and\n      dup3\n      add\n      swap2\n    tag_93:\n      pop\n      pop\n      pop\n      pop\n      pop\n      dup2\n      jump\t// out\n        /* \"hello.sol\":627:658  uint[] public uintArray=[1,2,3] */\n    tag_45:\n      0x04\n      dup2\n      dup2\n      sload\n      dup2\n      lt\n      tag_96\n      jumpi\n      0x00\n      dup1\n      revert\n    tag_96:\n      swap1\n      0x00\n      mstore\n      keccak256(0x00, 0x20)\n      add\n      0x00\n      swap2\n      pop\n      swap1\n      pop\n      sload\n      dup2\n      jump\t// out\n        /* \"hello.sol\":903:992  function arrayCount()public view returns (uint[] memory){... */\n    tag_48:\n        /* \"hello.sol\":945:958  uint[] memory */\n      0x60\n        /* \"hello.sol\":976:985  uintArray */\n      0x04\n        /* \"hello.sol\":969:985  return uintArray */\n      dup1\n      sload\n      dup1\n      0x20\n      mul\n      0x20\n      add\n      mload(0x40)\n      swap1\n      dup2\n      add\n      0x40\n      mstore\n      dup1\n      swap3\n      swap2\n      swap1\n      dup2\n      dup2\n      mstore\n      0x20\n      add\n      dup3\n      dup1\n      sload\n      dup1\n      iszero\n      tag_99\n      jumpi\n      0x20\n      mul\n      dup3\n      add\n      swap2\n      swap1\n      0x00\n      mstore\n      keccak256(0x00, 0x20)\n      swap1\n    tag_100:\n      dup2\n      sload\n      dup2\n      mstore\n      0x20\n      add\n      swap1\n      0x01\n      add\n      swap1\n      dup1\n      dup4\n      gt\n      tag_100\n      jumpi\n    tag_99:\n      pop\n      pop\n      pop\n      pop\n      pop\n      swap1\n      pop\n        /* \"hello.sol\":903:992  function arrayCount()public view returns (uint[] memory){... */\n      swap1\n      jump\t// out\n        /* \"hello.sol\":997:1095  function arrayString() public view  returns (string[] memory){... */\n    tag_52:\n        /* \"hello.sol\":1042:1057  string[] memory */\n      0x60\n        /* \"hello.sol\":1077:1088  stringArray */\n      0x05\n        /* \"hello.sol\":1070:1088  return stringArray */\n      dup1\n      sload\n      dup1\n      0x20\n      mul\n      0x20\n      add\n      mload(0x40)\n      swap1\n      dup2\n      add\n      0x40\n      mstore\n      dup1\n      swap3\n      swap2\n      swap1\n      dup2\n      dup2\n      mstore\n      0x20\n      add\n      0x00\n      swap1\n    tag_102:\n      dup3\n      dup3\n      lt\n      iszero\n      tag_103\n      jumpi\n      dup4\n      dup3\n      swap1\n      0x00\n      mstore\n      keccak256(0x00, 0x20)\n      add\n      dup1\n      sload\n      tag_105\n      swap1\n      tag_80\n      jump\t// in\n    tag_105:\n      dup1\n      0x1f\n      add\n      0x20\n      dup1\n      swap2\n      div\n      mul\n      0x20\n      add\n      mload(0x40)\n      swap1\n      dup2\n      add\n      0x40\n      mstore\n      dup1\n      swap3\n      swap2\n      swap1\n      dup2\n      dup2\n      mstore\n      0x20\n      add\n      dup3\n      dup1\n      sload\n      tag_106\n      swap1\n      tag_80\n      jump\t// in\n    tag_106:\n      dup1\n      iszero\n      tag_107\n      jumpi\n      dup1\n      0x1f\n      lt\n      tag_108\n      jumpi\n      0x0100\n      dup1\n      dup4\n      sload\n      div\n      mul\n      dup4\n      mstore\n      swap2\n      0x20\n      add\n      swap2\n      jump(tag_107)\n    tag_108:\n      dup3\n      add\n      swap2\n      swap1\n      0x00\n      mstore\n      keccak256(0x00, 0x20)\n      swap1\n    tag_109:\n      dup2\n      sload\n      dup2\n      mstore\n      swap1\n      0x01\n      add\n      swap1\n      0x20\n      add\n      dup1\n      dup4\n      gt\n      tag_109\n      jumpi\n      dup3\n      swap1\n      sub\n      0x1f\n      and\n      dup3\n      add\n      swap2\n    tag_107:\n      pop\n      pop\n      pop\n      pop\n      pop\n      dup2\n      mstore\n      0x20\n      add\n      swap1\n      0x01\n      add\n      swap1\n      jump(tag_102)\n    tag_103:\n      pop\n      pop\n      pop\n      pop\n      swap1\n      pop\n        /* \"hello.sol\":997:1095  function arrayString() public view  returns (string[] memory){... */\n      swap1\n      jump\t// out\n        /* \"hello.sol\":425:460  int public  maxIntNum=type(int).max */\n    tag_56:\n      sload(0x03)\n      dup2\n      jump\t// out\n        /* \"hello.sol\":1142:1183  uint[][] public array2D=[[1,2,3],[4,5,6]] */\n    tag_62:\n      0x07\n      dup3\n      dup2\n      sload\n      dup2\n      lt\n      tag_110\n      jumpi\n      0x00\n      dup1\n      revert\n    tag_110:\n      swap1\n      0x00\n      mstore\n      keccak256(0x00, 0x20)\n      add\n      dup2\n      dup2\n      sload\n      dup2\n      lt\n      tag_112\n      jumpi\n      0x00\n      dup1\n      revert\n    tag_112:\n      swap1\n      0x00\n      mstore\n      keccak256(0x00, 0x20)\n      add\n      0x00\n      swap2\n      pop\n      swap2\n      pop\n      pop\n      sload\n      dup2\n      jump\t// out\n        /* \"hello.sol\":117:137  uint256 public myNum */\n    tag_65:\n      sload(0x01)\n      dup2\n      jump\t// out\n        /* \"hello.sol\":765:797  string[] public emptyStirngArray */\n    tag_69:\n      0x06\n      dup2\n      dup2\n      sload\n      dup2\n      lt\n      tag_114\n      jumpi\n      0x00\n      dup1\n      revert\n    tag_114:\n      swap1\n      0x00\n      mstore\n      keccak256(0x00, 0x20)\n      add\n      0x00\n      swap2\n      pop\n      swap1\n      pop\n      dup1\n      sload\n      tag_116\n      swap1\n      tag_80\n      jump\t// in\n    tag_116:\n      dup1\n      0x1f\n      add\n      0x20\n      dup1\n      swap2\n      div\n      mul\n      0x20\n      add\n      mload(0x40)\n      swap1\n      dup2\n      add\n      0x40\n      mstore\n      dup1\n      swap3\n      swap2\n      swap1\n      dup2\n      dup2\n      mstore\n      0x20\n      add\n      dup3\n      dup1\n      sload\n      tag_117\n      swap1\n      tag_80\n      jump\t// in\n    tag_117:\n      dup1\n      iszero\n      tag_118\n      jumpi\n      dup1\n      0x1f\n      lt\n      tag_119\n      jumpi\n      0x0100\n      dup1\n      dup4\n      sload\n      div\n      mul\n      dup4\n      mstore\n      swap2\n      0x20\n      add\n      swap2\n      jump(tag_118)\n    tag_119:\n      dup3\n      add\n      swap2\n      swap1\n      0x00\n      mstore\n      keccak256(0x00, 0x20)\n      swap1\n    tag_120:\n      dup2\n      sload\n      dup2\n      mstore\n      swap1\n      0x01\n      add\n      swap1\n      0x20\n      add\n      dup1\n      dup4\n      gt\n      tag_120\n      jumpi\n      dup3\n      swap1\n      sub\n      0x1f\n      and\n      dup3\n      add\n      swap2\n    tag_118:\n      pop\n      pop\n      pop\n      pop\n      pop\n      dup2\n      jump\t// out\n        /* \"#utility.yul\":7:82   */\n    tag_121:\n        /* \"#utility.yul\":40:46   */\n      0x00\n        /* \"#utility.yul\":73:75   */\n      0x40\n        /* \"#utility.yul\":67:76   */\n      mload\n        /* \"#utility.yul\":57:76   */\n      swap1\n      pop\n        /* \"#utility.yul\":7:82   */\n      swap1\n      jump\t// out\n        /* \"#utility.yul\":88:205   */\n    tag_122:\n        /* \"#utility.yul\":197:198   */\n      0x00\n        /* \"#utility.yul\":194:195   */\n      dup1\n        /* \"#utility.yul\":187:199   */\n      revert\n        /* \"#utility.yul\":211:328   */\n    tag_123:\n        /* \"#utility.yul\":320:321   */\n      0x00\n        /* \"#utility.yul\":317:318   */\n      dup1\n        /* \"#utility.yul\":310:322   */\n      revert\n        /* \"#utility.yul\":334:451   */\n    tag_124:\n        /* \"#utility.yul\":443:444   */\n      0x00\n        /* \"#utility.yul\":440:441   */\n      dup1\n        /* \"#utility.yul\":433:445   */\n      revert\n        /* \"#utility.yul\":457:574   */\n    tag_125:\n        /* \"#utility.yul\":566:567   */\n      0x00\n        /* \"#utility.yul\":563:564   */\n      dup1\n        /* \"#utility.yul\":556:568   */\n      revert\n        /* \"#utility.yul\":580:682   */\n    tag_126:\n        /* \"#utility.yul\":621:627   */\n      0x00\n        /* \"#utility.yul\":672:674   */\n      0x1f\n        /* \"#utility.yul\":668:675   */\n      not\n        /* \"#utility.yul\":663:665   */\n      0x1f\n        /* \"#utility.yul\":656:661   */\n      dup4\n        /* \"#utility.yul\":652:666   */\n      add\n        /* \"#utility.yul\":648:676   */\n      and\n        /* \"#utility.yul\":638:676   */\n      swap1\n      pop\n        /* \"#utility.yul\":580:682   */\n      swap2\n      swap1\n      pop\n      jump\t// out\n        /* \"#utility.yul\":688:868   */\n    tag_127:\n        /* \"#utility.yul\":736:813   */\n      0x4e487b7100000000000000000000000000000000000000000000000000000000\n        /* \"#utility.yul\":733:734   */\n      0x00\n        /* \"#utility.yul\":726:814   */\n      mstore\n        /* \"#utility.yul\":833:837   */\n      0x41\n        /* \"#utility.yul\":830:831   */\n      0x04\n        /* \"#utility.yul\":823:838   */\n      mstore\n        /* \"#utility.yul\":857:861   */\n      0x24\n        /* \"#utility.yul\":854:855   */\n      0x00\n        /* \"#utility.yul\":847:862   */\n      revert\n        /* \"#utility.yul\":874:1155   */\n    tag_128:\n        /* \"#utility.yul\":957:984   */\n      tag_192\n        /* \"#utility.yul\":979:983   */\n      dup3\n        /* \"#utility.yul\":957:984   */\n      tag_126\n      jump\t// in\n    tag_192:\n        /* \"#utility.yul\":949:955   */\n      dup2\n        /* \"#utility.yul\":945:985   */\n      add\n        /* \"#utility.yul\":1087:1093   */\n      dup2\n        /* \"#utility.yul\":1075:1085   */\n      dup2\n        /* \"#utility.yul\":1072:1094   */\n      lt\n        /* \"#utility.yul\":1051:1069   */\n      0xffffffffffffffff\n        /* \"#utility.yul\":1039:1049   */\n      dup3\n        /* \"#utility.yul\":1036:1070   */\n      gt\n        /* \"#utility.yul\":1033:1095   */\n      or\n        /* \"#utility.yul\":1030:1118   */\n      iszero\n      tag_193\n      jumpi\n        /* \"#utility.yul\":1098:1116   */\n      tag_194\n      tag_127\n      jump\t// in\n    tag_194:\n        /* \"#utility.yul\":1030:1118   */\n    tag_193:\n        /* \"#utility.yul\":1138:1148   */\n      dup1\n        /* \"#utility.yul\":1134:1136   */\n      0x40\n        /* \"#utility.yul\":1127:1149   */\n      mstore\n        /* \"#utility.yul\":917:1155   */\n      pop\n        /* \"#utility.yul\":874:1155   */\n      pop\n      pop\n      jump\t// out\n        /* \"#utility.yul\":1161:1290   */\n    tag_129:\n        /* \"#utility.yul\":1195:1201   */\n      0x00\n        /* \"#utility.yul\":1222:1242   */\n      tag_196\n      tag_121\n      jump\t// in\n    tag_196:\n        /* \"#utility.yul\":1212:1242   */\n      swap1\n      pop\n        /* \"#utility.yul\":1251:1284   */\n      tag_197\n        /* \"#utility.yul\":1279:1283   */\n      dup3\n        /* \"#utility.yul\":1271:1277   */\n      dup3\n        /* \"#utility.yul\":1251:1284   */\n      tag_128\n      jump\t// in\n    tag_197:\n        /* \"#utility.yul\":1161:1290   */\n      swap2\n      swap1\n      pop\n      jump\t// out\n        /* \"#utility.yul\":1296:1604   */\n    tag_130:\n        /* \"#utility.yul\":1358:1362   */\n      0x00\n        /* \"#utility.yul\":1448:1466   */\n      0xffffffffffffffff\n        /* \"#utility.yul\":1440:1446   */\n      dup3\n        /* \"#utility.yul\":1437:1467   */\n      gt\n        /* \"#utility.yul\":1434:1490   */\n      iszero\n      tag_199\n      jumpi\n        /* \"#utility.yul\":1470:1488   */\n      tag_200\n      tag_127\n      jump\t// in\n    tag_200:\n        /* \"#utility.yul\":1434:1490   */\n    tag_199:\n        /* \"#utility.yul\":1508:1537   */\n      tag_201\n        /* \"#utility.yul\":1530:1536   */\n      dup3\n        /* \"#utility.yul\":1508:1537   */\n      tag_126\n      jump\t// in\n    tag_201:\n        /* \"#utility.yul\":1500:1537   */\n      swap1\n      pop\n        /* \"#utility.yul\":1592:1596   */\n      0x20\n        /* \"#utility.yul\":1586:1590   */\n      dup2\n        /* \"#utility.yul\":1582:1597   */\n      add\n        /* \"#utility.yul\":1574:1597   */\n      swap1\n      pop\n        /* \"#utility.yul\":1296:1604   */\n      swap2\n      swap1\n      pop\n      jump\t// out\n        /* \"#utility.yul\":1610:1758   */\n    tag_131:\n        /* \"#utility.yul\":1708:1714   */\n      dup3\n        /* \"#utility.yul\":1703:1706   */\n      dup2\n        /* \"#utility.yul\":1698:1701   */\n      dup4\n        /* \"#utility.yul\":1685:1715   */\n      calldatacopy\n        /* \"#utility.yul\":1749:1750   */\n      0x00\n        /* \"#utility.yul\":1740:1746   */\n      dup4\n        /* \"#utility.yul\":1735:1738   */\n      dup4\n        /* \"#utility.yul\":1731:1747   */\n      add\n        /* \"#utility.yul\":1724:1751   */\n      mstore\n        /* \"#utility.yul\":1610:1758   */\n      pop\n      pop\n      pop\n      jump\t// out\n        /* \"#utility.yul\":1764:2189   */\n    tag_132:\n        /* \"#utility.yul\":1842:1847   */\n      0x00\n        /* \"#utility.yul\":1867:1933   */\n      tag_204\n        /* \"#utility.yul\":1883:1932   */\n      tag_205\n        /* \"#utility.yul\":1925:1931   */\n      dup5\n        /* \"#utility.yul\":1883:1932   */\n      tag_130\n      jump\t// in\n    tag_205:\n        /* \"#utility.yul\":1867:1933   */\n      tag_129\n      jump\t// in\n    tag_204:\n        /* \"#utility.yul\":1858:1933   */\n      swap1\n      pop\n        /* \"#utility.yul\":1956:1962   */\n      dup3\n        /* \"#utility.yul\":1949:1954   */\n      dup2\n        /* \"#utility.yul\":1942:1963   */\n      mstore\n        /* \"#utility.yul\":1994:1998   */\n      0x20\n        /* \"#utility.yul\":1987:1992   */\n      dup2\n        /* \"#utility.yul\":1983:1999   */\n      add\n        /* \"#utility.yul\":2032:2035   */\n      dup5\n        /* \"#utility.yul\":2023:2029   */\n      dup5\n        /* \"#utility.yul\":2018:2021   */\n      dup5\n        /* \"#utility.yul\":2014:2030   */\n      add\n        /* \"#utility.yul\":2011:2036   */\n      gt\n        /* \"#utility.yul\":2008:2120   */\n      iszero\n      tag_206\n      jumpi\n        /* \"#utility.yul\":2039:2118   */\n      tag_207\n      tag_125\n      jump\t// in\n    tag_207:\n        /* \"#utility.yul\":2008:2120   */\n    tag_206:\n        /* \"#utility.yul\":2129:2183   */\n      tag_208\n        /* \"#utility.yul\":2176:2182   */\n      dup5\n        /* \"#utility.yul\":2171:2174   */\n      dup3\n        /* \"#utility.yul\":2166:2169   */\n      dup6\n        /* \"#utility.yul\":2129:2183   */\n      tag_131\n      jump\t// in\n    tag_208:\n        /* \"#utility.yul\":1848:2189   */\n      pop\n        /* \"#utility.yul\":1764:2189   */\n      swap4\n      swap3\n      pop\n      pop\n      pop\n      jump\t// out\n        /* \"#utility.yul\":2209:2549   */\n    tag_133:\n        /* \"#utility.yul\":2265:2270   */\n      0x00\n        /* \"#utility.yul\":2314:2317   */\n      dup3\n        /* \"#utility.yul\":2307:2311   */\n      0x1f\n        /* \"#utility.yul\":2299:2305   */\n      dup4\n        /* \"#utility.yul\":2295:2312   */\n      add\n        /* \"#utility.yul\":2291:2318   */\n      slt\n        /* \"#utility.yul\":2281:2403   */\n      tag_210\n      jumpi\n        /* \"#utility.yul\":2322:2401   */\n      tag_211\n      tag_124\n      jump\t// in\n    tag_211:\n        /* \"#utility.yul\":2281:2403   */\n    tag_210:\n        /* \"#utility.yul\":2439:2445   */\n      dup2\n        /* \"#utility.yul\":2426:2446   */\n      calldataload\n        /* \"#utility.yul\":2464:2543   */\n      tag_212\n        /* \"#utility.yul\":2539:2542   */\n      dup5\n        /* \"#utility.yul\":2531:2537   */\n      dup3\n        /* \"#utility.yul\":2524:2528   */\n      0x20\n        /* \"#utility.yul\":2516:2522   */\n      dup7\n        /* \"#utility.yul\":2512:2529   */\n      add\n        /* \"#utility.yul\":2464:2543   */\n      tag_132\n      jump\t// in\n    tag_212:\n        /* \"#utility.yul\":2455:2543   */\n      swap2\n      pop\n        /* \"#utility.yul\":2271:2549   */\n      pop\n        /* \"#utility.yul\":2209:2549   */\n      swap3\n      swap2\n      pop\n      pop\n      jump\t// out\n        /* \"#utility.yul\":2555:3064   */\n    tag_20:\n        /* \"#utility.yul\":2624:2630   */\n      0x00\n        /* \"#utility.yul\":2673:2675   */\n      0x20\n        /* \"#utility.yul\":2661:2670   */\n      dup3\n        /* \"#utility.yul\":2652:2659   */\n      dup5\n        /* \"#utility.yul\":2648:2671   */\n      sub\n        /* \"#utility.yul\":2644:2676   */\n      slt\n        /* \"#utility.yul\":2641:2760   */\n      iszero\n      tag_214\n      jumpi\n        /* \"#utility.yul\":2679:2758   */\n      tag_215\n      tag_122\n      jump\t// in\n    tag_215:\n        /* \"#utility.yul\":2641:2760   */\n    tag_214:\n        /* \"#utility.yul\":2827:2828   */\n      0x00\n        /* \"#utility.yul\":2816:2825   */\n      dup3\n        /* \"#utility.yul\":2812:2829   */\n      add\n        /* \"#utility.yul\":2799:2830   */\n      calldataload\n        /* \"#utility.yul\":2857:2875   */\n      0xffffffffffffffff\n        /* \"#utility.yul\":2849:2855   */\n      dup2\n        /* \"#utility.yul\":2846:2876   */\n      gt\n        /* \"#utility.yul\":2843:2960   */\n      iszero\n      tag_216\n      jumpi\n        /* \"#utility.yul\":2879:2958   */\n      tag_217\n      tag_123\n      jump\t// in\n    tag_217:\n        /* \"#utility.yul\":2843:2960   */\n    tag_216:\n        /* \"#utility.yul\":2984:3047   */\n      tag_218\n        /* \"#utility.yul\":3039:3046   */\n      dup5\n        /* \"#utility.yul\":3030:3036   */\n      dup3\n        /* \"#utility.yul\":3019:3028   */\n      dup6\n        /* \"#utility.yul\":3015:3037   */\n      add\n        /* \"#utility.yul\":2984:3047   */\n      tag_133\n      jump\t// in\n    tag_218:\n        /* \"#utility.yul\":2974:3047   */\n      swap2\n      pop\n        /* \"#utility.yul\":2770:3057   */\n      pop\n        /* \"#utility.yul\":2555:3064   */\n      swap3\n      swap2\n      pop\n      pop\n      jump\t// out\n        /* \"#utility.yul\":3070:3147   */\n    tag_134:\n        /* \"#utility.yul\":3107:3114   */\n      0x00\n        /* \"#utility.yul\":3136:3141   */\n      dup2\n        /* \"#utility.yul\":3125:3141   */\n      swap1\n      pop\n        /* \"#utility.yul\":3070:3147   */\n      swap2\n      swap1\n      pop\n      jump\t// out\n        /* \"#utility.yul\":3153:3271   */\n    tag_135:\n        /* \"#utility.yul\":3240:3264   */\n      tag_221\n        /* \"#utility.yul\":3258:3263   */\n      dup2\n        /* \"#utility.yul\":3240:3264   */\n      tag_134\n      jump\t// in\n    tag_221:\n        /* \"#utility.yul\":3235:3238   */\n      dup3\n        /* \"#utility.yul\":3228:3265   */\n      mstore\n        /* \"#utility.yul\":3153:3271   */\n      pop\n      pop\n      jump\t// out\n        /* \"#utility.yul\":3277:3499   */\n    tag_25:\n        /* \"#utility.yul\":3370:3374   */\n      0x00\n        /* \"#utility.yul\":3408:3410   */\n      0x20\n        /* \"#utility.yul\":3397:3406   */\n      dup3\n        /* \"#utility.yul\":3393:3411   */\n      add\n        /* \"#utility.yul\":3385:3411   */\n      swap1\n      pop\n        /* \"#utility.yul\":3421:3492   */\n      tag_223\n        /* \"#utility.yul\":3489:3490   */\n      0x00\n        /* \"#utility.yul\":3478:3487   */\n      dup4\n        /* \"#utility.yul\":3474:3491   */\n      add\n        /* \"#utility.yul\":3465:3471   */\n      dup5\n        /* \"#utility.yul\":3421:3492   */\n      tag_135\n      jump\t// in\n    tag_223:\n        /* \"#utility.yul\":3277:3499   */\n      swap3\n      swap2\n      pop\n      pop\n      jump\t// out\n        /* \"#utility.yul\":3505:3627   */\n    tag_136:\n        /* \"#utility.yul\":3578:3602   */\n      tag_225\n        /* \"#utility.yul\":3596:3601   */\n      dup2\n        /* \"#utility.yul\":3578:3602   */\n      tag_134\n      jump\t// in\n    tag_225:\n        /* \"#utility.yul\":3571:3576   */\n      dup2\n        /* \"#utility.yul\":3568:3603   */\n      eq\n        /* \"#utility.yul\":3558:3621   */\n      tag_226\n      jumpi\n        /* \"#utility.yul\":3617:3618   */\n      0x00\n        /* \"#utility.yul\":3614:3615   */\n      dup1\n        /* \"#utility.yul\":3607:3619   */\n      revert\n        /* \"#utility.yul\":3558:3621   */\n    tag_226:\n        /* \"#utility.yul\":3505:3627   */\n      pop\n      jump\t// out\n        /* \"#utility.yul\":3633:3772   */\n    tag_137:\n        /* \"#utility.yul\":3679:3684   */\n      0x00\n        /* \"#utility.yul\":3717:3723   */\n      dup2\n        /* \"#utility.yul\":3704:3724   */\n      calldataload\n        /* \"#utility.yul\":3695:3724   */\n      swap1\n      pop\n        /* \"#utility.yul\":3733:3766   */\n      tag_228\n        /* \"#utility.yul\":3760:3765   */\n      dup2\n        /* \"#utility.yul\":3733:3766   */\n      tag_136\n      jump\t// in\n    tag_228:\n        /* \"#utility.yul\":3633:3772   */\n      swap3\n      swap2\n      pop\n      pop\n      jump\t// out\n        /* \"#utility.yul\":3778:4432   */\n    tag_28:\n        /* \"#utility.yul\":3856:3862   */\n      0x00\n        /* \"#utility.yul\":3864:3870   */\n      dup1\n        /* \"#utility.yul\":3913:3915   */\n      0x40\n        /* \"#utility.yul\":3901:3910   */\n      dup4\n        /* \"#utility.yul\":3892:3899   */\n      dup6\n        /* \"#utility.yul\":3888:3911   */\n      sub\n        /* \"#utility.yul\":3884:3916   */\n      slt\n        /* \"#utility.yul\":3881:4000   */\n      iszero\n      tag_230\n      jumpi\n        /* \"#utility.yul\":3919:3998   */\n      tag_231\n      tag_122\n      jump\t// in\n    tag_231:\n        /* \"#utility.yul\":3881:4000   */\n    tag_230:\n        /* \"#utility.yul\":4067:4068   */\n      0x00\n        /* \"#utility.yul\":4056:4065   */\n      dup4\n        /* \"#utility.yul\":4052:4069   */\n      add\n        /* \"#utility.yul\":4039:4070   */\n      calldataload\n        /* \"#utility.yul\":4097:4115   */\n      0xffffffffffffffff\n        /* \"#utility.yul\":4089:4095   */\n      dup2\n        /* \"#utility.yul\":4086:4116   */\n      gt\n        /* \"#utility.yul\":4083:4200   */\n      iszero\n      tag_232\n      jumpi\n        /* \"#utility.yul\":4119:4198   */\n      tag_233\n      tag_123\n      jump\t// in\n    tag_233:\n        /* \"#utility.yul\":4083:4200   */\n    tag_232:\n        /* \"#utility.yul\":4224:4287   */\n      tag_234\n        /* \"#utility.yul\":4279:4286   */\n      dup6\n        /* \"#utility.yul\":4270:4276   */\n      dup3\n        /* \"#utility.yul\":4259:4268   */\n      dup7\n        /* \"#utility.yul\":4255:4277   */\n      add\n        /* \"#utility.yul\":4224:4287   */\n      tag_133\n      jump\t// in\n    tag_234:\n        /* \"#utility.yul\":4214:4287   */\n      swap3\n      pop\n        /* \"#utility.yul\":4010:4297   */\n      pop\n        /* \"#utility.yul\":4336:4338   */\n      0x20\n        /* \"#utility.yul\":4362:4415   */\n      tag_235\n        /* \"#utility.yul\":4407:4414   */\n      dup6\n        /* \"#utility.yul\":4398:4404   */\n      dup3\n        /* \"#utility.yul\":4387:4396   */\n      dup7\n        /* \"#utility.yul\":4383:4405   */\n      add\n        /* \"#utility.yul\":4362:4415   */\n      tag_137\n      jump\t// in\n    tag_235:\n        /* \"#utility.yul\":4352:4415   */\n      swap2\n      pop\n        /* \"#utility.yul\":4307:4425   */\n      pop\n        /* \"#utility.yul\":3778:4432   */\n      swap3\n      pop\n      swap3\n      swap1\n      pop\n      jump\t// out\n        /* \"#utility.yul\":4438:4767   */\n    tag_32:\n        /* \"#utility.yul\":4497:4503   */\n      0x00\n        /* \"#utility.yul\":4546:4548   */\n      0x20\n        /* \"#utility.yul\":4534:4543   */\n      dup3\n        /* \"#utility.yul\":4525:4532   */\n      dup5\n        /* \"#utility.yul\":4521:4544   */\n      sub\n        /* \"#utility.yul\":4517:4549   */\n      slt\n        /* \"#utility.yul\":4514:4633   */\n      iszero\n      tag_237\n      jumpi\n        /* \"#utility.yul\":4552:4631   */\n      tag_238\n      tag_122\n      jump\t// in\n    tag_238:\n        /* \"#utility.yul\":4514:4633   */\n    tag_237:\n        /* \"#utility.yul\":4672:4673   */\n      0x00\n        /* \"#utility.yul\":4697:4750   */\n      tag_239\n        /* \"#utility.yul\":4742:4749   */\n      dup5\n        /* \"#utility.yul\":4733:4739   */\n      dup3\n        /* \"#utility.yul\":4722:4731   */\n      dup6\n        /* \"#utility.yul\":4718:4740   */\n      add\n        /* \"#utility.yul\":4697:4750   */\n      tag_137\n      jump\t// in\n    tag_239:\n        /* \"#utility.yul\":4687:4750   */\n      swap2\n      pop\n        /* \"#utility.yul\":4643:4760   */\n      pop\n        /* \"#utility.yul\":4438:4767   */\n      swap3\n      swap2\n      pop\n      pop\n      jump\t// out\n        /* \"#utility.yul\":4773:4872   */\n    tag_138:\n        /* \"#utility.yul\":4825:4831   */\n      0x00\n        /* \"#utility.yul\":4859:4864   */\n      dup2\n        /* \"#utility.yul\":4853:4865   */\n      mload\n        /* \"#utility.yul\":4843:4865   */\n      swap1\n      pop\n        /* \"#utility.yul\":4773:4872   */\n      swap2\n      swap1\n      pop\n      jump\t// out\n        /* \"#utility.yul\":4878:5047   */\n    tag_139:\n        /* \"#utility.yul\":4962:4973   */\n      0x00\n        /* \"#utility.yul\":4996:5002   */\n      dup3\n        /* \"#utility.yul\":4991:4994   */\n      dup3\n        /* \"#utility.yul\":4984:5003   */\n      mstore\n        /* \"#utility.yul\":5036:5040   */\n      0x20\n        /* \"#utility.yul\":5031:5034   */\n      dup3\n        /* \"#utility.yul\":5027:5041   */\n      add\n        /* \"#utility.yul\":5012:5041   */\n      swap1\n      pop\n        /* \"#utility.yul\":4878:5047   */\n      swap3\n      swap2\n      pop\n      pop\n      jump\t// out\n        /* \"#utility.yul\":5053:5192   */\n    tag_140:\n        /* \"#utility.yul\":5142:5148   */\n      dup3\n        /* \"#utility.yul\":5137:5140   */\n      dup2\n        /* \"#utility.yul\":5132:5135   */\n      dup4\n        /* \"#utility.yul\":5126:5149   */\n      mcopy\n        /* \"#utility.yul\":5183:5184   */\n      0x00\n        /* \"#utility.yul\":5174:5180   */\n      dup4\n        /* \"#utility.yul\":5169:5172   */\n      dup4\n        /* \"#utility.yul\":5165:5181   */\n      add\n        /* \"#utility.yul\":5158:5185   */\n      mstore\n        /* \"#utility.yul\":5053:5192   */\n      pop\n      pop\n      pop\n      jump\t// out\n        /* \"#utility.yul\":5198:5575   */\n    tag_141:\n        /* \"#utility.yul\":5286:5289   */\n      0x00\n        /* \"#utility.yul\":5314:5353   */\n      tag_244\n        /* \"#utility.yul\":5347:5352   */\n      dup3\n        /* \"#utility.yul\":5314:5353   */\n      tag_138\n      jump\t// in\n    tag_244:\n        /* \"#utility.yul\":5369:5440   */\n      tag_245\n        /* \"#utility.yul\":5433:5439   */\n      dup2\n        /* \"#utility.yul\":5428:5431   */\n      dup6\n        /* \"#utility.yul\":5369:5440   */\n      tag_139\n      jump\t// in\n    tag_245:\n        /* \"#utility.yul\":5362:5440   */\n      swap4\n      pop\n        /* \"#utility.yul\":5449:5514   */\n      tag_246\n        /* \"#utility.yul\":5507:5513   */\n      dup2\n        /* \"#utility.yul\":5502:5505   */\n      dup6\n        /* \"#utility.yul\":5495:5499   */\n      0x20\n        /* \"#utility.yul\":5488:5493   */\n      dup7\n        /* \"#utility.yul\":5484:5500   */\n      add\n        /* \"#utility.yul\":5449:5514   */\n      tag_140\n      jump\t// in\n    tag_246:\n        /* \"#utility.yul\":5539:5568   */\n      tag_247\n        /* \"#utility.yul\":5561:5567   */\n      dup2\n        /* \"#utility.yul\":5539:5568   */\n      tag_126\n      jump\t// in\n    tag_247:\n        /* \"#utility.yul\":5534:5537   */\n      dup5\n        /* \"#utility.yul\":5530:5569   */\n      add\n        /* \"#utility.yul\":5523:5569   */\n      swap2\n      pop\n        /* \"#utility.yul\":5290:5575   */\n      pop\n        /* \"#utility.yul\":5198:5575   */\n      swap3\n      swap2\n      pop\n      pop\n      jump\t// out\n        /* \"#utility.yul\":5581:5894   */\n    tag_35:\n        /* \"#utility.yul\":5694:5698   */\n      0x00\n        /* \"#utility.yul\":5732:5734   */\n      0x20\n        /* \"#utility.yul\":5721:5730   */\n      dup3\n        /* \"#utility.yul\":5717:5735   */\n      add\n        /* \"#utility.yul\":5709:5735   */\n      swap1\n      pop\n        /* \"#utility.yul\":5781:5790   */\n      dup2\n        /* \"#utility.yul\":5775:5779   */\n      dup2\n        /* \"#utility.yul\":5771:5791   */\n      sub\n        /* \"#utility.yul\":5767:5768   */\n      0x00\n        /* \"#utility.yul\":5756:5765   */\n      dup4\n        /* \"#utility.yul\":5752:5769   */\n      add\n        /* \"#utility.yul\":5745:5792   */\n      mstore\n        /* \"#utility.yul\":5809:5887   */\n      tag_249\n        /* \"#utility.yul\":5882:5886   */\n      dup2\n        /* \"#utility.yul\":5873:5879   */\n      dup5\n        /* \"#utility.yul\":5809:5887   */\n      tag_141\n      jump\t// in\n    tag_249:\n        /* \"#utility.yul\":5801:5887   */\n      swap1\n      pop\n        /* \"#utility.yul\":5581:5894   */\n      swap3\n      swap2\n      pop\n      pop\n      jump\t// out\n        /* \"#utility.yul\":5900:6039   */\n    tag_142:\n        /* \"#utility.yul\":5992:5998   */\n      0x00\n        /* \"#utility.yul\":6026:6031   */\n      dup2\n        /* \"#utility.yul\":6020:6032   */\n      mload\n        /* \"#utility.yul\":6010:6032   */\n      swap1\n      pop\n        /* \"#utility.yul\":5900:6039   */\n      swap2\n      swap1\n      pop\n      jump\t// out\n        /* \"#utility.yul\":6045:6254   */\n    tag_143:\n        /* \"#utility.yul\":6169:6180   */\n      0x00\n        /* \"#utility.yul\":6203:6209   */\n      dup3\n        /* \"#utility.yul\":6198:6201   */\n      dup3\n        /* \"#utility.yul\":6191:6210   */\n      mstore\n        /* \"#utility.yul\":6243:6247   */\n      0x20\n        /* \"#utility.yul\":6238:6241   */\n      dup3\n        /* \"#utility.yul\":6234:6248   */\n      add\n        /* \"#utility.yul\":6219:6248   */\n      swap1\n      pop\n        /* \"#utility.yul\":6045:6254   */\n      swap3\n      swap2\n      pop\n      pop\n      jump\t// out\n        /* \"#utility.yul\":6260:6417   */\n    tag_144:\n        /* \"#utility.yul\":6352:6356   */\n      0x00\n        /* \"#utility.yul\":6375:6378   */\n      dup2\n        /* \"#utility.yul\":6367:6378   */\n      swap1\n      pop\n        /* \"#utility.yul\":6405:6409   */\n      0x20\n        /* \"#utility.yul\":6400:6403   */\n      dup3\n        /* \"#utility.yul\":6396:6410   */\n      add\n        /* \"#utility.yul\":6388:6410   */\n      swap1\n      pop\n        /* \"#utility.yul\":6260:6417   */\n      swap2\n      swap1\n      pop\n      jump\t// out\n        /* \"#utility.yul\":6423:6537   */\n    tag_145:\n        /* \"#utility.yul\":6490:6496   */\n      0x00\n        /* \"#utility.yul\":6524:6529   */\n      dup2\n        /* \"#utility.yul\":6518:6530   */\n      mload\n        /* \"#utility.yul\":6508:6530   */\n      swap1\n      pop\n        /* \"#utility.yul\":6423:6537   */\n      swap2\n      swap1\n      pop\n      jump\t// out\n        /* \"#utility.yul\":6543:6717   */\n    tag_146:\n        /* \"#utility.yul\":6632:6643   */\n      0x00\n        /* \"#utility.yul\":6666:6672   */\n      dup3\n        /* \"#utility.yul\":6661:6664   */\n      dup3\n        /* \"#utility.yul\":6654:6673   */\n      mstore\n        /* \"#utility.yul\":6706:6710   */\n      0x20\n        /* \"#utility.yul\":6701:6704   */\n      dup3\n        /* \"#utility.yul\":6697:6711   */\n      add\n        /* \"#utility.yul\":6682:6711   */\n      swap1\n      pop\n        /* \"#utility.yul\":6543:6717   */\n      swap3\n      swap2\n      pop\n      pop\n      jump\t// out\n        /* \"#utility.yul\":6723:6855   */\n    tag_147:\n        /* \"#utility.yul\":6790:6794   */\n      0x00\n        /* \"#utility.yul\":6813:6816   */\n      dup2\n        /* \"#utility.yul\":6805:6816   */\n      swap1\n      pop\n        /* \"#utility.yul\":6843:6847   */\n      0x20\n        /* \"#utility.yul\":6838:6841   */\n      dup3\n        /* \"#utility.yul\":6834:6848   */\n      add\n        /* \"#utility.yul\":6826:6848   */\n      swap1\n      pop\n        /* \"#utility.yul\":6723:6855   */\n      swap2\n      swap1\n      pop\n      jump\t// out\n        /* \"#utility.yul\":6861:6969   */\n    tag_148:\n        /* \"#utility.yul\":6938:6962   */\n      tag_257\n        /* \"#utility.yul\":6956:6961   */\n      dup2\n        /* \"#utility.yul\":6938:6962   */\n      tag_134\n      jump\t// in\n    tag_257:\n        /* \"#utility.yul\":6933:6936   */\n      dup3\n        /* \"#utility.yul\":6926:6963   */\n      mstore\n        /* \"#utility.yul\":6861:6969   */\n      pop\n      pop\n      jump\t// out\n        /* \"#utility.yul\":6975:7154   */\n    tag_149:\n        /* \"#utility.yul\":7044:7054   */\n      0x00\n        /* \"#utility.yul\":7065:7111   */\n      tag_259\n        /* \"#utility.yul\":7107:7110   */\n      dup4\n        /* \"#utility.yul\":7099:7105   */\n      dup4\n        /* \"#utility.yul\":7065:7111   */\n      tag_148\n      jump\t// in\n    tag_259:\n        /* \"#utility.yul\":7143:7147   */\n      0x20\n        /* \"#utility.yul\":7138:7141   */\n      dup4\n        /* \"#utility.yul\":7134:7148   */\n      add\n        /* \"#utility.yul\":7120:7148   */\n      swap1\n      pop\n        /* \"#utility.yul\":6975:7154   */\n      swap3\n      swap2\n      pop\n      pop\n      jump\t// out\n        /* \"#utility.yul\":7160:7273   */\n    tag_150:\n        /* \"#utility.yul\":7230:7234   */\n      0x00\n        /* \"#utility.yul\":7262:7266   */\n      0x20\n        /* \"#utility.yul\":7257:7260   */\n      dup3\n        /* \"#utility.yul\":7253:7267   */\n      add\n        /* \"#utility.yul\":7245:7267   */\n      swap1\n      pop\n        /* \"#utility.yul\":7160:7273   */\n      swap2\n      swap1\n      pop\n      jump\t// out\n        /* \"#utility.yul\":7309:8021   */\n    tag_151:\n        /* \"#utility.yul\":7418:7421   */\n      0x00\n        /* \"#utility.yul\":7447:7501   */\n      tag_262\n        /* \"#utility.yul\":7495:7500   */\n      dup3\n        /* \"#utility.yul\":7447:7501   */\n      tag_145\n      jump\t// in\n    tag_262:\n        /* \"#utility.yul\":7517:7593   */\n      tag_263\n        /* \"#utility.yul\":7586:7592   */\n      dup2\n        /* \"#utility.yul\":7581:7584   */\n      dup6\n        /* \"#utility.yul\":7517:7593   */\n      tag_146\n      jump\t// in\n    tag_263:\n        /* \"#utility.yul\":7510:7593   */\n      swap4\n      pop\n        /* \"#utility.yul\":7617:7673   */\n      tag_264\n        /* \"#utility.yul\":7667:7672   */\n      dup4\n        /* \"#utility.yul\":7617:7673   */\n      tag_147\n      jump\t// in\n    tag_264:\n        /* \"#utility.yul\":7696:7703   */\n      dup1\n        /* \"#utility.yul\":7727:7728   */\n      0x00\n        /* \"#utility.yul\":7712:7996   */\n    tag_265:\n        /* \"#utility.yul\":7737:7743   */\n      dup4\n        /* \"#utility.yul\":7734:7735   */\n      dup2\n        /* \"#utility.yul\":7731:7744   */\n      lt\n        /* \"#utility.yul\":7712:7996   */\n      iszero\n      tag_267\n      jumpi\n        /* \"#utility.yul\":7813:7819   */\n      dup2\n        /* \"#utility.yul\":7807:7820   */\n      mload\n        /* \"#utility.yul\":7840:7903   */\n      tag_268\n        /* \"#utility.yul\":7899:7902   */\n      dup9\n        /* \"#utility.yul\":7884:7897   */\n      dup3\n        /* \"#utility.yul\":7840:7903   */\n      tag_149\n      jump\t// in\n    tag_268:\n        /* \"#utility.yul\":7833:7903   */\n      swap8\n      pop\n        /* \"#utility.yul\":7926:7986   */\n      tag_269\n        /* \"#utility.yul\":7979:7985   */\n      dup4\n        /* \"#utility.yul\":7926:7986   */\n      tag_150\n      jump\t// in\n    tag_269:\n        /* \"#utility.yul\":7916:7986   */\n      swap3\n      pop\n        /* \"#utility.yul\":7772:7996   */\n      pop\n        /* \"#utility.yul\":7759:7760   */\n      0x01\n        /* \"#utility.yul\":7756:7757   */\n      dup2\n        /* \"#utility.yul\":7752:7761   */\n      add\n        /* \"#utility.yul\":7747:7761   */\n      swap1\n      pop\n        /* \"#utility.yul\":7712:7996   */\n      jump(tag_265)\n    tag_267:\n        /* \"#utility.yul\":7716:7730   */\n      pop\n        /* \"#utility.yul\":8012:8015   */\n      dup6\n        /* \"#utility.yul\":8005:8015   */\n      swap4\n      pop\n        /* \"#utility.yul\":7423:8021   */\n      pop\n      pop\n      pop\n        /* \"#utility.yul\":7309:8021   */\n      swap3\n      swap2\n      pop\n      pop\n      jump\t// out\n        /* \"#utility.yul\":8027:8283   */\n    tag_152:\n        /* \"#utility.yul\":8146:8156   */\n      0x00\n        /* \"#utility.yul\":8181:8277   */\n      tag_271\n        /* \"#utility.yul\":8273:8276   */\n      dup4\n        /* \"#utility.yul\":8265:8271   */\n      dup4\n        /* \"#utility.yul\":8181:8277   */\n      tag_151\n      jump\t// in\n    tag_271:\n        /* \"#utility.yul\":8167:8277   */\n      swap1\n      pop\n        /* \"#utility.yul\":8027:8283   */\n      swap3\n      swap2\n      pop\n      pop\n      jump\t// out\n        /* \"#utility.yul\":8289:8427   */\n    tag_153:\n        /* \"#utility.yul\":8384:8388   */\n      0x00\n        /* \"#utility.yul\":8416:8420   */\n      0x20\n        /* \"#utility.yul\":8411:8414   */\n      dup3\n        /* \"#utility.yul\":8407:8421   */\n      add\n        /* \"#utility.yul\":8399:8421   */\n      swap1\n      pop\n        /* \"#utility.yul\":8289:8427   */\n      swap2\n      swap1\n      pop\n      jump\t// out\n        /* \"#utility.yul\":8467:9578   */\n    tag_154:\n        /* \"#utility.yul\":8636:8639   */\n      0x00\n        /* \"#utility.yul\":8665:8744   */\n      tag_274\n        /* \"#utility.yul\":8738:8743   */\n      dup3\n        /* \"#utility.yul\":8665:8744   */\n      tag_142\n      jump\t// in\n    tag_274:\n        /* \"#utility.yul\":8760:8871   */\n      tag_275\n        /* \"#utility.yul\":8864:8870   */\n      dup2\n        /* \"#utility.yul\":8859:8862   */\n      dup6\n        /* \"#utility.yul\":8760:8871   */\n      tag_143\n      jump\t// in\n    tag_275:\n        /* \"#utility.yul\":8753:8871   */\n      swap4\n      pop\n        /* \"#utility.yul\":8897:8900   */\n      dup4\n        /* \"#utility.yul\":8942:8946   */\n      0x20\n        /* \"#utility.yul\":8934:8940   */\n      dup3\n        /* \"#utility.yul\":8930:8947   */\n      mul\n        /* \"#utility.yul\":8925:8928   */\n      dup6\n        /* \"#utility.yul\":8921:8948   */\n      add\n        /* \"#utility.yul\":8972:9053   */\n      tag_276\n        /* \"#utility.yul\":9047:9052   */\n      dup6\n        /* \"#utility.yul\":8972:9053   */\n      tag_144\n      jump\t// in\n    tag_276:\n        /* \"#utility.yul\":9076:9083   */\n      dup1\n        /* \"#utility.yul\":9107:9108   */\n      0x00\n        /* \"#utility.yul\":9092:9533   */\n    tag_277:\n        /* \"#utility.yul\":9117:9123   */\n      dup6\n        /* \"#utility.yul\":9114:9115   */\n      dup2\n        /* \"#utility.yul\":9111:9124   */\n      lt\n        /* \"#utility.yul\":9092:9533   */\n      iszero\n      tag_279\n      jumpi\n        /* \"#utility.yul\":9188:9197   */\n      dup5\n        /* \"#utility.yul\":9182:9186   */\n      dup5\n        /* \"#utility.yul\":9178:9198   */\n      sub\n        /* \"#utility.yul\":9173:9176   */\n      dup10\n        /* \"#utility.yul\":9166:9199   */\n      mstore\n        /* \"#utility.yul\":9239:9245   */\n      dup2\n        /* \"#utility.yul\":9233:9246   */\n      mload\n        /* \"#utility.yul\":9267:9381   */\n      tag_280\n        /* \"#utility.yul\":9376:9380   */\n      dup6\n        /* \"#utility.yul\":9361:9374   */\n      dup3\n        /* \"#utility.yul\":9267:9381   */\n      tag_152\n      jump\t// in\n    tag_280:\n        /* \"#utility.yul\":9259:9381   */\n      swap5\n      pop\n        /* \"#utility.yul\":9404:9489   */\n      tag_281\n        /* \"#utility.yul\":9482:9488   */\n      dup4\n        /* \"#utility.yul\":9404:9489   */\n      tag_153\n      jump\t// in\n    tag_281:\n        /* \"#utility.yul\":9394:9489   */\n      swap3\n      pop\n        /* \"#utility.yul\":9518:9522   */\n      0x20\n        /* \"#utility.yul\":9513:9516   */\n      dup11\n        /* \"#utility.yul\":9509:9523   */\n      add\n        /* \"#utility.yul\":9502:9523   */\n      swap10\n      pop\n        /* \"#utility.yul\":9152:9533   */\n      pop\n        /* \"#utility.yul\":9139:9140   */\n      0x01\n        /* \"#utility.yul\":9136:9137   */\n      dup2\n        /* \"#utility.yul\":9132:9141   */\n      add\n        /* \"#utility.yul\":9127:9141   */\n      swap1\n      pop\n        /* \"#utility.yul\":9092:9533   */\n      jump(tag_277)\n    tag_279:\n        /* \"#utility.yul\":9096:9110   */\n      pop\n        /* \"#utility.yul\":9549:9553   */\n      dup3\n        /* \"#utility.yul\":9542:9553   */\n      swap8\n      pop\n        /* \"#utility.yul\":9569:9572   */\n      dup8\n        /* \"#utility.yul\":9562:9572   */\n      swap6\n      pop\n        /* \"#utility.yul\":8641:9578   */\n      pop\n      pop\n      pop\n      pop\n      pop\n        /* \"#utility.yul\":8467:9578   */\n      swap3\n      swap2\n      pop\n      pop\n      jump\t// out\n        /* \"#utility.yul\":9584:10057   */\n    tag_39:\n        /* \"#utility.yul\":9777:9781   */\n      0x00\n        /* \"#utility.yul\":9815:9817   */\n      0x20\n        /* \"#utility.yul\":9804:9813   */\n      dup3\n        /* \"#utility.yul\":9800:9818   */\n      add\n        /* \"#utility.yul\":9792:9818   */\n      swap1\n      pop\n        /* \"#utility.yul\":9864:9873   */\n      dup2\n        /* \"#utility.yul\":9858:9862   */\n      dup2\n        /* \"#utility.yul\":9854:9874   */\n      sub\n        /* \"#utility.yul\":9850:9851   */\n      0x00\n        /* \"#utility.yul\":9839:9848   */\n      dup4\n        /* \"#utility.yul\":9835:9852   */\n      add\n        /* \"#utility.yul\":9828:9875   */\n      mstore\n        /* \"#utility.yul\":9892:10050   */\n      tag_283\n        /* \"#utility.yul\":10045:10049   */\n      dup2\n        /* \"#utility.yul\":10036:10042   */\n      dup5\n        /* \"#utility.yul\":9892:10050   */\n      tag_154\n      jump\t// in\n    tag_283:\n        /* \"#utility.yul\":9884:10050   */\n      swap1\n      pop\n        /* \"#utility.yul\":9584:10057   */\n      swap3\n      swap2\n      pop\n      pop\n      jump\t// out\n        /* \"#utility.yul\":10063:10247   */\n    tag_155:\n        /* \"#utility.yul\":10162:10173   */\n      0x00\n        /* \"#utility.yul\":10196:10202   */\n      dup3\n        /* \"#utility.yul\":10191:10194   */\n      dup3\n        /* \"#utility.yul\":10184:10203   */\n      mstore\n        /* \"#utility.yul\":10236:10240   */\n      0x20\n        /* \"#utility.yul\":10231:10234   */\n      dup3\n        /* \"#utility.yul\":10227:10241   */\n      add\n        /* \"#utility.yul\":10212:10241   */\n      swap1\n      pop\n        /* \"#utility.yul\":10063:10247   */\n      swap3\n      swap2\n      pop\n      pop\n      jump\t// out\n        /* \"#utility.yul\":10283:11015   */\n    tag_156:\n        /* \"#utility.yul\":10402:10405   */\n      0x00\n        /* \"#utility.yul\":10431:10485   */\n      tag_286\n        /* \"#utility.yul\":10479:10484   */\n      dup3\n        /* \"#utility.yul\":10431:10485   */\n      tag_145\n      jump\t// in\n    tag_286:\n        /* \"#utility.yul\":10501:10587   */\n      tag_287\n        /* \"#utility.yul\":10580:10586   */\n      dup2\n        /* \"#utility.yul\":10575:10578   */\n      dup6\n        /* \"#utility.yul\":10501:10587   */\n      tag_155\n      jump\t// in\n    tag_287:\n        /* \"#utility.yul\":10494:10587   */\n      swap4\n      pop\n        /* \"#utility.yul\":10611:10667   */\n      tag_288\n        /* \"#utility.yul\":10661:10666   */\n      dup4\n        /* \"#utility.yul\":10611:10667   */\n      tag_147\n      jump\t// in\n    tag_288:\n        /* \"#utility.yul\":10690:10697   */\n      dup1\n        /* \"#utility.yul\":10721:10722   */\n      0x00\n        /* \"#utility.yul\":10706:10990   */\n    tag_289:\n        /* \"#utility.yul\":10731:10737   */\n      dup4\n        /* \"#utility.yul\":10728:10729   */\n      dup2\n        /* \"#utility.yul\":10725:10738   */\n      lt\n        /* \"#utility.yul\":10706:10990   */\n      iszero\n      tag_291\n      jumpi\n        /* \"#utility.yul\":10807:10813   */\n      dup2\n        /* \"#utility.yul\":10801:10814   */\n      mload\n        /* \"#utility.yul\":10834:10897   */\n      tag_292\n        /* \"#utility.yul\":10893:10896   */\n      dup9\n        /* \"#utility.yul\":10878:10891   */\n      dup3\n        /* \"#utility.yul\":10834:10897   */\n      tag_149\n      jump\t// in\n    tag_292:\n        /* \"#utility.yul\":10827:10897   */\n      swap8\n      pop\n        /* \"#utility.yul\":10920:10980   */\n      tag_293\n        /* \"#utility.yul\":10973:10979   */\n      dup4\n        /* \"#utility.yul\":10920:10980   */\n      tag_150\n      jump\t// in\n    tag_293:\n        /* \"#utility.yul\":10910:10980   */\n      swap3\n      pop\n        /* \"#utility.yul\":10766:10990   */\n      pop\n        /* \"#utility.yul\":10753:10754   */\n      0x01\n        /* \"#utility.yul\":10750:10751   */\n      dup2\n        /* \"#utility.yul\":10746:10755   */\n      add\n        /* \"#utility.yul\":10741:10755   */\n      swap1\n      pop\n        /* \"#utility.yul\":10706:10990   */\n      jump(tag_289)\n    tag_291:\n        /* \"#utility.yul\":10710:10724   */\n      pop\n        /* \"#utility.yul\":11006:11009   */\n      dup6\n        /* \"#utility.yul\":10999:11009   */\n      swap4\n      pop\n        /* \"#utility.yul\":10407:11015   */\n      pop\n      pop\n      pop\n        /* \"#utility.yul\":10283:11015   */\n      swap3\n      swap2\n      pop\n      pop\n      jump\t// out\n        /* \"#utility.yul\":11021:11394   */\n    tag_50:\n        /* \"#utility.yul\":11164:11168   */\n      0x00\n        /* \"#utility.yul\":11202:11204   */\n      0x20\n        /* \"#utility.yul\":11191:11200   */\n      dup3\n        /* \"#utility.yul\":11187:11205   */\n      add\n        /* \"#utility.yul\":11179:11205   */\n      swap1\n      pop\n        /* \"#utility.yul\":11251:11260   */\n      dup2\n        /* \"#utility.yul\":11245:11249   */\n      dup2\n        /* \"#utility.yul\":11241:11261   */\n      sub\n        /* \"#utility.yul\":11237:11238   */\n      0x00\n        /* \"#utility.yul\":11226:11235   */\n      dup4\n        /* \"#utility.yul\":11222:11239   */\n      add\n        /* \"#utility.yul\":11215:11262   */\n      mstore\n        /* \"#utility.yul\":11279:11387   */\n      tag_295\n        /* \"#utility.yul\":11382:11386   */\n      dup2\n        /* \"#utility.yul\":11373:11379   */\n      dup5\n        /* \"#utility.yul\":11279:11387   */\n      tag_156\n      jump\t// in\n    tag_295:\n        /* \"#utility.yul\":11271:11387   */\n      swap1\n      pop\n        /* \"#utility.yul\":11021:11394   */\n      swap3\n      swap2\n      pop\n      pop\n      jump\t// out\n        /* \"#utility.yul\":11400:11524   */\n    tag_157:\n        /* \"#utility.yul\":11477:11483   */\n      0x00\n        /* \"#utility.yul\":11511:11516   */\n      dup2\n        /* \"#utility.yul\":11505:11517   */\n      mload\n        /* \"#utility.yul\":11495:11517   */\n      swap1\n      pop\n        /* \"#utility.yul\":11400:11524   */\n      swap2\n      swap1\n      pop\n      jump\t// out\n        /* \"#utility.yul\":11530:11724   */\n    tag_158:\n        /* \"#utility.yul\":11639:11650   */\n      0x00\n        /* \"#utility.yul\":11673:11679   */\n      dup3\n        /* \"#utility.yul\":11668:11671   */\n      dup3\n        /* \"#utility.yul\":11661:11680   */\n      mstore\n        /* \"#utility.yul\":11713:11717   */\n      0x20\n        /* \"#utility.yul\":11708:11711   */\n      dup3\n        /* \"#utility.yul\":11704:11718   */\n      add\n        /* \"#utility.yul\":11689:11718   */\n      swap1\n      pop\n        /* \"#utility.yul\":11530:11724   */\n      swap3\n      swap2\n      pop\n      pop\n      jump\t// out\n        /* \"#utility.yul\":11730:11872   */\n    tag_159:\n        /* \"#utility.yul\":11807:11811   */\n      0x00\n        /* \"#utility.yul\":11830:11833   */\n      dup2\n        /* \"#utility.yul\":11822:11833   */\n      swap1\n      pop\n        /* \"#utility.yul\":11860:11864   */\n      0x20\n        /* \"#utility.yul\":11855:11858   */\n      dup3\n        /* \"#utility.yul\":11851:11865   */\n      add\n        /* \"#utility.yul\":11843:11865   */\n      swap1\n      pop\n        /* \"#utility.yul\":11730:11872   */\n      swap2\n      swap1\n      pop\n      jump\t// out\n        /* \"#utility.yul\":11878:12037   */\n    tag_160:\n        /* \"#utility.yul\":11952:11963   */\n      0x00\n        /* \"#utility.yul\":11986:11992   */\n      dup3\n        /* \"#utility.yul\":11981:11984   */\n      dup3\n        /* \"#utility.yul\":11974:11993   */\n      mstore\n        /* \"#utility.yul\":12026:12030   */\n      0x20\n        /* \"#utility.yul\":12021:12024   */\n      dup3\n        /* \"#utility.yul\":12017:12031   */\n      add\n        /* \"#utility.yul\":12002:12031   */\n      swap1\n      pop\n        /* \"#utility.yul\":11878:12037   */\n      swap3\n      swap2\n      pop\n      pop\n      jump\t// out\n        /* \"#utility.yul\":12043:12400   */\n    tag_161:\n        /* \"#utility.yul\":12121:12124   */\n      0x00\n        /* \"#utility.yul\":12149:12188   */\n      tag_301\n        /* \"#utility.yul\":12182:12187   */\n      dup3\n        /* \"#utility.yul\":12149:12188   */\n      tag_138\n      jump\t// in\n    tag_301:\n        /* \"#utility.yul\":12204:12265   */\n      tag_302\n        /* \"#utility.yul\":12258:12264   */\n      dup2\n        /* \"#utility.yul\":12253:12256   */\n      dup6\n        /* \"#utility.yul\":12204:12265   */\n      tag_160\n      jump\t// in\n    tag_302:\n        /* \"#utility.yul\":12197:12265   */\n      swap4\n      pop\n        /* \"#utility.yul\":12274:12339   */\n      tag_303\n        /* \"#utility.yul\":12332:12338   */\n      dup2\n        /* \"#utility.yul\":12327:12330   */\n      dup6\n        /* \"#utility.yul\":12320:12324   */\n      0x20\n        /* \"#utility.yul\":12313:12318   */\n      dup7\n        /* \"#utility.yul\":12309:12325   */\n      add\n        /* \"#utility.yul\":12274:12339   */\n      tag_140\n      jump\t// in\n    tag_303:\n        /* \"#utility.yul\":12364:12393   */\n      tag_304\n        /* \"#utility.yul\":12386:12392   */\n      dup2\n        /* \"#utility.yul\":12364:12393   */\n      tag_126\n      jump\t// in\n    tag_304:\n        /* \"#utility.yul\":12359:12362   */\n      dup5\n        /* \"#utility.yul\":12355:12394   */\n      add\n        /* \"#utility.yul\":12348:12394   */\n      swap2\n      pop\n        /* \"#utility.yul\":12125:12400   */\n      pop\n        /* \"#utility.yul\":12043:12400   */\n      swap3\n      swap2\n      pop\n      pop\n      jump\t// out\n        /* \"#utility.yul\":12406:12602   */\n    tag_162:\n        /* \"#utility.yul\":12495:12505   */\n      0x00\n        /* \"#utility.yul\":12530:12596   */\n      tag_306\n        /* \"#utility.yul\":12592:12595   */\n      dup4\n        /* \"#utility.yul\":12584:12590   */\n      dup4\n        /* \"#utility.yul\":12530:12596   */\n      tag_161\n      jump\t// in\n    tag_306:\n        /* \"#utility.yul\":12516:12596   */\n      swap1\n      pop\n        /* \"#utility.yul\":12406:12602   */\n      swap3\n      swap2\n      pop\n      pop\n      jump\t// out\n        /* \"#utility.yul\":12608:12731   */\n    tag_163:\n        /* \"#utility.yul\":12688:12692   */\n      0x00\n        /* \"#utility.yul\":12720:12724   */\n      0x20\n        /* \"#utility.yul\":12715:12718   */\n      dup3\n        /* \"#utility.yul\":12711:12725   */\n      add\n        /* \"#utility.yul\":12703:12725   */\n      swap1\n      pop\n        /* \"#utility.yul\":12608:12731   */\n      swap2\n      swap1\n      pop\n      jump\t// out\n        /* \"#utility.yul\":12765:13756   */\n    tag_164:\n        /* \"#utility.yul\":12904:12907   */\n      0x00\n        /* \"#utility.yul\":12933:12997   */\n      tag_309\n        /* \"#utility.yul\":12991:12996   */\n      dup3\n        /* \"#utility.yul\":12933:12997   */\n      tag_157\n      jump\t// in\n    tag_309:\n        /* \"#utility.yul\":13013:13109   */\n      tag_310\n        /* \"#utility.yul\":13102:13108   */\n      dup2\n        /* \"#utility.yul\":13097:13100   */\n      dup6\n        /* \"#utility.yul\":13013:13109   */\n      tag_158\n      jump\t// in\n    tag_310:\n        /* \"#utility.yul\":13006:13109   */\n      swap4\n      pop\n        /* \"#utility.yul\":13135:13138   */\n      dup4\n        /* \"#utility.yul\":13180:13184   */\n      0x20\n        /* \"#utility.yul\":13172:13178   */\n      dup3\n        /* \"#utility.yul\":13168:13185   */\n      mul\n        /* \"#utility.yul\":13163:13166   */\n      dup6\n        /* \"#utility.yul\":13159:13186   */\n      add\n        /* \"#utility.yul\":13210:13276   */\n      tag_311\n        /* \"#utility.yul\":13270:13275   */\n      dup6\n        /* \"#utility.yul\":13210:13276   */\n      tag_159\n      jump\t// in\n    tag_311:\n        /* \"#utility.yul\":13299:13306   */\n      dup1\n        /* \"#utility.yul\":13330:13331   */\n      0x00\n        /* \"#utility.yul\":13315:13711   */\n    tag_312:\n        /* \"#utility.yul\":13340:13346   */\n      dup6\n        /* \"#utility.yul\":13337:13338   */\n      dup2\n        /* \"#utility.yul\":13334:13347   */\n      lt\n        /* \"#utility.yul\":13315:13711   */\n      iszero\n      tag_314\n      jumpi\n        /* \"#utility.yul\":13411:13420   */\n      dup5\n        /* \"#utility.yul\":13405:13409   */\n      dup5\n        /* \"#utility.yul\":13401:13421   */\n      sub\n        /* \"#utility.yul\":13396:13399   */\n      dup10\n        /* \"#utility.yul\":13389:13422   */\n      mstore\n        /* \"#utility.yul\":13462:13468   */\n      dup2\n        /* \"#utility.yul\":13456:13469   */\n      mload\n        /* \"#utility.yul\":13490:13574   */\n      tag_315\n        /* \"#utility.yul\":13569:13573   */\n      dup6\n        /* \"#utility.yul\":13554:13567   */\n      dup3\n        /* \"#utility.yul\":13490:13574   */\n      tag_162\n      jump\t// in\n    tag_315:\n        /* \"#utility.yul\":13482:13574   */\n      swap5\n      pop\n        /* \"#utility.yul\":13597:13667   */\n      tag_316\n        /* \"#utility.yul\":13660:13666   */\n      dup4\n        /* \"#utility.yul\":13597:13667   */\n      tag_163\n      jump\t// in\n    tag_316:\n        /* \"#utility.yul\":13587:13667   */\n      swap3\n      pop\n        /* \"#utility.yul\":13696:13700   */\n      0x20\n        /* \"#utility.yul\":13691:13694   */\n      dup11\n        /* \"#utility.yul\":13687:13701   */\n      add\n        /* \"#utility.yul\":13680:13701   */\n      swap10\n      pop\n        /* \"#utility.yul\":13375:13711   */\n      pop\n        /* \"#utility.yul\":13362:13363   */\n      0x01\n        /* \"#utility.yul\":13359:13360   */\n      dup2\n        /* \"#utility.yul\":13355:13364   */\n      add\n        /* \"#utility.yul\":13350:13364   */\n      swap1\n      pop\n        /* \"#utility.yul\":13315:13711   */\n      jump(tag_312)\n    tag_314:\n        /* \"#utility.yul\":13319:13333   */\n      pop\n        /* \"#utility.yul\":13727:13731   */\n      dup3\n        /* \"#utility.yul\":13720:13731   */\n      swap8\n      pop\n        /* \"#utility.yul\":13747:13750   */\n      dup8\n        /* \"#utility.yul\":13740:13750   */\n      swap6\n      pop\n        /* \"#utility.yul\":12909:13756   */\n      pop\n      pop\n      pop\n      pop\n      pop\n        /* \"#utility.yul\":12765:13756   */\n      swap3\n      swap2\n      pop\n      pop\n      jump\t// out\n        /* \"#utility.yul\":13762:14175   */\n    tag_54:\n        /* \"#utility.yul\":13925:13929   */\n      0x00\n        /* \"#utility.yul\":13963:13965   */\n      0x20\n        /* \"#utility.yul\":13952:13961   */\n      dup3\n        /* \"#utility.yul\":13948:13966   */\n      add\n        /* \"#utility.yul\":13940:13966   */\n      swap1\n      pop\n        /* \"#utility.yul\":14012:14021   */\n      dup2\n        /* \"#utility.yul\":14006:14010   */\n      dup2\n        /* \"#utility.yul\":14002:14022   */\n      sub\n        /* \"#utility.yul\":13998:13999   */\n      0x00\n        /* \"#utility.yul\":13987:13996   */\n      dup4\n        /* \"#utility.yul\":13983:14000   */\n      add\n        /* \"#utility.yul\":13976:14023   */\n      mstore\n        /* \"#utility.yul\":14040:14168   */\n      tag_318\n        /* \"#utility.yul\":14163:14167   */\n      dup2\n        /* \"#utility.yul\":14154:14160   */\n      dup5\n        /* \"#utility.yul\":14040:14168   */\n      tag_164\n      jump\t// in\n    tag_318:\n        /* \"#utility.yul\":14032:14168   */\n      swap1\n      pop\n        /* \"#utility.yul\":13762:14175   */\n      swap3\n      swap2\n      pop\n      pop\n      jump\t// out\n        /* \"#utility.yul\":14181:14257   */\n    tag_165:\n        /* \"#utility.yul\":14217:14224   */\n      0x00\n        /* \"#utility.yul\":14246:14251   */\n      dup2\n        /* \"#utility.yul\":14235:14251   */\n      swap1\n      pop\n        /* \"#utility.yul\":14181:14257   */\n      swap2\n      swap1\n      pop\n      jump\t// out\n        /* \"#utility.yul\":14263:14378   */\n    tag_166:\n        /* \"#utility.yul\":14348:14371   */\n      tag_321\n        /* \"#utility.yul\":14365:14370   */\n      dup2\n        /* \"#utility.yul\":14348:14371   */\n      tag_165\n      jump\t// in\n    tag_321:\n        /* \"#utility.yul\":14343:14346   */\n      dup3\n        /* \"#utility.yul\":14336:14372   */\n      mstore\n        /* \"#utility.yul\":14263:14378   */\n      pop\n      pop\n      jump\t// out\n        /* \"#utility.yul\":14384:14602   */\n    tag_58:\n        /* \"#utility.yul\":14475:14479   */\n      0x00\n        /* \"#utility.yul\":14513:14515   */\n      0x20\n        /* \"#utility.yul\":14502:14511   */\n      dup3\n        /* \"#utility.yul\":14498:14516   */\n      add\n        /* \"#utility.yul\":14490:14516   */\n      swap1\n      pop\n        /* \"#utility.yul\":14526:14595   */\n      tag_323\n        /* \"#utility.yul\":14592:14593   */\n      0x00\n        /* \"#utility.yul\":14581:14590   */\n      dup4\n        /* \"#utility.yul\":14577:14594   */\n      add\n        /* \"#utility.yul\":14568:14574   */\n      dup5\n        /* \"#utility.yul\":14526:14595   */\n      tag_166\n      jump\t// in\n    tag_323:\n        /* \"#utility.yul\":14384:14602   */\n      swap3\n      swap2\n      pop\n      pop\n      jump\t// out\n        /* \"#utility.yul\":14608:15082   */\n    tag_61:\n        /* \"#utility.yul\":14676:14682   */\n      0x00\n        /* \"#utility.yul\":14684:14690   */\n      dup1\n        /* \"#utility.yul\":14733:14735   */\n      0x40\n        /* \"#utility.yul\":14721:14730   */\n      dup4\n        /* \"#utility.yul\":14712:14719   */\n      dup6\n        /* \"#utility.yul\":14708:14731   */\n      sub\n        /* \"#utility.yul\":14704:14736   */\n      slt\n        /* \"#utility.yul\":14701:14820   */\n      iszero\n      tag_325\n      jumpi\n        /* \"#utility.yul\":14739:14818   */\n      tag_326\n      tag_122\n      jump\t// in\n    tag_326:\n        /* \"#utility.yul\":14701:14820   */\n    tag_325:\n        /* \"#utility.yul\":14859:14860   */\n      0x00\n        /* \"#utility.yul\":14884:14937   */\n      tag_327\n        /* \"#utility.yul\":14929:14936   */\n      dup6\n        /* \"#utility.yul\":14920:14926   */\n      dup3\n        /* \"#utility.yul\":14909:14918   */\n      dup7\n        /* \"#utility.yul\":14905:14927   */\n      add\n        /* \"#utility.yul\":14884:14937   */\n      tag_137\n      jump\t// in\n    tag_327:\n        /* \"#utility.yul\":14874:14937   */\n      swap3\n      pop\n        /* \"#utility.yul\":14830:14947   */\n      pop\n        /* \"#utility.yul\":14986:14988   */\n      0x20\n        /* \"#utility.yul\":15012:15065   */\n      tag_328\n        /* \"#utility.yul\":15057:15064   */\n      dup6\n        /* \"#utility.yul\":15048:15054   */\n      dup3\n        /* \"#utility.yul\":15037:15046   */\n      dup7\n        /* \"#utility.yul\":15033:15055   */\n      add\n        /* \"#utility.yul\":15012:15065   */\n      tag_137\n      jump\t// in\n    tag_328:\n        /* \"#utility.yul\":15002:15065   */\n      swap2\n      pop\n        /* \"#utility.yul\":14957:15075   */\n      pop\n        /* \"#utility.yul\":14608:15082   */\n      swap3\n      pop\n      swap3\n      swap1\n      pop\n      jump\t// out\n        /* \"#utility.yul\":15088:15268   */\n    tag_167:\n        /* \"#utility.yul\":15136:15213   */\n      0x4e487b7100000000000000000000000000000000000000000000000000000000\n        /* \"#utility.yul\":15133:15134   */\n      0x00\n        /* \"#utility.yul\":15126:15214   */\n      mstore\n        /* \"#utility.yul\":15233:15237   */\n      0x22\n        /* \"#utility.yul\":15230:15231   */\n      0x04\n        /* \"#utility.yul\":15223:15238   */\n      mstore\n        /* \"#utility.yul\":15257:15261   */\n      0x24\n        /* \"#utility.yul\":15254:15255   */\n      0x00\n        /* \"#utility.yul\":15247:15262   */\n      revert\n        /* \"#utility.yul\":15274:15594   */\n    tag_80:\n        /* \"#utility.yul\":15318:15324   */\n      0x00\n        /* \"#utility.yul\":15355:15356   */\n      0x02\n        /* \"#utility.yul\":15349:15353   */\n      dup3\n        /* \"#utility.yul\":15345:15357   */\n      div\n        /* \"#utility.yul\":15335:15357   */\n      swap1\n      pop\n        /* \"#utility.yul\":15402:15403   */\n      0x01\n        /* \"#utility.yul\":15396:15400   */\n      dup3\n        /* \"#utility.yul\":15392:15404   */\n      and\n        /* \"#utility.yul\":15423:15441   */\n      dup1\n        /* \"#utility.yul\":15413:15494   */\n      tag_331\n      jumpi\n        /* \"#utility.yul\":15479:15483   */\n      0x7f\n        /* \"#utility.yul\":15471:15477   */\n      dup3\n        /* \"#utility.yul\":15467:15484   */\n      and\n        /* \"#utility.yul\":15457:15484   */\n      swap2\n      pop\n        /* \"#utility.yul\":15413:15494   */\n    tag_331:\n        /* \"#utility.yul\":15541:15543   */\n      0x20\n        /* \"#utility.yul\":15533:15539   */\n      dup3\n        /* \"#utility.yul\":15530:15544   */\n      lt\n        /* \"#utility.yul\":15510:15528   */\n      dup2\n        /* \"#utility.yul\":15507:15545   */\n      sub\n        /* \"#utility.yul\":15504:15588   */\n      tag_332\n      jumpi\n        /* \"#utility.yul\":15560:15578   */\n      tag_333\n      tag_167\n      jump\t// in\n    tag_333:\n        /* \"#utility.yul\":15504:15588   */\n    tag_332:\n        /* \"#utility.yul\":15325:15594   */\n      pop\n        /* \"#utility.yul\":15274:15594   */\n      swap2\n      swap1\n      pop\n      jump\t// out\n        /* \"#utility.yul\":15600:15741   */\n    tag_168:\n        /* \"#utility.yul\":15649:15653   */\n      0x00\n        /* \"#utility.yul\":15672:15675   */\n      dup2\n        /* \"#utility.yul\":15664:15675   */\n      swap1\n      pop\n        /* \"#utility.yul\":15695:15698   */\n      dup2\n        /* \"#utility.yul\":15692:15693   */\n      0x00\n        /* \"#utility.yul\":15685:15699   */\n      mstore\n        /* \"#utility.yul\":15729:15733   */\n      0x20\n        /* \"#utility.yul\":15726:15727   */\n      0x00\n        /* \"#utility.yul\":15716:15734   */\n      keccak256\n        /* \"#utility.yul\":15708:15734   */\n      swap1\n      pop\n        /* \"#utility.yul\":15600:15741   */\n      swap2\n      swap1\n      pop\n      jump\t// out\n        /* \"#utility.yul\":15747:15840   */\n    tag_169:\n        /* \"#utility.yul\":15784:15790   */\n      0x00\n        /* \"#utility.yul\":15831:15833   */\n      0x20\n        /* \"#utility.yul\":15826:15828   */\n      0x1f\n        /* \"#utility.yul\":15819:15824   */\n      dup4\n        /* \"#utility.yul\":15815:15829   */\n      add\n        /* \"#utility.yul\":15811:15834   */\n      div\n        /* \"#utility.yul\":15801:15834   */\n      swap1\n      pop\n        /* \"#utility.yul\":15747:15840   */\n      swap2\n      swap1\n      pop\n      jump\t// out\n        /* \"#utility.yul\":15846:15953   */\n    tag_170:\n        /* \"#utility.yul\":15890:15898   */\n      0x00\n        /* \"#utility.yul\":15940:15945   */\n      dup3\n        /* \"#utility.yul\":15934:15938   */\n      dup3\n        /* \"#utility.yul\":15930:15946   */\n      shl\n        /* \"#utility.yul\":15909:15946   */\n      swap1\n      pop\n        /* \"#utility.yul\":15846:15953   */\n      swap3\n      swap2\n      pop\n      pop\n      jump\t// out\n        /* \"#utility.yul\":15959:16352   */\n    tag_171:\n        /* \"#utility.yul\":16028:16034   */\n      0x00\n        /* \"#utility.yul\":16078:16079   */\n      0x08\n        /* \"#utility.yul\":16066:16076   */\n      dup4\n        /* \"#utility.yul\":16062:16080   */\n      mul\n        /* \"#utility.yul\":16101:16198   */\n      tag_338\n        /* \"#utility.yul\":16131:16197   */\n      0xffffffffffffffffffffffffffffffffffffffffffffffffffffffffffffffff\n        /* \"#utility.yul\":16120:16129   */\n      dup3\n        /* \"#utility.yul\":16101:16198   */\n      tag_170\n      jump\t// in\n    tag_338:\n        /* \"#utility.yul\":16219:16258   */\n      tag_339\n        /* \"#utility.yul\":16249:16257   */\n      dup7\n        /* \"#utility.yul\":16238:16247   */\n      dup4\n        /* \"#utility.yul\":16219:16258   */\n      tag_170\n      jump\t// in\n    tag_339:\n        /* \"#utility.yul\":16207:16258   */\n      swap6\n      pop\n        /* \"#utility.yul\":16291:16295   */\n      dup1\n        /* \"#utility.yul\":16287:16296   */\n      not\n        /* \"#utility.yul\":16280:16285   */\n      dup5\n        /* \"#utility.yul\":16276:16297   */\n      and\n        /* \"#utility.yul\":16267:16297   */\n      swap4\n      pop\n        /* \"#utility.yul\":16340:16344   */\n      dup1\n        /* \"#utility.yul\":16330:16338   */\n      dup7\n        /* \"#utility.yul\":16326:16345   */\n      and\n        /* \"#utility.yul\":16319:16324   */\n      dup5\n        /* \"#utility.yul\":16316:16346   */\n      or\n        /* \"#utility.yul\":16306:16346   */\n      swap3\n      pop\n        /* \"#utility.yul\":16035:16352   */\n      pop\n      pop\n        /* \"#utility.yul\":15959:16352   */\n      swap4\n      swap3\n      pop\n      pop\n      pop\n      jump\t// out\n        /* \"#utility.yul\":16358:16418   */\n    tag_172:\n        /* \"#utility.yul\":16386:16389   */\n      0x00\n        /* \"#utility.yul\":16407:16412   */\n      dup2\n        /* \"#utility.yul\":16400:16412   */\n      swap1\n      pop\n        /* \"#utility.yul\":16358:16418   */\n      swap2\n      swap1\n      pop\n      jump\t// out\n        /* \"#utility.yul\":16424:16566   */\n    tag_173:\n        /* \"#utility.yul\":16474:16483   */\n      0x00\n        /* \"#utility.yul\":16507:16560   */\n      tag_342\n        /* \"#utility.yul\":16525:16559   */\n      tag_343\n        /* \"#utility.yul\":16534:16558   */\n      tag_344\n        /* \"#utility.yul\":16552:16557   */\n      dup5\n        /* \"#utility.yul\":16534:16558   */\n      tag_134\n      jump\t// in\n    tag_344:\n        /* \"#utility.yul\":16525:16559   */\n      tag_172\n      jump\t// in\n    tag_343:\n        /* \"#utility.yul\":16507:16560   */\n      tag_134\n      jump\t// in\n    tag_342:\n        /* \"#utility.yul\":16494:16560   */\n      swap1\n      pop\n        /* \"#utility.yul\":16424:16566   */\n      swap2\n      swap1\n      pop\n      jump\t// out\n        /* \"#utility.yul\":16572:16647   */\n    tag_174:\n        /* \"#utility.yul\":16615:16618   */\n      0x00\n        /* \"#utility.yul\":16636:16641   */\n      dup2\n        /* \"#utility.yul\":16629:16641   */\n      swap1\n      pop\n        /* \"#utility.yul\":16572:16647   */\n      swap2\n      swap1\n      pop\n      jump\t// out\n        /* \"#utility.yul\":16653:16922   */\n    tag_175:\n        /* \"#utility.yul\":16763:16802   */\n      tag_347\n        /* \"#utility.yul\":16794:16801   */\n      dup4\n        /* \"#utility.yul\":16763:16802   */\n      tag_173\n      jump\t// in\n    tag_347:\n        /* \"#utility.yul\":16824:16915   */\n      tag_348\n        /* \"#utility.yul\":16873:16914   */\n      tag_349\n        /* \"#utility.yul\":16897:16913   */\n      dup3\n        /* \"#utility.yul\":16873:16914   */\n      tag_174\n      jump\t// in\n    tag_349:\n        /* \"#utility.yul\":16865:16871   */\n      dup5\n        /* \"#utility.yul\":16858:16862   */\n      dup5\n        /* \"#utility.yul\":16852:16863   */\n      sload\n        /* \"#utility.yul\":16824:16915   */\n      tag_171\n      jump\t// in\n    tag_348:\n        /* \"#utility.yul\":16818:16822   */\n      dup3\n        /* \"#utility.yul\":16811:16916   */\n      sstore\n        /* \"#utility.yul\":16729:16922   */\n      pop\n        /* \"#utility.yul\":16653:16922   */\n      pop\n      pop\n      pop\n      jump\t// out\n        /* \"#utility.yul\":16928:17001   */\n    tag_176:\n        /* \"#utility.yul\":16973:16976   */\n      0x00\n        /* \"#utility.yul\":16928:17001   */\n      swap1\n      jump\t// out\n        /* \"#utility.yul\":17007:17196   */\n    tag_177:\n        /* \"#utility.yul\":17084:17116   */\n      tag_352\n      tag_176\n      jump\t// in\n    tag_352:\n        /* \"#utility.yul\":17125:17190   */\n      tag_353\n        /* \"#utility.yul\":17183:17189   */\n      dup2\n        /* \"#utility.yul\":17175:17181   */\n      dup5\n        /* \"#utility.yul\":17169:17173   */\n      dup5\n        /* \"#utility.yul\":17125:17190   */\n      tag_175\n      jump\t// in\n    tag_353:\n        /* \"#utility.yul\":17060:17196   */\n      pop\n        /* \"#utility.yul\":17007:17196   */\n      pop\n      pop\n      jump\t// out\n        /* \"#utility.yul\":17202:17388   */\n    tag_178:\n        /* \"#utility.yul\":17262:17382   */\n    tag_355:\n        /* \"#utility.yul\":17279:17282   */\n      dup2\n        /* \"#utility.yul\":17272:17277   */\n      dup2\n        /* \"#utility.yul\":17269:17283   */\n      lt\n        /* \"#utility.yul\":17262:17382   */\n      iszero\n      tag_357\n      jumpi\n        /* \"#utility.yul\":17333:17372   */\n      tag_358\n        /* \"#utility.yul\":17370:17371   */\n      0x00\n        /* \"#utility.yul\":17363:17368   */\n      dup3\n        /* \"#utility.yul\":17333:17372   */\n      tag_177\n      jump\t// in\n    tag_358:\n        /* \"#utility.yul\":17306:17307   */\n      0x01\n        /* \"#utility.yul\":17299:17304   */\n      dup2\n        /* \"#utility.yul\":17295:17308   */\n      add\n        /* \"#utility.yul\":17286:17308   */\n      swap1\n      pop\n        /* \"#utility.yul\":17262:17382   */\n      jump(tag_355)\n    tag_357:\n        /* \"#utility.yul\":17202:17388   */\n      pop\n      pop\n      jump\t// out\n        /* \"#utility.yul\":17394:17937   */\n    tag_179:\n        /* \"#utility.yul\":17495:17497   */\n      0x1f\n        /* \"#utility.yul\":17490:17493   */\n      dup3\n        /* \"#utility.yul\":17487:17498   */\n      gt\n        /* \"#utility.yul\":17484:17930   */\n      iszero\n      tag_360\n      jumpi\n        /* \"#utility.yul\":17529:17567   */\n      tag_361\n        /* \"#utility.yul\":17561:17566   */\n      dup2\n        /* \"#utility.yul\":17529:17567   */\n      tag_168\n      jump\t// in\n    tag_361:\n        /* \"#utility.yul\":17613:17642   */\n      tag_362\n        /* \"#utility.yul\":17631:17641   */\n      dup5\n        /* \"#utility.yul\":17613:17642   */\n      tag_169\n      jump\t// in\n    tag_362:\n        /* \"#utility.yul\":17603:17611   */\n      dup2\n        /* \"#utility.yul\":17599:17643   */\n      add\n        /* \"#utility.yul\":17796:17798   */\n      0x20\n        /* \"#utility.yul\":17784:17794   */\n      dup6\n        /* \"#utility.yul\":17781:17799   */\n      lt\n        /* \"#utility.yul\":17778:17827   */\n      iszero\n      tag_363\n      jumpi\n        /* \"#utility.yul\":17817:17825   */\n      dup2\n        /* \"#utility.yul\":17802:17825   */\n      swap1\n      pop\n        /* \"#utility.yul\":17778:17827   */\n    tag_363:\n        /* \"#utility.yul\":17840:17920   */\n      tag_364\n        /* \"#utility.yul\":17896:17918   */\n      tag_365\n        /* \"#utility.yul\":17914:17917   */\n      dup6\n        /* \"#utility.yul\":17896:17918   */\n      tag_169\n      jump\t// in\n    tag_365:\n        /* \"#utility.yul\":17886:17894   */\n      dup4\n        /* \"#utility.yul\":17882:17919   */\n      add\n        /* \"#utility.yul\":17869:17880   */\n      dup3\n        /* \"#utility.yul\":17840:17920   */\n      tag_178\n      jump\t// in\n    tag_364:\n        /* \"#utility.yul\":17499:17930   */\n      pop\n      pop\n        /* \"#utility.yul\":17484:17930   */\n    tag_360:\n        /* \"#utility.yul\":17394:17937   */\n      pop\n      pop\n      pop\n      jump\t// out\n        /* \"#utility.yul\":17943:18060   */\n    tag_180:\n        /* \"#utility.yul\":17997:18005   */\n      0x00\n        /* \"#utility.yul\":18047:18052   */\n      dup3\n        /* \"#utility.yul\":18041:18045   */\n      dup3\n        /* \"#utility.yul\":18037:18053   */\n      shr\n        /* \"#utility.yul\":18016:18053   */\n      swap1\n      pop\n        /* \"#utility.yul\":17943:18060   */\n      swap3\n      swap2\n      pop\n      pop\n      jump\t// out\n        /* \"#utility.yul\":18066:18235   */\n    tag_181:\n        /* \"#utility.yul\":18110:18116   */\n      0x00\n        /* \"#utility.yul\":18143:18194   */\n      tag_368\n        /* \"#utility.yul\":18191:18192   */\n      0x00\n        /* \"#utility.yul\":18187:18193   */\n      not\n        /* \"#utility.yul\":18179:18184   */\n      dup5\n        /* \"#utility.yul\":18176:18177   */\n      0x08\n        /* \"#utility.yul\":18172:18185   */\n      mul\n        /* \"#utility.yul\":18143:18194   */\n      tag_180\n      jump\t// in\n    tag_368:\n        /* \"#utility.yul\":18139:18195   */\n      not\n        /* \"#utility.yul\":18224:18228   */\n      dup1\n        /* \"#utility.yul\":18218:18222   */\n      dup4\n        /* \"#utility.yul\":18214:18229   */\n      and\n        /* \"#utility.yul\":18204:18229   */\n      swap2\n      pop\n        /* \"#utility.yul\":18117:18235   */\n      pop\n        /* \"#utility.yul\":18066:18235   */\n      swap3\n      swap2\n      pop\n      pop\n      jump\t// out\n        /* \"#utility.yul\":18240:18535   */\n    tag_182:\n        /* \"#utility.yul\":18316:18320   */\n      0x00\n        /* \"#utility.yul\":18462:18491   */\n      tag_370\n        /* \"#utility.yul\":18487:18490   */\n      dup4\n        /* \"#utility.yul\":18481:18485   */\n      dup4\n        /* \"#utility.yul\":18462:18491   */\n      tag_181\n      jump\t// in\n    tag_370:\n        /* \"#utility.yul\":18454:18491   */\n      swap2\n      pop\n        /* \"#utility.yul\":18524:18527   */\n      dup3\n        /* \"#utility.yul\":18521:18522   */\n      0x02\n        /* \"#utility.yul\":18517:18528   */\n      mul\n        /* \"#utility.yul\":18511:18515   */\n      dup3\n        /* \"#utility.yul\":18508:18529   */\n      or\n        /* \"#utility.yul\":18500:18529   */\n      swap1\n      pop\n        /* \"#utility.yul\":18240:18535   */\n      swap3\n      swap2\n      pop\n      pop\n      jump\t// out\n        /* \"#utility.yul\":18540:19935   */\n    tag_74:\n        /* \"#utility.yul\":18657:18694   */\n      tag_372\n        /* \"#utility.yul\":18690:18693   */\n      dup3\n        /* \"#utility.yul\":18657:18694   */\n      tag_138\n      jump\t// in\n    tag_372:\n        /* \"#utility.yul\":18759:18777   */\n      0xffffffffffffffff\n        /* \"#utility.yul\":18751:18757   */\n      dup2\n        /* \"#utility.yul\":18748:18778   */\n      gt\n        /* \"#utility.yul\":18745:18801   */\n      iszero\n      tag_373\n      jumpi\n        /* \"#utility.yul\":18781:18799   */\n      tag_374\n      tag_127\n      jump\t// in\n    tag_374:\n        /* \"#utility.yul\":18745:18801   */\n    tag_373:\n        /* \"#utility.yul\":18825:18863   */\n      tag_375\n        /* \"#utility.yul\":18857:18861   */\n      dup3\n        /* \"#utility.yul\":18851:18862   */\n      sload\n        /* \"#utility.yul\":18825:18863   */\n      tag_80\n      jump\t// in\n    tag_375:\n        /* \"#utility.yul\":18910:18977   */\n      tag_376\n        /* \"#utility.yul\":18970:18976   */\n      dup3\n        /* \"#utility.yul\":18962:18968   */\n      dup3\n        /* \"#utility.yul\":18956:18960   */\n      dup6\n        /* \"#utility.yul\":18910:18977   */\n      tag_179\n      jump\t// in\n    tag_376:\n        /* \"#utility.yul\":19004:19005   */\n      0x00\n        /* \"#utility.yul\":19028:19032   */\n      0x20\n        /* \"#utility.yul\":19015:19032   */\n      swap1\n      pop\n        /* \"#utility.yul\":19060:19062   */\n      0x1f\n        /* \"#utility.yul\":19052:19058   */\n      dup4\n        /* \"#utility.yul\":19049:19063   */\n      gt\n        /* \"#utility.yul\":19077:19078   */\n      0x01\n        /* \"#utility.yul\":19072:19690   */\n      dup2\n      eq\n      tag_378\n      jumpi\n        /* \"#utility.yul\":19734:19735   */\n      0x00\n        /* \"#utility.yul\":19751:19757   */\n      dup5\n        /* \"#utility.yul\":19748:19825   */\n      iszero\n      tag_379\n      jumpi\n        /* \"#utility.yul\":19800:19809   */\n      dup3\n        /* \"#utility.yul\":19795:19798   */\n      dup8\n        /* \"#utility.yul\":19791:19810   */\n      add\n        /* \"#utility.yul\":19785:19811   */\n      mload\n        /* \"#utility.yul\":19776:19811   */\n      swap1\n      pop\n        /* \"#utility.yul\":19748:19825   */\n    tag_379:\n        /* \"#utility.yul\":19851:19918   */\n      tag_380\n        /* \"#utility.yul\":19911:19917   */\n      dup6\n        /* \"#utility.yul\":19904:19909   */\n      dup3\n        /* \"#utility.yul\":19851:19918   */\n      tag_182\n      jump\t// in\n    tag_380:\n        /* \"#utility.yul\":19845:19849   */\n      dup7\n        /* \"#utility.yul\":19838:19919   */\n      sstore\n        /* \"#utility.yul\":19707:19929   */\n      pop\n        /* \"#utility.yul\":19042:19929   */\n      jump(tag_377)\n        /* \"#utility.yul\":19072:19690   */\n    tag_378:\n        /* \"#utility.yul\":19124:19128   */\n      0x1f\n        /* \"#utility.yul\":19120:19129   */\n      not\n        /* \"#utility.yul\":19112:19118   */\n      dup5\n        /* \"#utility.yul\":19108:19130   */\n      and\n        /* \"#utility.yul\":19158:19195   */\n      tag_381\n        /* \"#utility.yul\":19190:19194   */\n      dup7\n        /* \"#utility.yul\":19158:19195   */\n      tag_168\n      jump\t// in\n    tag_381:\n        /* \"#utility.yul\":19217:19218   */\n      0x00\n        /* \"#utility.yul\":19231:19439   */\n    tag_382:\n        /* \"#utility.yul\":19245:19252   */\n      dup3\n        /* \"#utility.yul\":19242:19243   */\n      dup2\n        /* \"#utility.yul\":19239:19253   */\n      lt\n        /* \"#utility.yul\":19231:19439   */\n      iszero\n      tag_384\n      jumpi\n        /* \"#utility.yul\":19324:19333   */\n      dup5\n        /* \"#utility.yul\":19319:19322   */\n      dup10\n        /* \"#utility.yul\":19315:19334   */\n      add\n        /* \"#utility.yul\":19309:19335   */\n      mload\n        /* \"#utility.yul\":19301:19307   */\n      dup3\n        /* \"#utility.yul\":19294:19336   */\n      sstore\n        /* \"#utility.yul\":19375:19376   */\n      0x01\n        /* \"#utility.yul\":19367:19373   */\n      dup3\n        /* \"#utility.yul\":19363:19377   */\n      add\n        /* \"#utility.yul\":19353:19377   */\n      swap2\n      pop\n        /* \"#utility.yul\":19422:19424   */\n      0x20\n        /* \"#utility.yul\":19411:19420   */\n      dup6\n        /* \"#utility.yul\":19407:19425   */\n      add\n        /* \"#utility.yul\":19394:19425   */\n      swap5\n      pop\n        /* \"#utility.yul\":19268:19272   */\n      0x20\n        /* \"#utility.yul\":19265:19266   */\n      dup2\n        /* \"#utility.yul\":19261:19273   */\n      add\n        /* \"#utility.yul\":19256:19273   */\n      swap1\n      pop\n        /* \"#utility.yul\":19231:19439   */\n      jump(tag_382)\n    tag_384:\n        /* \"#utility.yul\":19467:19473   */\n      dup7\n        /* \"#utility.yul\":19458:19465   */\n      dup4\n        /* \"#utility.yul\":19455:19474   */\n      lt\n        /* \"#utility.yul\":19452:19631   */\n      iszero\n      tag_385\n      jumpi\n        /* \"#utility.yul\":19525:19534   */\n      dup5\n        /* \"#utility.yul\":19520:19523   */\n      dup10\n        /* \"#utility.yul\":19516:19535   */\n      add\n        /* \"#utility.yul\":19510:19536   */\n      mload\n        /* \"#utility.yul\":19568:19616   */\n      tag_386\n        /* \"#utility.yul\":19610:19614   */\n      0x1f\n        /* \"#utility.yul\":19602:19608   */\n      dup10\n        /* \"#utility.yul\":19598:19615   */\n      and\n        /* \"#utility.yul\":19587:19596   */\n      dup3\n        /* \"#utility.yul\":19568:19616   */\n      tag_181\n      jump\t// in\n    tag_386:\n        /* \"#utility.yul\":19560:19566   */\n      dup4\n        /* \"#utility.yul\":19553:19617   */\n      sstore\n        /* \"#utility.yul\":19475:19631   */\n      pop\n        /* \"#utility.yul\":19452:19631   */\n    tag_385:\n        /* \"#utility.yul\":19677:19678   */\n      0x01\n        /* \"#utility.yul\":19673:19674   */\n      0x02\n        /* \"#utility.yul\":19665:19671   */\n      dup9\n        /* \"#utility.yul\":19661:19675   */\n      mul\n        /* \"#utility.yul\":19657:19679   */\n      add\n        /* \"#utility.yul\":19651:19655   */\n      dup9\n        /* \"#utility.yul\":19644:19680   */\n      sstore\n        /* \"#utility.yul\":19079:19690   */\n      pop\n      pop\n      pop\n        /* \"#utility.yul\":19042:19929   */\n    tag_377:\n      pop\n        /* \"#utility.yul\":18632:19935   */\n      pop\n      pop\n      pop\n        /* \"#utility.yul\":18540:19935   */\n      pop\n      pop\n      jump\t// out\n\n    auxdata: 0xa26469706673582212200796f879dda940930fe04b26d8bad71ff6237187babea36133ffca8d7cb7829464736f6c634300081a0033\n}\n",
				"bytecode": {
					"linkReferences": {},
					"object": "60806040527fffffffffffffffffffffffffffffffffffffffffffffffffffffffffffffffff6002557f7fffffffffffffffffffffffffffffffffffffffffffffffffffffffffffffff6003556040518060600160405280600160ff168152602001600260ff168152602001600360ff1681525060049060036100839291906101d2565b5060405180606001604052806040518060400160405280600581526020017f6a616d657300000000000000000000000000000000000000000000000000000081525081526020016040518060400160405280600681526020017f766963746f72000000000000000000000000000000000000000000000000000081525081526020016040518060400160405280600681526020017f6f6368756c610000000000000000000000000000000000000000000000000000815250815250600590600361014e929190610222565b5060405180604001604052806040518060600160405280600160ff168152602001600260ff168152602001600360ff1681525081526020016040518060600160405280600460ff168152602001600560ff168152602001600660ff1681525081525060079060026101c0929190610279565b503480156101cc575f80fd5b50610697565b828054828255905f5260205f20908101928215610211579160200282015b82811115610210578251829060ff169055916020019190600101906101f0565b5b50905061021e91906102d2565b5090565b828054828255905f5260205f20908101928215610268579160200282015b8281111561026757825182908161025791906105c8565b5091602001919060010190610240565b5b50905061027591906102ed565b5090565b828054828255905f5260205f209081019282156102c1579160200282015b828111156102c0578251829060036102b09291906101d2565b5091602001919060010190610297565b5b5090506102ce9190610310565b5090565b5b808211156102e9575f815f9055506001016102d3565b5090565b5b8082111561030c575f81816103039190610333565b506001016102ee565b5090565b5b8082111561032f575f81816103269190610370565b50600101610311565b5090565b50805461033f906103f2565b5f825580601f10610350575061036d565b601f0160209004905f5260205f209081019061036c91906102d2565b5b50565b5080545f8255905f5260205f209081019061038b91906102d2565b50565b5f81519050919050565b7f4e487b71000000000000000000000000000000000000000000000000000000005f52604160045260245ffd5b7f4e487b71000000000000000000000000000000000000000000000000000000005f52602260045260245ffd5b5f600282049050600182168061040957607f821691505b60208210810361041c5761041b6103c5565b5b50919050565b5f819050815f5260205f209050919050565b5f6020601f8301049050919050565b5f82821b905092915050565b5f6008830261047e7fffffffffffffffffffffffffffffffffffffffffffffffffffffffffffffffff82610443565b6104888683610443565b95508019841693508086168417925050509392505050565b5f819050919050565b5f819050919050565b5f6104cc6104c76104c2846104a0565b6104a9565b6104a0565b9050919050565b5f819050919050565b6104e5836104b2565b6104f96104f1826104d3565b84845461044f565b825550505050565b5f90565b61050d610501565b6105188184846104dc565b505050565b5b8181101561053b576105305f82610505565b60018101905061051e565b5050565b601f8211156105805761055181610422565b61055a84610434565b81016020851015610569578190505b61057d61057585610434565b83018261051d565b50505b505050565b5f82821c905092915050565b5f6105a05f1984600802610585565b1980831691505092915050565b5f6105b88383610591565b9150826002028217905092915050565b6105d18261038e565b67ffffffffffffffff8111156105ea576105e9610398565b5b6105f482546103f2565b6105ff82828561053f565b5f60209050601f831160018114610630575f841561061e578287015190505b61062885826105ad565b86555061068f565b601f19841661063e86610422565b5f5b8281101561066557848901518255600182019150602085019450602081019050610640565b86831015610682578489015161067e601f891682610591565b8355505b6001600288020188555050505b505050505050565b611090806106a45f395ff3fe608060405234801561000f575f80fd5b50600436106100cd575f3560e01c80639ae918c71161008a578063cf6cda9411610064578063cf6cda94146101ff578063d3268fc11461021d578063d4da005a1461024d578063de8149131461026b576100cd565b80639ae918c714610193578063b28baa1d146101c3578063cdaf62d1146101e1576100cd565b80633a5fbaaa146100d15780634dfdc21f146100ed5780634ee5c2ee1461010b5780636422c4c8146101275780636a771038146101575780638bf1799f14610175575b5f80fd5b6100eb60048036038101906100e6919061083a565b61029b565b005b6100f56102d0565b6040516101029190610899565b60405180910390f35b610125600480360381019061012091906108dc565b6102d6565b005b610141600480360381019061013c9190610936565b6102f0565b60405161014e91906109c1565b60405180910390f35b61015f610396565b60405161016c9190610b53565b60405180910390f35b61017d610430565b60405161018a91906109c1565b60405180910390f35b6101ad60048036038101906101a89190610936565b6104bb565b6040516101ba9190610899565b60405180910390f35b6101cb6104db565b6040516101d89190610bdf565b60405180910390f35b6101e9610531565b6040516101f69190610d02565b60405180910390f35b610207610605565b6040516102149190610d3a565b60405180910390f35b61023760048036038101906102329190610d53565b61060b565b6040516102449190610899565b60405180910390f35b610255610641565b6040516102629190610899565b60405180910390f35b61028560048036038101906102809190610936565b610647565b60405161029291906109c1565b60405180910390f35b600681908060018154018082558091505060019003905f5260205f20015f9091909190915090816102cc9190610f8b565b5050565b60025481565b815f90816102e49190610f8b565b50806001819055505050565b600581815481106102ff575f80fd5b905f5260205f20015f91509050805461031790610dbe565b80601f016020809104026020016040519081016040528092919081815260200182805461034390610dbe565b801561038e5780601f106103655761010080835404028352916020019161038e565b820191905f5260205f20905b81548152906001019060200180831161037157829003601f168201915b505050505081565b60606007805480602002602001604051908101604052809291908181526020015f905b82821015610427578382905f5260205f200180548060200260200160405190810160405280929190818152602001828054801561041357602002820191905f5260205f20905b8154815260200190600101908083116103ff575b5050505050815260200190600101906103b9565b50505050905090565b5f805461043c90610dbe565b80601f016020809104026020016040519081016040528092919081815260200182805461046890610dbe565b80156104b35780601f1061048a576101008083540402835291602001916104b3565b820191905f5260205f20905b81548152906001019060200180831161049657829003601f168201915b505050505081565b600481815481106104ca575f80fd5b905f5260205f20015f915090505481565b6060600480548060200260200160405190810160405280929190818152602001828054801561052757602002820191905f5260205f20905b815481526020019060010190808311610513575b5050505050905090565b60606005805480602002602001604051908101604052809291908181526020015f905b828210156105fc578382905f5260205f2001805461057190610dbe565b80601f016020809104026020016040519081016040528092919081815260200182805461059d90610dbe565b80156105e85780601f106105bf576101008083540402835291602001916105e8565b820191905f5260205f20905b8154815290600101906020018083116105cb57829003601f168201915b505050505081526020019060010190610554565b50505050905090565b60035481565b6007828154811061061a575f80fd5b905f5260205f2001818154811061062f575f80fd5b905f5260205f20015f91509150505481565b60015481565b60068181548110610656575f80fd5b905f5260205f20015f91509050805461066e90610dbe565b80601f016020809104026020016040519081016040528092919081815260200182805461069a90610dbe565b80156106e55780601f106106bc576101008083540402835291602001916106e5565b820191905f5260205f20905b8154815290600101906020018083116106c857829003601f168201915b505050505081565b5f604051905090565b5f80fd5b5f80fd5b5f80fd5b5f80fd5b5f601f19601f8301169050919050565b7f4e487b71000000000000000000000000000000000000000000000000000000005f52604160045260245ffd5b61074c82610706565b810181811067ffffffffffffffff8211171561076b5761076a610716565b5b80604052505050565b5f61077d6106ed565b90506107898282610743565b919050565b5f67ffffffffffffffff8211156107a8576107a7610716565b5b6107b182610706565b9050602081019050919050565b828183375f83830152505050565b5f6107de6107d98461078e565b610774565b9050828152602081018484840111156107fa576107f9610702565b5b6108058482856107be565b509392505050565b5f82601f830112610821576108206106fe565b5b81356108318482602086016107cc565b91505092915050565b5f6020828403121561084f5761084e6106f6565b5b5f82013567ffffffffffffffff81111561086c5761086b6106fa565b5b6108788482850161080d565b91505092915050565b5f819050919050565b61089381610881565b82525050565b5f6020820190506108ac5f83018461088a565b92915050565b6108bb81610881565b81146108c5575f80fd5b50565b5f813590506108d6816108b2565b92915050565b5f80604083850312156108f2576108f16106f6565b5b5f83013567ffffffffffffffff81111561090f5761090e6106fa565b5b61091b8582860161080d565b925050602061092c858286016108c8565b9150509250929050565b5f6020828403121561094b5761094a6106f6565b5b5f610958848285016108c8565b91505092915050565b5f81519050919050565b5f82825260208201905092915050565b8281835e5f83830152505050565b5f61099382610961565b61099d818561096b565b93506109ad81856020860161097b565b6109b681610706565b840191505092915050565b5f6020820190508181035f8301526109d98184610989565b905092915050565b5f81519050919050565b5f82825260208201905092915050565b5f819050602082019050919050565b5f81519050919050565b5f82825260208201905092915050565b5f819050602082019050919050565b610a3c81610881565b82525050565b5f610a4d8383610a33565b60208301905092915050565b5f602082019050919050565b5f610a6f82610a0a565b610a798185610a14565b9350610a8483610a24565b805f5b83811015610ab4578151610a9b8882610a42565b9750610aa683610a59565b925050600181019050610a87565b5085935050505092915050565b5f610acc8383610a65565b905092915050565b5f602082019050919050565b5f610aea826109e1565b610af481856109eb565b935083602082028501610b06856109fb565b805f5b85811015610b415784840389528151610b228582610ac1565b9450610b2d83610ad4565b925060208a01995050600181019050610b09565b50829750879550505050505092915050565b5f6020820190508181035f830152610b6b8184610ae0565b905092915050565b5f82825260208201905092915050565b5f610b8d82610a0a565b610b978185610b73565b9350610ba283610a24565b805f5b83811015610bd2578151610bb98882610a42565b9750610bc483610a59565b925050600181019050610ba5565b5085935050505092915050565b5f6020820190508181035f830152610bf78184610b83565b905092915050565b5f81519050919050565b5f82825260208201905092915050565b5f819050602082019050919050565b5f82825260208201905092915050565b5f610c4282610961565b610c4c8185610c28565b9350610c5c81856020860161097b565b610c6581610706565b840191505092915050565b5f610c7b8383610c38565b905092915050565b5f602082019050919050565b5f610c9982610bff565b610ca38185610c09565b935083602082028501610cb585610c19565b805f5b85811015610cf05784840389528151610cd18582610c70565b9450610cdc83610c83565b925060208a01995050600181019050610cb8565b50829750879550505050505092915050565b5f6020820190508181035f830152610d1a8184610c8f565b905092915050565b5f819050919050565b610d3481610d22565b82525050565b5f602082019050610d4d5f830184610d2b565b92915050565b5f8060408385031215610d6957610d686106f6565b5b5f610d76858286016108c8565b9250506020610d87858286016108c8565b9150509250929050565b7f4e487b71000000000000000000000000000000000000000000000000000000005f52602260045260245ffd5b5f6002820490506001821680610dd557607f821691505b602082108103610de857610de7610d91565b5b50919050565b5f819050815f5260205f209050919050565b5f6020601f8301049050919050565b5f82821b905092915050565b5f60088302610e4a7fffffffffffffffffffffffffffffffffffffffffffffffffffffffffffffffff82610e0f565b610e548683610e0f565b95508019841693508086168417925050509392505050565b5f819050919050565b5f610e8f610e8a610e8584610881565b610e6c565b610881565b9050919050565b5f819050919050565b610ea883610e75565b610ebc610eb482610e96565b848454610e1b565b825550505050565b5f90565b610ed0610ec4565b610edb818484610e9f565b505050565b5b81811015610efe57610ef35f82610ec8565b600181019050610ee1565b5050565b601f821115610f4357610f1481610dee565b610f1d84610e00565b81016020851015610f2c578190505b610f40610f3885610e00565b830182610ee0565b50505b505050565b5f82821c905092915050565b5f610f635f1984600802610f48565b1980831691505092915050565b5f610f7b8383610f54565b9150826002028217905092915050565b610f9482610961565b67ffffffffffffffff811115610fad57610fac610716565b5b610fb78254610dbe565b610fc2828285610f02565b5f60209050601f831160018114610ff3575f8415610fe1578287015190505b610feb8582610f70565b865550611052565b601f19841661100186610dee565b5f5b8281101561102857848901518255600182019150602085019450602081019050611003565b868310156110455784890151611041601f891682610f54565b8355505b6001600288020188555050505b50505050505056fea26469706673582212200796f879dda940930fe04b26d8bad71ff6237187babea36133ffca8d7cb7829464736f6c634300081a0033",
					"opcodes": "PUSH1 0x80 PUSH1 0x40 MSTORE PUSH32 0xFFFFFFFFFFFFFFFFFFFFFFFFFFFFFFFFFFFFFFFFFFFFFFFFFFFFFFFFFFFFFFFF PUSH1 0x2 SSTORE PUSH32 0x7FFFFFFFFFFFFFFFFFFFFFFFFFFFFFFFFFFFFFFFFFFFFFFFFFFFFFFFFFFFFFFF PUSH1 0x3 SSTORE PUSH1 0x40 MLOAD DUP1 PUSH1 0x60 ADD PUSH1 0x40 MSTORE DUP1 PUSH1 0x1 PUSH1 0xFF AND DUP2 MSTORE PUSH1 0x20 ADD PUSH1 0x2 PUSH1 0xFF AND DUP2 MSTORE PUSH1 0x20 ADD PUSH1 0x3 PUSH1 0xFF AND DUP2 MSTORE POP PUSH1 0x4 SWAP1 PUSH1 0x3 PUSH2 0x83 SWAP3 SWAP2 SWAP1 PUSH2 0x1D2 JUMP JUMPDEST POP PUSH1 0x40 MLOAD DUP1 PUSH1 0x60 ADD PUSH1 0x40 MSTORE DUP1 PUSH1 0x40 MLOAD DUP1 PUSH1 0x40 ADD PUSH1 0x40 MSTORE DUP1 PUSH1 0x5 DUP2 MSTORE PUSH1 0x20 ADD PUSH32 0x6A616D6573000000000000000000000000000000000000000000000000000000 DUP2 MSTORE POP DUP2 MSTORE PUSH1 0x20 ADD PUSH1 0x40 MLOAD DUP1 PUSH1 0x40 ADD PUSH1 0x40 MSTORE DUP1 PUSH1 0x6 DUP2 MSTORE PUSH1 0x20 ADD PUSH32 0x766963746F720000000000000000000000000000000000000000000000000000 DUP2 MSTORE POP DUP2 MSTORE PUSH1 0x20 ADD PUSH1 0x40 MLOAD DUP1 PUSH1 0x40 ADD PUSH1 0x40 MSTORE DUP1 PUSH1 0x6 DUP2 MSTORE PUSH1 0x20 ADD PUSH32 0x6F6368756C610000000000000000000000000000000000000000000000000000 DUP2 MSTORE POP DUP2 MSTORE POP PUSH1 0x5 SWAP1 PUSH1 0x3 PUSH2 0x14E SWAP3 SWAP2 SWAP1 PUSH2 0x222 JUMP JUMPDEST POP PUSH1 0x40 MLOAD DUP1 PUSH1 0x40 ADD PUSH1 0x40 MSTORE DUP1 PUSH1 0x40 MLOAD DUP1 PUSH1 0x60 ADD PUSH1 0x40 MSTORE DUP1 PUSH1 0x1 PUSH1 0xFF AND DUP2 MSTORE PUSH1 0x20 ADD PUSH1 0x2 PUSH1 0xFF AND DUP2 MSTORE PUSH1 0x20 ADD PUSH1 0x3 PUSH1 0xFF AND DUP2 MSTORE POP DUP2 MSTORE PUSH1 0x20 ADD PUSH1 0x40 MLOAD DUP1 PUSH1 0x60 ADD PUSH1 0x40 MSTORE DUP1 PUSH1 0x4 PUSH1 0xFF AND DUP2 MSTORE PUSH1 0x20 ADD PUSH1 0x5 PUSH1 0xFF AND DUP2 MSTORE PUSH1 0x20 ADD PUSH1 0x6 PUSH1 0xFF AND DUP2 MSTORE POP DUP2 MSTORE POP PUSH1 0x7 SWAP1 PUSH1 0x2 PUSH2 0x1C0 SWAP3 SWAP2 SWAP1 PUSH2 0x279 JUMP JUMPDEST POP CALLVALUE DUP1 ISZERO PUSH2 0x1CC JUMPI PUSH0 DUP1 REVERT JUMPDEST POP PUSH2 0x697 JUMP JUMPDEST DUP3 DUP1 SLOAD DUP3 DUP3 SSTORE SWAP1 PUSH0 MSTORE PUSH1 0x20 PUSH0 KECCAK256 SWAP1 DUP2 ADD SWAP3 DUP3 ISZERO PUSH2 0x211 JUMPI SWAP2 PUSH1 0x20 MUL DUP3 ADD JUMPDEST DUP3 DUP2 GT ISZERO PUSH2 0x210 JUMPI DUP3 MLOAD DUP3 SWAP1 PUSH1 0xFF AND SWAP1 SSTORE SWAP2 PUSH1 0x20 ADD SWAP2 SWAP1 PUSH1 0x1 ADD SWAP1 PUSH2 0x1F0 JUMP JUMPDEST JUMPDEST POP SWAP1 POP PUSH2 0x21E SWAP2 SWAP1 PUSH2 0x2D2 JUMP JUMPDEST POP SWAP1 JUMP JUMPDEST DUP3 DUP1 SLOAD DUP3 DUP3 SSTORE SWAP1 PUSH0 MSTORE PUSH1 0x20 PUSH0 KECCAK256 SWAP1 DUP2 ADD SWAP3 DUP3 ISZERO PUSH2 0x268 JUMPI SWAP2 PUSH1 0x20 MUL DUP3 ADD JUMPDEST DUP3 DUP2 GT ISZERO PUSH2 0x267 JUMPI DUP3 MLOAD DUP3 SWAP1 DUP2 PUSH2 0x257 SWAP2 SWAP1 PUSH2 0x5C8 JUMP JUMPDEST POP SWAP2 PUSH1 0x20 ADD SWAP2 SWAP1 PUSH1 0x1 ADD SWAP1 PUSH2 0x240 JUMP JUMPDEST JUMPDEST POP SWAP1 POP PUSH2 0x275 SWAP2 SWAP1 PUSH2 0x2ED JUMP JUMPDEST POP SWAP1 JUMP JUMPDEST DUP3 DUP1 SLOAD DUP3 DUP3 SSTORE SWAP1 PUSH0 MSTORE PUSH1 0x20 PUSH0 KECCAK256 SWAP1 DUP2 ADD SWAP3 DUP3 ISZERO PUSH2 0x2C1 JUMPI SWAP2 PUSH1 0x20 MUL DUP3 ADD JUMPDEST DUP3 DUP2 GT ISZERO PUSH2 0x2C0 JUMPI DUP3 MLOAD DUP3 SWAP1 PUSH1 0x3 PUSH2 0x2B0 SWAP3 SWAP2 SWAP1 PUSH2 0x1D2 JUMP JUMPDEST POP SWAP2 PUSH1 0x20 ADD SWAP2 SWAP1 PUSH1 0x1 ADD SWAP1 PUSH2 0x297 JUMP JUMPDEST JUMPDEST POP SWAP1 POP PUSH2 0x2CE SWAP2 SWAP1 PUSH2 0x310 JUMP JUMPDEST POP SWAP1 JUMP JUMPDEST JUMPDEST DUP1 DUP3 GT ISZERO PUSH2 0x2E9 JUMPI PUSH0 DUP2 PUSH0 SWAP1 SSTORE POP PUSH1 0x1 ADD PUSH2 0x2D3 JUMP JUMPDEST POP SWAP1 JUMP JUMPDEST JUMPDEST DUP1 DUP3 GT ISZERO PUSH2 0x30C JUMPI PUSH0 DUP2 DUP2 PUSH2 0x303 SWAP2 SWAP1 PUSH2 0x333 JUMP JUMPDEST POP PUSH1 0x1 ADD PUSH2 0x2EE JUMP JUMPDEST POP SWAP1 JUMP JUMPDEST JUMPDEST DUP1 DUP3 GT ISZERO PUSH2 0x32F JUMPI PUSH0 DUP2 DUP2 PUSH2 0x326 SWAP2 SWAP1 PUSH2 0x370 JUMP JUMPDEST POP PUSH1 0x1 ADD PUSH2 0x311 JUMP JUMPDEST POP SWAP1 JUMP JUMPDEST POP DUP1 SLOAD PUSH2 0x33F SWAP1 PUSH2 0x3F2 JUMP JUMPDEST PUSH0 DUP3 SSTORE DUP1 PUSH1 0x1F LT PUSH2 0x350 JUMPI POP PUSH2 0x36D JUMP JUMPDEST PUSH1 0x1F ADD PUSH1 0x20 SWAP1 DIV SWAP1 PUSH0 MSTORE PUSH1 0x20 PUSH0 KECCAK256 SWAP1 DUP2 ADD SWAP1 PUSH2 0x36C SWAP2 SWAP1 PUSH2 0x2D2 JUMP JUMPDEST JUMPDEST POP JUMP JUMPDEST POP DUP1 SLOAD PUSH0 DUP3 SSTORE SWAP1 PUSH0 MSTORE PUSH1 0x20 PUSH0 KECCAK256 SWAP1 DUP2 ADD SWAP1 PUSH2 0x38B SWAP2 SWAP1 PUSH2 0x2D2 JUMP JUMPDEST POP JUMP JUMPDEST PUSH0 DUP2 MLOAD SWAP1 POP SWAP2 SWAP1 POP JUMP JUMPDEST PUSH32 0x4E487B7100000000000000000000000000000000000000000000000000000000 PUSH0 MSTORE PUSH1 0x41 PUSH1 0x4 MSTORE PUSH1 0x24 PUSH0 REVERT JUMPDEST PUSH32 0x4E487B7100000000000000000000000000000000000000000000000000000000 PUSH0 MSTORE PUSH1 0x22 PUSH1 0x4 MSTORE PUSH1 0x24 PUSH0 REVERT JUMPDEST PUSH0 PUSH1 0x2 DUP3 DIV SWAP1 POP PUSH1 0x1 DUP3 AND DUP1 PUSH2 0x409 JUMPI PUSH1 0x7F DUP3 AND SWAP2 POP JUMPDEST PUSH1 0x20 DUP3 LT DUP2 SUB PUSH2 0x41C JUMPI PUSH2 0x41B PUSH2 0x3C5 JUMP JUMPDEST JUMPDEST POP SWAP2 SWAP1 POP JUMP JUMPDEST PUSH0 DUP2 SWAP1 POP DUP2 PUSH0 MSTORE PUSH1 0x20 PUSH0 KECCAK256 SWAP1 POP SWAP2 SWAP1 POP JUMP JUMPDEST PUSH0 PUSH1 0x20 PUSH1 0x1F DUP4 ADD DIV SWAP1 POP SWAP2 SWAP1 POP JUMP JUMPDEST PUSH0 DUP3 DUP3 SHL SWAP1 POP SWAP3 SWAP2 POP POP JUMP JUMPDEST PUSH0 PUSH1 0x8 DUP4 MUL PUSH2 0x47E PUSH32 0xFFFFFFFFFFFFFFFFFFFFFFFFFFFFFFFFFFFFFFFFFFFFFFFFFFFFFFFFFFFFFFFF DUP3 PUSH2 0x443 JUMP JUMPDEST PUSH2 0x488 DUP7 DUP4 PUSH2 0x443 JUMP JUMPDEST SWAP6 POP DUP1 NOT DUP5 AND SWAP4 POP DUP1 DUP7 AND DUP5 OR SWAP3 POP POP POP SWAP4 SWAP3 POP POP POP JUMP JUMPDEST PUSH0 DUP2 SWAP1 POP SWAP2 SWAP1 POP JUMP JUMPDEST PUSH0 DUP2 SWAP1 POP SWAP2 SWAP1 POP JUMP JUMPDEST PUSH0 PUSH2 0x4CC PUSH2 0x4C7 PUSH2 0x4C2 DUP5 PUSH2 0x4A0 JUMP JUMPDEST PUSH2 0x4A9 JUMP JUMPDEST PUSH2 0x4A0 JUMP JUMPDEST SWAP1 POP SWAP2 SWAP1 POP JUMP JUMPDEST PUSH0 DUP2 SWAP1 POP SWAP2 SWAP1 POP JUMP JUMPDEST PUSH2 0x4E5 DUP4 PUSH2 0x4B2 JUMP JUMPDEST PUSH2 0x4F9 PUSH2 0x4F1 DUP3 PUSH2 0x4D3 JUMP JUMPDEST DUP5 DUP5 SLOAD PUSH2 0x44F JUMP JUMPDEST DUP3 SSTORE POP POP POP POP JUMP JUMPDEST PUSH0 SWAP1 JUMP JUMPDEST PUSH2 0x50D PUSH2 0x501 JUMP JUMPDEST PUSH2 0x518 DUP2 DUP5 DUP5 PUSH2 0x4DC JUMP JUMPDEST POP POP POP JUMP JUMPDEST JUMPDEST DUP2 DUP2 LT ISZERO PUSH2 0x53B JUMPI PUSH2 0x530 PUSH0 DUP3 PUSH2 0x505 JUMP JUMPDEST PUSH1 0x1 DUP2 ADD SWAP1 POP PUSH2 0x51E JUMP JUMPDEST POP POP JUMP JUMPDEST PUSH1 0x1F DUP3 GT ISZERO PUSH2 0x580 JUMPI PUSH2 0x551 DUP2 PUSH2 0x422 JUMP JUMPDEST PUSH2 0x55A DUP5 PUSH2 0x434 JUMP JUMPDEST DUP2 ADD PUSH1 0x20 DUP6 LT ISZERO PUSH2 0x569 JUMPI DUP2 SWAP1 POP JUMPDEST PUSH2 0x57D PUSH2 0x575 DUP6 PUSH2 0x434 JUMP JUMPDEST DUP4 ADD DUP3 PUSH2 0x51D JUMP JUMPDEST POP POP JUMPDEST POP POP POP JUMP JUMPDEST PUSH0 DUP3 DUP3 SHR SWAP1 POP SWAP3 SWAP2 POP POP JUMP JUMPDEST PUSH0 PUSH2 0x5A0 PUSH0 NOT DUP5 PUSH1 0x8 MUL PUSH2 0x585 JUMP JUMPDEST NOT DUP1 DUP4 AND SWAP2 POP POP SWAP3 SWAP2 POP POP JUMP JUMPDEST PUSH0 PUSH2 0x5B8 DUP4 DUP4 PUSH2 0x591 JUMP JUMPDEST SWAP2 POP DUP3 PUSH1 0x2 MUL DUP3 OR SWAP1 POP SWAP3 SWAP2 POP POP JUMP JUMPDEST PUSH2 0x5D1 DUP3 PUSH2 0x38E JUMP JUMPDEST PUSH8 0xFFFFFFFFFFFFFFFF DUP2 GT ISZERO PUSH2 0x5EA JUMPI PUSH2 0x5E9 PUSH2 0x398 JUMP JUMPDEST JUMPDEST PUSH2 0x5F4 DUP3 SLOAD PUSH2 0x3F2 JUMP JUMPDEST PUSH2 0x5FF DUP3 DUP3 DUP6 PUSH2 0x53F JUMP JUMPDEST PUSH0 PUSH1 0x20 SWAP1 POP PUSH1 0x1F DUP4 GT PUSH1 0x1 DUP2 EQ PUSH2 0x630 JUMPI PUSH0 DUP5 ISZERO PUSH2 0x61E JUMPI DUP3 DUP8 ADD MLOAD SWAP1 POP JUMPDEST PUSH2 0x628 DUP6 DUP3 PUSH2 0x5AD JUMP JUMPDEST DUP7 SSTORE POP PUSH2 0x68F JUMP JUMPDEST PUSH1 0x1F NOT DUP5 AND PUSH2 0x63E DUP7 PUSH2 0x422 JUMP JUMPDEST PUSH0 JUMPDEST DUP3 DUP2 LT ISZERO PUSH2 0x665 JUMPI DUP5 DUP10 ADD MLOAD DUP3 SSTORE PUSH1 0x1 DUP3 ADD SWAP2 POP PUSH1 0x20 DUP6 ADD SWAP5 POP PUSH1 0x20 DUP2 ADD SWAP1 POP PUSH2 0x640 JUMP JUMPDEST DUP7 DUP4 LT ISZERO PUSH2 0x682 JUMPI DUP5 DUP10 ADD MLOAD PUSH2 0x67E PUSH1 0x1F DUP10 AND DUP3 PUSH2 0x591 JUMP JUMPDEST DUP4 SSTORE POP JUMPDEST PUSH1 0x1 PUSH1 0x2 DUP9 MUL ADD DUP9 SSTORE POP POP POP JUMPDEST POP POP POP POP POP POP JUMP JUMPDEST PUSH2 0x1090 DUP1 PUSH2 0x6A4 PUSH0 CODECOPY PUSH0 RETURN INVALID PUSH1 0x80 PUSH1 0x40 MSTORE CALLVALUE DUP1 ISZERO PUSH2 0xF JUMPI PUSH0 DUP1 REVERT JUMPDEST POP PUSH1 0x4 CALLDATASIZE LT PUSH2 0xCD JUMPI PUSH0 CALLDATALOAD PUSH1 0xE0 SHR DUP1 PUSH4 0x9AE918C7 GT PUSH2 0x8A JUMPI DUP1 PUSH4 0xCF6CDA94 GT PUSH2 0x64 JUMPI DUP1 PUSH4 0xCF6CDA94 EQ PUSH2 0x1FF JUMPI DUP1 PUSH4 0xD3268FC1 EQ PUSH2 0x21D JUMPI DUP1 PUSH4 0xD4DA005A EQ PUSH2 0x24D JUMPI DUP1 PUSH4 0xDE814913 EQ PUSH2 0x26B JUMPI PUSH2 0xCD JUMP JUMPDEST DUP1 PUSH4 0x9AE918C7 EQ PUSH2 0x193 JUMPI DUP1 PUSH4 0xB28BAA1D EQ PUSH2 0x1C3 JUMPI DUP1 PUSH4 0xCDAF62D1 EQ PUSH2 0x1E1 JUMPI PUSH2 0xCD JUMP JUMPDEST DUP1 PUSH4 0x3A5FBAAA EQ PUSH2 0xD1 JUMPI DUP1 PUSH4 0x4DFDC21F EQ PUSH2 0xED JUMPI DUP1 PUSH4 0x4EE5C2EE EQ PUSH2 0x10B JUMPI DUP1 PUSH4 0x6422C4C8 EQ PUSH2 0x127 JUMPI DUP1 PUSH4 0x6A771038 EQ PUSH2 0x157 JUMPI DUP1 PUSH4 0x8BF1799F EQ PUSH2 0x175 JUMPI JUMPDEST PUSH0 DUP1 REVERT JUMPDEST PUSH2 0xEB PUSH1 0x4 DUP1 CALLDATASIZE SUB DUP2 ADD SWAP1 PUSH2 0xE6 SWAP2 SWAP1 PUSH2 0x83A JUMP JUMPDEST PUSH2 0x29B JUMP JUMPDEST STOP JUMPDEST PUSH2 0xF5 PUSH2 0x2D0 JUMP JUMPDEST PUSH1 0x40 MLOAD PUSH2 0x102 SWAP2 SWAP1 PUSH2 0x899 JUMP JUMPDEST PUSH1 0x40 MLOAD DUP1 SWAP2 SUB SWAP1 RETURN JUMPDEST PUSH2 0x125 PUSH1 0x4 DUP1 CALLDATASIZE SUB DUP2 ADD SWAP1 PUSH2 0x120 SWAP2 SWAP1 PUSH2 0x8DC JUMP JUMPDEST PUSH2 0x2D6 JUMP JUMPDEST STOP JUMPDEST PUSH2 0x141 PUSH1 0x4 DUP1 CALLDATASIZE SUB DUP2 ADD SWAP1 PUSH2 0x13C SWAP2 SWAP1 PUSH2 0x936 JUMP JUMPDEST PUSH2 0x2F0 JUMP JUMPDEST PUSH1 0x40 MLOAD PUSH2 0x14E SWAP2 SWAP1 PUSH2 0x9C1 JUMP JUMPDEST PUSH1 0x40 MLOAD DUP1 SWAP2 SUB SWAP1 RETURN JUMPDEST PUSH2 0x15F PUSH2 0x396 JUMP JUMPDEST PUSH1 0x40 MLOAD PUSH2 0x16C SWAP2 SWAP1 PUSH2 0xB53 JUMP JUMPDEST PUSH1 0x40 MLOAD DUP1 SWAP2 SUB SWAP1 RETURN JUMPDEST PUSH2 0x17D PUSH2 0x430 JUMP JUMPDEST PUSH1 0x40 MLOAD PUSH2 0x18A SWAP2 SWAP1 PUSH2 0x9C1 JUMP JUMPDEST PUSH1 0x40 MLOAD DUP1 SWAP2 SUB SWAP1 RETURN JUMPDEST PUSH2 0x1AD PUSH1 0x4 DUP1 CALLDATASIZE SUB DUP2 ADD SWAP1 PUSH2 0x1A8 SWAP2 SWAP1 PUSH2 0x936 JUMP JUMPDEST PUSH2 0x4BB JUMP JUMPDEST PUSH1 0x40 MLOAD PUSH2 0x1BA SWAP2 SWAP1 PUSH2 0x899 JUMP JUMPDEST PUSH1 0x40 MLOAD DUP1 SWAP2 SUB SWAP1 RETURN JUMPDEST PUSH2 0x1CB PUSH2 0x4DB JUMP JUMPDEST PUSH1 0x40 MLOAD PUSH2 0x1D8 SWAP2 SWAP1 PUSH2 0xBDF JUMP JUMPDEST PUSH1 0x40 MLOAD DUP1 SWAP2 SUB SWAP1 RETURN JUMPDEST PUSH2 0x1E9 PUSH2 0x531 JUMP JUMPDEST PUSH1 0x40 MLOAD PUSH2 0x1F6 SWAP2 SWAP1 PUSH2 0xD02 JUMP JUMPDEST PUSH1 0x40 MLOAD DUP1 SWAP2 SUB SWAP1 RETURN JUMPDEST PUSH2 0x207 PUSH2 0x605 JUMP JUMPDEST PUSH1 0x40 MLOAD PUSH2 0x214 SWAP2 SWAP1 PUSH2 0xD3A JUMP JUMPDEST PUSH1 0x40 MLOAD DUP1 SWAP2 SUB SWAP1 RETURN JUMPDEST PUSH2 0x237 PUSH1 0x4 DUP1 CALLDATASIZE SUB DUP2 ADD SWAP1 PUSH2 0x232 SWAP2 SWAP1 PUSH2 0xD53 JUMP JUMPDEST PUSH2 0x60B JUMP JUMPDEST PUSH1 0x40 MLOAD PUSH2 0x244 SWAP2 SWAP1 PUSH2 0x899 JUMP JUMPDEST PUSH1 0x40 MLOAD DUP1 SWAP2 SUB SWAP1 RETURN JUMPDEST PUSH2 0x255 PUSH2 0x641 JUMP JUMPDEST PUSH1 0x40 MLOAD PUSH2 0x262 SWAP2 SWAP1 PUSH2 0x899 JUMP JUMPDEST PUSH1 0x40 MLOAD DUP1 SWAP2 SUB SWAP1 RETURN JUMPDEST PUSH2 0x285 PUSH1 0x4 DUP1 CALLDATASIZE SUB DUP2 ADD SWAP1 PUSH2 0x280 SWAP2 SWAP1 PUSH2 0x936 JUMP JUMPDEST PUSH2 0x647 JUMP JUMPDEST PUSH1 0x40 MLOAD PUSH2 0x292 SWAP2 SWAP1 PUSH2 0x9C1 JUMP JUMPDEST PUSH1 0x40 MLOAD DUP1 SWAP2 SUB SWAP1 RETURN JUMPDEST PUSH1 0x6 DUP2 SWAP1 DUP1 PUSH1 0x1 DUP2 SLOAD ADD DUP1 DUP3 SSTORE DUP1 SWAP2 POP POP PUSH1 0x1 SWAP1 SUB SWAP1 PUSH0 MSTORE PUSH1 0x20 PUSH0 KECCAK256 ADD PUSH0 SWAP1 SWAP2 SWAP1 SWAP2 SWAP1 SWAP2 POP SWAP1 DUP2 PUSH2 0x2CC SWAP2 SWAP1 PUSH2 0xF8B JUMP JUMPDEST POP POP JUMP JUMPDEST PUSH1 0x2 SLOAD DUP2 JUMP JUMPDEST DUP2 PUSH0 SWAP1 DUP2 PUSH2 0x2E4 SWAP2 SWAP1 PUSH2 0xF8B JUMP JUMPDEST POP DUP1 PUSH1 0x1 DUP2 SWAP1 SSTORE POP POP POP JUMP JUMPDEST PUSH1 0x5 DUP2 DUP2 SLOAD DUP2 LT PUSH2 0x2FF JUMPI PUSH0 DUP1 REVERT JUMPDEST SWAP1 PUSH0 MSTORE PUSH1 0x20 PUSH0 KECCAK256 ADD PUSH0 SWAP2 POP SWAP1 POP DUP1 SLOAD PUSH2 0x317 SWAP1 PUSH2 0xDBE JUMP JUMPDEST DUP1 PUSH1 0x1F ADD PUSH1 0x20 DUP1 SWAP2 DIV MUL PUSH1 0x20 ADD PUSH1 0x40 MLOAD SWAP1 DUP2 ADD PUSH1 0x40 MSTORE DUP1 SWAP3 SWAP2 SWAP1 DUP2 DUP2 MSTORE PUSH1 0x20 ADD DUP3 DUP1 SLOAD PUSH2 0x343 SWAP1 PUSH2 0xDBE JUMP JUMPDEST DUP1 ISZERO PUSH2 0x38E JUMPI DUP1 PUSH1 0x1F LT PUSH2 0x365 JUMPI PUSH2 0x100 DUP1 DUP4 SLOAD DIV MUL DUP4 MSTORE SWAP2 PUSH1 0x20 ADD SWAP2 PUSH2 0x38E JUMP JUMPDEST DUP3 ADD SWAP2 SWAP1 PUSH0 MSTORE PUSH1 0x20 PUSH0 KECCAK256 SWAP1 JUMPDEST DUP2 SLOAD DUP2 MSTORE SWAP1 PUSH1 0x1 ADD SWAP1 PUSH1 0x20 ADD DUP1 DUP4 GT PUSH2 0x371 JUMPI DUP3 SWAP1 SUB PUSH1 0x1F AND DUP3 ADD SWAP2 JUMPDEST POP POP POP POP POP DUP2 JUMP JUMPDEST PUSH1 0x60 PUSH1 0x7 DUP1 SLOAD DUP1 PUSH1 0x20 MUL PUSH1 0x20 ADD PUSH1 0x40 MLOAD SWAP1 DUP2 ADD PUSH1 0x40 MSTORE DUP1 SWAP3 SWAP2 SWAP1 DUP2 DUP2 MSTORE PUSH1 0x20 ADD PUSH0 SWAP1 JUMPDEST DUP3 DUP3 LT ISZERO PUSH2 0x427 JUMPI DUP4 DUP3 SWAP1 PUSH0 MSTORE PUSH1 0x20 PUSH0 KECCAK256 ADD DUP1 SLOAD DUP1 PUSH1 0x20 MUL PUSH1 0x20 ADD PUSH1 0x40 MLOAD SWAP1 DUP2 ADD PUSH1 0x40 MSTORE DUP1 SWAP3 SWAP2 SWAP1 DUP2 DUP2 MSTORE PUSH1 0x20 ADD DUP3 DUP1 SLOAD DUP1 ISZERO PUSH2 0x413 JUMPI PUSH1 0x20 MUL DUP3 ADD SWAP2 SWAP1 PUSH0 MSTORE PUSH1 0x20 PUSH0 KECCAK256 SWAP1 JUMPDEST DUP2 SLOAD DUP2 MSTORE PUSH1 0x20 ADD SWAP1 PUSH1 0x1 ADD SWAP1 DUP1 DUP4 GT PUSH2 0x3FF JUMPI JUMPDEST POP POP POP POP POP DUP2 MSTORE PUSH1 0x20 ADD SWAP1 PUSH1 0x1 ADD SWAP1 PUSH2 0x3B9 JUMP JUMPDEST POP POP POP POP SWAP1 POP SWAP1 JUMP JUMPDEST PUSH0 DUP1 SLOAD PUSH2 0x43C SWAP1 PUSH2 0xDBE JUMP JUMPDEST DUP1 PUSH1 0x1F ADD PUSH1 0x20 DUP1 SWAP2 DIV MUL PUSH1 0x20 ADD PUSH1 0x40 MLOAD SWAP1 DUP2 ADD PUSH1 0x40 MSTORE DUP1 SWAP3 SWAP2 SWAP1 DUP2 DUP2 MSTORE PUSH1 0x20 ADD DUP3 DUP1 SLOAD PUSH2 0x468 SWAP1 PUSH2 0xDBE JUMP JUMPDEST DUP1 ISZERO PUSH2 0x4B3 JUMPI DUP1 PUSH1 0x1F LT PUSH2 0x48A JUMPI PUSH2 0x100 DUP1 DUP4 SLOAD DIV MUL DUP4 MSTORE SWAP2 PUSH1 0x20 ADD SWAP2 PUSH2 0x4B3 JUMP JUMPDEST DUP3 ADD SWAP2 SWAP1 PUSH0 MSTORE PUSH1 0x20 PUSH0 KECCAK256 SWAP1 JUMPDEST DUP2 SLOAD DUP2 MSTORE SWAP1 PUSH1 0x1 ADD SWAP1 PUSH1 0x20 ADD DUP1 DUP4 GT PUSH2 0x496 JUMPI DUP3 SWAP1 SUB PUSH1 0x1F AND DUP3 ADD SWAP2 JUMPDEST POP POP POP POP POP DUP2 JUMP JUMPDEST PUSH1 0x4 DUP2 DUP2 SLOAD DUP2 LT PUSH2 0x4CA JUMPI PUSH0 DUP1 REVERT JUMPDEST SWAP1 PUSH0 MSTORE PUSH1 0x20 PUSH0 KECCAK256 ADD PUSH0 SWAP2 POP SWAP1 POP SLOAD DUP2 JUMP JUMPDEST PUSH1 0x60 PUSH1 0x4 DUP1 SLOAD DUP1 PUSH1 0x20 MUL PUSH1 0x20 ADD PUSH1 0x40 MLOAD SWAP1 DUP2 ADD PUSH1 0x40 MSTORE DUP1 SWAP3 SWAP2 SWAP1 DUP2 DUP2 MSTORE PUSH1 0x20 ADD DUP3 DUP1 SLOAD DUP1 ISZERO PUSH2 0x527 JUMPI PUSH1 0x20 MUL DUP3 ADD SWAP2 SWAP1 PUSH0 MSTORE PUSH1 0x20 PUSH0 KECCAK256 SWAP1 JUMPDEST DUP2 SLOAD DUP2 MSTORE PUSH1 0x20 ADD SWAP1 PUSH1 0x1 ADD SWAP1 DUP1 DUP4 GT PUSH2 0x513 JUMPI JUMPDEST POP POP POP POP POP SWAP1 POP SWAP1 JUMP JUMPDEST PUSH1 0x60 PUSH1 0x5 DUP1 SLOAD DUP1 PUSH1 0x20 MUL PUSH1 0x20 ADD PUSH1 0x40 MLOAD SWAP1 DUP2 ADD PUSH1 0x40 MSTORE DUP1 SWAP3 SWAP2 SWAP1 DUP2 DUP2 MSTORE PUSH1 0x20 ADD PUSH0 SWAP1 JUMPDEST DUP3 DUP3 LT ISZERO PUSH2 0x5FC JUMPI DUP4 DUP3 SWAP1 PUSH0 MSTORE PUSH1 0x20 PUSH0 KECCAK256 ADD DUP1 SLOAD PUSH2 0x571 SWAP1 PUSH2 0xDBE JUMP JUMPDEST DUP1 PUSH1 0x1F ADD PUSH1 0x20 DUP1 SWAP2 DIV MUL PUSH1 0x20 ADD PUSH1 0x40 MLOAD SWAP1 DUP2 ADD PUSH1 0x40 MSTORE DUP1 SWAP3 SWAP2 SWAP1 DUP2 DUP2 MSTORE PUSH1 0x20 ADD DUP3 DUP1 SLOAD PUSH2 0x59D SWAP1 PUSH2 0xDBE JUMP JUMPDEST DUP1 ISZERO PUSH2 0x5E8 JUMPI DUP1 PUSH1 0x1F LT PUSH2 0x5BF JUMPI PUSH2 0x100 DUP1 DUP4 SLOAD DIV MUL DUP4 MSTORE SWAP2 PUSH1 0x20 ADD SWAP2 PUSH2 0x5E8 JUMP JUMPDEST DUP3 ADD SWAP2 SWAP1 PUSH0 MSTORE PUSH1 0x20 PUSH0 KECCAK256 SWAP1 JUMPDEST DUP2 SLOAD DUP2 MSTORE SWAP1 PUSH1 0x1 ADD SWAP1 PUSH1 0x20 ADD DUP1 DUP4 GT PUSH2 0x5CB JUMPI DUP3 SWAP1 SUB PUSH1 0x1F AND DUP3 ADD SWAP2 JUMPDEST POP POP POP POP POP DUP2 MSTORE PUSH1 0x20 ADD SWAP1 PUSH1 0x1 ADD SWAP1 PUSH2 0x554 JUMP JUMPDEST POP POP POP POP SWAP1 POP SWAP1 JUMP JUMPDEST PUSH1 0x3 SLOAD DUP2 JUMP JUMPDEST PUSH1 0x7 DUP3 DUP2 SLOAD DUP2 LT PUSH2 0x61A JUMPI PUSH0 DUP1 REVERT JUMPDEST SWAP1 PUSH0 MSTORE PUSH1 0x20 PUSH0 KECCAK256 ADD DUP2 DUP2 SLOAD DUP2 LT PUSH2 0x62F JUMPI PUSH0 DUP1 REVERT JUMPDEST SWAP1 PUSH0 MSTORE PUSH1 0x20 PUSH0 KECCAK256 ADD PUSH0 SWAP2 POP SWAP2 POP POP SLOAD DUP2 JUMP JUMPDEST PUSH1 0x1 SLOAD DUP2 JUMP JUMPDEST PUSH1 0x6 DUP2 DUP2 SLOAD DUP2 LT PUSH2 0x656 JUMPI PUSH0 DUP1 REVERT JUMPDEST SWAP1 PUSH0 MSTORE PUSH1 0x20 PUSH0 KECCAK256 ADD PUSH0 SWAP2 POP SWAP1 POP DUP1 SLOAD PUSH2 0x66E SWAP1 PUSH2 0xDBE JUMP JUMPDEST DUP1 PUSH1 0x1F ADD PUSH1 0x20 DUP1 SWAP2 DIV MUL PUSH1 0x20 ADD PUSH1 0x40 MLOAD SWAP1 DUP2 ADD PUSH1 0x40 MSTORE DUP1 SWAP3 SWAP2 SWAP1 DUP2 DUP2 MSTORE PUSH1 0x20 ADD DUP3 DUP1 SLOAD PUSH2 0x69A SWAP1 PUSH2 0xDBE JUMP JUMPDEST DUP1 ISZERO PUSH2 0x6E5 JUMPI DUP1 PUSH1 0x1F LT PUSH2 0x6BC JUMPI PUSH2 0x100 DUP1 DUP4 SLOAD DIV MUL DUP4 MSTORE SWAP2 PUSH1 0x20 ADD SWAP2 PUSH2 0x6E5 JUMP JUMPDEST DUP3 ADD SWAP2 SWAP1 PUSH0 MSTORE PUSH1 0x20 PUSH0 KECCAK256 SWAP1 JUMPDEST DUP2 SLOAD DUP2 MSTORE SWAP1 PUSH1 0x1 ADD SWAP1 PUSH1 0x20 ADD DUP1 DUP4 GT PUSH2 0x6C8 JUMPI DUP3 SWAP1 SUB PUSH1 0x1F AND DUP3 ADD SWAP2 JUMPDEST POP POP POP POP POP DUP2 JUMP JUMPDEST PUSH0 PUSH1 0x40 MLOAD SWAP1 POP SWAP1 JUMP JUMPDEST PUSH0 DUP1 REVERT JUMPDEST PUSH0 DUP1 REVERT JUMPDEST PUSH0 DUP1 REVERT JUMPDEST PUSH0 DUP1 REVERT JUMPDEST PUSH0 PUSH1 0x1F NOT PUSH1 0x1F DUP4 ADD AND SWAP1 POP SWAP2 SWAP1 POP JUMP JUMPDEST PUSH32 0x4E487B7100000000000000000000000000000000000000000000000000000000 PUSH0 MSTORE PUSH1 0x41 PUSH1 0x4 MSTORE PUSH1 0x24 PUSH0 REVERT JUMPDEST PUSH2 0x74C DUP3 PUSH2 0x706 JUMP JUMPDEST DUP2 ADD DUP2 DUP2 LT PUSH8 0xFFFFFFFFFFFFFFFF DUP3 GT OR ISZERO PUSH2 0x76B JUMPI PUSH2 0x76A PUSH2 0x716 JUMP JUMPDEST JUMPDEST DUP1 PUSH1 0x40 MSTORE POP POP POP JUMP JUMPDEST PUSH0 PUSH2 0x77D PUSH2 0x6ED JUMP JUMPDEST SWAP1 POP PUSH2 0x789 DUP3 DUP3 PUSH2 0x743 JUMP JUMPDEST SWAP2 SWAP1 POP JUMP JUMPDEST PUSH0 PUSH8 0xFFFFFFFFFFFFFFFF DUP3 GT ISZERO PUSH2 0x7A8 JUMPI PUSH2 0x7A7 PUSH2 0x716 JUMP JUMPDEST JUMPDEST PUSH2 0x7B1 DUP3 PUSH2 0x706 JUMP JUMPDEST SWAP1 POP PUSH1 0x20 DUP2 ADD SWAP1 POP SWAP2 SWAP1 POP JUMP JUMPDEST DUP3 DUP2 DUP4 CALLDATACOPY PUSH0 DUP4 DUP4 ADD MSTORE POP POP POP JUMP JUMPDEST PUSH0 PUSH2 0x7DE PUSH2 0x7D9 DUP5 PUSH2 0x78E JUMP JUMPDEST PUSH2 0x774 JUMP JUMPDEST SWAP1 POP DUP3 DUP2 MSTORE PUSH1 0x20 DUP2 ADD DUP5 DUP5 DUP5 ADD GT ISZERO PUSH2 0x7FA JUMPI PUSH2 0x7F9 PUSH2 0x702 JUMP JUMPDEST JUMPDEST PUSH2 0x805 DUP5 DUP3 DUP6 PUSH2 0x7BE JUMP JUMPDEST POP SWAP4 SWAP3 POP POP POP JUMP JUMPDEST PUSH0 DUP3 PUSH1 0x1F DUP4 ADD SLT PUSH2 0x821 JUMPI PUSH2 0x820 PUSH2 0x6FE JUMP JUMPDEST JUMPDEST DUP2 CALLDATALOAD PUSH2 0x831 DUP5 DUP3 PUSH1 0x20 DUP7 ADD PUSH2 0x7CC JUMP JUMPDEST SWAP2 POP POP SWAP3 SWAP2 POP POP JUMP JUMPDEST PUSH0 PUSH1 0x20 DUP3 DUP5 SUB SLT ISZERO PUSH2 0x84F JUMPI PUSH2 0x84E PUSH2 0x6F6 JUMP JUMPDEST JUMPDEST PUSH0 DUP3 ADD CALLDATALOAD PUSH8 0xFFFFFFFFFFFFFFFF DUP2 GT ISZERO PUSH2 0x86C JUMPI PUSH2 0x86B PUSH2 0x6FA JUMP JUMPDEST JUMPDEST PUSH2 0x878 DUP5 DUP3 DUP6 ADD PUSH2 0x80D JUMP JUMPDEST SWAP2 POP POP SWAP3 SWAP2 POP POP JUMP JUMPDEST PUSH0 DUP2 SWAP1 POP SWAP2 SWAP1 POP JUMP JUMPDEST PUSH2 0x893 DUP2 PUSH2 0x881 JUMP JUMPDEST DUP3 MSTORE POP POP JUMP JUMPDEST PUSH0 PUSH1 0x20 DUP3 ADD SWAP1 POP PUSH2 0x8AC PUSH0 DUP4 ADD DUP5 PUSH2 0x88A JUMP JUMPDEST SWAP3 SWAP2 POP POP JUMP JUMPDEST PUSH2 0x8BB DUP2 PUSH2 0x881 JUMP JUMPDEST DUP2 EQ PUSH2 0x8C5 JUMPI PUSH0 DUP1 REVERT JUMPDEST POP JUMP JUMPDEST PUSH0 DUP2 CALLDATALOAD SWAP1 POP PUSH2 0x8D6 DUP2 PUSH2 0x8B2 JUMP JUMPDEST SWAP3 SWAP2 POP POP JUMP JUMPDEST PUSH0 DUP1 PUSH1 0x40 DUP4 DUP6 SUB SLT ISZERO PUSH2 0x8F2 JUMPI PUSH2 0x8F1 PUSH2 0x6F6 JUMP JUMPDEST JUMPDEST PUSH0 DUP4 ADD CALLDATALOAD PUSH8 0xFFFFFFFFFFFFFFFF DUP2 GT ISZERO PUSH2 0x90F JUMPI PUSH2 0x90E PUSH2 0x6FA JUMP JUMPDEST JUMPDEST PUSH2 0x91B DUP6 DUP3 DUP7 ADD PUSH2 0x80D JUMP JUMPDEST SWAP3 POP POP PUSH1 0x20 PUSH2 0x92C DUP6 DUP3 DUP7 ADD PUSH2 0x8C8 JUMP JUMPDEST SWAP2 POP POP SWAP3 POP SWAP3 SWAP1 POP JUMP JUMPDEST PUSH0 PUSH1 0x20 DUP3 DUP5 SUB SLT ISZERO PUSH2 0x94B JUMPI PUSH2 0x94A PUSH2 0x6F6 JUMP JUMPDEST JUMPDEST PUSH0 PUSH2 0x958 DUP5 DUP3 DUP6 ADD PUSH2 0x8C8 JUMP JUMPDEST SWAP2 POP POP SWAP3 SWAP2 POP POP JUMP JUMPDEST PUSH0 DUP2 MLOAD SWAP1 POP SWAP2 SWAP1 POP JUMP JUMPDEST PUSH0 DUP3 DUP3 MSTORE PUSH1 0x20 DUP3 ADD SWAP1 POP SWAP3 SWAP2 POP POP JUMP JUMPDEST DUP3 DUP2 DUP4 MCOPY PUSH0 DUP4 DUP4 ADD MSTORE POP POP POP JUMP JUMPDEST PUSH0 PUSH2 0x993 DUP3 PUSH2 0x961 JUMP JUMPDEST PUSH2 0x99D DUP2 DUP6 PUSH2 0x96B JUMP JUMPDEST SWAP4 POP PUSH2 0x9AD DUP2 DUP6 PUSH1 0x20 DUP7 ADD PUSH2 0x97B JUMP JUMPDEST PUSH2 0x9B6 DUP2 PUSH2 0x706 JUMP JUMPDEST DUP5 ADD SWAP2 POP POP SWAP3 SWAP2 POP POP JUMP JUMPDEST PUSH0 PUSH1 0x20 DUP3 ADD SWAP1 POP DUP2 DUP2 SUB PUSH0 DUP4 ADD MSTORE PUSH2 0x9D9 DUP2 DUP5 PUSH2 0x989 JUMP JUMPDEST SWAP1 POP SWAP3 SWAP2 POP POP JUMP JUMPDEST PUSH0 DUP2 MLOAD SWAP1 POP SWAP2 SWAP1 POP JUMP JUMPDEST PUSH0 DUP3 DUP3 MSTORE PUSH1 0x20 DUP3 ADD SWAP1 POP SWAP3 SWAP2 POP POP JUMP JUMPDEST PUSH0 DUP2 SWAP1 POP PUSH1 0x20 DUP3 ADD SWAP1 POP SWAP2 SWAP1 POP JUMP JUMPDEST PUSH0 DUP2 MLOAD SWAP1 POP SWAP2 SWAP1 POP JUMP JUMPDEST PUSH0 DUP3 DUP3 MSTORE PUSH1 0x20 DUP3 ADD SWAP1 POP SWAP3 SWAP2 POP POP JUMP JUMPDEST PUSH0 DUP2 SWAP1 POP PUSH1 0x20 DUP3 ADD SWAP1 POP SWAP2 SWAP1 POP JUMP JUMPDEST PUSH2 0xA3C DUP2 PUSH2 0x881 JUMP JUMPDEST DUP3 MSTORE POP POP JUMP JUMPDEST PUSH0 PUSH2 0xA4D DUP4 DUP4 PUSH2 0xA33 JUMP JUMPDEST PUSH1 0x20 DUP4 ADD SWAP1 POP SWAP3 SWAP2 POP POP JUMP JUMPDEST PUSH0 PUSH1 0x20 DUP3 ADD SWAP1 POP SWAP2 SWAP1 POP JUMP JUMPDEST PUSH0 PUSH2 0xA6F DUP3 PUSH2 0xA0A JUMP JUMPDEST PUSH2 0xA79 DUP2 DUP6 PUSH2 0xA14 JUMP JUMPDEST SWAP4 POP PUSH2 0xA84 DUP4 PUSH2 0xA24 JUMP JUMPDEST DUP1 PUSH0 JUMPDEST DUP4 DUP2 LT ISZERO PUSH2 0xAB4 JUMPI DUP2 MLOAD PUSH2 0xA9B DUP9 DUP3 PUSH2 0xA42 JUMP JUMPDEST SWAP8 POP PUSH2 0xAA6 DUP4 PUSH2 0xA59 JUMP JUMPDEST SWAP3 POP POP PUSH1 0x1 DUP2 ADD SWAP1 POP PUSH2 0xA87 JUMP JUMPDEST POP DUP6 SWAP4 POP POP POP POP SWAP3 SWAP2 POP POP JUMP JUMPDEST PUSH0 PUSH2 0xACC DUP4 DUP4 PUSH2 0xA65 JUMP JUMPDEST SWAP1 POP SWAP3 SWAP2 POP POP JUMP JUMPDEST PUSH0 PUSH1 0x20 DUP3 ADD SWAP1 POP SWAP2 SWAP1 POP JUMP JUMPDEST PUSH0 PUSH2 0xAEA DUP3 PUSH2 0x9E1 JUMP JUMPDEST PUSH2 0xAF4 DUP2 DUP6 PUSH2 0x9EB JUMP JUMPDEST SWAP4 POP DUP4 PUSH1 0x20 DUP3 MUL DUP6 ADD PUSH2 0xB06 DUP6 PUSH2 0x9FB JUMP JUMPDEST DUP1 PUSH0 JUMPDEST DUP6 DUP2 LT ISZERO PUSH2 0xB41 JUMPI DUP5 DUP5 SUB DUP10 MSTORE DUP2 MLOAD PUSH2 0xB22 DUP6 DUP3 PUSH2 0xAC1 JUMP JUMPDEST SWAP5 POP PUSH2 0xB2D DUP4 PUSH2 0xAD4 JUMP JUMPDEST SWAP3 POP PUSH1 0x20 DUP11 ADD SWAP10 POP POP PUSH1 0x1 DUP2 ADD SWAP1 POP PUSH2 0xB09 JUMP JUMPDEST POP DUP3 SWAP8 POP DUP8 SWAP6 POP POP POP POP POP POP SWAP3 SWAP2 POP POP JUMP JUMPDEST PUSH0 PUSH1 0x20 DUP3 ADD SWAP1 POP DUP2 DUP2 SUB PUSH0 DUP4 ADD MSTORE PUSH2 0xB6B DUP2 DUP5 PUSH2 0xAE0 JUMP JUMPDEST SWAP1 POP SWAP3 SWAP2 POP POP JUMP JUMPDEST PUSH0 DUP3 DUP3 MSTORE PUSH1 0x20 DUP3 ADD SWAP1 POP SWAP3 SWAP2 POP POP JUMP JUMPDEST PUSH0 PUSH2 0xB8D DUP3 PUSH2 0xA0A JUMP JUMPDEST PUSH2 0xB97 DUP2 DUP6 PUSH2 0xB73 JUMP JUMPDEST SWAP4 POP PUSH2 0xBA2 DUP4 PUSH2 0xA24 JUMP JUMPDEST DUP1 PUSH0 JUMPDEST DUP4 DUP2 LT ISZERO PUSH2 0xBD2 JUMPI DUP2 MLOAD PUSH2 0xBB9 DUP9 DUP3 PUSH2 0xA42 JUMP JUMPDEST SWAP8 POP PUSH2 0xBC4 DUP4 PUSH2 0xA59 JUMP JUMPDEST SWAP3 POP POP PUSH1 0x1 DUP2 ADD SWAP1 POP PUSH2 0xBA5 JUMP JUMPDEST POP DUP6 SWAP4 POP POP POP POP SWAP3 SWAP2 POP POP JUMP JUMPDEST PUSH0 PUSH1 0x20 DUP3 ADD SWAP1 POP DUP2 DUP2 SUB PUSH0 DUP4 ADD MSTORE PUSH2 0xBF7 DUP2 DUP5 PUSH2 0xB83 JUMP JUMPDEST SWAP1 POP SWAP3 SWAP2 POP POP JUMP JUMPDEST PUSH0 DUP2 MLOAD SWAP1 POP SWAP2 SWAP1 POP JUMP JUMPDEST PUSH0 DUP3 DUP3 MSTORE PUSH1 0x20 DUP3 ADD SWAP1 POP SWAP3 SWAP2 POP POP JUMP JUMPDEST PUSH0 DUP2 SWAP1 POP PUSH1 0x20 DUP3 ADD SWAP1 POP SWAP2 SWAP1 POP JUMP JUMPDEST PUSH0 DUP3 DUP3 MSTORE PUSH1 0x20 DUP3 ADD SWAP1 POP SWAP3 SWAP2 POP POP JUMP JUMPDEST PUSH0 PUSH2 0xC42 DUP3 PUSH2 0x961 JUMP JUMPDEST PUSH2 0xC4C DUP2 DUP6 PUSH2 0xC28 JUMP JUMPDEST SWAP4 POP PUSH2 0xC5C DUP2 DUP6 PUSH1 0x20 DUP7 ADD PUSH2 0x97B JUMP JUMPDEST PUSH2 0xC65 DUP2 PUSH2 0x706 JUMP JUMPDEST DUP5 ADD SWAP2 POP POP SWAP3 SWAP2 POP POP JUMP JUMPDEST PUSH0 PUSH2 0xC7B DUP4 DUP4 PUSH2 0xC38 JUMP JUMPDEST SWAP1 POP SWAP3 SWAP2 POP POP JUMP JUMPDEST PUSH0 PUSH1 0x20 DUP3 ADD SWAP1 POP SWAP2 SWAP1 POP JUMP JUMPDEST PUSH0 PUSH2 0xC99 DUP3 PUSH2 0xBFF JUMP JUMPDEST PUSH2 0xCA3 DUP2 DUP6 PUSH2 0xC09 JUMP JUMPDEST SWAP4 POP DUP4 PUSH1 0x20 DUP3 MUL DUP6 ADD PUSH2 0xCB5 DUP6 PUSH2 0xC19 JUMP JUMPDEST DUP1 PUSH0 JUMPDEST DUP6 DUP2 LT ISZERO PUSH2 0xCF0 JUMPI DUP5 DUP5 SUB DUP10 MSTORE DUP2 MLOAD PUSH2 0xCD1 DUP6 DUP3 PUSH2 0xC70 JUMP JUMPDEST SWAP5 POP PUSH2 0xCDC DUP4 PUSH2 0xC83 JUMP JUMPDEST SWAP3 POP PUSH1 0x20 DUP11 ADD SWAP10 POP POP PUSH1 0x1 DUP2 ADD SWAP1 POP PUSH2 0xCB8 JUMP JUMPDEST POP DUP3 SWAP8 POP DUP8 SWAP6 POP POP POP POP POP POP SWAP3 SWAP2 POP POP JUMP JUMPDEST PUSH0 PUSH1 0x20 DUP3 ADD SWAP1 POP DUP2 DUP2 SUB PUSH0 DUP4 ADD MSTORE PUSH2 0xD1A DUP2 DUP5 PUSH2 0xC8F JUMP JUMPDEST SWAP1 POP SWAP3 SWAP2 POP POP JUMP JUMPDEST PUSH0 DUP2 SWAP1 POP SWAP2 SWAP1 POP JUMP JUMPDEST PUSH2 0xD34 DUP2 PUSH2 0xD22 JUMP JUMPDEST DUP3 MSTORE POP POP JUMP JUMPDEST PUSH0 PUSH1 0x20 DUP3 ADD SWAP1 POP PUSH2 0xD4D PUSH0 DUP4 ADD DUP5 PUSH2 0xD2B JUMP JUMPDEST SWAP3 SWAP2 POP POP JUMP JUMPDEST PUSH0 DUP1 PUSH1 0x40 DUP4 DUP6 SUB SLT ISZERO PUSH2 0xD69 JUMPI PUSH2 0xD68 PUSH2 0x6F6 JUMP JUMPDEST JUMPDEST PUSH0 PUSH2 0xD76 DUP6 DUP3 DUP7 ADD PUSH2 0x8C8 JUMP JUMPDEST SWAP3 POP POP PUSH1 0x20 PUSH2 0xD87 DUP6 DUP3 DUP7 ADD PUSH2 0x8C8 JUMP JUMPDEST SWAP2 POP POP SWAP3 POP SWAP3 SWAP1 POP JUMP JUMPDEST PUSH32 0x4E487B7100000000000000000000000000000000000000000000000000000000 PUSH0 MSTORE PUSH1 0x22 PUSH1 0x4 MSTORE PUSH1 0x24 PUSH0 REVERT JUMPDEST PUSH0 PUSH1 0x2 DUP3 DIV SWAP1 POP PUSH1 0x1 DUP3 AND DUP1 PUSH2 0xDD5 JUMPI PUSH1 0x7F DUP3 AND SWAP2 POP JUMPDEST PUSH1 0x20 DUP3 LT DUP2 SUB PUSH2 0xDE8 JUMPI PUSH2 0xDE7 PUSH2 0xD91 JUMP JUMPDEST JUMPDEST POP SWAP2 SWAP1 POP JUMP JUMPDEST PUSH0 DUP2 SWAP1 POP DUP2 PUSH0 MSTORE PUSH1 0x20 PUSH0 KECCAK256 SWAP1 POP SWAP2 SWAP1 POP JUMP JUMPDEST PUSH0 PUSH1 0x20 PUSH1 0x1F DUP4 ADD DIV SWAP1 POP SWAP2 SWAP1 POP JUMP JUMPDEST PUSH0 DUP3 DUP3 SHL SWAP1 POP SWAP3 SWAP2 POP POP JUMP JUMPDEST PUSH0 PUSH1 0x8 DUP4 MUL PUSH2 0xE4A PUSH32 0xFFFFFFFFFFFFFFFFFFFFFFFFFFFFFFFFFFFFFFFFFFFFFFFFFFFFFFFFFFFFFFFF DUP3 PUSH2 0xE0F JUMP JUMPDEST PUSH2 0xE54 DUP7 DUP4 PUSH2 0xE0F JUMP JUMPDEST SWAP6 POP DUP1 NOT DUP5 AND SWAP4 POP DUP1 DUP7 AND DUP5 OR SWAP3 POP POP POP SWAP4 SWAP3 POP POP POP JUMP JUMPDEST PUSH0 DUP2 SWAP1 POP SWAP2 SWAP1 POP JUMP JUMPDEST PUSH0 PUSH2 0xE8F PUSH2 0xE8A PUSH2 0xE85 DUP5 PUSH2 0x881 JUMP JUMPDEST PUSH2 0xE6C JUMP JUMPDEST PUSH2 0x881 JUMP JUMPDEST SWAP1 POP SWAP2 SWAP1 POP JUMP JUMPDEST PUSH0 DUP2 SWAP1 POP SWAP2 SWAP1 POP JUMP JUMPDEST PUSH2 0xEA8 DUP4 PUSH2 0xE75 JUMP JUMPDEST PUSH2 0xEBC PUSH2 0xEB4 DUP3 PUSH2 0xE96 JUMP JUMPDEST DUP5 DUP5 SLOAD PUSH2 0xE1B JUMP JUMPDEST DUP3 SSTORE POP POP POP POP JUMP JUMPDEST PUSH0 SWAP1 JUMP JUMPDEST PUSH2 0xED0 PUSH2 0xEC4 JUMP JUMPDEST PUSH2 0xEDB DUP2 DUP5 DUP5 PUSH2 0xE9F JUMP JUMPDEST POP POP POP JUMP JUMPDEST JUMPDEST DUP2 DUP2 LT ISZERO PUSH2 0xEFE JUMPI PUSH2 0xEF3 PUSH0 DUP3 PUSH2 0xEC8 JUMP JUMPDEST PUSH1 0x1 DUP2 ADD SWAP1 POP PUSH2 0xEE1 JUMP JUMPDEST POP POP JUMP JUMPDEST PUSH1 0x1F DUP3 GT ISZERO PUSH2 0xF43 JUMPI PUSH2 0xF14 DUP2 PUSH2 0xDEE JUMP JUMPDEST PUSH2 0xF1D DUP5 PUSH2 0xE00 JUMP JUMPDEST DUP2 ADD PUSH1 0x20 DUP6 LT ISZERO PUSH2 0xF2C JUMPI DUP2 SWAP1 POP JUMPDEST PUSH2 0xF40 PUSH2 0xF38 DUP6 PUSH2 0xE00 JUMP JUMPDEST DUP4 ADD DUP3 PUSH2 0xEE0 JUMP JUMPDEST POP POP JUMPDEST POP POP POP JUMP JUMPDEST PUSH0 DUP3 DUP3 SHR SWAP1 POP SWAP3 SWAP2 POP POP JUMP JUMPDEST PUSH0 PUSH2 0xF63 PUSH0 NOT DUP5 PUSH1 0x8 MUL PUSH2 0xF48 JUMP JUMPDEST NOT DUP1 DUP4 AND SWAP2 POP POP SWAP3 SWAP2 POP POP JUMP JUMPDEST PUSH0 PUSH2 0xF7B DUP4 DUP4 PUSH2 0xF54 JUMP JUMPDEST SWAP2 POP DUP3 PUSH1 0x2 MUL DUP3 OR SWAP1 POP SWAP3 SWAP2 POP POP JUMP JUMPDEST PUSH2 0xF94 DUP3 PUSH2 0x961 JUMP JUMPDEST PUSH8 0xFFFFFFFFFFFFFFFF DUP2 GT ISZERO PUSH2 0xFAD JUMPI PUSH2 0xFAC PUSH2 0x716 JUMP JUMPDEST JUMPDEST PUSH2 0xFB7 DUP3 SLOAD PUSH2 0xDBE JUMP JUMPDEST PUSH2 0xFC2 DUP3 DUP3 DUP6 PUSH2 0xF02 JUMP JUMPDEST PUSH0 PUSH1 0x20 SWAP1 POP PUSH1 0x1F DUP4 GT PUSH1 0x1 DUP2 EQ PUSH2 0xFF3 JUMPI PUSH0 DUP5 ISZERO PUSH2 0xFE1 JUMPI DUP3 DUP8 ADD MLOAD SWAP1 POP JUMPDEST PUSH2 0xFEB DUP6 DUP3 PUSH2 0xF70 JUMP JUMPDEST DUP7 SSTORE POP PUSH2 0x1052 JUMP JUMPDEST PUSH1 0x1F NOT DUP5 AND PUSH2 0x1001 DUP7 PUSH2 0xDEE JUMP JUMPDEST PUSH0 JUMPDEST DUP3 DUP2 LT ISZERO PUSH2 0x1028 JUMPI DUP5 DUP10 ADD MLOAD DUP3 SSTORE PUSH1 0x1 DUP3 ADD SWAP2 POP PUSH1 0x20 DUP6 ADD SWAP5 POP PUSH1 0x20 DUP2 ADD SWAP1 POP PUSH2 0x1003 JUMP JUMPDEST DUP7 DUP4 LT ISZERO PUSH2 0x1045 JUMPI DUP5 DUP10 ADD MLOAD PUSH2 0x1041 PUSH1 0x1F DUP10 AND DUP3 PUSH2 0xF54 JUMP JUMPDEST DUP4 SSTORE POP JUMPDEST PUSH1 0x1 PUSH1 0x2 DUP9 MUL ADD DUP9 SSTORE POP POP POP JUMPDEST POP POP POP POP POP POP JUMP INVALID LOG2 PUSH5 0x6970667358 0x22 SLT KECCAK256 SMOD SWAP7 0xF8 PUSH26 0xDDA940930FE04B26D8BAD71FF6237187BABEA36133FFCA8D7CB7 DUP3 SWAP5 PUSH5 0x736F6C6343 STOP ADDMOD BYTE STOP CALLER "
				},
				"gasEstimates": {
					"creation": {
						"codeDepositCost": "848000",
						"executionCost": "infinite",
						"totalCost": "infinite"
					},
					"external": {
						"addValue(string)": "infinite",
						"array2D(uint256,uint256)": "infinite",
						"arrayCount()": "infinite",
						"arrayString()": "infinite",
						"emptyStirngArray(uint256)": "infinite",
						"maxIntNum()": "2447",
						"maxNum()": "2448",
						"myNum()": "2491",
						"myState()": "infinite",
						"print2D()": "infinite",
						"stringArray(uint256)": "infinite",
						"uintArray(uint256)": "infinite",
						"update(string,uint256)": "infinite"
					}
				},
				"methodIdentifiers": {
					"addValue(string)": "3a5fbaaa",
					"array2D(uint256,uint256)": "d3268fc1",
					"arrayCount()": "b28baa1d",
					"arrayString()": "cdaf62d1",
					"emptyStirngArray(uint256)": "de814913",
					"maxIntNum()": "cf6cda94",
					"maxNum()": "4dfdc21f",
					"myNum()": "d4da005a",
					"myState()": "8bf1799f",
					"print2D()": "6a771038",
					"stringArray(uint256)": "6422c4c8",
					"uintArray(uint256)": "9ae918c7",
					"update(string,uint256)": "4ee5c2ee"
				}
			},
			"storageLayout": {
				"storage": [
					{
						"astId": 3,
						"contract": "hello.sol:StateVariables",
						"label": "myState",
						"offset": 0,
						"slot": "0",
						"type": "t_string_storage"
					},
					{
						"astId": 5,
						"contract": "hello.sol:StateVariables",
						"label": "myNum",
						"offset": 0,
						"slot": "1",
						"type": "t_uint256"
					},
					{
						"astId": 12,
						"contract": "hello.sol:StateVariables",
						"label": "maxNum",
						"offset": 0,
						"slot": "2",
						"type": "t_uint256"
					},
					{
						"astId": 19,
						"contract": "hello.sol:StateVariables",
						"label": "maxIntNum",
						"offset": 0,
						"slot": "3",
						"type": "t_int256"
					},
					{
						"astId": 42,
						"contract": "hello.sol:StateVariables",
						"label": "uintArray",
						"offset": 0,
						"slot": "4",
						"type": "t_array(t_uint256)dyn_storage"
					},
					{
						"astId": 49,
						"contract": "hello.sol:StateVariables",
						"label": "stringArray",
						"offset": 0,
						"slot": "5",
						"type": "t_array(t_string_storage)dyn_storage"
					},
					{
						"astId": 52,
						"contract": "hello.sol:StateVariables",
						"label": "emptyStirngArray",
						"offset": 0,
						"slot": "6",
						"type": "t_array(t_string_storage)dyn_storage"
					},
					{
						"astId": 95,
						"contract": "hello.sol:StateVariables",
						"label": "array2D",
						"offset": 0,
						"slot": "7",
						"type": "t_array(t_array(t_uint256)dyn_storage)dyn_storage"
					}
				],
				"types": {
					"t_array(t_array(t_uint256)dyn_storage)dyn_storage": {
						"base": "t_array(t_uint256)dyn_storage",
						"encoding": "dynamic_array",
						"label": "uint256[][]",
						"numberOfBytes": "32"
					},
					"t_array(t_string_storage)dyn_storage": {
						"base": "t_string_storage",
						"encoding": "dynamic_array",
						"label": "string[]",
						"numberOfBytes": "32"
					},
					"t_array(t_uint256)dyn_storage": {
						"base": "t_uint256",
						"encoding": "dynamic_array",
						"label": "uint256[]",
						"numberOfBytes": "32"
					},
					"t_int256": {
						"encoding": "inplace",
						"label": "int256",
						"numberOfBytes": "32"
					},
					"t_string_storage": {
						"encoding": "bytes",
						"label": "string",
						"numberOfBytes": "32"
					},
					"t_uint256": {
						"encoding": "inplace",
						"label": "uint256",
						"numberOfBytes": "32"
					}
				}
			},
			"userdoc": {
				"kind": "user",
				"methods": {},
				"version": 1
			}
		}
	}
}