{
	"contracts/5_Functions.sol": {
		"LearnFunction": {
			"abi": [
				{
					"inputs": [],
					"name": "getProduct",
					"outputs": [
						{
							"internalType": "uint256",
							"name": "product",
							"type": "uint256"
						},
						{
							"internalType": "uint256",
							"name": "total",
							"type": "uint256"
						}
					],
					"stateMutability": "pure",
					"type": "function"
				},
				{
					"inputs": [],
					"name": "getResult",
					"outputs": [
						{
							"internalType": "uint256",
							"name": "",
							"type": "uint256"
						},
						{
							"internalType": "uint256",
							"name": "",
							"type": "uint256"
						}
					],
					"stateMutability": "view",
					"type": "function"
				},
				{
					"inputs": [],
					"name": "updateResult",
					"outputs": [],
					"stateMutability": "nonpayable",
					"type": "function"
				}
			],
			"devdoc": {
				"kind": "dev",
				"methods": {},
				"version": 1
			},
			"evm": {
				"assembly": "    /* \"contracts/5_Functions.sol\":58:525  contract LearnFunction{... */\n  mstore(0x40, 0x80)\n    /* \"contracts/5_Functions.sol\":96:97  2 */\n  0x02\n    /* \"contracts/5_Functions.sol\":86:97  uint num1=2 */\n  0x00\n  sstore\n    /* \"contracts/5_Functions.sol\":113:114  7 */\n  0x07\n    /* \"contracts/5_Functions.sol\":103:114  uint num2=7 */\n  0x01\n  sstore\n    /* \"contracts/5_Functions.sol\":58:525  contract LearnFunction{... */\n  callvalue\n  dup1\n  iszero\n  tag_1\n  jumpi\n  0x00\n  dup1\n  revert\ntag_1:\n  pop\n  dataSize(sub_0)\n  dup1\n  dataOffset(sub_0)\n  0x00\n  codecopy\n  0x00\n  return\nstop\n\nsub_0: assembly {\n        /* \"contracts/5_Functions.sol\":58:525  contract LearnFunction{... */\n      mstore(0x40, 0x80)\n      callvalue\n      dup1\n      iszero\n      tag_1\n      jumpi\n      0x00\n      dup1\n      revert\n    tag_1:\n      pop\n      jumpi(tag_2, lt(calldatasize, 0x04))\n      shr(0xe0, calldataload(0x00))\n      dup1\n      0x4ba20050\n      eq\n      tag_3\n      jumpi\n      dup1\n      0x80ebb08e\n      eq\n      tag_4\n      jumpi\n      dup1\n      0xde292789\n      eq\n      tag_5\n      jumpi\n    tag_2:\n      0x00\n      dup1\n      revert\n        /* \"contracts/5_Functions.sol\":327:522  function getProduct()  public pure returns (uint product, uint total) {... */\n    tag_3:\n      tag_6\n      tag_7\n      jump\t// in\n    tag_6:\n      mload(0x40)\n      tag_8\n      swap3\n      swap2\n      swap1\n      tag_9\n      jump\t// in\n    tag_8:\n      mload(0x40)\n      dup1\n      swap2\n      sub\n      swap1\n      return\n        /* \"contracts/5_Functions.sol\":263:321  function updateResult() public {... */\n    tag_4:\n      tag_10\n      tag_11\n      jump\t// in\n    tag_10:\n      stop\n        /* \"contracts/5_Functions.sol\":167:257  function getResult()public view  returns  (uint, uint){... */\n    tag_5:\n      tag_12\n      tag_13\n      jump\t// in\n    tag_12:\n      mload(0x40)\n      tag_14\n      swap3\n      swap2\n      swap1\n      tag_9\n      jump\t// in\n    tag_14:\n      mload(0x40)\n      dup1\n      swap2\n      sub\n      swap1\n      return\n        /* \"contracts/5_Functions.sol\":327:522  function getProduct()  public pure returns (uint product, uint total) {... */\n    tag_7:\n        /* \"contracts/5_Functions.sol\":371:383  uint product */\n      0x00\n        /* \"contracts/5_Functions.sol\":385:395  uint total */\n      dup1\n        /* \"contracts/5_Functions.sol\":407:421  uint256 value1 */\n      0x00\n        /* \"contracts/5_Functions.sol\":422:424  20 */\n      0x14\n        /* \"contracts/5_Functions.sol\":407:424  uint256 value1=20 */\n      swap1\n      pop\n        /* \"contracts/5_Functions.sol\":434:448  uint256 value2 */\n      0x00\n        /* \"contracts/5_Functions.sol\":449:451  30 */\n      0x1e\n        /* \"contracts/5_Functions.sol\":434:451  uint256 value2=30 */\n      swap1\n      pop\n        /* \"contracts/5_Functions.sol\":478:484  value2 */\n      dup1\n        /* \"contracts/5_Functions.sol\":470:476  value1 */\n      dup3\n        /* \"contracts/5_Functions.sol\":470:484  value1 *value2 */\n      tag_16\n      swap2\n      swap1\n      tag_17\n      jump\t// in\n    tag_16:\n        /* \"contracts/5_Functions.sol\":462:484  product=value1 *value2 */\n      swap4\n      pop\n        /* \"contracts/5_Functions.sol\":509:515  value2 */\n      dup1\n        /* \"contracts/5_Functions.sol\":500:506  value1 */\n      dup3\n        /* \"contracts/5_Functions.sol\":500:515  value1 + value2 */\n      tag_18\n      swap2\n      swap1\n      tag_19\n      jump\t// in\n    tag_18:\n        /* \"contracts/5_Functions.sol\":494:515  total=value1 + value2 */\n      swap3\n      pop\n        /* \"contracts/5_Functions.sol\":397:522  {... */\n      pop\n      pop\n        /* \"contracts/5_Functions.sol\":327:522  function getProduct()  public pure returns (uint product, uint total) {... */\n      swap1\n      swap2\n      jump\t// out\n        /* \"contracts/5_Functions.sol\":263:321  function updateResult() public {... */\n    tag_11:\n        /* \"contracts/5_Functions.sol\":313:314  1 */\n      0x01\n        /* \"contracts/5_Functions.sol\":305:309  num1 */\n      0x00\n      dup1\n        /* \"contracts/5_Functions.sol\":305:314  num1 += 1 */\n      dup3\n      dup3\n      sload\n      tag_21\n      swap2\n      swap1\n      tag_19\n      jump\t// in\n    tag_21:\n      swap3\n      pop\n      pop\n      dup2\n      swap1\n      sstore\n      pop\n        /* \"contracts/5_Functions.sol\":263:321  function updateResult() public {... */\n      jump\t// out\n        /* \"contracts/5_Functions.sol\":167:257  function getResult()public view  returns  (uint, uint){... */\n    tag_13:\n        /* \"contracts/5_Functions.sol\":210:214  uint */\n      0x00\n        /* \"contracts/5_Functions.sol\":216:220  uint */\n      dup1\n        /* \"contracts/5_Functions.sol\":240:244  num1 */\n      sload(0x00)\n        /* \"contracts/5_Functions.sol\":245:249  num2 */\n      sload(0x01)\n        /* \"contracts/5_Functions.sol\":232:250  return (num1,num2) */\n      swap2\n      pop\n      swap2\n      pop\n        /* \"contracts/5_Functions.sol\":167:257  function getResult()public view  returns  (uint, uint){... */\n      swap1\n      swap2\n      jump\t// out\n        /* \"#utility.yul\":7:84   */\n    tag_23:\n        /* \"#utility.yul\":44:51   */\n      0x00\n        /* \"#utility.yul\":73:78   */\n      dup2\n        /* \"#utility.yul\":62:78   */\n      swap1\n      pop\n        /* \"#utility.yul\":7:84   */\n      swap2\n      swap1\n      pop\n      jump\t// out\n        /* \"#utility.yul\":90:208   */\n    tag_24:\n        /* \"#utility.yul\":177:201   */\n      tag_29\n        /* \"#utility.yul\":195:200   */\n      dup2\n        /* \"#utility.yul\":177:201   */\n      tag_23\n      jump\t// in\n    tag_29:\n        /* \"#utility.yul\":172:175   */\n      dup3\n        /* \"#utility.yul\":165:202   */\n      mstore\n        /* \"#utility.yul\":90:208   */\n      pop\n      pop\n      jump\t// out\n        /* \"#utility.yul\":214:546   */\n    tag_9:\n        /* \"#utility.yul\":335:339   */\n      0x00\n        /* \"#utility.yul\":373:375   */\n      0x40\n        /* \"#utility.yul\":362:371   */\n      dup3\n        /* \"#utility.yul\":358:376   */\n      add\n        /* \"#utility.yul\":350:376   */\n      swap1\n      pop\n        /* \"#utility.yul\":386:457   */\n      tag_31\n        /* \"#utility.yul\":454:455   */\n      0x00\n        /* \"#utility.yul\":443:452   */\n      dup4\n        /* \"#utility.yul\":439:456   */\n      add\n        /* \"#utility.yul\":430:436   */\n      dup6\n        /* \"#utility.yul\":386:457   */\n      tag_24\n      jump\t// in\n    tag_31:\n        /* \"#utility.yul\":467:539   */\n      tag_32\n        /* \"#utility.yul\":535:537   */\n      0x20\n        /* \"#utility.yul\":524:533   */\n      dup4\n        /* \"#utility.yul\":520:538   */\n      add\n        /* \"#utility.yul\":511:517   */\n      dup5\n        /* \"#utility.yul\":467:539   */\n      tag_24\n      jump\t// in\n    tag_32:\n        /* \"#utility.yul\":214:546   */\n      swap4\n      swap3\n      pop\n      pop\n      pop\n      jump\t// out\n        /* \"#utility.yul\":552:732   */\n    tag_25:\n        /* \"#utility.yul\":600:677   */\n      0x4e487b7100000000000000000000000000000000000000000000000000000000\n        /* \"#utility.yul\":597:598   */\n      0x00\n        /* \"#utility.yul\":590:678   */\n      mstore\n        /* \"#utility.yul\":697:701   */\n      0x11\n        /* \"#utility.yul\":694:695   */\n      0x04\n        /* \"#utility.yul\":687:702   */\n      mstore\n        /* \"#utility.yul\":721:725   */\n      0x24\n        /* \"#utility.yul\":718:719   */\n      0x00\n        /* \"#utility.yul\":711:726   */\n      revert\n        /* \"#utility.yul\":738:1148   */\n    tag_17:\n        /* \"#utility.yul\":778:785   */\n      0x00\n        /* \"#utility.yul\":801:821   */\n      tag_35\n        /* \"#utility.yul\":819:820   */\n      dup3\n        /* \"#utility.yul\":801:821   */\n      tag_23\n      jump\t// in\n    tag_35:\n        /* \"#utility.yul\":796:821   */\n      swap2\n      pop\n        /* \"#utility.yul\":835:855   */\n      tag_36\n        /* \"#utility.yul\":853:854   */\n      dup4\n        /* \"#utility.yul\":835:855   */\n      tag_23\n      jump\t// in\n    tag_36:\n        /* \"#utility.yul\":830:855   */\n      swap3\n      pop\n        /* \"#utility.yul\":890:891   */\n      dup3\n        /* \"#utility.yul\":887:888   */\n      dup3\n        /* \"#utility.yul\":883:892   */\n      mul\n        /* \"#utility.yul\":912:942   */\n      tag_37\n        /* \"#utility.yul\":930:941   */\n      dup2\n        /* \"#utility.yul\":912:942   */\n      tag_23\n      jump\t// in\n    tag_37:\n        /* \"#utility.yul\":901:942   */\n      swap2\n      pop\n        /* \"#utility.yul\":1091:1092   */\n      dup3\n        /* \"#utility.yul\":1082:1089   */\n      dup3\n        /* \"#utility.yul\":1078:1093   */\n      div\n        /* \"#utility.yul\":1075:1076   */\n      dup5\n        /* \"#utility.yul\":1072:1094   */\n      eq\n        /* \"#utility.yul\":1052:1053   */\n      dup4\n        /* \"#utility.yul\":1045:1054   */\n      iszero\n        /* \"#utility.yul\":1025:1108   */\n      or\n        /* \"#utility.yul\":1002:1141   */\n      tag_38\n      jumpi\n        /* \"#utility.yul\":1121:1139   */\n      tag_39\n      tag_25\n      jump\t// in\n    tag_39:\n        /* \"#utility.yul\":1002:1141   */\n    tag_38:\n        /* \"#utility.yul\":786:1148   */\n      pop\n        /* \"#utility.yul\":738:1148   */\n      swap3\n      swap2\n      pop\n      pop\n      jump\t// out\n        /* \"#utility.yul\":1154:1345   */\n    tag_19:\n        /* \"#utility.yul\":1194:1197   */\n      0x00\n        /* \"#utility.yul\":1213:1233   */\n      tag_41\n        /* \"#utility.yul\":1231:1232   */\n      dup3\n        /* \"#utility.yul\":1213:1233   */\n      tag_23\n      jump\t// in\n    tag_41:\n        /* \"#utility.yul\":1208:1233   */\n      swap2\n      pop\n        /* \"#utility.yul\":1247:1267   */\n      tag_42\n        /* \"#utility.yul\":1265:1266   */\n      dup4\n        /* \"#utility.yul\":1247:1267   */\n      tag_23\n      jump\t// in\n    tag_42:\n        /* \"#utility.yul\":1242:1267   */\n      swap3\n      pop\n        /* \"#utility.yul\":1290:1291   */\n      dup3\n        /* \"#utility.yul\":1287:1288   */\n      dup3\n        /* \"#utility.yul\":1283:1292   */\n      add\n        /* \"#utility.yul\":1276:1292   */\n      swap1\n      pop\n        /* \"#utility.yul\":1311:1314   */\n      dup1\n        /* \"#utility.yul\":1308:1309   */\n      dup3\n        /* \"#utility.yul\":1305:1315   */\n      gt\n        /* \"#utility.yul\":1302:1338   */\n      iszero\n      tag_43\n      jumpi\n        /* \"#utility.yul\":1318:1336   */\n      tag_44\n      tag_25\n      jump\t// in\n    tag_44:\n        /* \"#utility.yul\":1302:1338   */\n    tag_43:\n        /* \"#utility.yul\":1154:1345   */\n      swap3\n      swap2\n      pop\n      pop\n      jump\t// out\n\n    auxdata: 0xa2646970667358221220a74c3bb9a9768207466e572d7fbeb84a36043f537ab660a7d1cec2e0e5335de764736f6c634300081a0033\n}\n",
				"bytecode": {
					"linkReferences": {},
					"object": "608060405260025f5560076001553480156017575f80fd5b506101f8806100255f395ff3fe608060405234801561000f575f80fd5b506004361061003f575f3560e01c80634ba200501461004357806380ebb08e14610062578063de2927891461006c575b5f80fd5b61004b61008b565b6040516100599291906100fa565b60405180910390f35b61006a6100b9565b005b6100746100d3565b6040516100829291906100fa565b60405180910390f35b5f805f601490505f601e905080826100a3919061014e565b935080826100b1919061018f565b925050509091565b60015f808282546100ca919061018f565b92505081905550565b5f805f54600154915091509091565b5f819050919050565b6100f4816100e2565b82525050565b5f60408201905061010d5f8301856100eb565b61011a60208301846100eb565b9392505050565b7f4e487b71000000000000000000000000000000000000000000000000000000005f52601160045260245ffd5b5f610158826100e2565b9150610163836100e2565b9250828202610171816100e2565b9150828204841483151761018857610187610121565b5b5092915050565b5f610199826100e2565b91506101a4836100e2565b92508282019050808211156101bc576101bb610121565b5b9291505056fea2646970667358221220a74c3bb9a9768207466e572d7fbeb84a36043f537ab660a7d1cec2e0e5335de764736f6c634300081a0033",
					"opcodes": "PUSH1 0x80 PUSH1 0x40 MSTORE PUSH1 0x2 PUSH0 SSTORE PUSH1 0x7 PUSH1 0x1 SSTORE CALLVALUE DUP1 ISZERO PUSH1 0x17 JUMPI PUSH0 DUP1 REVERT JUMPDEST POP PUSH2 0x1F8 DUP1 PUSH2 0x25 PUSH0 CODECOPY PUSH0 RETURN INVALID PUSH1 0x80 PUSH1 0x40 MSTORE CALLVALUE DUP1 ISZERO PUSH2 0xF JUMPI PUSH0 DUP1 REVERT JUMPDEST POP PUSH1 0x4 CALLDATASIZE LT PUSH2 0x3F JUMPI PUSH0 CALLDATALOAD PUSH1 0xE0 SHR DUP1 PUSH4 0x4BA20050 EQ PUSH2 0x43 JUMPI DUP1 PUSH4 0x80EBB08E EQ PUSH2 0x62 JUMPI DUP1 PUSH4 0xDE292789 EQ PUSH2 0x6C JUMPI JUMPDEST PUSH0 DUP1 REVERT JUMPDEST PUSH2 0x4B PUSH2 0x8B JUMP JUMPDEST PUSH1 0x40 MLOAD PUSH2 0x59 SWAP3 SWAP2 SWAP1 PUSH2 0xFA JUMP JUMPDEST PUSH1 0x40 MLOAD DUP1 SWAP2 SUB SWAP1 RETURN JUMPDEST PUSH2 0x6A PUSH2 0xB9 JUMP JUMPDEST STOP JUMPDEST PUSH2 0x74 PUSH2 0xD3 JUMP JUMPDEST PUSH1 0x40 MLOAD PUSH2 0x82 SWAP3 SWAP2 SWAP1 PUSH2 0xFA JUMP JUMPDEST PUSH1 0x40 MLOAD DUP1 SWAP2 SUB SWAP1 RETURN JUMPDEST PUSH0 DUP1 PUSH0 PUSH1 0x14 SWAP1 POP PUSH0 PUSH1 0x1E SWAP1 POP DUP1 DUP3 PUSH2 0xA3 SWAP2 SWAP1 PUSH2 0x14E JUMP JUMPDEST SWAP4 POP DUP1 DUP3 PUSH2 0xB1 SWAP2 SWAP1 PUSH2 0x18F JUMP JUMPDEST SWAP3 POP POP POP SWAP1 SWAP2 JUMP JUMPDEST PUSH1 0x1 PUSH0 DUP1 DUP3 DUP3 SLOAD PUSH2 0xCA SWAP2 SWAP1 PUSH2 0x18F JUMP JUMPDEST SWAP3 POP POP DUP2 SWAP1 SSTORE POP JUMP JUMPDEST PUSH0 DUP1 PUSH0 SLOAD PUSH1 0x1 SLOAD SWAP2 POP SWAP2 POP SWAP1 SWAP2 JUMP JUMPDEST PUSH0 DUP2 SWAP1 POP SWAP2 SWAP1 POP JUMP JUMPDEST PUSH2 0xF4 DUP2 PUSH2 0xE2 JUMP JUMPDEST DUP3 MSTORE POP POP JUMP JUMPDEST PUSH0 PUSH1 0x40 DUP3 ADD SWAP1 POP PUSH2 0x10D PUSH0 DUP4 ADD DUP6 PUSH2 0xEB JUMP JUMPDEST PUSH2 0x11A PUSH1 0x20 DUP4 ADD DUP5 PUSH2 0xEB JUMP JUMPDEST SWAP4 SWAP3 POP POP POP JUMP JUMPDEST PUSH32 0x4E487B7100000000000000000000000000000000000000000000000000000000 PUSH0 MSTORE PUSH1 0x11 PUSH1 0x4 MSTORE PUSH1 0x24 PUSH0 REVERT JUMPDEST PUSH0 PUSH2 0x158 DUP3 PUSH2 0xE2 JUMP JUMPDEST SWAP2 POP PUSH2 0x163 DUP4 PUSH2 0xE2 JUMP JUMPDEST SWAP3 POP DUP3 DUP3 MUL PUSH2 0x171 DUP2 PUSH2 0xE2 JUMP JUMPDEST SWAP2 POP DUP3 DUP3 DIV DUP5 EQ DUP4 ISZERO OR PUSH2 0x188 JUMPI PUSH2 0x187 PUSH2 0x121 JUMP JUMPDEST JUMPDEST POP SWAP3 SWAP2 POP POP JUMP JUMPDEST PUSH0 PUSH2 0x199 DUP3 PUSH2 0xE2 JUMP JUMPDEST SWAP2 POP PUSH2 0x1A4 DUP4 PUSH2 0xE2 JUMP JUMPDEST SWAP3 POP DUP3 DUP3 ADD SWAP1 POP DUP1 DUP3 GT ISZERO PUSH2 0x1BC JUMPI PUSH2 0x1BB PUSH2 0x121 JUMP JUMPDEST JUMPDEST SWAP3 SWAP2 POP POP JUMP INVALID LOG2 PUSH5 0x6970667358 0x22 SLT KECCAK256 0xA7 0x4C EXTCODESIZE 0xB9 0xA9 PUSH23 0x8207466E572D7FBEB84A36043F537AB660A7D1CEC2E0E5 CALLER TSTORE 0xE7 PUSH5 0x736F6C6343 STOP ADDMOD BYTE STOP CALLER "
				},
				"gasEstimates": {
					"creation": {
						"codeDepositCost": "100800",
						"executionCost": "44356",
						"totalCost": "145156"
					},
					"external": {
						"getProduct()": "infinite",
						"getResult()": "infinite",
						"updateResult()": "infinite"
					}
				},
				"methodIdentifiers": {
					"getProduct()": "4ba20050",
					"getResult()": "de292789",
					"updateResult()": "80ebb08e"
				}
			},
			"storageLayout": {
				"storage": [
					{
						"astId": 4,
						"contract": "contracts/5_Functions.sol:LearnFunction",
						"label": "num1",
						"offset": 0,
						"slot": "0",
						"type": "t_uint256"
					},
					{
						"astId": 7,
						"contract": "contracts/5_Functions.sol:LearnFunction",
						"label": "num2",
						"offset": 0,
						"slot": "1",
						"type": "t_uint256"
					}
				],
				"types": {
					"t_uint256": {
						"encoding": "inplace",
						"label": "uint256",
						"numberOfBytes": "32"
					}
				}
			},
			"userdoc": {
				"kind": "user",
				"methods": {},
				"version": 1
			}
		}
	}
}