{
	"contracts/4_Address.sol": {
		"Address": {
			"abi": [
				{
					"inputs": [
						{
							"internalType": "address payable",
							"name": "myAddy",
							"type": "address"
						}
					],
					"name": "SetMetamaskAddress",
					"outputs": [],
					"stateMutability": "nonpayable",
					"type": "function"
				},
				{
					"inputs": [],
					"name": "_myAddress",
					"outputs": [
						{
							"internalType": "address",
							"name": "",
							"type": "address"
						}
					],
					"stateMutability": "view",
					"type": "function"
				},
				{
					"inputs": [],
					"name": "_myMetamaskWallet",
					"outputs": [
						{
							"internalType": "address payable",
							"name": "",
							"type": "address"
						}
					],
					"stateMutability": "view",
					"type": "function"
				},
				{
					"inputs": [],
					"name": "getBalance",
					"outputs": [
						{
							"internalType": "uint256",
							"name": "",
							"type": "uint256"
						}
					],
					"stateMutability": "view",
					"type": "function"
				},
				{
					"inputs": [
						{
							"internalType": "uint256",
							"name": "_a",
							"type": "uint256"
						},
						{
							"internalType": "uint256",
							"name": "_b",
							"type": "uint256"
						}
					],
					"name": "getValue",
					"outputs": [
						{
							"internalType": "uint256",
							"name": "",
							"type": "uint256"
						}
					],
					"stateMutability": "pure",
					"type": "function"
				},
				{
					"inputs": [],
					"name": "james",
					"outputs": [
						{
							"internalType": "uint256",
							"name": "age",
							"type": "uint256"
						},
						{
							"internalType": "string",
							"name": "name",
							"type": "string"
						}
					],
					"stateMutability": "view",
					"type": "function"
				},
				{
					"inputs": [
						{
							"internalType": "uint256",
							"name": "_a",
							"type": "uint256"
						},
						{
							"internalType": "string",
							"name": "_b",
							"type": "string"
						}
					],
					"name": "setPerson",
					"outputs": [],
					"stateMutability": "nonpayable",
					"type": "function"
				}
			],
			"devdoc": {
				"kind": "dev",
				"methods": {},
				"version": 1
			},
			"evm": {
				"assembly": "    /* \"contracts/4_Address.sol\":58:685  contract Address{... */\n  mstore(0x40, 0x80)\n  callvalue\n  dup1\n  iszero\n  tag_1\n  jumpi\n  revert(0x00, 0x00)\ntag_1:\n  pop\n  dataSize(sub_0)\n  dup1\n  dataOffset(sub_0)\n  0x00\n  codecopy\n  0x00\n  return\nstop\n\nsub_0: assembly {\n        /* \"contracts/4_Address.sol\":58:685  contract Address{... */\n      mstore(0x40, 0x80)\n      callvalue\n      dup1\n      iszero\n      tag_1\n      jumpi\n      revert(0x00, 0x00)\n    tag_1:\n      pop\n      jumpi(tag_2, lt(calldatasize, 0x04))\n      shr(0xe0, calldataload(0x00))\n      dup1\n      0x6a19e6de\n      gt\n      tag_10\n      jumpi\n      dup1\n      0x6a19e6de\n      eq\n      tag_6\n      jumpi\n      dup1\n      0x798ebec4\n      eq\n      tag_7\n      jumpi\n      dup1\n      0xbfb21498\n      eq\n      tag_8\n      jumpi\n      dup1\n      0xfa5f6215\n      eq\n      tag_9\n      jumpi\n      jump(tag_2)\n    tag_10:\n      dup1\n      0x12065fe0\n      eq\n      tag_3\n      jumpi\n      dup1\n      0x53abee93\n      eq\n      tag_4\n      jumpi\n      dup1\n      0x66e60bc5\n      eq\n      tag_5\n      jumpi\n    tag_2:\n      revert(0x00, 0x00)\n        /* \"contracts/4_Address.sol\":254:355  function getBalance() public view returns (uint){... */\n    tag_3:\n      tag_11\n      tag_12\n      jump\t// in\n    tag_11:\n      mload(0x40)\n      tag_13\n      swap2\n      swap1\n      tag_14\n      jump\t// in\n    tag_13:\n      mload(0x40)\n      dup1\n      swap2\n      sub\n      swap1\n      return\n        /* \"contracts/4_Address.sol\":365:470  function SetMetamaskAddress(address payable  myAddy) public {... */\n    tag_4:\n      tag_15\n      0x04\n      dup1\n      calldatasize\n      sub\n      dup2\n      add\n      swap1\n      tag_16\n      swap2\n      swap1\n      tag_17\n      jump\t// in\n    tag_16:\n      tag_18\n      jump\t// in\n    tag_15:\n      stop\n        /* \"contracts/4_Address.sol\":227:246  Person public james */\n    tag_5:\n      tag_19\n      tag_20\n      jump\t// in\n    tag_19:\n      mload(0x40)\n      tag_21\n      swap3\n      swap2\n      swap1\n      tag_22\n      jump\t// in\n    tag_21:\n      mload(0x40)\n      dup1\n      swap2\n      sub\n      swap1\n      return\n        /* \"contracts/4_Address.sol\":582:676  function getValue(uint _a, uint _b) public pure returns(uint){... */\n    tag_6:\n      tag_23\n      0x04\n      dup1\n      calldatasize\n      sub\n      dup2\n      add\n      swap1\n      tag_24\n      swap2\n      swap1\n      tag_25\n      jump\t// in\n    tag_24:\n      tag_26\n      jump\t// in\n    tag_23:\n      mload(0x40)\n      tag_27\n      swap2\n      swap1\n      tag_14\n      jump\t// in\n    tag_27:\n      mload(0x40)\n      dup1\n      swap2\n      sub\n      swap1\n      return\n        /* \"contracts/4_Address.sol\":483:576  function setPerson(uint _a, string memory _b) public {... */\n    tag_7:\n      tag_28\n      0x04\n      dup1\n      calldatasize\n      sub\n      dup2\n      add\n      swap1\n      tag_29\n      swap2\n      swap1\n      tag_30\n      jump\t// in\n    tag_29:\n      tag_31\n      jump\t// in\n    tag_28:\n      stop\n        /* \"contracts/4_Address.sol\":81:106  address public _myAddress */\n    tag_8:\n      tag_32\n      tag_33\n      jump\t// in\n    tag_32:\n      mload(0x40)\n      tag_34\n      swap2\n      swap1\n      tag_35\n      jump\t// in\n    tag_34:\n      mload(0x40)\n      dup1\n      swap2\n      sub\n      swap1\n      return\n        /* \"contracts/4_Address.sol\":113:153  address payable public _myMetamaskWallet */\n    tag_9:\n      tag_36\n      tag_37\n      jump\t// in\n    tag_36:\n      mload(0x40)\n      tag_38\n      swap2\n      swap1\n      tag_39\n      jump\t// in\n    tag_38:\n      mload(0x40)\n      dup1\n      swap2\n      sub\n      swap1\n      return\n        /* \"contracts/4_Address.sol\":254:355  function getBalance() public view returns (uint){... */\n    tag_12:\n        /* \"contracts/4_Address.sol\":297:301  uint */\n      0x00\n        /* \"contracts/4_Address.sol\":321:338  _myMetamaskWallet */\n      0x01\n      0x00\n      swap1\n      sload\n      swap1\n      0x0100\n      exp\n      swap1\n      div\n      0xffffffffffffffffffffffffffffffffffffffff\n      and\n        /* \"contracts/4_Address.sol\":321:346  _myMetamaskWallet.balance */\n      0xffffffffffffffffffffffffffffffffffffffff\n      and\n      balance\n        /* \"contracts/4_Address.sol\":313:346  return  _myMetamaskWallet.balance */\n      swap1\n      pop\n        /* \"contracts/4_Address.sol\":254:355  function getBalance() public view returns (uint){... */\n      swap1\n      jump\t// out\n        /* \"contracts/4_Address.sol\":365:470  function SetMetamaskAddress(address payable  myAddy) public {... */\n    tag_18:\n        /* \"contracts/4_Address.sol\":455:461  myAddy */\n      dup1\n        /* \"contracts/4_Address.sol\":436:453  _myMetamaskWallet */\n      0x01\n      0x00\n        /* \"contracts/4_Address.sol\":436:461  _myMetamaskWallet =myAddy */\n      0x0100\n      exp\n      dup2\n      sload\n      dup2\n      0xffffffffffffffffffffffffffffffffffffffff\n      mul\n      not\n      and\n      swap1\n      dup4\n      0xffffffffffffffffffffffffffffffffffffffff\n      and\n      mul\n      or\n      swap1\n      sstore\n      pop\n        /* \"contracts/4_Address.sol\":365:470  function SetMetamaskAddress(address payable  myAddy) public {... */\n      pop\n      jump\t// out\n        /* \"contracts/4_Address.sol\":227:246  Person public james */\n    tag_20:\n      0x02\n      dup1\n      0x00\n      add\n      sload\n      swap1\n      dup1\n      0x01\n      add\n      dup1\n      sload\n      tag_42\n      swap1\n      tag_43\n      jump\t// in\n    tag_42:\n      dup1\n      0x1f\n      add\n      0x20\n      dup1\n      swap2\n      div\n      mul\n      0x20\n      add\n      mload(0x40)\n      swap1\n      dup2\n      add\n      0x40\n      mstore\n      dup1\n      swap3\n      swap2\n      swap1\n      dup2\n      dup2\n      mstore\n      0x20\n      add\n      dup3\n      dup1\n      sload\n      tag_44\n      swap1\n      tag_43\n      jump\t// in\n    tag_44:\n      dup1\n      iszero\n      tag_45\n      jumpi\n      dup1\n      0x1f\n      lt\n      tag_46\n      jumpi\n      0x0100\n      dup1\n      dup4\n      sload\n      div\n      mul\n      dup4\n      mstore\n      swap2\n      0x20\n      add\n      swap2\n      jump(tag_45)\n    tag_46:\n      dup3\n      add\n      swap2\n      swap1\n      0x00\n      mstore\n      keccak256(0x00, 0x20)\n      swap1\n    tag_47:\n      dup2\n      sload\n      dup2\n      mstore\n      swap1\n      0x01\n      add\n      swap1\n      0x20\n      add\n      dup1\n      dup4\n      gt\n      tag_47\n      jumpi\n      dup3\n      swap1\n      sub\n      0x1f\n      and\n      dup3\n      add\n      swap2\n    tag_45:\n      pop\n      pop\n      pop\n      pop\n      pop\n      swap1\n      pop\n      dup3\n      jump\t// out\n        /* \"contracts/4_Address.sol\":582:676  function getValue(uint _a, uint _b) public pure returns(uint){... */\n    tag_26:\n        /* \"contracts/4_Address.sol\":638:642  uint */\n      0x00\n        /* \"contracts/4_Address.sol\":665:667  _b */\n      dup2\n        /* \"contracts/4_Address.sol\":660:662  _a */\n      dup4\n        /* \"contracts/4_Address.sol\":660:667  _a + _b */\n      tag_49\n      swap2\n      swap1\n      tag_50\n      jump\t// in\n    tag_49:\n        /* \"contracts/4_Address.sol\":653:667  return _a + _b */\n      swap1\n      pop\n        /* \"contracts/4_Address.sol\":582:676  function getValue(uint _a, uint _b) public pure returns(uint){... */\n      swap3\n      swap2\n      pop\n      pop\n      jump\t// out\n        /* \"contracts/4_Address.sol\":483:576  function setPerson(uint _a, string memory _b) public {... */\n    tag_31:\n        /* \"contracts/4_Address.sol\":554:568  Person(_a, _b) */\n      mload(0x40)\n      dup1\n      0x40\n      add\n      0x40\n      mstore\n      dup1\n        /* \"contracts/4_Address.sol\":561:563  _a */\n      dup4\n        /* \"contracts/4_Address.sol\":554:568  Person(_a, _b) */\n      dup2\n      mstore\n      0x20\n      add\n        /* \"contracts/4_Address.sol\":565:567  _b */\n      dup3\n        /* \"contracts/4_Address.sol\":554:568  Person(_a, _b) */\n      dup2\n      mstore\n      pop\n        /* \"contracts/4_Address.sol\":548:553  james */\n      0x02\n        /* \"contracts/4_Address.sol\":548:568  james=Person(_a, _b) */\n      0x00\n      dup3\n      add\n      mload\n      dup2\n      0x00\n      add\n      sstore\n      0x20\n      dup3\n      add\n      mload\n      dup2\n      0x01\n      add\n      swap1\n      dup2\n      tag_52\n      swap2\n      swap1\n      tag_53\n      jump\t// in\n    tag_52:\n      pop\n      swap1\n      pop\n      pop\n        /* \"contracts/4_Address.sol\":483:576  function setPerson(uint _a, string memory _b) public {... */\n      pop\n      pop\n      jump\t// out\n        /* \"contracts/4_Address.sol\":81:106  address public _myAddress */\n    tag_33:\n      0x00\n      0x00\n      swap1\n      sload\n      swap1\n      0x0100\n      exp\n      swap1\n      div\n      0xffffffffffffffffffffffffffffffffffffffff\n      and\n      dup2\n      jump\t// out\n        /* \"contracts/4_Address.sol\":113:153  address payable public _myMetamaskWallet */\n    tag_37:\n      0x01\n      0x00\n      swap1\n      sload\n      swap1\n      0x0100\n      exp\n      swap1\n      div\n      0xffffffffffffffffffffffffffffffffffffffff\n      and\n      dup2\n      jump\t// out\n        /* \"#utility.yul\":7:84   */\n    tag_54:\n        /* \"#utility.yul\":44:51   */\n      0x00\n        /* \"#utility.yul\":73:78   */\n      dup2\n        /* \"#utility.yul\":62:78   */\n      swap1\n      pop\n        /* \"#utility.yul\":7:84   */\n      swap2\n      swap1\n      pop\n      jump\t// out\n        /* \"#utility.yul\":90:208   */\n    tag_55:\n        /* \"#utility.yul\":177:201   */\n      tag_102\n        /* \"#utility.yul\":195:200   */\n      dup2\n        /* \"#utility.yul\":177:201   */\n      tag_54\n      jump\t// in\n    tag_102:\n        /* \"#utility.yul\":172:175   */\n      dup3\n        /* \"#utility.yul\":165:202   */\n      mstore\n        /* \"#utility.yul\":90:208   */\n      pop\n      pop\n      jump\t// out\n        /* \"#utility.yul\":214:436   */\n    tag_14:\n        /* \"#utility.yul\":307:311   */\n      0x00\n        /* \"#utility.yul\":345:347   */\n      0x20\n        /* \"#utility.yul\":334:343   */\n      dup3\n        /* \"#utility.yul\":330:348   */\n      add\n        /* \"#utility.yul\":322:348   */\n      swap1\n      pop\n        /* \"#utility.yul\":358:429   */\n      tag_104\n        /* \"#utility.yul\":426:427   */\n      0x00\n        /* \"#utility.yul\":415:424   */\n      dup4\n        /* \"#utility.yul\":411:428   */\n      add\n        /* \"#utility.yul\":402:408   */\n      dup5\n        /* \"#utility.yul\":358:429   */\n      tag_55\n      jump\t// in\n    tag_104:\n        /* \"#utility.yul\":214:436   */\n      swap3\n      swap2\n      pop\n      pop\n      jump\t// out\n        /* \"#utility.yul\":442:517   */\n    tag_56:\n        /* \"#utility.yul\":475:481   */\n      0x00\n        /* \"#utility.yul\":508:510   */\n      0x40\n        /* \"#utility.yul\":502:511   */\n      mload\n        /* \"#utility.yul\":492:511   */\n      swap1\n      pop\n        /* \"#utility.yul\":442:517   */\n      swap1\n      jump\t// out\n        /* \"#utility.yul\":523:640   */\n    tag_57:\n        /* \"#utility.yul\":632:633   */\n      0x00\n        /* \"#utility.yul\":629:630   */\n      0x00\n        /* \"#utility.yul\":622:634   */\n      revert\n        /* \"#utility.yul\":646:763   */\n    tag_58:\n        /* \"#utility.yul\":755:756   */\n      0x00\n        /* \"#utility.yul\":752:753   */\n      0x00\n        /* \"#utility.yul\":745:757   */\n      revert\n        /* \"#utility.yul\":769:895   */\n    tag_59:\n        /* \"#utility.yul\":806:813   */\n      0x00\n        /* \"#utility.yul\":846:888   */\n      0xffffffffffffffffffffffffffffffffffffffff\n        /* \"#utility.yul\":839:844   */\n      dup3\n        /* \"#utility.yul\":835:889   */\n      and\n        /* \"#utility.yul\":824:889   */\n      swap1\n      pop\n        /* \"#utility.yul\":769:895   */\n      swap2\n      swap1\n      pop\n      jump\t// out\n        /* \"#utility.yul\":901:1005   */\n    tag_60:\n        /* \"#utility.yul\":946:953   */\n      0x00\n        /* \"#utility.yul\":975:999   */\n      tag_110\n        /* \"#utility.yul\":993:998   */\n      dup3\n        /* \"#utility.yul\":975:999   */\n      tag_59\n      jump\t// in\n    tag_110:\n        /* \"#utility.yul\":964:999   */\n      swap1\n      pop\n        /* \"#utility.yul\":901:1005   */\n      swap2\n      swap1\n      pop\n      jump\t// out\n        /* \"#utility.yul\":1011:1149   */\n    tag_61:\n        /* \"#utility.yul\":1092:1124   */\n      tag_112\n        /* \"#utility.yul\":1118:1123   */\n      dup2\n        /* \"#utility.yul\":1092:1124   */\n      tag_60\n      jump\t// in\n    tag_112:\n        /* \"#utility.yul\":1085:1090   */\n      dup2\n        /* \"#utility.yul\":1082:1125   */\n      eq\n        /* \"#utility.yul\":1072:1143   */\n      tag_113\n      jumpi\n        /* \"#utility.yul\":1139:1140   */\n      0x00\n        /* \"#utility.yul\":1136:1137   */\n      0x00\n        /* \"#utility.yul\":1129:1141   */\n      revert\n        /* \"#utility.yul\":1072:1143   */\n    tag_113:\n        /* \"#utility.yul\":1011:1149   */\n      pop\n      jump\t// out\n        /* \"#utility.yul\":1155:1310   */\n    tag_62:\n        /* \"#utility.yul\":1209:1214   */\n      0x00\n        /* \"#utility.yul\":1247:1253   */\n      dup2\n        /* \"#utility.yul\":1234:1254   */\n      calldataload\n        /* \"#utility.yul\":1225:1254   */\n      swap1\n      pop\n        /* \"#utility.yul\":1263:1304   */\n      tag_115\n        /* \"#utility.yul\":1298:1303   */\n      dup2\n        /* \"#utility.yul\":1263:1304   */\n      tag_61\n      jump\t// in\n    tag_115:\n        /* \"#utility.yul\":1155:1310   */\n      swap3\n      swap2\n      pop\n      pop\n      jump\t// out\n        /* \"#utility.yul\":1316:1661   */\n    tag_17:\n        /* \"#utility.yul\":1383:1389   */\n      0x00\n        /* \"#utility.yul\":1432:1434   */\n      0x20\n        /* \"#utility.yul\":1420:1429   */\n      dup3\n        /* \"#utility.yul\":1411:1418   */\n      dup5\n        /* \"#utility.yul\":1407:1430   */\n      sub\n        /* \"#utility.yul\":1403:1435   */\n      slt\n        /* \"#utility.yul\":1400:1519   */\n      iszero\n      tag_117\n      jumpi\n        /* \"#utility.yul\":1438:1517   */\n      tag_118\n      tag_57\n      jump\t// in\n    tag_118:\n        /* \"#utility.yul\":1400:1519   */\n    tag_117:\n        /* \"#utility.yul\":1558:1559   */\n      0x00\n        /* \"#utility.yul\":1583:1644   */\n      tag_119\n        /* \"#utility.yul\":1636:1643   */\n      dup5\n        /* \"#utility.yul\":1627:1633   */\n      dup3\n        /* \"#utility.yul\":1616:1625   */\n      dup6\n        /* \"#utility.yul\":1612:1634   */\n      add\n        /* \"#utility.yul\":1583:1644   */\n      tag_62\n      jump\t// in\n    tag_119:\n        /* \"#utility.yul\":1573:1644   */\n      swap2\n      pop\n        /* \"#utility.yul\":1529:1654   */\n      pop\n        /* \"#utility.yul\":1316:1661   */\n      swap3\n      swap2\n      pop\n      pop\n      jump\t// out\n        /* \"#utility.yul\":1667:1766   */\n    tag_63:\n        /* \"#utility.yul\":1719:1725   */\n      0x00\n        /* \"#utility.yul\":1753:1758   */\n      dup2\n        /* \"#utility.yul\":1747:1759   */\n      mload\n        /* \"#utility.yul\":1737:1759   */\n      swap1\n      pop\n        /* \"#utility.yul\":1667:1766   */\n      swap2\n      swap1\n      pop\n      jump\t// out\n        /* \"#utility.yul\":1772:1941   */\n    tag_64:\n        /* \"#utility.yul\":1856:1867   */\n      0x00\n        /* \"#utility.yul\":1890:1896   */\n      dup3\n        /* \"#utility.yul\":1885:1888   */\n      dup3\n        /* \"#utility.yul\":1878:1897   */\n      mstore\n        /* \"#utility.yul\":1930:1934   */\n      0x20\n        /* \"#utility.yul\":1925:1928   */\n      dup3\n        /* \"#utility.yul\":1921:1935   */\n      add\n        /* \"#utility.yul\":1906:1935   */\n      swap1\n      pop\n        /* \"#utility.yul\":1772:1941   */\n      swap3\n      swap2\n      pop\n      pop\n      jump\t// out\n        /* \"#utility.yul\":1947:2086   */\n    tag_65:\n        /* \"#utility.yul\":2036:2042   */\n      dup3\n        /* \"#utility.yul\":2031:2034   */\n      dup2\n        /* \"#utility.yul\":2026:2029   */\n      dup4\n        /* \"#utility.yul\":2020:2043   */\n      mcopy\n        /* \"#utility.yul\":2077:2078   */\n      0x00\n        /* \"#utility.yul\":2068:2074   */\n      dup4\n        /* \"#utility.yul\":2063:2066   */\n      dup4\n        /* \"#utility.yul\":2059:2075   */\n      add\n        /* \"#utility.yul\":2052:2079   */\n      mstore\n        /* \"#utility.yul\":1947:2086   */\n      pop\n      pop\n      pop\n      jump\t// out\n        /* \"#utility.yul\":2092:2194   */\n    tag_66:\n        /* \"#utility.yul\":2133:2139   */\n      0x00\n        /* \"#utility.yul\":2184:2186   */\n      0x1f\n        /* \"#utility.yul\":2180:2187   */\n      not\n        /* \"#utility.yul\":2175:2177   */\n      0x1f\n        /* \"#utility.yul\":2168:2173   */\n      dup4\n        /* \"#utility.yul\":2164:2178   */\n      add\n        /* \"#utility.yul\":2160:2188   */\n      and\n        /* \"#utility.yul\":2150:2188   */\n      swap1\n      pop\n        /* \"#utility.yul\":2092:2194   */\n      swap2\n      swap1\n      pop\n      jump\t// out\n        /* \"#utility.yul\":2200:2577   */\n    tag_67:\n        /* \"#utility.yul\":2288:2291   */\n      0x00\n        /* \"#utility.yul\":2316:2355   */\n      tag_125\n        /* \"#utility.yul\":2349:2354   */\n      dup3\n        /* \"#utility.yul\":2316:2355   */\n      tag_63\n      jump\t// in\n    tag_125:\n        /* \"#utility.yul\":2371:2442   */\n      tag_126\n        /* \"#utility.yul\":2435:2441   */\n      dup2\n        /* \"#utility.yul\":2430:2433   */\n      dup6\n        /* \"#utility.yul\":2371:2442   */\n      tag_64\n      jump\t// in\n    tag_126:\n        /* \"#utility.yul\":2364:2442   */\n      swap4\n      pop\n        /* \"#utility.yul\":2451:2516   */\n      tag_127\n        /* \"#utility.yul\":2509:2515   */\n      dup2\n        /* \"#utility.yul\":2504:2507   */\n      dup6\n        /* \"#utility.yul\":2497:2501   */\n      0x20\n        /* \"#utility.yul\":2490:2495   */\n      dup7\n        /* \"#utility.yul\":2486:2502   */\n      add\n        /* \"#utility.yul\":2451:2516   */\n      tag_65\n      jump\t// in\n    tag_127:\n        /* \"#utility.yul\":2541:2570   */\n      tag_128\n        /* \"#utility.yul\":2563:2569   */\n      dup2\n        /* \"#utility.yul\":2541:2570   */\n      tag_66\n      jump\t// in\n    tag_128:\n        /* \"#utility.yul\":2536:2539   */\n      dup5\n        /* \"#utility.yul\":2532:2571   */\n      add\n        /* \"#utility.yul\":2525:2571   */\n      swap2\n      pop\n        /* \"#utility.yul\":2292:2577   */\n      pop\n        /* \"#utility.yul\":2200:2577   */\n      swap3\n      swap2\n      pop\n      pop\n      jump\t// out\n        /* \"#utility.yul\":2583:3006   */\n    tag_22:\n        /* \"#utility.yul\":2724:2728   */\n      0x00\n        /* \"#utility.yul\":2762:2764   */\n      0x40\n        /* \"#utility.yul\":2751:2760   */\n      dup3\n        /* \"#utility.yul\":2747:2765   */\n      add\n        /* \"#utility.yul\":2739:2765   */\n      swap1\n      pop\n        /* \"#utility.yul\":2775:2846   */\n      tag_130\n        /* \"#utility.yul\":2843:2844   */\n      0x00\n        /* \"#utility.yul\":2832:2841   */\n      dup4\n        /* \"#utility.yul\":2828:2845   */\n      add\n        /* \"#utility.yul\":2819:2825   */\n      dup6\n        /* \"#utility.yul\":2775:2846   */\n      tag_55\n      jump\t// in\n    tag_130:\n        /* \"#utility.yul\":2893:2902   */\n      dup2\n        /* \"#utility.yul\":2887:2891   */\n      dup2\n        /* \"#utility.yul\":2883:2903   */\n      sub\n        /* \"#utility.yul\":2878:2880   */\n      0x20\n        /* \"#utility.yul\":2867:2876   */\n      dup4\n        /* \"#utility.yul\":2863:2881   */\n      add\n        /* \"#utility.yul\":2856:2904   */\n      mstore\n        /* \"#utility.yul\":2921:2999   */\n      tag_131\n        /* \"#utility.yul\":2994:2998   */\n      dup2\n        /* \"#utility.yul\":2985:2991   */\n      dup5\n        /* \"#utility.yul\":2921:2999   */\n      tag_67\n      jump\t// in\n    tag_131:\n        /* \"#utility.yul\":2913:2999   */\n      swap1\n      pop\n        /* \"#utility.yul\":2583:3006   */\n      swap4\n      swap3\n      pop\n      pop\n      pop\n      jump\t// out\n        /* \"#utility.yul\":3012:3134   */\n    tag_68:\n        /* \"#utility.yul\":3085:3109   */\n      tag_133\n        /* \"#utility.yul\":3103:3108   */\n      dup2\n        /* \"#utility.yul\":3085:3109   */\n      tag_54\n      jump\t// in\n    tag_133:\n        /* \"#utility.yul\":3078:3083   */\n      dup2\n        /* \"#utility.yul\":3075:3110   */\n      eq\n        /* \"#utility.yul\":3065:3128   */\n      tag_134\n      jumpi\n        /* \"#utility.yul\":3124:3125   */\n      0x00\n        /* \"#utility.yul\":3121:3122   */\n      0x00\n        /* \"#utility.yul\":3114:3126   */\n      revert\n        /* \"#utility.yul\":3065:3128   */\n    tag_134:\n        /* \"#utility.yul\":3012:3134   */\n      pop\n      jump\t// out\n        /* \"#utility.yul\":3140:3279   */\n    tag_69:\n        /* \"#utility.yul\":3186:3191   */\n      0x00\n        /* \"#utility.yul\":3224:3230   */\n      dup2\n        /* \"#utility.yul\":3211:3231   */\n      calldataload\n        /* \"#utility.yul\":3202:3231   */\n      swap1\n      pop\n        /* \"#utility.yul\":3240:3273   */\n      tag_136\n        /* \"#utility.yul\":3267:3272   */\n      dup2\n        /* \"#utility.yul\":3240:3273   */\n      tag_68\n      jump\t// in\n    tag_136:\n        /* \"#utility.yul\":3140:3279   */\n      swap3\n      swap2\n      pop\n      pop\n      jump\t// out\n        /* \"#utility.yul\":3285:3759   */\n    tag_25:\n        /* \"#utility.yul\":3353:3359   */\n      0x00\n        /* \"#utility.yul\":3361:3367   */\n      0x00\n        /* \"#utility.yul\":3410:3412   */\n      0x40\n        /* \"#utility.yul\":3398:3407   */\n      dup4\n        /* \"#utility.yul\":3389:3396   */\n      dup6\n        /* \"#utility.yul\":3385:3408   */\n      sub\n        /* \"#utility.yul\":3381:3413   */\n      slt\n        /* \"#utility.yul\":3378:3497   */\n      iszero\n      tag_138\n      jumpi\n        /* \"#utility.yul\":3416:3495   */\n      tag_139\n      tag_57\n      jump\t// in\n    tag_139:\n        /* \"#utility.yul\":3378:3497   */\n    tag_138:\n        /* \"#utility.yul\":3536:3537   */\n      0x00\n        /* \"#utility.yul\":3561:3614   */\n      tag_140\n        /* \"#utility.yul\":3606:3613   */\n      dup6\n        /* \"#utility.yul\":3597:3603   */\n      dup3\n        /* \"#utility.yul\":3586:3595   */\n      dup7\n        /* \"#utility.yul\":3582:3604   */\n      add\n        /* \"#utility.yul\":3561:3614   */\n      tag_69\n      jump\t// in\n    tag_140:\n        /* \"#utility.yul\":3551:3614   */\n      swap3\n      pop\n        /* \"#utility.yul\":3507:3624   */\n      pop\n        /* \"#utility.yul\":3663:3665   */\n      0x20\n        /* \"#utility.yul\":3689:3742   */\n      tag_141\n        /* \"#utility.yul\":3734:3741   */\n      dup6\n        /* \"#utility.yul\":3725:3731   */\n      dup3\n        /* \"#utility.yul\":3714:3723   */\n      dup7\n        /* \"#utility.yul\":3710:3732   */\n      add\n        /* \"#utility.yul\":3689:3742   */\n      tag_69\n      jump\t// in\n    tag_141:\n        /* \"#utility.yul\":3679:3742   */\n      swap2\n      pop\n        /* \"#utility.yul\":3634:3752   */\n      pop\n        /* \"#utility.yul\":3285:3759   */\n      swap3\n      pop\n      swap3\n      swap1\n      pop\n      jump\t// out\n        /* \"#utility.yul\":3765:3882   */\n    tag_70:\n        /* \"#utility.yul\":3874:3875   */\n      0x00\n        /* \"#utility.yul\":3871:3872   */\n      0x00\n        /* \"#utility.yul\":3864:3876   */\n      revert\n        /* \"#utility.yul\":3888:4005   */\n    tag_71:\n        /* \"#utility.yul\":3997:3998   */\n      0x00\n        /* \"#utility.yul\":3994:3995   */\n      0x00\n        /* \"#utility.yul\":3987:3999   */\n      revert\n        /* \"#utility.yul\":4011:4191   */\n    tag_72:\n        /* \"#utility.yul\":4059:4136   */\n      0x4e487b7100000000000000000000000000000000000000000000000000000000\n        /* \"#utility.yul\":4056:4057   */\n      0x00\n        /* \"#utility.yul\":4049:4137   */\n      mstore\n        /* \"#utility.yul\":4156:4160   */\n      0x41\n        /* \"#utility.yul\":4153:4154   */\n      0x04\n        /* \"#utility.yul\":4146:4161   */\n      mstore\n        /* \"#utility.yul\":4180:4184   */\n      0x24\n        /* \"#utility.yul\":4177:4178   */\n      0x00\n        /* \"#utility.yul\":4170:4185   */\n      revert\n        /* \"#utility.yul\":4197:4478   */\n    tag_73:\n        /* \"#utility.yul\":4280:4307   */\n      tag_146\n        /* \"#utility.yul\":4302:4306   */\n      dup3\n        /* \"#utility.yul\":4280:4307   */\n      tag_66\n      jump\t// in\n    tag_146:\n        /* \"#utility.yul\":4272:4278   */\n      dup2\n        /* \"#utility.yul\":4268:4308   */\n      add\n        /* \"#utility.yul\":4410:4416   */\n      dup2\n        /* \"#utility.yul\":4398:4408   */\n      dup2\n        /* \"#utility.yul\":4395:4417   */\n      lt\n        /* \"#utility.yul\":4374:4392   */\n      0xffffffffffffffff\n        /* \"#utility.yul\":4362:4372   */\n      dup3\n        /* \"#utility.yul\":4359:4393   */\n      gt\n        /* \"#utility.yul\":4356:4418   */\n      or\n        /* \"#utility.yul\":4353:4441   */\n      iszero\n      tag_147\n      jumpi\n        /* \"#utility.yul\":4421:4439   */\n      tag_148\n      tag_72\n      jump\t// in\n    tag_148:\n        /* \"#utility.yul\":4353:4441   */\n    tag_147:\n        /* \"#utility.yul\":4461:4471   */\n      dup1\n        /* \"#utility.yul\":4457:4459   */\n      0x40\n        /* \"#utility.yul\":4450:4472   */\n      mstore\n        /* \"#utility.yul\":4240:4478   */\n      pop\n        /* \"#utility.yul\":4197:4478   */\n      pop\n      pop\n      jump\t// out\n        /* \"#utility.yul\":4484:4613   */\n    tag_74:\n        /* \"#utility.yul\":4518:4524   */\n      0x00\n        /* \"#utility.yul\":4545:4565   */\n      tag_150\n      tag_56\n      jump\t// in\n    tag_150:\n        /* \"#utility.yul\":4535:4565   */\n      swap1\n      pop\n        /* \"#utility.yul\":4574:4607   */\n      tag_151\n        /* \"#utility.yul\":4602:4606   */\n      dup3\n        /* \"#utility.yul\":4594:4600   */\n      dup3\n        /* \"#utility.yul\":4574:4607   */\n      tag_73\n      jump\t// in\n    tag_151:\n        /* \"#utility.yul\":4484:4613   */\n      swap2\n      swap1\n      pop\n      jump\t// out\n        /* \"#utility.yul\":4619:4927   */\n    tag_75:\n        /* \"#utility.yul\":4681:4685   */\n      0x00\n        /* \"#utility.yul\":4771:4789   */\n      0xffffffffffffffff\n        /* \"#utility.yul\":4763:4769   */\n      dup3\n        /* \"#utility.yul\":4760:4790   */\n      gt\n        /* \"#utility.yul\":4757:4813   */\n      iszero\n      tag_153\n      jumpi\n        /* \"#utility.yul\":4793:4811   */\n      tag_154\n      tag_72\n      jump\t// in\n    tag_154:\n        /* \"#utility.yul\":4757:4813   */\n    tag_153:\n        /* \"#utility.yul\":4831:4860   */\n      tag_155\n        /* \"#utility.yul\":4853:4859   */\n      dup3\n        /* \"#utility.yul\":4831:4860   */\n      tag_66\n      jump\t// in\n    tag_155:\n        /* \"#utility.yul\":4823:4860   */\n      swap1\n      pop\n        /* \"#utility.yul\":4915:4919   */\n      0x20\n        /* \"#utility.yul\":4909:4913   */\n      dup2\n        /* \"#utility.yul\":4905:4920   */\n      add\n        /* \"#utility.yul\":4897:4920   */\n      swap1\n      pop\n        /* \"#utility.yul\":4619:4927   */\n      swap2\n      swap1\n      pop\n      jump\t// out\n        /* \"#utility.yul\":4933:5081   */\n    tag_76:\n        /* \"#utility.yul\":5031:5037   */\n      dup3\n        /* \"#utility.yul\":5026:5029   */\n      dup2\n        /* \"#utility.yul\":5021:5024   */\n      dup4\n        /* \"#utility.yul\":5008:5038   */\n      calldatacopy\n        /* \"#utility.yul\":5072:5073   */\n      0x00\n        /* \"#utility.yul\":5063:5069   */\n      dup4\n        /* \"#utility.yul\":5058:5061   */\n      dup4\n        /* \"#utility.yul\":5054:5070   */\n      add\n        /* \"#utility.yul\":5047:5074   */\n      mstore\n        /* \"#utility.yul\":4933:5081   */\n      pop\n      pop\n      pop\n      jump\t// out\n        /* \"#utility.yul\":5087:5512   */\n    tag_77:\n        /* \"#utility.yul\":5165:5170   */\n      0x00\n        /* \"#utility.yul\":5190:5256   */\n      tag_158\n        /* \"#utility.yul\":5206:5255   */\n      tag_159\n        /* \"#utility.yul\":5248:5254   */\n      dup5\n        /* \"#utility.yul\":5206:5255   */\n      tag_75\n      jump\t// in\n    tag_159:\n        /* \"#utility.yul\":5190:5256   */\n      tag_74\n      jump\t// in\n    tag_158:\n        /* \"#utility.yul\":5181:5256   */\n      swap1\n      pop\n        /* \"#utility.yul\":5279:5285   */\n      dup3\n        /* \"#utility.yul\":5272:5277   */\n      dup2\n        /* \"#utility.yul\":5265:5286   */\n      mstore\n        /* \"#utility.yul\":5317:5321   */\n      0x20\n        /* \"#utility.yul\":5310:5315   */\n      dup2\n        /* \"#utility.yul\":5306:5322   */\n      add\n        /* \"#utility.yul\":5355:5358   */\n      dup5\n        /* \"#utility.yul\":5346:5352   */\n      dup5\n        /* \"#utility.yul\":5341:5344   */\n      dup5\n        /* \"#utility.yul\":5337:5353   */\n      add\n        /* \"#utility.yul\":5334:5359   */\n      gt\n        /* \"#utility.yul\":5331:5443   */\n      iszero\n      tag_160\n      jumpi\n        /* \"#utility.yul\":5362:5441   */\n      tag_161\n      tag_71\n      jump\t// in\n    tag_161:\n        /* \"#utility.yul\":5331:5443   */\n    tag_160:\n        /* \"#utility.yul\":5452:5506   */\n      tag_162\n        /* \"#utility.yul\":5499:5505   */\n      dup5\n        /* \"#utility.yul\":5494:5497   */\n      dup3\n        /* \"#utility.yul\":5489:5492   */\n      dup6\n        /* \"#utility.yul\":5452:5506   */\n      tag_76\n      jump\t// in\n    tag_162:\n        /* \"#utility.yul\":5171:5512   */\n      pop\n        /* \"#utility.yul\":5087:5512   */\n      swap4\n      swap3\n      pop\n      pop\n      pop\n      jump\t// out\n        /* \"#utility.yul\":5532:5872   */\n    tag_78:\n        /* \"#utility.yul\":5588:5593   */\n      0x00\n        /* \"#utility.yul\":5637:5640   */\n      dup3\n        /* \"#utility.yul\":5630:5634   */\n      0x1f\n        /* \"#utility.yul\":5622:5628   */\n      dup4\n        /* \"#utility.yul\":5618:5635   */\n      add\n        /* \"#utility.yul\":5614:5641   */\n      slt\n        /* \"#utility.yul\":5604:5726   */\n      tag_164\n      jumpi\n        /* \"#utility.yul\":5645:5724   */\n      tag_165\n      tag_70\n      jump\t// in\n    tag_165:\n        /* \"#utility.yul\":5604:5726   */\n    tag_164:\n        /* \"#utility.yul\":5762:5768   */\n      dup2\n        /* \"#utility.yul\":5749:5769   */\n      calldataload\n        /* \"#utility.yul\":5787:5866   */\n      tag_166\n        /* \"#utility.yul\":5862:5865   */\n      dup5\n        /* \"#utility.yul\":5854:5860   */\n      dup3\n        /* \"#utility.yul\":5847:5851   */\n      0x20\n        /* \"#utility.yul\":5839:5845   */\n      dup7\n        /* \"#utility.yul\":5835:5852   */\n      add\n        /* \"#utility.yul\":5787:5866   */\n      tag_77\n      jump\t// in\n    tag_166:\n        /* \"#utility.yul\":5778:5866   */\n      swap2\n      pop\n        /* \"#utility.yul\":5594:5872   */\n      pop\n        /* \"#utility.yul\":5532:5872   */\n      swap3\n      swap2\n      pop\n      pop\n      jump\t// out\n        /* \"#utility.yul\":5878:6532   */\n    tag_30:\n        /* \"#utility.yul\":5956:5962   */\n      0x00\n        /* \"#utility.yul\":5964:5970   */\n      0x00\n        /* \"#utility.yul\":6013:6015   */\n      0x40\n        /* \"#utility.yul\":6001:6010   */\n      dup4\n        /* \"#utility.yul\":5992:5999   */\n      dup6\n        /* \"#utility.yul\":5988:6011   */\n      sub\n        /* \"#utility.yul\":5984:6016   */\n      slt\n        /* \"#utility.yul\":5981:6100   */\n      iszero\n      tag_168\n      jumpi\n        /* \"#utility.yul\":6019:6098   */\n      tag_169\n      tag_57\n      jump\t// in\n    tag_169:\n        /* \"#utility.yul\":5981:6100   */\n    tag_168:\n        /* \"#utility.yul\":6139:6140   */\n      0x00\n        /* \"#utility.yul\":6164:6217   */\n      tag_170\n        /* \"#utility.yul\":6209:6216   */\n      dup6\n        /* \"#utility.yul\":6200:6206   */\n      dup3\n        /* \"#utility.yul\":6189:6198   */\n      dup7\n        /* \"#utility.yul\":6185:6207   */\n      add\n        /* \"#utility.yul\":6164:6217   */\n      tag_69\n      jump\t// in\n    tag_170:\n        /* \"#utility.yul\":6154:6217   */\n      swap3\n      pop\n        /* \"#utility.yul\":6110:6227   */\n      pop\n        /* \"#utility.yul\":6294:6296   */\n      0x20\n        /* \"#utility.yul\":6283:6292   */\n      dup4\n        /* \"#utility.yul\":6279:6297   */\n      add\n        /* \"#utility.yul\":6266:6298   */\n      calldataload\n        /* \"#utility.yul\":6325:6343   */\n      0xffffffffffffffff\n        /* \"#utility.yul\":6317:6323   */\n      dup2\n        /* \"#utility.yul\":6314:6344   */\n      gt\n        /* \"#utility.yul\":6311:6428   */\n      iszero\n      tag_171\n      jumpi\n        /* \"#utility.yul\":6347:6426   */\n      tag_172\n      tag_58\n      jump\t// in\n    tag_172:\n        /* \"#utility.yul\":6311:6428   */\n    tag_171:\n        /* \"#utility.yul\":6452:6515   */\n      tag_173\n        /* \"#utility.yul\":6507:6514   */\n      dup6\n        /* \"#utility.yul\":6498:6504   */\n      dup3\n        /* \"#utility.yul\":6487:6496   */\n      dup7\n        /* \"#utility.yul\":6483:6505   */\n      add\n        /* \"#utility.yul\":6452:6515   */\n      tag_78\n      jump\t// in\n    tag_173:\n        /* \"#utility.yul\":6442:6515   */\n      swap2\n      pop\n        /* \"#utility.yul\":6237:6525   */\n      pop\n        /* \"#utility.yul\":5878:6532   */\n      swap3\n      pop\n      swap3\n      swap1\n      pop\n      jump\t// out\n        /* \"#utility.yul\":6538:6634   */\n    tag_79:\n        /* \"#utility.yul\":6575:6582   */\n      0x00\n        /* \"#utility.yul\":6604:6628   */\n      tag_175\n        /* \"#utility.yul\":6622:6627   */\n      dup3\n        /* \"#utility.yul\":6604:6628   */\n      tag_59\n      jump\t// in\n    tag_175:\n        /* \"#utility.yul\":6593:6628   */\n      swap1\n      pop\n        /* \"#utility.yul\":6538:6634   */\n      swap2\n      swap1\n      pop\n      jump\t// out\n        /* \"#utility.yul\":6640:6758   */\n    tag_80:\n        /* \"#utility.yul\":6727:6751   */\n      tag_177\n        /* \"#utility.yul\":6745:6750   */\n      dup2\n        /* \"#utility.yul\":6727:6751   */\n      tag_79\n      jump\t// in\n    tag_177:\n        /* \"#utility.yul\":6722:6725   */\n      dup3\n        /* \"#utility.yul\":6715:6752   */\n      mstore\n        /* \"#utility.yul\":6640:6758   */\n      pop\n      pop\n      jump\t// out\n        /* \"#utility.yul\":6764:6986   */\n    tag_35:\n        /* \"#utility.yul\":6857:6861   */\n      0x00\n        /* \"#utility.yul\":6895:6897   */\n      0x20\n        /* \"#utility.yul\":6884:6893   */\n      dup3\n        /* \"#utility.yul\":6880:6898   */\n      add\n        /* \"#utility.yul\":6872:6898   */\n      swap1\n      pop\n        /* \"#utility.yul\":6908:6979   */\n      tag_179\n        /* \"#utility.yul\":6976:6977   */\n      0x00\n        /* \"#utility.yul\":6965:6974   */\n      dup4\n        /* \"#utility.yul\":6961:6978   */\n      add\n        /* \"#utility.yul\":6952:6958   */\n      dup5\n        /* \"#utility.yul\":6908:6979   */\n      tag_80\n      jump\t// in\n    tag_179:\n        /* \"#utility.yul\":6764:6986   */\n      swap3\n      swap2\n      pop\n      pop\n      jump\t// out\n        /* \"#utility.yul\":6992:7134   */\n    tag_81:\n        /* \"#utility.yul\":7095:7127   */\n      tag_181\n        /* \"#utility.yul\":7121:7126   */\n      dup2\n        /* \"#utility.yul\":7095:7127   */\n      tag_60\n      jump\t// in\n    tag_181:\n        /* \"#utility.yul\":7090:7093   */\n      dup3\n        /* \"#utility.yul\":7083:7128   */\n      mstore\n        /* \"#utility.yul\":6992:7134   */\n      pop\n      pop\n      jump\t// out\n        /* \"#utility.yul\":7140:7394   */\n    tag_39:\n        /* \"#utility.yul\":7249:7253   */\n      0x00\n        /* \"#utility.yul\":7287:7289   */\n      0x20\n        /* \"#utility.yul\":7276:7285   */\n      dup3\n        /* \"#utility.yul\":7272:7290   */\n      add\n        /* \"#utility.yul\":7264:7290   */\n      swap1\n      pop\n        /* \"#utility.yul\":7300:7387   */\n      tag_183\n        /* \"#utility.yul\":7384:7385   */\n      0x00\n        /* \"#utility.yul\":7373:7382   */\n      dup4\n        /* \"#utility.yul\":7369:7386   */\n      add\n        /* \"#utility.yul\":7360:7366   */\n      dup5\n        /* \"#utility.yul\":7300:7387   */\n      tag_81\n      jump\t// in\n    tag_183:\n        /* \"#utility.yul\":7140:7394   */\n      swap3\n      swap2\n      pop\n      pop\n      jump\t// out\n        /* \"#utility.yul\":7400:7580   */\n    tag_82:\n        /* \"#utility.yul\":7448:7525   */\n      0x4e487b7100000000000000000000000000000000000000000000000000000000\n        /* \"#utility.yul\":7445:7446   */\n      0x00\n        /* \"#utility.yul\":7438:7526   */\n      mstore\n        /* \"#utility.yul\":7545:7549   */\n      0x22\n        /* \"#utility.yul\":7542:7543   */\n      0x04\n        /* \"#utility.yul\":7535:7550   */\n      mstore\n        /* \"#utility.yul\":7569:7573   */\n      0x24\n        /* \"#utility.yul\":7566:7567   */\n      0x00\n        /* \"#utility.yul\":7559:7574   */\n      revert\n        /* \"#utility.yul\":7586:7906   */\n    tag_43:\n        /* \"#utility.yul\":7630:7636   */\n      0x00\n        /* \"#utility.yul\":7667:7668   */\n      0x02\n        /* \"#utility.yul\":7661:7665   */\n      dup3\n        /* \"#utility.yul\":7657:7669   */\n      div\n        /* \"#utility.yul\":7647:7669   */\n      swap1\n      pop\n        /* \"#utility.yul\":7714:7715   */\n      0x01\n        /* \"#utility.yul\":7708:7712   */\n      dup3\n        /* \"#utility.yul\":7704:7716   */\n      and\n        /* \"#utility.yul\":7735:7753   */\n      dup1\n        /* \"#utility.yul\":7725:7806   */\n      tag_186\n      jumpi\n        /* \"#utility.yul\":7791:7795   */\n      0x7f\n        /* \"#utility.yul\":7783:7789   */\n      dup3\n        /* \"#utility.yul\":7779:7796   */\n      and\n        /* \"#utility.yul\":7769:7796   */\n      swap2\n      pop\n        /* \"#utility.yul\":7725:7806   */\n    tag_186:\n        /* \"#utility.yul\":7853:7855   */\n      0x20\n        /* \"#utility.yul\":7845:7851   */\n      dup3\n        /* \"#utility.yul\":7842:7856   */\n      lt\n        /* \"#utility.yul\":7822:7840   */\n      dup2\n        /* \"#utility.yul\":7819:7857   */\n      sub\n        /* \"#utility.yul\":7816:7900   */\n      tag_187\n      jumpi\n        /* \"#utility.yul\":7872:7890   */\n      tag_188\n      tag_82\n      jump\t// in\n    tag_188:\n        /* \"#utility.yul\":7816:7900   */\n    tag_187:\n        /* \"#utility.yul\":7637:7906   */\n      pop\n        /* \"#utility.yul\":7586:7906   */\n      swap2\n      swap1\n      pop\n      jump\t// out\n        /* \"#utility.yul\":7912:8092   */\n    tag_83:\n        /* \"#utility.yul\":7960:8037   */\n      0x4e487b7100000000000000000000000000000000000000000000000000000000\n        /* \"#utility.yul\":7957:7958   */\n      0x00\n        /* \"#utility.yul\":7950:8038   */\n      mstore\n        /* \"#utility.yul\":8057:8061   */\n      0x11\n        /* \"#utility.yul\":8054:8055   */\n      0x04\n        /* \"#utility.yul\":8047:8062   */\n      mstore\n        /* \"#utility.yul\":8081:8085   */\n      0x24\n        /* \"#utility.yul\":8078:8079   */\n      0x00\n        /* \"#utility.yul\":8071:8086   */\n      revert\n        /* \"#utility.yul\":8098:8289   */\n    tag_50:\n        /* \"#utility.yul\":8138:8141   */\n      0x00\n        /* \"#utility.yul\":8157:8177   */\n      tag_191\n        /* \"#utility.yul\":8175:8176   */\n      dup3\n        /* \"#utility.yul\":8157:8177   */\n      tag_54\n      jump\t// in\n    tag_191:\n        /* \"#utility.yul\":8152:8177   */\n      swap2\n      pop\n        /* \"#utility.yul\":8191:8211   */\n      tag_192\n        /* \"#utility.yul\":8209:8210   */\n      dup4\n        /* \"#utility.yul\":8191:8211   */\n      tag_54\n      jump\t// in\n    tag_192:\n        /* \"#utility.yul\":8186:8211   */\n      swap3\n      pop\n        /* \"#utility.yul\":8234:8235   */\n      dup3\n        /* \"#utility.yul\":8231:8232   */\n      dup3\n        /* \"#utility.yul\":8227:8236   */\n      add\n        /* \"#utility.yul\":8220:8236   */\n      swap1\n      pop\n        /* \"#utility.yul\":8255:8258   */\n      dup1\n        /* \"#utility.yul\":8252:8253   */\n      dup3\n        /* \"#utility.yul\":8249:8259   */\n      gt\n        /* \"#utility.yul\":8246:8282   */\n      iszero\n      tag_193\n      jumpi\n        /* \"#utility.yul\":8262:8280   */\n      tag_194\n      tag_83\n      jump\t// in\n    tag_194:\n        /* \"#utility.yul\":8246:8282   */\n    tag_193:\n        /* \"#utility.yul\":8098:8289   */\n      swap3\n      swap2\n      pop\n      pop\n      jump\t// out\n        /* \"#utility.yul\":8295:8436   */\n    tag_84:\n        /* \"#utility.yul\":8344:8348   */\n      0x00\n        /* \"#utility.yul\":8367:8370   */\n      dup2\n        /* \"#utility.yul\":8359:8370   */\n      swap1\n      pop\n        /* \"#utility.yul\":8390:8393   */\n      dup2\n        /* \"#utility.yul\":8387:8388   */\n      0x00\n        /* \"#utility.yul\":8380:8394   */\n      mstore\n        /* \"#utility.yul\":8424:8428   */\n      0x20\n        /* \"#utility.yul\":8421:8422   */\n      0x00\n        /* \"#utility.yul\":8411:8429   */\n      keccak256\n        /* \"#utility.yul\":8403:8429   */\n      swap1\n      pop\n        /* \"#utility.yul\":8295:8436   */\n      swap2\n      swap1\n      pop\n      jump\t// out\n        /* \"#utility.yul\":8442:8535   */\n    tag_85:\n        /* \"#utility.yul\":8479:8485   */\n      0x00\n        /* \"#utility.yul\":8526:8528   */\n      0x20\n        /* \"#utility.yul\":8521:8523   */\n      0x1f\n        /* \"#utility.yul\":8514:8519   */\n      dup4\n        /* \"#utility.yul\":8510:8524   */\n      add\n        /* \"#utility.yul\":8506:8529   */\n      div\n        /* \"#utility.yul\":8496:8529   */\n      swap1\n      pop\n        /* \"#utility.yul\":8442:8535   */\n      swap2\n      swap1\n      pop\n      jump\t// out\n        /* \"#utility.yul\":8541:8648   */\n    tag_86:\n        /* \"#utility.yul\":8585:8593   */\n      0x00\n        /* \"#utility.yul\":8635:8640   */\n      dup3\n        /* \"#utility.yul\":8629:8633   */\n      dup3\n        /* \"#utility.yul\":8625:8641   */\n      shl\n        /* \"#utility.yul\":8604:8641   */\n      swap1\n      pop\n        /* \"#utility.yul\":8541:8648   */\n      swap3\n      swap2\n      pop\n      pop\n      jump\t// out\n        /* \"#utility.yul\":8654:9047   */\n    tag_87:\n        /* \"#utility.yul\":8723:8729   */\n      0x00\n        /* \"#utility.yul\":8773:8774   */\n      0x08\n        /* \"#utility.yul\":8761:8771   */\n      dup4\n        /* \"#utility.yul\":8757:8775   */\n      mul\n        /* \"#utility.yul\":8796:8893   */\n      tag_199\n        /* \"#utility.yul\":8826:8892   */\n      0xffffffffffffffffffffffffffffffffffffffffffffffffffffffffffffffff\n        /* \"#utility.yul\":8815:8824   */\n      dup3\n        /* \"#utility.yul\":8796:8893   */\n      tag_86\n      jump\t// in\n    tag_199:\n        /* \"#utility.yul\":8914:8953   */\n      tag_200\n        /* \"#utility.yul\":8944:8952   */\n      dup7\n        /* \"#utility.yul\":8933:8942   */\n      dup4\n        /* \"#utility.yul\":8914:8953   */\n      tag_86\n      jump\t// in\n    tag_200:\n        /* \"#utility.yul\":8902:8953   */\n      swap6\n      pop\n        /* \"#utility.yul\":8986:8990   */\n      dup1\n        /* \"#utility.yul\":8982:8991   */\n      not\n        /* \"#utility.yul\":8975:8980   */\n      dup5\n        /* \"#utility.yul\":8971:8992   */\n      and\n        /* \"#utility.yul\":8962:8992   */\n      swap4\n      pop\n        /* \"#utility.yul\":9035:9039   */\n      dup1\n        /* \"#utility.yul\":9025:9033   */\n      dup7\n        /* \"#utility.yul\":9021:9040   */\n      and\n        /* \"#utility.yul\":9014:9019   */\n      dup5\n        /* \"#utility.yul\":9011:9041   */\n      or\n        /* \"#utility.yul\":9001:9041   */\n      swap3\n      pop\n        /* \"#utility.yul\":8730:9047   */\n      pop\n      pop\n        /* \"#utility.yul\":8654:9047   */\n      swap4\n      swap3\n      pop\n      pop\n      pop\n      jump\t// out\n        /* \"#utility.yul\":9053:9113   */\n    tag_88:\n        /* \"#utility.yul\":9081:9084   */\n      0x00\n        /* \"#utility.yul\":9102:9107   */\n      dup2\n        /* \"#utility.yul\":9095:9107   */\n      swap1\n      pop\n        /* \"#utility.yul\":9053:9113   */\n      swap2\n      swap1\n      pop\n      jump\t// out\n        /* \"#utility.yul\":9119:9261   */\n    tag_89:\n        /* \"#utility.yul\":9169:9178   */\n      0x00\n        /* \"#utility.yul\":9202:9255   */\n      tag_203\n        /* \"#utility.yul\":9220:9254   */\n      tag_204\n        /* \"#utility.yul\":9229:9253   */\n      tag_205\n        /* \"#utility.yul\":9247:9252   */\n      dup5\n        /* \"#utility.yul\":9229:9253   */\n      tag_54\n      jump\t// in\n    tag_205:\n        /* \"#utility.yul\":9220:9254   */\n      tag_88\n      jump\t// in\n    tag_204:\n        /* \"#utility.yul\":9202:9255   */\n      tag_54\n      jump\t// in\n    tag_203:\n        /* \"#utility.yul\":9189:9255   */\n      swap1\n      pop\n        /* \"#utility.yul\":9119:9261   */\n      swap2\n      swap1\n      pop\n      jump\t// out\n        /* \"#utility.yul\":9267:9342   */\n    tag_90:\n        /* \"#utility.yul\":9310:9313   */\n      0x00\n        /* \"#utility.yul\":9331:9336   */\n      dup2\n        /* \"#utility.yul\":9324:9336   */\n      swap1\n      pop\n        /* \"#utility.yul\":9267:9342   */\n      swap2\n      swap1\n      pop\n      jump\t// out\n        /* \"#utility.yul\":9348:9617   */\n    tag_91:\n        /* \"#utility.yul\":9458:9497   */\n      tag_208\n        /* \"#utility.yul\":9489:9496   */\n      dup4\n        /* \"#utility.yul\":9458:9497   */\n      tag_89\n      jump\t// in\n    tag_208:\n        /* \"#utility.yul\":9519:9610   */\n      tag_209\n        /* \"#utility.yul\":9568:9609   */\n      tag_210\n        /* \"#utility.yul\":9592:9608   */\n      dup3\n        /* \"#utility.yul\":9568:9609   */\n      tag_90\n      jump\t// in\n    tag_210:\n        /* \"#utility.yul\":9560:9566   */\n      dup5\n        /* \"#utility.yul\":9553:9557   */\n      dup5\n        /* \"#utility.yul\":9547:9558   */\n      sload\n        /* \"#utility.yul\":9519:9610   */\n      tag_87\n      jump\t// in\n    tag_209:\n        /* \"#utility.yul\":9513:9517   */\n      dup3\n        /* \"#utility.yul\":9506:9611   */\n      sstore\n        /* \"#utility.yul\":9424:9617   */\n      pop\n        /* \"#utility.yul\":9348:9617   */\n      pop\n      pop\n      pop\n      jump\t// out\n        /* \"#utility.yul\":9623:9696   */\n    tag_92:\n        /* \"#utility.yul\":9668:9671   */\n      0x00\n        /* \"#utility.yul\":9689:9690   */\n      0x00\n        /* \"#utility.yul\":9682:9690   */\n      swap1\n      pop\n        /* \"#utility.yul\":9623:9696   */\n      swap1\n      jump\t// out\n        /* \"#utility.yul\":9702:9891   */\n    tag_93:\n        /* \"#utility.yul\":9779:9811   */\n      tag_213\n      tag_92\n      jump\t// in\n    tag_213:\n        /* \"#utility.yul\":9820:9885   */\n      tag_214\n        /* \"#utility.yul\":9878:9884   */\n      dup2\n        /* \"#utility.yul\":9870:9876   */\n      dup5\n        /* \"#utility.yul\":9864:9868   */\n      dup5\n        /* \"#utility.yul\":9820:9885   */\n      tag_91\n      jump\t// in\n    tag_214:\n        /* \"#utility.yul\":9755:9891   */\n      pop\n        /* \"#utility.yul\":9702:9891   */\n      pop\n      pop\n      jump\t// out\n        /* \"#utility.yul\":9897:10083   */\n    tag_94:\n        /* \"#utility.yul\":9957:10077   */\n    tag_216:\n        /* \"#utility.yul\":9974:9977   */\n      dup2\n        /* \"#utility.yul\":9967:9972   */\n      dup2\n        /* \"#utility.yul\":9964:9978   */\n      lt\n        /* \"#utility.yul\":9957:10077   */\n      iszero\n      tag_218\n      jumpi\n        /* \"#utility.yul\":10028:10067   */\n      tag_219\n        /* \"#utility.yul\":10065:10066   */\n      0x00\n        /* \"#utility.yul\":10058:10063   */\n      dup3\n        /* \"#utility.yul\":10028:10067   */\n      tag_93\n      jump\t// in\n    tag_219:\n        /* \"#utility.yul\":10001:10002   */\n      0x01\n        /* \"#utility.yul\":9994:9999   */\n      dup2\n        /* \"#utility.yul\":9990:10003   */\n      add\n        /* \"#utility.yul\":9981:10003   */\n      swap1\n      pop\n        /* \"#utility.yul\":9957:10077   */\n      jump(tag_216)\n    tag_218:\n        /* \"#utility.yul\":9897:10083   */\n      pop\n      pop\n      jump\t// out\n        /* \"#utility.yul\":10089:10632   */\n    tag_95:\n        /* \"#utility.yul\":10190:10192   */\n      0x1f\n        /* \"#utility.yul\":10185:10188   */\n      dup3\n        /* \"#utility.yul\":10182:10193   */\n      gt\n        /* \"#utility.yul\":10179:10625   */\n      iszero\n      tag_221\n      jumpi\n        /* \"#utility.yul\":10224:10262   */\n      tag_222\n        /* \"#utility.yul\":10256:10261   */\n      dup2\n        /* \"#utility.yul\":10224:10262   */\n      tag_84\n      jump\t// in\n    tag_222:\n        /* \"#utility.yul\":10308:10337   */\n      tag_223\n        /* \"#utility.yul\":10326:10336   */\n      dup5\n        /* \"#utility.yul\":10308:10337   */\n      tag_85\n      jump\t// in\n    tag_223:\n        /* \"#utility.yul\":10298:10306   */\n      dup2\n        /* \"#utility.yul\":10294:10338   */\n      add\n        /* \"#utility.yul\":10491:10493   */\n      0x20\n        /* \"#utility.yul\":10479:10489   */\n      dup6\n        /* \"#utility.yul\":10476:10494   */\n      lt\n        /* \"#utility.yul\":10473:10522   */\n      iszero\n      tag_224\n      jumpi\n        /* \"#utility.yul\":10512:10520   */\n      dup2\n        /* \"#utility.yul\":10497:10520   */\n      swap1\n      pop\n        /* \"#utility.yul\":10473:10522   */\n    tag_224:\n        /* \"#utility.yul\":10535:10615   */\n      tag_225\n        /* \"#utility.yul\":10591:10613   */\n      tag_226\n        /* \"#utility.yul\":10609:10612   */\n      dup6\n        /* \"#utility.yul\":10591:10613   */\n      tag_85\n      jump\t// in\n    tag_226:\n        /* \"#utility.yul\":10581:10589   */\n      dup4\n        /* \"#utility.yul\":10577:10614   */\n      add\n        /* \"#utility.yul\":10564:10575   */\n      dup3\n        /* \"#utility.yul\":10535:10615   */\n      tag_94\n      jump\t// in\n    tag_225:\n        /* \"#utility.yul\":10194:10625   */\n      pop\n      pop\n        /* \"#utility.yul\":10179:10625   */\n    tag_221:\n        /* \"#utility.yul\":10089:10632   */\n      pop\n      pop\n      pop\n      jump\t// out\n        /* \"#utility.yul\":10638:10755   */\n    tag_96:\n        /* \"#utility.yul\":10692:10700   */\n      0x00\n        /* \"#utility.yul\":10742:10747   */\n      dup3\n        /* \"#utility.yul\":10736:10740   */\n      dup3\n        /* \"#utility.yul\":10732:10748   */\n      shr\n        /* \"#utility.yul\":10711:10748   */\n      swap1\n      pop\n        /* \"#utility.yul\":10638:10755   */\n      swap3\n      swap2\n      pop\n      pop\n      jump\t// out\n        /* \"#utility.yul\":10761:10930   */\n    tag_97:\n        /* \"#utility.yul\":10805:10811   */\n      0x00\n        /* \"#utility.yul\":10838:10889   */\n      tag_229\n        /* \"#utility.yul\":10886:10887   */\n      0x00\n        /* \"#utility.yul\":10882:10888   */\n      not\n        /* \"#utility.yul\":10874:10879   */\n      dup5\n        /* \"#utility.yul\":10871:10872   */\n      0x08\n        /* \"#utility.yul\":10867:10880   */\n      mul\n        /* \"#utility.yul\":10838:10889   */\n      tag_96\n      jump\t// in\n    tag_229:\n        /* \"#utility.yul\":10834:10890   */\n      not\n        /* \"#utility.yul\":10919:10923   */\n      dup1\n        /* \"#utility.yul\":10913:10917   */\n      dup4\n        /* \"#utility.yul\":10909:10924   */\n      and\n        /* \"#utility.yul\":10899:10924   */\n      swap2\n      pop\n        /* \"#utility.yul\":10812:10930   */\n      pop\n        /* \"#utility.yul\":10761:10930   */\n      swap3\n      swap2\n      pop\n      pop\n      jump\t// out\n        /* \"#utility.yul\":10935:11230   */\n    tag_98:\n        /* \"#utility.yul\":11011:11015   */\n      0x00\n        /* \"#utility.yul\":11157:11186   */\n      tag_231\n        /* \"#utility.yul\":11182:11185   */\n      dup4\n        /* \"#utility.yul\":11176:11180   */\n      dup4\n        /* \"#utility.yul\":11157:11186   */\n      tag_97\n      jump\t// in\n    tag_231:\n        /* \"#utility.yul\":11149:11186   */\n      swap2\n      pop\n        /* \"#utility.yul\":11219:11222   */\n      dup3\n        /* \"#utility.yul\":11216:11217   */\n      0x02\n        /* \"#utility.yul\":11212:11223   */\n      mul\n        /* \"#utility.yul\":11206:11210   */\n      dup3\n        /* \"#utility.yul\":11203:11224   */\n      or\n        /* \"#utility.yul\":11195:11224   */\n      swap1\n      pop\n        /* \"#utility.yul\":10935:11230   */\n      swap3\n      swap2\n      pop\n      pop\n      jump\t// out\n        /* \"#utility.yul\":11235:12630   */\n    tag_53:\n        /* \"#utility.yul\":11352:11389   */\n      tag_233\n        /* \"#utility.yul\":11385:11388   */\n      dup3\n        /* \"#utility.yul\":11352:11389   */\n      tag_63\n      jump\t// in\n    tag_233:\n        /* \"#utility.yul\":11454:11472   */\n      0xffffffffffffffff\n        /* \"#utility.yul\":11446:11452   */\n      dup2\n        /* \"#utility.yul\":11443:11473   */\n      gt\n        /* \"#utility.yul\":11440:11496   */\n      iszero\n      tag_234\n      jumpi\n        /* \"#utility.yul\":11476:11494   */\n      tag_235\n      tag_72\n      jump\t// in\n    tag_235:\n        /* \"#utility.yul\":11440:11496   */\n    tag_234:\n        /* \"#utility.yul\":11520:11558   */\n      tag_236\n        /* \"#utility.yul\":11552:11556   */\n      dup3\n        /* \"#utility.yul\":11546:11557   */\n      sload\n        /* \"#utility.yul\":11520:11558   */\n      tag_43\n      jump\t// in\n    tag_236:\n        /* \"#utility.yul\":11605:11672   */\n      tag_237\n        /* \"#utility.yul\":11665:11671   */\n      dup3\n        /* \"#utility.yul\":11657:11663   */\n      dup3\n        /* \"#utility.yul\":11651:11655   */\n      dup6\n        /* \"#utility.yul\":11605:11672   */\n      tag_95\n      jump\t// in\n    tag_237:\n        /* \"#utility.yul\":11699:11700   */\n      0x00\n        /* \"#utility.yul\":11723:11727   */\n      0x20\n        /* \"#utility.yul\":11710:11727   */\n      swap1\n      pop\n        /* \"#utility.yul\":11755:11757   */\n      0x1f\n        /* \"#utility.yul\":11747:11753   */\n      dup4\n        /* \"#utility.yul\":11744:11758   */\n      gt\n        /* \"#utility.yul\":11772:11773   */\n      0x01\n        /* \"#utility.yul\":11767:12385   */\n      dup2\n      eq\n      tag_239\n      jumpi\n        /* \"#utility.yul\":12429:12430   */\n      0x00\n        /* \"#utility.yul\":12446:12452   */\n      dup5\n        /* \"#utility.yul\":12443:12520   */\n      iszero\n      tag_240\n      jumpi\n        /* \"#utility.yul\":12495:12504   */\n      dup3\n        /* \"#utility.yul\":12490:12493   */\n      dup8\n        /* \"#utility.yul\":12486:12505   */\n      add\n        /* \"#utility.yul\":12480:12506   */\n      mload\n        /* \"#utility.yul\":12471:12506   */\n      swap1\n      pop\n        /* \"#utility.yul\":12443:12520   */\n    tag_240:\n        /* \"#utility.yul\":12546:12613   */\n      tag_241\n        /* \"#utility.yul\":12606:12612   */\n      dup6\n        /* \"#utility.yul\":12599:12604   */\n      dup3\n        /* \"#utility.yul\":12546:12613   */\n      tag_98\n      jump\t// in\n    tag_241:\n        /* \"#utility.yul\":12540:12544   */\n      dup7\n        /* \"#utility.yul\":12533:12614   */\n      sstore\n        /* \"#utility.yul\":12402:12624   */\n      pop\n        /* \"#utility.yul\":11737:12624   */\n      jump(tag_238)\n        /* \"#utility.yul\":11767:12385   */\n    tag_239:\n        /* \"#utility.yul\":11819:11823   */\n      0x1f\n        /* \"#utility.yul\":11815:11824   */\n      not\n        /* \"#utility.yul\":11807:11813   */\n      dup5\n        /* \"#utility.yul\":11803:11825   */\n      and\n        /* \"#utility.yul\":11853:11890   */\n      tag_242\n        /* \"#utility.yul\":11885:11889   */\n      dup7\n        /* \"#utility.yul\":11853:11890   */\n      tag_84\n      jump\t// in\n    tag_242:\n        /* \"#utility.yul\":11912:11913   */\n      0x00\n        /* \"#utility.yul\":11926:12134   */\n    tag_243:\n        /* \"#utility.yul\":11940:11947   */\n      dup3\n        /* \"#utility.yul\":11937:11938   */\n      dup2\n        /* \"#utility.yul\":11934:11948   */\n      lt\n        /* \"#utility.yul\":11926:12134   */\n      iszero\n      tag_245\n      jumpi\n        /* \"#utility.yul\":12019:12028   */\n      dup5\n        /* \"#utility.yul\":12014:12017   */\n      dup10\n        /* \"#utility.yul\":12010:12029   */\n      add\n        /* \"#utility.yul\":12004:12030   */\n      mload\n        /* \"#utility.yul\":11996:12002   */\n      dup3\n        /* \"#utility.yul\":11989:12031   */\n      sstore\n        /* \"#utility.yul\":12070:12071   */\n      0x01\n        /* \"#utility.yul\":12062:12068   */\n      dup3\n        /* \"#utility.yul\":12058:12072   */\n      add\n        /* \"#utility.yul\":12048:12072   */\n      swap2\n      pop\n        /* \"#utility.yul\":12117:12119   */\n      0x20\n        /* \"#utility.yul\":12106:12115   */\n      dup6\n        /* \"#utility.yul\":12102:12120   */\n      add\n        /* \"#utility.yul\":12089:12120   */\n      swap5\n      pop\n        /* \"#utility.yul\":11963:11967   */\n      0x20\n        /* \"#utility.yul\":11960:11961   */\n      dup2\n        /* \"#utility.yul\":11956:11968   */\n      add\n        /* \"#utility.yul\":11951:11968   */\n      swap1\n      pop\n        /* \"#utility.yul\":11926:12134   */\n      jump(tag_243)\n    tag_245:\n        /* \"#utility.yul\":12162:12168   */\n      dup7\n        /* \"#utility.yul\":12153:12160   */\n      dup4\n        /* \"#utility.yul\":12150:12169   */\n      lt\n        /* \"#utility.yul\":12147:12326   */\n      iszero\n      tag_246\n      jumpi\n        /* \"#utility.yul\":12220:12229   */\n      dup5\n        /* \"#utility.yul\":12215:12218   */\n      dup10\n        /* \"#utility.yul\":12211:12230   */\n      add\n        /* \"#utility.yul\":12205:12231   */\n      mload\n        /* \"#utility.yul\":12263:12311   */\n      tag_247\n        /* \"#utility.yul\":12305:12309   */\n      0x1f\n        /* \"#utility.yul\":12297:12303   */\n      dup10\n        /* \"#utility.yul\":12293:12310   */\n      and\n        /* \"#utility.yul\":12282:12291   */\n      dup3\n        /* \"#utility.yul\":12263:12311   */\n      tag_97\n      jump\t// in\n    tag_247:\n        /* \"#utility.yul\":12255:12261   */\n      dup4\n        /* \"#utility.yul\":12248:12312   */\n      sstore\n        /* \"#utility.yul\":12170:12326   */\n      pop\n        /* \"#utility.yul\":12147:12326   */\n    tag_246:\n        /* \"#utility.yul\":12372:12373   */\n      0x01\n        /* \"#utility.yul\":12368:12369   */\n      0x02\n        /* \"#utility.yul\":12360:12366   */\n      dup9\n        /* \"#utility.yul\":12356:12370   */\n      mul\n        /* \"#utility.yul\":12352:12374   */\n      add\n        /* \"#utility.yul\":12346:12350   */\n      dup9\n        /* \"#utility.yul\":12339:12375   */\n      sstore\n        /* \"#utility.yul\":11774:12385   */\n      pop\n      pop\n      pop\n        /* \"#utility.yul\":11737:12624   */\n    tag_238:\n      pop\n        /* \"#utility.yul\":11327:12630   */\n      pop\n      pop\n      pop\n        /* \"#utility.yul\":11235:12630   */\n      pop\n      pop\n      jump\t// out\n\n    auxdata: 0xa2646970667358221220e7d77c175d21de5a33679522e6f05b60d5b1597dcea042428643e7b6d7f05b6564736f6c634300081c0033\n}\n",
				"bytecode": {
					"linkReferences": {},
					"object": "6080604052348015600e575f5ffd5b50610a298061001c5f395ff3fe608060405234801561000f575f5ffd5b506004361061007b575f3560e01c80636a19e6de116100595780636a19e6de146100d8578063798ebec414610108578063bfb2149814610124578063fa5f6215146101425761007b565b806312065fe01461007f57806353abee931461009d57806366e60bc5146100b9575b5f5ffd5b610087610160565b604051610094919061032b565b60405180910390f35b6100b760048036038101906100b291906103af565b61019f565b005b6100c16101e2565b6040516100cf92919061044a565b60405180910390f35b6100f260048036038101906100ed91906104a2565b610279565b6040516100ff919061032b565b60405180910390f35b610122600480360381019061011d919061060c565b61028e565b005b61012c6102ca565b6040516101399190610686565b60405180910390f35b61014a6102ee565b60405161015791906106ae565b60405180910390f35b5f60015f9054906101000a900473ffffffffffffffffffffffffffffffffffffffff1673ffffffffffffffffffffffffffffffffffffffff1631905090565b8060015f6101000a81548173ffffffffffffffffffffffffffffffffffffffff021916908373ffffffffffffffffffffffffffffffffffffffff16021790555050565b6002805f0154908060010180546101f8906106f4565b80601f0160208091040260200160405190810160405280929190818152602001828054610224906106f4565b801561026f5780601f106102465761010080835404028352916020019161026f565b820191905f5260205f20905b81548152906001019060200180831161025257829003601f168201915b5050505050905082565b5f81836102869190610751565b905092915050565b60405180604001604052808381526020018281525060025f820151815f015560208201518160010190816102c29190610924565b509050505050565b5f5f9054906101000a900473ffffffffffffffffffffffffffffffffffffffff1681565b60015f9054906101000a900473ffffffffffffffffffffffffffffffffffffffff1681565b5f819050919050565b61032581610313565b82525050565b5f60208201905061033e5f83018461031c565b92915050565b5f604051905090565b5f5ffd5b5f5ffd5b5f73ffffffffffffffffffffffffffffffffffffffff82169050919050565b5f61037e82610355565b9050919050565b61038e81610374565b8114610398575f5ffd5b50565b5f813590506103a981610385565b92915050565b5f602082840312156103c4576103c361034d565b5b5f6103d18482850161039b565b91505092915050565b5f81519050919050565b5f82825260208201905092915050565b8281835e5f83830152505050565b5f601f19601f8301169050919050565b5f61041c826103da565b61042681856103e4565b93506104368185602086016103f4565b61043f81610402565b840191505092915050565b5f60408201905061045d5f83018561031c565b818103602083015261046f8184610412565b90509392505050565b61048181610313565b811461048b575f5ffd5b50565b5f8135905061049c81610478565b92915050565b5f5f604083850312156104b8576104b761034d565b5b5f6104c58582860161048e565b92505060206104d68582860161048e565b9150509250929050565b5f5ffd5b5f5ffd5b7f4e487b71000000000000000000000000000000000000000000000000000000005f52604160045260245ffd5b61051e82610402565b810181811067ffffffffffffffff8211171561053d5761053c6104e8565b5b80604052505050565b5f61054f610344565b905061055b8282610515565b919050565b5f67ffffffffffffffff82111561057a576105796104e8565b5b61058382610402565b9050602081019050919050565b828183375f83830152505050565b5f6105b06105ab84610560565b610546565b9050828152602081018484840111156105cc576105cb6104e4565b5b6105d7848285610590565b509392505050565b5f82601f8301126105f3576105f26104e0565b5b813561060384826020860161059e565b91505092915050565b5f5f604083850312156106225761062161034d565b5b5f61062f8582860161048e565b925050602083013567ffffffffffffffff8111156106505761064f610351565b5b61065c858286016105df565b9150509250929050565b5f61067082610355565b9050919050565b61068081610666565b82525050565b5f6020820190506106995f830184610677565b92915050565b6106a881610374565b82525050565b5f6020820190506106c15f83018461069f565b92915050565b7f4e487b71000000000000000000000000000000000000000000000000000000005f52602260045260245ffd5b5f600282049050600182168061070b57607f821691505b60208210810361071e5761071d6106c7565b5b50919050565b7f4e487b71000000000000000000000000000000000000000000000000000000005f52601160045260245ffd5b5f61075b82610313565b915061076683610313565b925082820190508082111561077e5761077d610724565b5b92915050565b5f819050815f5260205f209050919050565b5f6020601f8301049050919050565b5f82821b905092915050565b5f600883026107e07fffffffffffffffffffffffffffffffffffffffffffffffffffffffffffffffff826107a5565b6107ea86836107a5565b95508019841693508086168417925050509392505050565b5f819050919050565b5f61082561082061081b84610313565b610802565b610313565b9050919050565b5f819050919050565b61083e8361080b565b61085261084a8261082c565b8484546107b1565b825550505050565b5f5f905090565b61086961085a565b610874818484610835565b505050565b5b818110156108975761088c5f82610861565b60018101905061087a565b5050565b601f8211156108dc576108ad81610784565b6108b684610796565b810160208510156108c5578190505b6108d96108d185610796565b830182610879565b50505b505050565b5f82821c905092915050565b5f6108fc5f19846008026108e1565b1980831691505092915050565b5f61091483836108ed565b9150826002028217905092915050565b61092d826103da565b67ffffffffffffffff811115610946576109456104e8565b5b61095082546106f4565b61095b82828561089b565b5f60209050601f83116001811461098c575f841561097a578287015190505b6109848582610909565b8655506109eb565b601f19841661099a86610784565b5f5b828110156109c15784890151825560018201915060208501945060208101905061099c565b868310156109de57848901516109da601f8916826108ed565b8355505b6001600288020188555050505b50505050505056fea2646970667358221220e7d77c175d21de5a33679522e6f05b60d5b1597dcea042428643e7b6d7f05b6564736f6c634300081c0033",
					"opcodes": "PUSH1 0x80 PUSH1 0x40 MSTORE CALLVALUE DUP1 ISZERO PUSH1 0xE JUMPI PUSH0 PUSH0 REVERT JUMPDEST POP PUSH2 0xA29 DUP1 PUSH2 0x1C PUSH0 CODECOPY PUSH0 RETURN INVALID PUSH1 0x80 PUSH1 0x40 MSTORE CALLVALUE DUP1 ISZERO PUSH2 0xF JUMPI PUSH0 PUSH0 REVERT JUMPDEST POP PUSH1 0x4 CALLDATASIZE LT PUSH2 0x7B JUMPI PUSH0 CALLDATALOAD PUSH1 0xE0 SHR DUP1 PUSH4 0x6A19E6DE GT PUSH2 0x59 JUMPI DUP1 PUSH4 0x6A19E6DE EQ PUSH2 0xD8 JUMPI DUP1 PUSH4 0x798EBEC4 EQ PUSH2 0x108 JUMPI DUP1 PUSH4 0xBFB21498 EQ PUSH2 0x124 JUMPI DUP1 PUSH4 0xFA5F6215 EQ PUSH2 0x142 JUMPI PUSH2 0x7B JUMP JUMPDEST DUP1 PUSH4 0x12065FE0 EQ PUSH2 0x7F JUMPI DUP1 PUSH4 0x53ABEE93 EQ PUSH2 0x9D JUMPI DUP1 PUSH4 0x66E60BC5 EQ PUSH2 0xB9 JUMPI JUMPDEST PUSH0 PUSH0 REVERT JUMPDEST PUSH2 0x87 PUSH2 0x160 JUMP JUMPDEST PUSH1 0x40 MLOAD PUSH2 0x94 SWAP2 SWAP1 PUSH2 0x32B JUMP JUMPDEST PUSH1 0x40 MLOAD DUP1 SWAP2 SUB SWAP1 RETURN JUMPDEST PUSH2 0xB7 PUSH1 0x4 DUP1 CALLDATASIZE SUB DUP2 ADD SWAP1 PUSH2 0xB2 SWAP2 SWAP1 PUSH2 0x3AF JUMP JUMPDEST PUSH2 0x19F JUMP JUMPDEST STOP JUMPDEST PUSH2 0xC1 PUSH2 0x1E2 JUMP JUMPDEST PUSH1 0x40 MLOAD PUSH2 0xCF SWAP3 SWAP2 SWAP1 PUSH2 0x44A JUMP JUMPDEST PUSH1 0x40 MLOAD DUP1 SWAP2 SUB SWAP1 RETURN JUMPDEST PUSH2 0xF2 PUSH1 0x4 DUP1 CALLDATASIZE SUB DUP2 ADD SWAP1 PUSH2 0xED SWAP2 SWAP1 PUSH2 0x4A2 JUMP JUMPDEST PUSH2 0x279 JUMP JUMPDEST PUSH1 0x40 MLOAD PUSH2 0xFF SWAP2 SWAP1 PUSH2 0x32B JUMP JUMPDEST PUSH1 0x40 MLOAD DUP1 SWAP2 SUB SWAP1 RETURN JUMPDEST PUSH2 0x122 PUSH1 0x4 DUP1 CALLDATASIZE SUB DUP2 ADD SWAP1 PUSH2 0x11D SWAP2 SWAP1 PUSH2 0x60C JUMP JUMPDEST PUSH2 0x28E JUMP JUMPDEST STOP JUMPDEST PUSH2 0x12C PUSH2 0x2CA JUMP JUMPDEST PUSH1 0x40 MLOAD PUSH2 0x139 SWAP2 SWAP1 PUSH2 0x686 JUMP JUMPDEST PUSH1 0x40 MLOAD DUP1 SWAP2 SUB SWAP1 RETURN JUMPDEST PUSH2 0x14A PUSH2 0x2EE JUMP JUMPDEST PUSH1 0x40 MLOAD PUSH2 0x157 SWAP2 SWAP1 PUSH2 0x6AE JUMP JUMPDEST PUSH1 0x40 MLOAD DUP1 SWAP2 SUB SWAP1 RETURN JUMPDEST PUSH0 PUSH1 0x1 PUSH0 SWAP1 SLOAD SWAP1 PUSH2 0x100 EXP SWAP1 DIV PUSH20 0xFFFFFFFFFFFFFFFFFFFFFFFFFFFFFFFFFFFFFFFF AND PUSH20 0xFFFFFFFFFFFFFFFFFFFFFFFFFFFFFFFFFFFFFFFF AND BALANCE SWAP1 POP SWAP1 JUMP JUMPDEST DUP1 PUSH1 0x1 PUSH0 PUSH2 0x100 EXP DUP2 SLOAD DUP2 PUSH20 0xFFFFFFFFFFFFFFFFFFFFFFFFFFFFFFFFFFFFFFFF MUL NOT AND SWAP1 DUP4 PUSH20 0xFFFFFFFFFFFFFFFFFFFFFFFFFFFFFFFFFFFFFFFF AND MUL OR SWAP1 SSTORE POP POP JUMP JUMPDEST PUSH1 0x2 DUP1 PUSH0 ADD SLOAD SWAP1 DUP1 PUSH1 0x1 ADD DUP1 SLOAD PUSH2 0x1F8 SWAP1 PUSH2 0x6F4 JUMP JUMPDEST DUP1 PUSH1 0x1F ADD PUSH1 0x20 DUP1 SWAP2 DIV MUL PUSH1 0x20 ADD PUSH1 0x40 MLOAD SWAP1 DUP2 ADD PUSH1 0x40 MSTORE DUP1 SWAP3 SWAP2 SWAP1 DUP2 DUP2 MSTORE PUSH1 0x20 ADD DUP3 DUP1 SLOAD PUSH2 0x224 SWAP1 PUSH2 0x6F4 JUMP JUMPDEST DUP1 ISZERO PUSH2 0x26F JUMPI DUP1 PUSH1 0x1F LT PUSH2 0x246 JUMPI PUSH2 0x100 DUP1 DUP4 SLOAD DIV MUL DUP4 MSTORE SWAP2 PUSH1 0x20 ADD SWAP2 PUSH2 0x26F JUMP JUMPDEST DUP3 ADD SWAP2 SWAP1 PUSH0 MSTORE PUSH1 0x20 PUSH0 KECCAK256 SWAP1 JUMPDEST DUP2 SLOAD DUP2 MSTORE SWAP1 PUSH1 0x1 ADD SWAP1 PUSH1 0x20 ADD DUP1 DUP4 GT PUSH2 0x252 JUMPI DUP3 SWAP1 SUB PUSH1 0x1F AND DUP3 ADD SWAP2 JUMPDEST POP POP POP POP POP SWAP1 POP DUP3 JUMP JUMPDEST PUSH0 DUP2 DUP4 PUSH2 0x286 SWAP2 SWAP1 PUSH2 0x751 JUMP JUMPDEST SWAP1 POP SWAP3 SWAP2 POP POP JUMP JUMPDEST PUSH1 0x40 MLOAD DUP1 PUSH1 0x40 ADD PUSH1 0x40 MSTORE DUP1 DUP4 DUP2 MSTORE PUSH1 0x20 ADD DUP3 DUP2 MSTORE POP PUSH1 0x2 PUSH0 DUP3 ADD MLOAD DUP2 PUSH0 ADD SSTORE PUSH1 0x20 DUP3 ADD MLOAD DUP2 PUSH1 0x1 ADD SWAP1 DUP2 PUSH2 0x2C2 SWAP2 SWAP1 PUSH2 0x924 JUMP JUMPDEST POP SWAP1 POP POP POP POP JUMP JUMPDEST PUSH0 PUSH0 SWAP1 SLOAD SWAP1 PUSH2 0x100 EXP SWAP1 DIV PUSH20 0xFFFFFFFFFFFFFFFFFFFFFFFFFFFFFFFFFFFFFFFF AND DUP2 JUMP JUMPDEST PUSH1 0x1 PUSH0 SWAP1 SLOAD SWAP1 PUSH2 0x100 EXP SWAP1 DIV PUSH20 0xFFFFFFFFFFFFFFFFFFFFFFFFFFFFFFFFFFFFFFFF AND DUP2 JUMP JUMPDEST PUSH0 DUP2 SWAP1 POP SWAP2 SWAP1 POP JUMP JUMPDEST PUSH2 0x325 DUP2 PUSH2 0x313 JUMP JUMPDEST DUP3 MSTORE POP POP JUMP JUMPDEST PUSH0 PUSH1 0x20 DUP3 ADD SWAP1 POP PUSH2 0x33E PUSH0 DUP4 ADD DUP5 PUSH2 0x31C JUMP JUMPDEST SWAP3 SWAP2 POP POP JUMP JUMPDEST PUSH0 PUSH1 0x40 MLOAD SWAP1 POP SWAP1 JUMP JUMPDEST PUSH0 PUSH0 REVERT JUMPDEST PUSH0 PUSH0 REVERT JUMPDEST PUSH0 PUSH20 0xFFFFFFFFFFFFFFFFFFFFFFFFFFFFFFFFFFFFFFFF DUP3 AND SWAP1 POP SWAP2 SWAP1 POP JUMP JUMPDEST PUSH0 PUSH2 0x37E DUP3 PUSH2 0x355 JUMP JUMPDEST SWAP1 POP SWAP2 SWAP1 POP JUMP JUMPDEST PUSH2 0x38E DUP2 PUSH2 0x374 JUMP JUMPDEST DUP2 EQ PUSH2 0x398 JUMPI PUSH0 PUSH0 REVERT JUMPDEST POP JUMP JUMPDEST PUSH0 DUP2 CALLDATALOAD SWAP1 POP PUSH2 0x3A9 DUP2 PUSH2 0x385 JUMP JUMPDEST SWAP3 SWAP2 POP POP JUMP JUMPDEST PUSH0 PUSH1 0x20 DUP3 DUP5 SUB SLT ISZERO PUSH2 0x3C4 JUMPI PUSH2 0x3C3 PUSH2 0x34D JUMP JUMPDEST JUMPDEST PUSH0 PUSH2 0x3D1 DUP5 DUP3 DUP6 ADD PUSH2 0x39B JUMP JUMPDEST SWAP2 POP POP SWAP3 SWAP2 POP POP JUMP JUMPDEST PUSH0 DUP2 MLOAD SWAP1 POP SWAP2 SWAP1 POP JUMP JUMPDEST PUSH0 DUP3 DUP3 MSTORE PUSH1 0x20 DUP3 ADD SWAP1 POP SWAP3 SWAP2 POP POP JUMP JUMPDEST DUP3 DUP2 DUP4 MCOPY PUSH0 DUP4 DUP4 ADD MSTORE POP POP POP JUMP JUMPDEST PUSH0 PUSH1 0x1F NOT PUSH1 0x1F DUP4 ADD AND SWAP1 POP SWAP2 SWAP1 POP JUMP JUMPDEST PUSH0 PUSH2 0x41C DUP3 PUSH2 0x3DA JUMP JUMPDEST PUSH2 0x426 DUP2 DUP6 PUSH2 0x3E4 JUMP JUMPDEST SWAP4 POP PUSH2 0x436 DUP2 DUP6 PUSH1 0x20 DUP7 ADD PUSH2 0x3F4 JUMP JUMPDEST PUSH2 0x43F DUP2 PUSH2 0x402 JUMP JUMPDEST DUP5 ADD SWAP2 POP POP SWAP3 SWAP2 POP POP JUMP JUMPDEST PUSH0 PUSH1 0x40 DUP3 ADD SWAP1 POP PUSH2 0x45D PUSH0 DUP4 ADD DUP6 PUSH2 0x31C JUMP JUMPDEST DUP2 DUP2 SUB PUSH1 0x20 DUP4 ADD MSTORE PUSH2 0x46F DUP2 DUP5 PUSH2 0x412 JUMP JUMPDEST SWAP1 POP SWAP4 SWAP3 POP POP POP JUMP JUMPDEST PUSH2 0x481 DUP2 PUSH2 0x313 JUMP JUMPDEST DUP2 EQ PUSH2 0x48B JUMPI PUSH0 PUSH0 REVERT JUMPDEST POP JUMP JUMPDEST PUSH0 DUP2 CALLDATALOAD SWAP1 POP PUSH2 0x49C DUP2 PUSH2 0x478 JUMP JUMPDEST SWAP3 SWAP2 POP POP JUMP JUMPDEST PUSH0 PUSH0 PUSH1 0x40 DUP4 DUP6 SUB SLT ISZERO PUSH2 0x4B8 JUMPI PUSH2 0x4B7 PUSH2 0x34D JUMP JUMPDEST JUMPDEST PUSH0 PUSH2 0x4C5 DUP6 DUP3 DUP7 ADD PUSH2 0x48E JUMP JUMPDEST SWAP3 POP POP PUSH1 0x20 PUSH2 0x4D6 DUP6 DUP3 DUP7 ADD PUSH2 0x48E JUMP JUMPDEST SWAP2 POP POP SWAP3 POP SWAP3 SWAP1 POP JUMP JUMPDEST PUSH0 PUSH0 REVERT JUMPDEST PUSH0 PUSH0 REVERT JUMPDEST PUSH32 0x4E487B7100000000000000000000000000000000000000000000000000000000 PUSH0 MSTORE PUSH1 0x41 PUSH1 0x4 MSTORE PUSH1 0x24 PUSH0 REVERT JUMPDEST PUSH2 0x51E DUP3 PUSH2 0x402 JUMP JUMPDEST DUP2 ADD DUP2 DUP2 LT PUSH8 0xFFFFFFFFFFFFFFFF DUP3 GT OR ISZERO PUSH2 0x53D JUMPI PUSH2 0x53C PUSH2 0x4E8 JUMP JUMPDEST JUMPDEST DUP1 PUSH1 0x40 MSTORE POP POP POP JUMP JUMPDEST PUSH0 PUSH2 0x54F PUSH2 0x344 JUMP JUMPDEST SWAP1 POP PUSH2 0x55B DUP3 DUP3 PUSH2 0x515 JUMP JUMPDEST SWAP2 SWAP1 POP JUMP JUMPDEST PUSH0 PUSH8 0xFFFFFFFFFFFFFFFF DUP3 GT ISZERO PUSH2 0x57A JUMPI PUSH2 0x579 PUSH2 0x4E8 JUMP JUMPDEST JUMPDEST PUSH2 0x583 DUP3 PUSH2 0x402 JUMP JUMPDEST SWAP1 POP PUSH1 0x20 DUP2 ADD SWAP1 POP SWAP2 SWAP1 POP JUMP JUMPDEST DUP3 DUP2 DUP4 CALLDATACOPY PUSH0 DUP4 DUP4 ADD MSTORE POP POP POP JUMP JUMPDEST PUSH0 PUSH2 0x5B0 PUSH2 0x5AB DUP5 PUSH2 0x560 JUMP JUMPDEST PUSH2 0x546 JUMP JUMPDEST SWAP1 POP DUP3 DUP2 MSTORE PUSH1 0x20 DUP2 ADD DUP5 DUP5 DUP5 ADD GT ISZERO PUSH2 0x5CC JUMPI PUSH2 0x5CB PUSH2 0x4E4 JUMP JUMPDEST JUMPDEST PUSH2 0x5D7 DUP5 DUP3 DUP6 PUSH2 0x590 JUMP JUMPDEST POP SWAP4 SWAP3 POP POP POP JUMP JUMPDEST PUSH0 DUP3 PUSH1 0x1F DUP4 ADD SLT PUSH2 0x5F3 JUMPI PUSH2 0x5F2 PUSH2 0x4E0 JUMP JUMPDEST JUMPDEST DUP2 CALLDATALOAD PUSH2 0x603 DUP5 DUP3 PUSH1 0x20 DUP7 ADD PUSH2 0x59E JUMP JUMPDEST SWAP2 POP POP SWAP3 SWAP2 POP POP JUMP JUMPDEST PUSH0 PUSH0 PUSH1 0x40 DUP4 DUP6 SUB SLT ISZERO PUSH2 0x622 JUMPI PUSH2 0x621 PUSH2 0x34D JUMP JUMPDEST JUMPDEST PUSH0 PUSH2 0x62F DUP6 DUP3 DUP7 ADD PUSH2 0x48E JUMP JUMPDEST SWAP3 POP POP PUSH1 0x20 DUP4 ADD CALLDATALOAD PUSH8 0xFFFFFFFFFFFFFFFF DUP2 GT ISZERO PUSH2 0x650 JUMPI PUSH2 0x64F PUSH2 0x351 JUMP JUMPDEST JUMPDEST PUSH2 0x65C DUP6 DUP3 DUP7 ADD PUSH2 0x5DF JUMP JUMPDEST SWAP2 POP POP SWAP3 POP SWAP3 SWAP1 POP JUMP JUMPDEST PUSH0 PUSH2 0x670 DUP3 PUSH2 0x355 JUMP JUMPDEST SWAP1 POP SWAP2 SWAP1 POP JUMP JUMPDEST PUSH2 0x680 DUP2 PUSH2 0x666 JUMP JUMPDEST DUP3 MSTORE POP POP JUMP JUMPDEST PUSH0 PUSH1 0x20 DUP3 ADD SWAP1 POP PUSH2 0x699 PUSH0 DUP4 ADD DUP5 PUSH2 0x677 JUMP JUMPDEST SWAP3 SWAP2 POP POP JUMP JUMPDEST PUSH2 0x6A8 DUP2 PUSH2 0x374 JUMP JUMPDEST DUP3 MSTORE POP POP JUMP JUMPDEST PUSH0 PUSH1 0x20 DUP3 ADD SWAP1 POP PUSH2 0x6C1 PUSH0 DUP4 ADD DUP5 PUSH2 0x69F JUMP JUMPDEST SWAP3 SWAP2 POP POP JUMP JUMPDEST PUSH32 0x4E487B7100000000000000000000000000000000000000000000000000000000 PUSH0 MSTORE PUSH1 0x22 PUSH1 0x4 MSTORE PUSH1 0x24 PUSH0 REVERT JUMPDEST PUSH0 PUSH1 0x2 DUP3 DIV SWAP1 POP PUSH1 0x1 DUP3 AND DUP1 PUSH2 0x70B JUMPI PUSH1 0x7F DUP3 AND SWAP2 POP JUMPDEST PUSH1 0x20 DUP3 LT DUP2 SUB PUSH2 0x71E JUMPI PUSH2 0x71D PUSH2 0x6C7 JUMP JUMPDEST JUMPDEST POP SWAP2 SWAP1 POP JUMP JUMPDEST PUSH32 0x4E487B7100000000000000000000000000000000000000000000000000000000 PUSH0 MSTORE PUSH1 0x11 PUSH1 0x4 MSTORE PUSH1 0x24 PUSH0 REVERT JUMPDEST PUSH0 PUSH2 0x75B DUP3 PUSH2 0x313 JUMP JUMPDEST SWAP2 POP PUSH2 0x766 DUP4 PUSH2 0x313 JUMP JUMPDEST SWAP3 POP DUP3 DUP3 ADD SWAP1 POP DUP1 DUP3 GT ISZERO PUSH2 0x77E JUMPI PUSH2 0x77D PUSH2 0x724 JUMP JUMPDEST JUMPDEST SWAP3 SWAP2 POP POP JUMP JUMPDEST PUSH0 DUP2 SWAP1 POP DUP2 PUSH0 MSTORE PUSH1 0x20 PUSH0 KECCAK256 SWAP1 POP SWAP2 SWAP1 POP JUMP JUMPDEST PUSH0 PUSH1 0x20 PUSH1 0x1F DUP4 ADD DIV SWAP1 POP SWAP2 SWAP1 POP JUMP JUMPDEST PUSH0 DUP3 DUP3 SHL SWAP1 POP SWAP3 SWAP2 POP POP JUMP JUMPDEST PUSH0 PUSH1 0x8 DUP4 MUL PUSH2 0x7E0 PUSH32 0xFFFFFFFFFFFFFFFFFFFFFFFFFFFFFFFFFFFFFFFFFFFFFFFFFFFFFFFFFFFFFFFF DUP3 PUSH2 0x7A5 JUMP JUMPDEST PUSH2 0x7EA DUP7 DUP4 PUSH2 0x7A5 JUMP JUMPDEST SWAP6 POP DUP1 NOT DUP5 AND SWAP4 POP DUP1 DUP7 AND DUP5 OR SWAP3 POP POP POP SWAP4 SWAP3 POP POP POP JUMP JUMPDEST PUSH0 DUP2 SWAP1 POP SWAP2 SWAP1 POP JUMP JUMPDEST PUSH0 PUSH2 0x825 PUSH2 0x820 PUSH2 0x81B DUP5 PUSH2 0x313 JUMP JUMPDEST PUSH2 0x802 JUMP JUMPDEST PUSH2 0x313 JUMP JUMPDEST SWAP1 POP SWAP2 SWAP1 POP JUMP JUMPDEST PUSH0 DUP2 SWAP1 POP SWAP2 SWAP1 POP JUMP JUMPDEST PUSH2 0x83E DUP4 PUSH2 0x80B JUMP JUMPDEST PUSH2 0x852 PUSH2 0x84A DUP3 PUSH2 0x82C JUMP JUMPDEST DUP5 DUP5 SLOAD PUSH2 0x7B1 JUMP JUMPDEST DUP3 SSTORE POP POP POP POP JUMP JUMPDEST PUSH0 PUSH0 SWAP1 POP SWAP1 JUMP JUMPDEST PUSH2 0x869 PUSH2 0x85A JUMP JUMPDEST PUSH2 0x874 DUP2 DUP5 DUP5 PUSH2 0x835 JUMP JUMPDEST POP POP POP JUMP JUMPDEST JUMPDEST DUP2 DUP2 LT ISZERO PUSH2 0x897 JUMPI PUSH2 0x88C PUSH0 DUP3 PUSH2 0x861 JUMP JUMPDEST PUSH1 0x1 DUP2 ADD SWAP1 POP PUSH2 0x87A JUMP JUMPDEST POP POP JUMP JUMPDEST PUSH1 0x1F DUP3 GT ISZERO PUSH2 0x8DC JUMPI PUSH2 0x8AD DUP2 PUSH2 0x784 JUMP JUMPDEST PUSH2 0x8B6 DUP5 PUSH2 0x796 JUMP JUMPDEST DUP2 ADD PUSH1 0x20 DUP6 LT ISZERO PUSH2 0x8C5 JUMPI DUP2 SWAP1 POP JUMPDEST PUSH2 0x8D9 PUSH2 0x8D1 DUP6 PUSH2 0x796 JUMP JUMPDEST DUP4 ADD DUP3 PUSH2 0x879 JUMP JUMPDEST POP POP JUMPDEST POP POP POP JUMP JUMPDEST PUSH0 DUP3 DUP3 SHR SWAP1 POP SWAP3 SWAP2 POP POP JUMP JUMPDEST PUSH0 PUSH2 0x8FC PUSH0 NOT DUP5 PUSH1 0x8 MUL PUSH2 0x8E1 JUMP JUMPDEST NOT DUP1 DUP4 AND SWAP2 POP POP SWAP3 SWAP2 POP POP JUMP JUMPDEST PUSH0 PUSH2 0x914 DUP4 DUP4 PUSH2 0x8ED JUMP JUMPDEST SWAP2 POP DUP3 PUSH1 0x2 MUL DUP3 OR SWAP1 POP SWAP3 SWAP2 POP POP JUMP JUMPDEST PUSH2 0x92D DUP3 PUSH2 0x3DA JUMP JUMPDEST PUSH8 0xFFFFFFFFFFFFFFFF DUP2 GT ISZERO PUSH2 0x946 JUMPI PUSH2 0x945 PUSH2 0x4E8 JUMP JUMPDEST JUMPDEST PUSH2 0x950 DUP3 SLOAD PUSH2 0x6F4 JUMP JUMPDEST PUSH2 0x95B DUP3 DUP3 DUP6 PUSH2 0x89B JUMP JUMPDEST PUSH0 PUSH1 0x20 SWAP1 POP PUSH1 0x1F DUP4 GT PUSH1 0x1 DUP2 EQ PUSH2 0x98C JUMPI PUSH0 DUP5 ISZERO PUSH2 0x97A JUMPI DUP3 DUP8 ADD MLOAD SWAP1 POP JUMPDEST PUSH2 0x984 DUP6 DUP3 PUSH2 0x909 JUMP JUMPDEST DUP7 SSTORE POP PUSH2 0x9EB JUMP JUMPDEST PUSH1 0x1F NOT DUP5 AND PUSH2 0x99A DUP7 PUSH2 0x784 JUMP JUMPDEST PUSH0 JUMPDEST DUP3 DUP2 LT ISZERO PUSH2 0x9C1 JUMPI DUP5 DUP10 ADD MLOAD DUP3 SSTORE PUSH1 0x1 DUP3 ADD SWAP2 POP PUSH1 0x20 DUP6 ADD SWAP5 POP PUSH1 0x20 DUP2 ADD SWAP1 POP PUSH2 0x99C JUMP JUMPDEST DUP7 DUP4 LT ISZERO PUSH2 0x9DE JUMPI DUP5 DUP10 ADD MLOAD PUSH2 0x9DA PUSH1 0x1F DUP10 AND DUP3 PUSH2 0x8ED JUMP JUMPDEST DUP4 SSTORE POP JUMPDEST PUSH1 0x1 PUSH1 0x2 DUP9 MUL ADD DUP9 SSTORE POP POP POP JUMPDEST POP POP POP POP POP POP JUMP INVALID LOG2 PUSH5 0x6970667358 0x22 SLT KECCAK256 0xE7 0xD7 PUSH29 0x175D21DE5A33679522E6F05B60D5B1597DCEA042428643E7B6D7F05B65 PUSH5 0x736F6C6343 STOP ADDMOD SHR STOP CALLER "
				},
				"gasEstimates": {
					"creation": {
						"codeDepositCost": "520200",
						"executionCost": "554",
						"totalCost": "520754"
					},
					"external": {
						"SetMetamaskAddress(address)": "24738",
						"_myAddress()": "2551",
						"_myMetamaskWallet()": "2574",
						"getBalance()": "5074",
						"getValue(uint256,uint256)": "infinite",
						"james()": "infinite",
						"setPerson(uint256,string)": "infinite"
					}
				},
				"methodIdentifiers": {
					"SetMetamaskAddress(address)": "53abee93",
					"_myAddress()": "bfb21498",
					"_myMetamaskWallet()": "fa5f6215",
					"getBalance()": "12065fe0",
					"getValue(uint256,uint256)": "6a19e6de",
					"james()": "66e60bc5",
					"setPerson(uint256,string)": "798ebec4"
				}
			},
			"storageLayout": {
				"storage": [
					{
						"astId": 3,
						"contract": "contracts/4_Address.sol:Address",
						"label": "_myAddress",
						"offset": 0,
						"slot": "0",
						"type": "t_address"
					},
					{
						"astId": 5,
						"contract": "contracts/4_Address.sol:Address",
						"label": "_myMetamaskWallet",
						"offset": 0,
						"slot": "1",
						"type": "t_address_payable"
					},
					{
						"astId": 13,
						"contract": "contracts/4_Address.sol:Address",
						"label": "james",
						"offset": 0,
						"slot": "2",
						"type": "t_struct(Person)10_storage"
					}
				],
				"types": {
					"t_address": {
						"encoding": "inplace",
						"label": "address",
						"numberOfBytes": "20"
					},
					"t_address_payable": {
						"encoding": "inplace",
						"label": "address payable",
						"numberOfBytes": "20"
					},
					"t_string_storage": {
						"encoding": "bytes",
						"label": "string",
						"numberOfBytes": "32"
					},
					"t_struct(Person)10_storage": {
						"encoding": "inplace",
						"label": "struct Address.Person",
						"members": [
							{
								"astId": 7,
								"contract": "contracts/4_Address.sol:Address",
								"label": "age",
								"offset": 0,
								"slot": "0",
								"type": "t_uint256"
							},
							{
								"astId": 9,
								"contract": "contracts/4_Address.sol:Address",
								"label": "name",
								"offset": 0,
								"slot": "1",
								"type": "t_string_storage"
							}
						],
						"numberOfBytes": "64"
					},
					"t_uint256": {
						"encoding": "inplace",
						"label": "uint256",
						"numberOfBytes": "32"
					}
				}
			},
			"userdoc": {
				"kind": "user",
				"methods": {},
				"version": 1
			}
		}
	}
}