{
	"contracts/7_IfElse.sol": {
		"IfElse": {
			"abi": [
				{
					"inputs": [
						{
							"internalType": "uint256",
							"name": "_num1",
							"type": "uint256"
						},
						{
							"internalType": "uint256",
							"name": "_num2",
							"type": "uint256"
						}
					],
					"name": "checkOverFlow",
					"outputs": [],
					"stateMutability": "nonpayable",
					"type": "function"
				},
				{
					"inputs": [
						{
							"internalType": "uint256",
							"name": "",
							"type": "uint256"
						}
					],
					"name": "data",
					"outputs": [
						{
							"internalType": "uint256",
							"name": "",
							"type": "uint256"
						}
					],
					"stateMutability": "view",
					"type": "function"
				},
				{
					"inputs": [
						{
							"internalType": "uint256",
							"name": "_num",
							"type": "uint256"
						}
					],
					"name": "get",
					"outputs": [
						{
							"internalType": "string",
							"name": "",
							"type": "string"
						}
					],
					"stateMutability": "nonpayable",
					"type": "function"
				},
				{
					"inputs": [],
					"name": "myNum",
					"outputs": [
						{
							"internalType": "uint256",
							"name": "",
							"type": "uint256"
						}
					],
					"stateMutability": "view",
					"type": "function"
				},
				{
					"inputs": [],
					"name": "myString",
					"outputs": [
						{
							"internalType": "string",
							"name": "",
							"type": "string"
						}
					],
					"stateMutability": "view",
					"type": "function"
				},
				{
					"inputs": [],
					"name": "nftCollection",
					"outputs": [
						{
							"internalType": "uint256",
							"name": "",
							"type": "uint256"
						}
					],
					"stateMutability": "view",
					"type": "function"
				},
				{
					"inputs": [],
					"name": "result",
					"outputs": [
						{
							"internalType": "bool",
							"name": "",
							"type": "bool"
						}
					],
					"stateMutability": "view",
					"type": "function"
				},
				{
					"inputs": [],
					"name": "whileLoop",
					"outputs": [
						{
							"internalType": "uint256[]",
							"name": "",
							"type": "uint256[]"
						}
					],
					"stateMutability": "nonpayable",
					"type": "function"
				}
			],
			"devdoc": {
				"kind": "dev",
				"methods": {},
				"version": 1
			},
			"evm": {
				"assembly": "    /* \"contracts/7_IfElse.sol\":58:752  contract IfElse{... */\n  mstore(0x40, 0x80)\n    /* \"contracts/7_IfElse.sol\":100:101  5 */\n  0x05\n    /* \"contracts/7_IfElse.sol\":79:101  uint256 public myNum=5 */\n  0x00\n  sstore\n    /* \"contracts/7_IfElse.sol\":136:137  0 */\n  0x00\n    /* \"contracts/7_IfElse.sol\":107:137  uint256 public nftCollection=0 */\n  0x01\n  sstore\n    /* \"contracts/7_IfElse.sol\":58:752  contract IfElse{... */\n  callvalue\n  dup1\n  iszero\n  tag_1\n  jumpi\n  revert(0x00, 0x00)\ntag_1:\n  pop\n  dataSize(sub_0)\n  dup1\n  dataOffset(sub_0)\n  0x00\n  codecopy\n  0x00\n  return\nstop\n\nsub_0: assembly {\n        /* \"contracts/7_IfElse.sol\":58:752  contract IfElse{... */\n      mstore(0x40, 0x80)\n      callvalue\n      dup1\n      iszero\n      tag_1\n      jumpi\n      revert(0x00, 0x00)\n    tag_1:\n      pop\n      jumpi(tag_2, lt(calldatasize, 0x04))\n      shr(0xe0, calldataload(0x00))\n      dup1\n      0x9507d39a\n      gt\n      tag_11\n      jumpi\n      dup1\n      0x9507d39a\n      eq\n      tag_7\n      jumpi\n      dup1\n      0xd4da005a\n      eq\n      tag_8\n      jumpi\n      dup1\n      0xe7c898ef\n      eq\n      tag_9\n      jumpi\n      dup1\n      0xf0ba8440\n      eq\n      tag_10\n      jumpi\n      jump(tag_2)\n    tag_11:\n      dup1\n      0x0bfb0686\n      eq\n      tag_3\n      jumpi\n      dup1\n      0x492bfa18\n      eq\n      tag_4\n      jumpi\n      dup1\n      0x65372147\n      eq\n      tag_5\n      jumpi\n      dup1\n      0x6588103b\n      eq\n      tag_6\n      jumpi\n    tag_2:\n      revert(0x00, 0x00)\n        /* \"contracts/7_IfElse.sol\":397:549  function checkOverFlow(uint256 _num1, uint _num2) public {... */\n    tag_3:\n      tag_12\n      0x04\n      dup1\n      calldatasize\n      sub\n      dup2\n      add\n      swap1\n      tag_13\n      swap2\n      swap1\n      tag_14\n      jump\t// in\n    tag_13:\n      tag_15\n      jump\t// in\n    tag_12:\n      stop\n        /* \"contracts/7_IfElse.sol\":168:191  string public  myString */\n    tag_4:\n      tag_16\n      tag_17\n      jump\t// in\n    tag_16:\n      mload(0x40)\n      tag_18\n      swap2\n      swap1\n      tag_19\n      jump\t// in\n    tag_18:\n      mload(0x40)\n      dup1\n      swap2\n      sub\n      swap1\n      return\n        /* \"contracts/7_IfElse.sol\":197:215  bool public result */\n    tag_5:\n      tag_20\n      tag_21\n      jump\t// in\n    tag_20:\n      mload(0x40)\n      tag_22\n      swap2\n      swap1\n      tag_23\n      jump\t// in\n    tag_22:\n      mload(0x40)\n      dup1\n      swap2\n      sub\n      swap1\n      return\n        /* \"contracts/7_IfElse.sol\":107:137  uint256 public nftCollection=0 */\n    tag_6:\n      tag_24\n      tag_25\n      jump\t// in\n    tag_24:\n      mload(0x40)\n      tag_26\n      swap2\n      swap1\n      tag_27\n      jump\t// in\n    tag_26:\n      mload(0x40)\n      dup1\n      swap2\n      sub\n      swap1\n      return\n        /* \"contracts/7_IfElse.sol\":221:391  function get(uint256 _num) public returns (string memory) {... */\n    tag_7:\n      tag_28\n      0x04\n      dup1\n      calldatasize\n      sub\n      dup2\n      add\n      swap1\n      tag_29\n      swap2\n      swap1\n      tag_30\n      jump\t// in\n    tag_29:\n      tag_31\n      jump\t// in\n    tag_28:\n      mload(0x40)\n      tag_32\n      swap2\n      swap1\n      tag_19\n      jump\t// in\n    tag_32:\n      mload(0x40)\n      dup1\n      swap2\n      sub\n      swap1\n      return\n        /* \"contracts/7_IfElse.sol\":79:101  uint256 public myNum=5 */\n    tag_8:\n      tag_33\n      tag_34\n      jump\t// in\n    tag_33:\n      mload(0x40)\n      tag_35\n      swap2\n      swap1\n      tag_27\n      jump\t// in\n    tag_35:\n      mload(0x40)\n      dup1\n      swap2\n      sub\n      swap1\n      return\n        /* \"contracts/7_IfElse.sol\":555:750  function whileLoop() public returns (uint[] memory){... */\n    tag_9:\n      tag_36\n      tag_37\n      jump\t// in\n    tag_36:\n      mload(0x40)\n      tag_38\n      swap2\n      swap1\n      tag_39\n      jump\t// in\n    tag_38:\n      mload(0x40)\n      dup1\n      swap2\n      sub\n      swap1\n      return\n        /* \"contracts/7_IfElse.sol\":143:162  uint[] public  data */\n    tag_10:\n      tag_40\n      0x04\n      dup1\n      calldatasize\n      sub\n      dup2\n      add\n      swap1\n      tag_41\n      swap2\n      swap1\n      tag_30\n      jump\t// in\n    tag_41:\n      tag_42\n      jump\t// in\n    tag_40:\n      mload(0x40)\n      tag_43\n      swap2\n      swap1\n      tag_27\n      jump\t// in\n    tag_43:\n      mload(0x40)\n      dup1\n      swap2\n      sub\n      swap1\n      return\n        /* \"contracts/7_IfElse.sol\":397:549  function checkOverFlow(uint256 _num1, uint _num2) public {... */\n    tag_15:\n        /* \"contracts/7_IfElse.sol\":464:475  uint256 sum */\n      0x00\n        /* \"contracts/7_IfElse.sol\":485:490  _num2 */\n      dup2\n        /* \"contracts/7_IfElse.sol\":477:482  _num1 */\n      dup4\n        /* \"contracts/7_IfElse.sol\":477:490  _num1 + _num2 */\n      tag_45\n      swap2\n      swap1\n      tag_46\n      jump\t// in\n    tag_45:\n        /* \"contracts/7_IfElse.sol\":464:490  uint256 sum =_num1 + _num2 */\n      swap1\n      pop\n        /* \"contracts/7_IfElse.sol\":515:518  255 */\n      0xff\n        /* \"contracts/7_IfElse.sol\":508:511  sum */\n      dup2\n        /* \"contracts/7_IfElse.sol\":508:518  sum <= 255 */\n      gt\n      iszero\n        /* \"contracts/7_IfElse.sol\":500:520  assert((sum <= 255)) */\n      tag_47\n      jumpi\n      tag_48\n      tag_49\n      jump\t// in\n    tag_48:\n    tag_47:\n        /* \"contracts/7_IfElse.sol\":537:541  true */\n      0x01\n        /* \"contracts/7_IfElse.sol\":530:536  result */\n      0x04\n      0x00\n        /* \"contracts/7_IfElse.sol\":530:541  result=true */\n      0x0100\n      exp\n      dup2\n      sload\n      dup2\n      0xff\n      mul\n      not\n      and\n      swap1\n      dup4\n      iszero\n      iszero\n      mul\n      or\n      swap1\n      sstore\n      pop\n        /* \"contracts/7_IfElse.sol\":454:549  {... */\n      pop\n        /* \"contracts/7_IfElse.sol\":397:549  function checkOverFlow(uint256 _num1, uint _num2) public {... */\n      pop\n      pop\n      jump\t// out\n        /* \"contracts/7_IfElse.sol\":168:191  string public  myString */\n    tag_17:\n      0x03\n      dup1\n      sload\n      tag_50\n      swap1\n      tag_51\n      jump\t// in\n    tag_50:\n      dup1\n      0x1f\n      add\n      0x20\n      dup1\n      swap2\n      div\n      mul\n      0x20\n      add\n      mload(0x40)\n      swap1\n      dup2\n      add\n      0x40\n      mstore\n      dup1\n      swap3\n      swap2\n      swap1\n      dup2\n      dup2\n      mstore\n      0x20\n      add\n      dup3\n      dup1\n      sload\n      tag_52\n      swap1\n      tag_51\n      jump\t// in\n    tag_52:\n      dup1\n      iszero\n      tag_53\n      jumpi\n      dup1\n      0x1f\n      lt\n      tag_54\n      jumpi\n      0x0100\n      dup1\n      dup4\n      sload\n      div\n      mul\n      dup4\n      mstore\n      swap2\n      0x20\n      add\n      swap2\n      jump(tag_53)\n    tag_54:\n      dup3\n      add\n      swap2\n      swap1\n      0x00\n      mstore\n      keccak256(0x00, 0x20)\n      swap1\n    tag_55:\n      dup2\n      sload\n      dup2\n      mstore\n      swap1\n      0x01\n      add\n      swap1\n      0x20\n      add\n      dup1\n      dup4\n      gt\n      tag_55\n      jumpi\n      dup3\n      swap1\n      sub\n      0x1f\n      and\n      dup3\n      add\n      swap2\n    tag_53:\n      pop\n      pop\n      pop\n      pop\n      pop\n      dup2\n      jump\t// out\n        /* \"contracts/7_IfElse.sol\":197:215  bool public result */\n    tag_21:\n      0x04\n      0x00\n      swap1\n      sload\n      swap1\n      0x0100\n      exp\n      swap1\n      div\n      0xff\n      and\n      dup2\n      jump\t// out\n        /* \"contracts/7_IfElse.sol\":107:137  uint256 public nftCollection=0 */\n    tag_25:\n      sload(0x01)\n      dup2\n      jump\t// out\n        /* \"contracts/7_IfElse.sol\":221:391  function get(uint256 _num) public returns (string memory) {... */\n    tag_31:\n        /* \"contracts/7_IfElse.sol\":264:277  string memory */\n      0x60\n        /* \"contracts/7_IfElse.sol\":312:313  5 */\n      0x05\n        /* \"contracts/7_IfElse.sol\":304:308  _num */\n      dup3\n        /* \"contracts/7_IfElse.sol\":304:313  _num == 5 */\n      eq\n        /* \"contracts/7_IfElse.sol\":304:384  _num == 5 ? myString = \"Hey the value of my Num is 5\" :  myString = \"Hey not 5 \" */\n      tag_57\n      jumpi\n        /* \"contracts/7_IfElse.sol\":361:384  myString = \"Hey not 5 \" */\n      mload(0x40)\n      dup1\n      0x40\n      add\n      0x40\n      mstore\n      dup1\n      0x0a\n      dup2\n      mstore\n      0x20\n      add\n      0x486579206e6f7420352000000000000000000000000000000000000000000000\n      dup2\n      mstore\n      pop\n        /* \"contracts/7_IfElse.sol\":361:369  myString */\n      0x03\n        /* \"contracts/7_IfElse.sol\":361:384  myString = \"Hey not 5 \" */\n      swap1\n      dup2\n      tag_58\n      swap2\n      swap1\n      tag_59\n      jump\t// in\n    tag_58:\n        /* \"contracts/7_IfElse.sol\":304:384  _num == 5 ? myString = \"Hey the value of my Num is 5\" :  myString = \"Hey not 5 \" */\n      jump(tag_60)\n    tag_57:\n        /* \"contracts/7_IfElse.sol\":316:357  myString = \"Hey the value of my Num is 5\" */\n      mload(0x40)\n      dup1\n      0x40\n      add\n      0x40\n      mstore\n      dup1\n      0x1c\n      dup2\n      mstore\n      0x20\n      add\n      0x486579207468652076616c7565206f66206d79204e756d206973203500000000\n      dup2\n      mstore\n      pop\n        /* \"contracts/7_IfElse.sol\":316:324  myString */\n      0x03\n        /* \"contracts/7_IfElse.sol\":316:357  myString = \"Hey the value of my Num is 5\" */\n      swap1\n      dup2\n      tag_61\n      swap2\n      swap1\n      tag_59\n      jump\t// in\n    tag_61:\n        /* \"contracts/7_IfElse.sol\":304:384  _num == 5 ? myString = \"Hey the value of my Num is 5\" :  myString = \"Hey not 5 \" */\n    tag_60:\n        /* \"contracts/7_IfElse.sol\":297:384  return _num == 5 ? myString = \"Hey the value of my Num is 5\" :  myString = \"Hey not 5 \" */\n      dup1\n      sload\n      tag_62\n      swap1\n      tag_51\n      jump\t// in\n    tag_62:\n      dup1\n      0x1f\n      add\n      0x20\n      dup1\n      swap2\n      div\n      mul\n      0x20\n      add\n      mload(0x40)\n      swap1\n      dup2\n      add\n      0x40\n      mstore\n      dup1\n      swap3\n      swap2\n      swap1\n      dup2\n      dup2\n      mstore\n      0x20\n      add\n      dup3\n      dup1\n      sload\n      tag_63\n      swap1\n      tag_51\n      jump\t// in\n    tag_63:\n      dup1\n      iszero\n      tag_64\n      jumpi\n      dup1\n      0x1f\n      lt\n      tag_65\n      jumpi\n      0x0100\n      dup1\n      dup4\n      sload\n      div\n      mul\n      dup4\n      mstore\n      swap2\n      0x20\n      add\n      swap2\n      jump(tag_64)\n    tag_65:\n      dup3\n      add\n      swap2\n      swap1\n      0x00\n      mstore\n      keccak256(0x00, 0x20)\n      swap1\n    tag_66:\n      dup2\n      sload\n      dup2\n      mstore\n      swap1\n      0x01\n      add\n      swap1\n      0x20\n      add\n      dup1\n      dup4\n      gt\n      tag_66\n      jumpi\n      dup3\n      swap1\n      sub\n      0x1f\n      and\n      dup3\n      add\n      swap2\n    tag_64:\n      pop\n      pop\n      pop\n      pop\n      pop\n      swap1\n      pop\n        /* \"contracts/7_IfElse.sol\":221:391  function get(uint256 _num) public returns (string memory) {... */\n      swap2\n      swap1\n      pop\n      jump\t// out\n        /* \"contracts/7_IfElse.sol\":79:101  uint256 public myNum=5 */\n    tag_34:\n      sload(0x00)\n      dup2\n      jump\t// out\n        /* \"contracts/7_IfElse.sol\":555:750  function whileLoop() public returns (uint[] memory){... */\n    tag_37:\n        /* \"contracts/7_IfElse.sol\":592:605  uint[] memory */\n      0x60\n        /* \"contracts/7_IfElse.sol\":617:721  while(nftCollection < 5){... */\n    tag_68:\n        /* \"contracts/7_IfElse.sol\":639:640  5 */\n      0x05\n        /* \"contracts/7_IfElse.sol\":623:636  nftCollection */\n      sload(0x01)\n        /* \"contracts/7_IfElse.sol\":623:640  nftCollection < 5 */\n      lt\n        /* \"contracts/7_IfElse.sol\":617:721  while(nftCollection < 5){... */\n      iszero\n      tag_69\n      jumpi\n        /* \"contracts/7_IfElse.sol\":655:668  nftCollection */\n      0x01\n      0x00\n        /* \"contracts/7_IfElse.sol\":655:671  nftCollection ++ */\n      dup2\n      sload\n      dup1\n      swap3\n      swap2\n      swap1\n      tag_70\n      swap1\n      tag_71\n      jump\t// in\n    tag_70:\n      swap2\n      swap1\n      pop\n      sstore\n      pop\n        /* \"contracts/7_IfElse.sol\":685:689  data */\n      0x02\n        /* \"contracts/7_IfElse.sol\":695:708  nftCollection */\n      sload(0x01)\n        /* \"contracts/7_IfElse.sol\":685:709  data.push(nftCollection) */\n      swap1\n      dup1\n      0x01\n      dup2\n      sload\n      add\n      dup1\n      dup3\n      sstore\n      dup1\n      swap2\n      pop\n      pop\n      0x01\n      swap1\n      sub\n      swap1\n      0x00\n      mstore\n      keccak256(0x00, 0x20)\n      add\n      0x00\n      swap1\n      swap2\n      swap1\n      swap2\n      swap1\n      swap2\n      pop\n      sstore\n        /* \"contracts/7_IfElse.sol\":617:721  while(nftCollection < 5){... */\n      jump(tag_68)\n    tag_69:\n        /* \"contracts/7_IfElse.sol\":739:743  data */\n      0x02\n        /* \"contracts/7_IfElse.sol\":731:743  return  data */\n      dup1\n      sload\n      dup1\n      0x20\n      mul\n      0x20\n      add\n      mload(0x40)\n      swap1\n      dup2\n      add\n      0x40\n      mstore\n      dup1\n      swap3\n      swap2\n      swap1\n      dup2\n      dup2\n      mstore\n      0x20\n      add\n      dup3\n      dup1\n      sload\n      dup1\n      iszero\n      tag_73\n      jumpi\n      0x20\n      mul\n      dup3\n      add\n      swap2\n      swap1\n      0x00\n      mstore\n      keccak256(0x00, 0x20)\n      swap1\n    tag_74:\n      dup2\n      sload\n      dup2\n      mstore\n      0x20\n      add\n      swap1\n      0x01\n      add\n      swap1\n      dup1\n      dup4\n      gt\n      tag_74\n      jumpi\n    tag_73:\n      pop\n      pop\n      pop\n      pop\n      pop\n      swap1\n      pop\n        /* \"contracts/7_IfElse.sol\":555:750  function whileLoop() public returns (uint[] memory){... */\n      swap1\n      jump\t// out\n        /* \"contracts/7_IfElse.sol\":143:162  uint[] public  data */\n    tag_42:\n      0x02\n      dup2\n      dup2\n      sload\n      dup2\n      lt\n      tag_75\n      jumpi\n      0x00\n      dup1\n      revert\n    tag_75:\n      swap1\n      0x00\n      mstore\n      keccak256(0x00, 0x20)\n      add\n      0x00\n      swap2\n      pop\n      swap1\n      pop\n      sload\n      dup2\n      jump\t// out\n        /* \"#utility.yul\":88:205   */\n    tag_78:\n        /* \"#utility.yul\":197:198   */\n      0x00\n        /* \"#utility.yul\":194:195   */\n      0x00\n        /* \"#utility.yul\":187:199   */\n      revert\n        /* \"#utility.yul\":334:411   */\n    tag_80:\n        /* \"#utility.yul\":371:378   */\n      0x00\n        /* \"#utility.yul\":400:405   */\n      dup2\n        /* \"#utility.yul\":389:405   */\n      swap1\n      pop\n        /* \"#utility.yul\":334:411   */\n      swap2\n      swap1\n      pop\n      jump\t// out\n        /* \"#utility.yul\":417:539   */\n    tag_81:\n        /* \"#utility.yul\":490:514   */\n      tag_122\n        /* \"#utility.yul\":508:513   */\n      dup2\n        /* \"#utility.yul\":490:514   */\n      tag_80\n      jump\t// in\n    tag_122:\n        /* \"#utility.yul\":483:488   */\n      dup2\n        /* \"#utility.yul\":480:515   */\n      eq\n        /* \"#utility.yul\":470:533   */\n      tag_123\n      jumpi\n        /* \"#utility.yul\":529:530   */\n      0x00\n        /* \"#utility.yul\":526:527   */\n      0x00\n        /* \"#utility.yul\":519:531   */\n      revert\n        /* \"#utility.yul\":470:533   */\n    tag_123:\n        /* \"#utility.yul\":417:539   */\n      pop\n      jump\t// out\n        /* \"#utility.yul\":545:684   */\n    tag_82:\n        /* \"#utility.yul\":591:596   */\n      0x00\n        /* \"#utility.yul\":629:635   */\n      dup2\n        /* \"#utility.yul\":616:636   */\n      calldataload\n        /* \"#utility.yul\":607:636   */\n      swap1\n      pop\n        /* \"#utility.yul\":645:678   */\n      tag_125\n        /* \"#utility.yul\":672:677   */\n      dup2\n        /* \"#utility.yul\":645:678   */\n      tag_81\n      jump\t// in\n    tag_125:\n        /* \"#utility.yul\":545:684   */\n      swap3\n      swap2\n      pop\n      pop\n      jump\t// out\n        /* \"#utility.yul\":690:1164   */\n    tag_14:\n        /* \"#utility.yul\":758:764   */\n      0x00\n        /* \"#utility.yul\":766:772   */\n      0x00\n        /* \"#utility.yul\":815:817   */\n      0x40\n        /* \"#utility.yul\":803:812   */\n      dup4\n        /* \"#utility.yul\":794:801   */\n      dup6\n        /* \"#utility.yul\":790:813   */\n      sub\n        /* \"#utility.yul\":786:818   */\n      slt\n        /* \"#utility.yul\":783:902   */\n      iszero\n      tag_127\n      jumpi\n        /* \"#utility.yul\":821:900   */\n      tag_128\n      tag_78\n      jump\t// in\n    tag_128:\n        /* \"#utility.yul\":783:902   */\n    tag_127:\n        /* \"#utility.yul\":941:942   */\n      0x00\n        /* \"#utility.yul\":966:1019   */\n      tag_129\n        /* \"#utility.yul\":1011:1018   */\n      dup6\n        /* \"#utility.yul\":1002:1008   */\n      dup3\n        /* \"#utility.yul\":991:1000   */\n      dup7\n        /* \"#utility.yul\":987:1009   */\n      add\n        /* \"#utility.yul\":966:1019   */\n      tag_82\n      jump\t// in\n    tag_129:\n        /* \"#utility.yul\":956:1019   */\n      swap3\n      pop\n        /* \"#utility.yul\":912:1029   */\n      pop\n        /* \"#utility.yul\":1068:1070   */\n      0x20\n        /* \"#utility.yul\":1094:1147   */\n      tag_130\n        /* \"#utility.yul\":1139:1146   */\n      dup6\n        /* \"#utility.yul\":1130:1136   */\n      dup3\n        /* \"#utility.yul\":1119:1128   */\n      dup7\n        /* \"#utility.yul\":1115:1137   */\n      add\n        /* \"#utility.yul\":1094:1147   */\n      tag_82\n      jump\t// in\n    tag_130:\n        /* \"#utility.yul\":1084:1147   */\n      swap2\n      pop\n        /* \"#utility.yul\":1039:1157   */\n      pop\n        /* \"#utility.yul\":690:1164   */\n      swap3\n      pop\n      swap3\n      swap1\n      pop\n      jump\t// out\n        /* \"#utility.yul\":1170:1269   */\n    tag_83:\n        /* \"#utility.yul\":1222:1228   */\n      0x00\n        /* \"#utility.yul\":1256:1261   */\n      dup2\n        /* \"#utility.yul\":1250:1262   */\n      mload\n        /* \"#utility.yul\":1240:1262   */\n      swap1\n      pop\n        /* \"#utility.yul\":1170:1269   */\n      swap2\n      swap1\n      pop\n      jump\t// out\n        /* \"#utility.yul\":1275:1444   */\n    tag_84:\n        /* \"#utility.yul\":1359:1370   */\n      0x00\n        /* \"#utility.yul\":1393:1399   */\n      dup3\n        /* \"#utility.yul\":1388:1391   */\n      dup3\n        /* \"#utility.yul\":1381:1400   */\n      mstore\n        /* \"#utility.yul\":1433:1437   */\n      0x20\n        /* \"#utility.yul\":1428:1431   */\n      dup3\n        /* \"#utility.yul\":1424:1438   */\n      add\n        /* \"#utility.yul\":1409:1438   */\n      swap1\n      pop\n        /* \"#utility.yul\":1275:1444   */\n      swap3\n      swap2\n      pop\n      pop\n      jump\t// out\n        /* \"#utility.yul\":1450:1589   */\n    tag_85:\n        /* \"#utility.yul\":1539:1545   */\n      dup3\n        /* \"#utility.yul\":1534:1537   */\n      dup2\n        /* \"#utility.yul\":1529:1532   */\n      dup4\n        /* \"#utility.yul\":1523:1546   */\n      mcopy\n        /* \"#utility.yul\":1580:1581   */\n      0x00\n        /* \"#utility.yul\":1571:1577   */\n      dup4\n        /* \"#utility.yul\":1566:1569   */\n      dup4\n        /* \"#utility.yul\":1562:1578   */\n      add\n        /* \"#utility.yul\":1555:1582   */\n      mstore\n        /* \"#utility.yul\":1450:1589   */\n      pop\n      pop\n      pop\n      jump\t// out\n        /* \"#utility.yul\":1595:1697   */\n    tag_86:\n        /* \"#utility.yul\":1636:1642   */\n      0x00\n        /* \"#utility.yul\":1687:1689   */\n      0x1f\n        /* \"#utility.yul\":1683:1690   */\n      not\n        /* \"#utility.yul\":1678:1680   */\n      0x1f\n        /* \"#utility.yul\":1671:1676   */\n      dup4\n        /* \"#utility.yul\":1667:1681   */\n      add\n        /* \"#utility.yul\":1663:1691   */\n      and\n        /* \"#utility.yul\":1653:1691   */\n      swap1\n      pop\n        /* \"#utility.yul\":1595:1697   */\n      swap2\n      swap1\n      pop\n      jump\t// out\n        /* \"#utility.yul\":1703:2080   */\n    tag_87:\n        /* \"#utility.yul\":1791:1794   */\n      0x00\n        /* \"#utility.yul\":1819:1858   */\n      tag_136\n        /* \"#utility.yul\":1852:1857   */\n      dup3\n        /* \"#utility.yul\":1819:1858   */\n      tag_83\n      jump\t// in\n    tag_136:\n        /* \"#utility.yul\":1874:1945   */\n      tag_137\n        /* \"#utility.yul\":1938:1944   */\n      dup2\n        /* \"#utility.yul\":1933:1936   */\n      dup6\n        /* \"#utility.yul\":1874:1945   */\n      tag_84\n      jump\t// in\n    tag_137:\n        /* \"#utility.yul\":1867:1945   */\n      swap4\n      pop\n        /* \"#utility.yul\":1954:2019   */\n      tag_138\n        /* \"#utility.yul\":2012:2018   */\n      dup2\n        /* \"#utility.yul\":2007:2010   */\n      dup6\n        /* \"#utility.yul\":2000:2004   */\n      0x20\n        /* \"#utility.yul\":1993:1998   */\n      dup7\n        /* \"#utility.yul\":1989:2005   */\n      add\n        /* \"#utility.yul\":1954:2019   */\n      tag_85\n      jump\t// in\n    tag_138:\n        /* \"#utility.yul\":2044:2073   */\n      tag_139\n        /* \"#utility.yul\":2066:2072   */\n      dup2\n        /* \"#utility.yul\":2044:2073   */\n      tag_86\n      jump\t// in\n    tag_139:\n        /* \"#utility.yul\":2039:2042   */\n      dup5\n        /* \"#utility.yul\":2035:2074   */\n      add\n        /* \"#utility.yul\":2028:2074   */\n      swap2\n      pop\n        /* \"#utility.yul\":1795:2080   */\n      pop\n        /* \"#utility.yul\":1703:2080   */\n      swap3\n      swap2\n      pop\n      pop\n      jump\t// out\n        /* \"#utility.yul\":2086:2399   */\n    tag_19:\n        /* \"#utility.yul\":2199:2203   */\n      0x00\n        /* \"#utility.yul\":2237:2239   */\n      0x20\n        /* \"#utility.yul\":2226:2235   */\n      dup3\n        /* \"#utility.yul\":2222:2240   */\n      add\n        /* \"#utility.yul\":2214:2240   */\n      swap1\n      pop\n        /* \"#utility.yul\":2286:2295   */\n      dup2\n        /* \"#utility.yul\":2280:2284   */\n      dup2\n        /* \"#utility.yul\":2276:2296   */\n      sub\n        /* \"#utility.yul\":2272:2273   */\n      0x00\n        /* \"#utility.yul\":2261:2270   */\n      dup4\n        /* \"#utility.yul\":2257:2274   */\n      add\n        /* \"#utility.yul\":2250:2297   */\n      mstore\n        /* \"#utility.yul\":2314:2392   */\n      tag_141\n        /* \"#utility.yul\":2387:2391   */\n      dup2\n        /* \"#utility.yul\":2378:2384   */\n      dup5\n        /* \"#utility.yul\":2314:2392   */\n      tag_87\n      jump\t// in\n    tag_141:\n        /* \"#utility.yul\":2306:2392   */\n      swap1\n      pop\n        /* \"#utility.yul\":2086:2399   */\n      swap3\n      swap2\n      pop\n      pop\n      jump\t// out\n        /* \"#utility.yul\":2405:2495   */\n    tag_88:\n        /* \"#utility.yul\":2439:2446   */\n      0x00\n        /* \"#utility.yul\":2482:2487   */\n      dup2\n        /* \"#utility.yul\":2475:2488   */\n      iszero\n        /* \"#utility.yul\":2468:2489   */\n      iszero\n        /* \"#utility.yul\":2457:2489   */\n      swap1\n      pop\n        /* \"#utility.yul\":2405:2495   */\n      swap2\n      swap1\n      pop\n      jump\t// out\n        /* \"#utility.yul\":2501:2610   */\n    tag_89:\n        /* \"#utility.yul\":2582:2603   */\n      tag_144\n        /* \"#utility.yul\":2597:2602   */\n      dup2\n        /* \"#utility.yul\":2582:2603   */\n      tag_88\n      jump\t// in\n    tag_144:\n        /* \"#utility.yul\":2577:2580   */\n      dup3\n        /* \"#utility.yul\":2570:2604   */\n      mstore\n        /* \"#utility.yul\":2501:2610   */\n      pop\n      pop\n      jump\t// out\n        /* \"#utility.yul\":2616:2826   */\n    tag_23:\n        /* \"#utility.yul\":2703:2707   */\n      0x00\n        /* \"#utility.yul\":2741:2743   */\n      0x20\n        /* \"#utility.yul\":2730:2739   */\n      dup3\n        /* \"#utility.yul\":2726:2744   */\n      add\n        /* \"#utility.yul\":2718:2744   */\n      swap1\n      pop\n        /* \"#utility.yul\":2754:2819   */\n      tag_146\n        /* \"#utility.yul\":2816:2817   */\n      0x00\n        /* \"#utility.yul\":2805:2814   */\n      dup4\n        /* \"#utility.yul\":2801:2818   */\n      add\n        /* \"#utility.yul\":2792:2798   */\n      dup5\n        /* \"#utility.yul\":2754:2819   */\n      tag_89\n      jump\t// in\n    tag_146:\n        /* \"#utility.yul\":2616:2826   */\n      swap3\n      swap2\n      pop\n      pop\n      jump\t// out\n        /* \"#utility.yul\":2832:2950   */\n    tag_90:\n        /* \"#utility.yul\":2919:2943   */\n      tag_148\n        /* \"#utility.yul\":2937:2942   */\n      dup2\n        /* \"#utility.yul\":2919:2943   */\n      tag_80\n      jump\t// in\n    tag_148:\n        /* \"#utility.yul\":2914:2917   */\n      dup3\n        /* \"#utility.yul\":2907:2944   */\n      mstore\n        /* \"#utility.yul\":2832:2950   */\n      pop\n      pop\n      jump\t// out\n        /* \"#utility.yul\":2956:3178   */\n    tag_27:\n        /* \"#utility.yul\":3049:3053   */\n      0x00\n        /* \"#utility.yul\":3087:3089   */\n      0x20\n        /* \"#utility.yul\":3076:3085   */\n      dup3\n        /* \"#utility.yul\":3072:3090   */\n      add\n        /* \"#utility.yul\":3064:3090   */\n      swap1\n      pop\n        /* \"#utility.yul\":3100:3171   */\n      tag_150\n        /* \"#utility.yul\":3168:3169   */\n      0x00\n        /* \"#utility.yul\":3157:3166   */\n      dup4\n        /* \"#utility.yul\":3153:3170   */\n      add\n        /* \"#utility.yul\":3144:3150   */\n      dup5\n        /* \"#utility.yul\":3100:3171   */\n      tag_90\n      jump\t// in\n    tag_150:\n        /* \"#utility.yul\":2956:3178   */\n      swap3\n      swap2\n      pop\n      pop\n      jump\t// out\n        /* \"#utility.yul\":3184:3513   */\n    tag_30:\n        /* \"#utility.yul\":3243:3249   */\n      0x00\n        /* \"#utility.yul\":3292:3294   */\n      0x20\n        /* \"#utility.yul\":3280:3289   */\n      dup3\n        /* \"#utility.yul\":3271:3278   */\n      dup5\n        /* \"#utility.yul\":3267:3290   */\n      sub\n        /* \"#utility.yul\":3263:3295   */\n      slt\n        /* \"#utility.yul\":3260:3379   */\n      iszero\n      tag_152\n      jumpi\n        /* \"#utility.yul\":3298:3377   */\n      tag_153\n      tag_78\n      jump\t// in\n    tag_153:\n        /* \"#utility.yul\":3260:3379   */\n    tag_152:\n        /* \"#utility.yul\":3418:3419   */\n      0x00\n        /* \"#utility.yul\":3443:3496   */\n      tag_154\n        /* \"#utility.yul\":3488:3495   */\n      dup5\n        /* \"#utility.yul\":3479:3485   */\n      dup3\n        /* \"#utility.yul\":3468:3477   */\n      dup6\n        /* \"#utility.yul\":3464:3486   */\n      add\n        /* \"#utility.yul\":3443:3496   */\n      tag_82\n      jump\t// in\n    tag_154:\n        /* \"#utility.yul\":3433:3496   */\n      swap2\n      pop\n        /* \"#utility.yul\":3389:3506   */\n      pop\n        /* \"#utility.yul\":3184:3513   */\n      swap3\n      swap2\n      pop\n      pop\n      jump\t// out\n        /* \"#utility.yul\":3519:3633   */\n    tag_91:\n        /* \"#utility.yul\":3586:3592   */\n      0x00\n        /* \"#utility.yul\":3620:3625   */\n      dup2\n        /* \"#utility.yul\":3614:3626   */\n      mload\n        /* \"#utility.yul\":3604:3626   */\n      swap1\n      pop\n        /* \"#utility.yul\":3519:3633   */\n      swap2\n      swap1\n      pop\n      jump\t// out\n        /* \"#utility.yul\":3639:3823   */\n    tag_92:\n        /* \"#utility.yul\":3738:3749   */\n      0x00\n        /* \"#utility.yul\":3772:3778   */\n      dup3\n        /* \"#utility.yul\":3767:3770   */\n      dup3\n        /* \"#utility.yul\":3760:3779   */\n      mstore\n        /* \"#utility.yul\":3812:3816   */\n      0x20\n        /* \"#utility.yul\":3807:3810   */\n      dup3\n        /* \"#utility.yul\":3803:3817   */\n      add\n        /* \"#utility.yul\":3788:3817   */\n      swap1\n      pop\n        /* \"#utility.yul\":3639:3823   */\n      swap3\n      swap2\n      pop\n      pop\n      jump\t// out\n        /* \"#utility.yul\":3829:3961   */\n    tag_93:\n        /* \"#utility.yul\":3896:3900   */\n      0x00\n        /* \"#utility.yul\":3919:3922   */\n      dup2\n        /* \"#utility.yul\":3911:3922   */\n      swap1\n      pop\n        /* \"#utility.yul\":3949:3953   */\n      0x20\n        /* \"#utility.yul\":3944:3947   */\n      dup3\n        /* \"#utility.yul\":3940:3954   */\n      add\n        /* \"#utility.yul\":3932:3954   */\n      swap1\n      pop\n        /* \"#utility.yul\":3829:3961   */\n      swap2\n      swap1\n      pop\n      jump\t// out\n        /* \"#utility.yul\":3967:4075   */\n    tag_94:\n        /* \"#utility.yul\":4044:4068   */\n      tag_159\n        /* \"#utility.yul\":4062:4067   */\n      dup2\n        /* \"#utility.yul\":4044:4068   */\n      tag_80\n      jump\t// in\n    tag_159:\n        /* \"#utility.yul\":4039:4042   */\n      dup3\n        /* \"#utility.yul\":4032:4069   */\n      mstore\n        /* \"#utility.yul\":3967:4075   */\n      pop\n      pop\n      jump\t// out\n        /* \"#utility.yul\":4081:4260   */\n    tag_95:\n        /* \"#utility.yul\":4150:4160   */\n      0x00\n        /* \"#utility.yul\":4171:4217   */\n      tag_161\n        /* \"#utility.yul\":4213:4216   */\n      dup4\n        /* \"#utility.yul\":4205:4211   */\n      dup4\n        /* \"#utility.yul\":4171:4217   */\n      tag_94\n      jump\t// in\n    tag_161:\n        /* \"#utility.yul\":4249:4253   */\n      0x20\n        /* \"#utility.yul\":4244:4247   */\n      dup4\n        /* \"#utility.yul\":4240:4254   */\n      add\n        /* \"#utility.yul\":4226:4254   */\n      swap1\n      pop\n        /* \"#utility.yul\":4081:4260   */\n      swap3\n      swap2\n      pop\n      pop\n      jump\t// out\n        /* \"#utility.yul\":4266:4379   */\n    tag_96:\n        /* \"#utility.yul\":4336:4340   */\n      0x00\n        /* \"#utility.yul\":4368:4372   */\n      0x20\n        /* \"#utility.yul\":4363:4366   */\n      dup3\n        /* \"#utility.yul\":4359:4373   */\n      add\n        /* \"#utility.yul\":4351:4373   */\n      swap1\n      pop\n        /* \"#utility.yul\":4266:4379   */\n      swap2\n      swap1\n      pop\n      jump\t// out\n        /* \"#utility.yul\":4415:5147   */\n    tag_97:\n        /* \"#utility.yul\":4534:4537   */\n      0x00\n        /* \"#utility.yul\":4563:4617   */\n      tag_164\n        /* \"#utility.yul\":4611:4616   */\n      dup3\n        /* \"#utility.yul\":4563:4617   */\n      tag_91\n      jump\t// in\n    tag_164:\n        /* \"#utility.yul\":4633:4719   */\n      tag_165\n        /* \"#utility.yul\":4712:4718   */\n      dup2\n        /* \"#utility.yul\":4707:4710   */\n      dup6\n        /* \"#utility.yul\":4633:4719   */\n      tag_92\n      jump\t// in\n    tag_165:\n        /* \"#utility.yul\":4626:4719   */\n      swap4\n      pop\n        /* \"#utility.yul\":4743:4799   */\n      tag_166\n        /* \"#utility.yul\":4793:4798   */\n      dup4\n        /* \"#utility.yul\":4743:4799   */\n      tag_93\n      jump\t// in\n    tag_166:\n        /* \"#utility.yul\":4822:4829   */\n      dup1\n        /* \"#utility.yul\":4853:4854   */\n      0x00\n        /* \"#utility.yul\":4838:5122   */\n    tag_167:\n        /* \"#utility.yul\":4863:4869   */\n      dup4\n        /* \"#utility.yul\":4860:4861   */\n      dup2\n        /* \"#utility.yul\":4857:4870   */\n      lt\n        /* \"#utility.yul\":4838:5122   */\n      iszero\n      tag_169\n      jumpi\n        /* \"#utility.yul\":4939:4945   */\n      dup2\n        /* \"#utility.yul\":4933:4946   */\n      mload\n        /* \"#utility.yul\":4966:5029   */\n      tag_170\n        /* \"#utility.yul\":5025:5028   */\n      dup9\n        /* \"#utility.yul\":5010:5023   */\n      dup3\n        /* \"#utility.yul\":4966:5029   */\n      tag_95\n      jump\t// in\n    tag_170:\n        /* \"#utility.yul\":4959:5029   */\n      swap8\n      pop\n        /* \"#utility.yul\":5052:5112   */\n      tag_171\n        /* \"#utility.yul\":5105:5111   */\n      dup4\n        /* \"#utility.yul\":5052:5112   */\n      tag_96\n      jump\t// in\n    tag_171:\n        /* \"#utility.yul\":5042:5112   */\n      swap3\n      pop\n        /* \"#utility.yul\":4898:5122   */\n      pop\n        /* \"#utility.yul\":4885:4886   */\n      0x01\n        /* \"#utility.yul\":4882:4883   */\n      dup2\n        /* \"#utility.yul\":4878:4887   */\n      add\n        /* \"#utility.yul\":4873:4887   */\n      swap1\n      pop\n        /* \"#utility.yul\":4838:5122   */\n      jump(tag_167)\n    tag_169:\n        /* \"#utility.yul\":4842:4856   */\n      pop\n        /* \"#utility.yul\":5138:5141   */\n      dup6\n        /* \"#utility.yul\":5131:5141   */\n      swap4\n      pop\n        /* \"#utility.yul\":4539:5147   */\n      pop\n      pop\n      pop\n        /* \"#utility.yul\":4415:5147   */\n      swap3\n      swap2\n      pop\n      pop\n      jump\t// out\n        /* \"#utility.yul\":5153:5526   */\n    tag_39:\n        /* \"#utility.yul\":5296:5300   */\n      0x00\n        /* \"#utility.yul\":5334:5336   */\n      0x20\n        /* \"#utility.yul\":5323:5332   */\n      dup3\n        /* \"#utility.yul\":5319:5337   */\n      add\n        /* \"#utility.yul\":5311:5337   */\n      swap1\n      pop\n        /* \"#utility.yul\":5383:5392   */\n      dup2\n        /* \"#utility.yul\":5377:5381   */\n      dup2\n        /* \"#utility.yul\":5373:5393   */\n      sub\n        /* \"#utility.yul\":5369:5370   */\n      0x00\n        /* \"#utility.yul\":5358:5367   */\n      dup4\n        /* \"#utility.yul\":5354:5371   */\n      add\n        /* \"#utility.yul\":5347:5394   */\n      mstore\n        /* \"#utility.yul\":5411:5519   */\n      tag_173\n        /* \"#utility.yul\":5514:5518   */\n      dup2\n        /* \"#utility.yul\":5505:5511   */\n      dup5\n        /* \"#utility.yul\":5411:5519   */\n      tag_97\n      jump\t// in\n    tag_173:\n        /* \"#utility.yul\":5403:5519   */\n      swap1\n      pop\n        /* \"#utility.yul\":5153:5526   */\n      swap3\n      swap2\n      pop\n      pop\n      jump\t// out\n        /* \"#utility.yul\":5532:5712   */\n    tag_98:\n        /* \"#utility.yul\":5580:5657   */\n      0x4e487b7100000000000000000000000000000000000000000000000000000000\n        /* \"#utility.yul\":5577:5578   */\n      0x00\n        /* \"#utility.yul\":5570:5658   */\n      mstore\n        /* \"#utility.yul\":5677:5681   */\n      0x11\n        /* \"#utility.yul\":5674:5675   */\n      0x04\n        /* \"#utility.yul\":5667:5682   */\n      mstore\n        /* \"#utility.yul\":5701:5705   */\n      0x24\n        /* \"#utility.yul\":5698:5699   */\n      0x00\n        /* \"#utility.yul\":5691:5706   */\n      revert\n        /* \"#utility.yul\":5718:5909   */\n    tag_46:\n        /* \"#utility.yul\":5758:5761   */\n      0x00\n        /* \"#utility.yul\":5777:5797   */\n      tag_176\n        /* \"#utility.yul\":5795:5796   */\n      dup3\n        /* \"#utility.yul\":5777:5797   */\n      tag_80\n      jump\t// in\n    tag_176:\n        /* \"#utility.yul\":5772:5797   */\n      swap2\n      pop\n        /* \"#utility.yul\":5811:5831   */\n      tag_177\n        /* \"#utility.yul\":5829:5830   */\n      dup4\n        /* \"#utility.yul\":5811:5831   */\n      tag_80\n      jump\t// in\n    tag_177:\n        /* \"#utility.yul\":5806:5831   */\n      swap3\n      pop\n        /* \"#utility.yul\":5854:5855   */\n      dup3\n        /* \"#utility.yul\":5851:5852   */\n      dup3\n        /* \"#utility.yul\":5847:5856   */\n      add\n        /* \"#utility.yul\":5840:5856   */\n      swap1\n      pop\n        /* \"#utility.yul\":5875:5878   */\n      dup1\n        /* \"#utility.yul\":5872:5873   */\n      dup3\n        /* \"#utility.yul\":5869:5879   */\n      gt\n        /* \"#utility.yul\":5866:5902   */\n      iszero\n      tag_178\n      jumpi\n        /* \"#utility.yul\":5882:5900   */\n      tag_179\n      tag_98\n      jump\t// in\n    tag_179:\n        /* \"#utility.yul\":5866:5902   */\n    tag_178:\n        /* \"#utility.yul\":5718:5909   */\n      swap3\n      swap2\n      pop\n      pop\n      jump\t// out\n        /* \"#utility.yul\":5915:6095   */\n    tag_49:\n        /* \"#utility.yul\":5963:6040   */\n      0x4e487b7100000000000000000000000000000000000000000000000000000000\n        /* \"#utility.yul\":5960:5961   */\n      0x00\n        /* \"#utility.yul\":5953:6041   */\n      mstore\n        /* \"#utility.yul\":6060:6064   */\n      0x01\n        /* \"#utility.yul\":6057:6058   */\n      0x04\n        /* \"#utility.yul\":6050:6065   */\n      mstore\n        /* \"#utility.yul\":6084:6088   */\n      0x24\n        /* \"#utility.yul\":6081:6082   */\n      0x00\n        /* \"#utility.yul\":6074:6089   */\n      revert\n        /* \"#utility.yul\":6101:6281   */\n    tag_99:\n        /* \"#utility.yul\":6149:6226   */\n      0x4e487b7100000000000000000000000000000000000000000000000000000000\n        /* \"#utility.yul\":6146:6147   */\n      0x00\n        /* \"#utility.yul\":6139:6227   */\n      mstore\n        /* \"#utility.yul\":6246:6250   */\n      0x22\n        /* \"#utility.yul\":6243:6244   */\n      0x04\n        /* \"#utility.yul\":6236:6251   */\n      mstore\n        /* \"#utility.yul\":6270:6274   */\n      0x24\n        /* \"#utility.yul\":6267:6268   */\n      0x00\n        /* \"#utility.yul\":6260:6275   */\n      revert\n        /* \"#utility.yul\":6287:6607   */\n    tag_51:\n        /* \"#utility.yul\":6331:6337   */\n      0x00\n        /* \"#utility.yul\":6368:6369   */\n      0x02\n        /* \"#utility.yul\":6362:6366   */\n      dup3\n        /* \"#utility.yul\":6358:6370   */\n      div\n        /* \"#utility.yul\":6348:6370   */\n      swap1\n      pop\n        /* \"#utility.yul\":6415:6416   */\n      0x01\n        /* \"#utility.yul\":6409:6413   */\n      dup3\n        /* \"#utility.yul\":6405:6417   */\n      and\n        /* \"#utility.yul\":6436:6454   */\n      dup1\n        /* \"#utility.yul\":6426:6507   */\n      tag_183\n      jumpi\n        /* \"#utility.yul\":6492:6496   */\n      0x7f\n        /* \"#utility.yul\":6484:6490   */\n      dup3\n        /* \"#utility.yul\":6480:6497   */\n      and\n        /* \"#utility.yul\":6470:6497   */\n      swap2\n      pop\n        /* \"#utility.yul\":6426:6507   */\n    tag_183:\n        /* \"#utility.yul\":6554:6556   */\n      0x20\n        /* \"#utility.yul\":6546:6552   */\n      dup3\n        /* \"#utility.yul\":6543:6557   */\n      lt\n        /* \"#utility.yul\":6523:6541   */\n      dup2\n        /* \"#utility.yul\":6520:6558   */\n      sub\n        /* \"#utility.yul\":6517:6601   */\n      tag_184\n      jumpi\n        /* \"#utility.yul\":6573:6591   */\n      tag_185\n      tag_99\n      jump\t// in\n    tag_185:\n        /* \"#utility.yul\":6517:6601   */\n    tag_184:\n        /* \"#utility.yul\":6338:6607   */\n      pop\n        /* \"#utility.yul\":6287:6607   */\n      swap2\n      swap1\n      pop\n      jump\t// out\n        /* \"#utility.yul\":6613:6793   */\n    tag_100:\n        /* \"#utility.yul\":6661:6738   */\n      0x4e487b7100000000000000000000000000000000000000000000000000000000\n        /* \"#utility.yul\":6658:6659   */\n      0x00\n        /* \"#utility.yul\":6651:6739   */\n      mstore\n        /* \"#utility.yul\":6758:6762   */\n      0x41\n        /* \"#utility.yul\":6755:6756   */\n      0x04\n        /* \"#utility.yul\":6748:6763   */\n      mstore\n        /* \"#utility.yul\":6782:6786   */\n      0x24\n        /* \"#utility.yul\":6779:6780   */\n      0x00\n        /* \"#utility.yul\":6772:6787   */\n      revert\n        /* \"#utility.yul\":6799:6940   */\n    tag_101:\n        /* \"#utility.yul\":6848:6852   */\n      0x00\n        /* \"#utility.yul\":6871:6874   */\n      dup2\n        /* \"#utility.yul\":6863:6874   */\n      swap1\n      pop\n        /* \"#utility.yul\":6894:6897   */\n      dup2\n        /* \"#utility.yul\":6891:6892   */\n      0x00\n        /* \"#utility.yul\":6884:6898   */\n      mstore\n        /* \"#utility.yul\":6928:6932   */\n      0x20\n        /* \"#utility.yul\":6925:6926   */\n      0x00\n        /* \"#utility.yul\":6915:6933   */\n      keccak256\n        /* \"#utility.yul\":6907:6933   */\n      swap1\n      pop\n        /* \"#utility.yul\":6799:6940   */\n      swap2\n      swap1\n      pop\n      jump\t// out\n        /* \"#utility.yul\":6946:7039   */\n    tag_102:\n        /* \"#utility.yul\":6983:6989   */\n      0x00\n        /* \"#utility.yul\":7030:7032   */\n      0x20\n        /* \"#utility.yul\":7025:7027   */\n      0x1f\n        /* \"#utility.yul\":7018:7023   */\n      dup4\n        /* \"#utility.yul\":7014:7028   */\n      add\n        /* \"#utility.yul\":7010:7033   */\n      div\n        /* \"#utility.yul\":7000:7033   */\n      swap1\n      pop\n        /* \"#utility.yul\":6946:7039   */\n      swap2\n      swap1\n      pop\n      jump\t// out\n        /* \"#utility.yul\":7045:7152   */\n    tag_103:\n        /* \"#utility.yul\":7089:7097   */\n      0x00\n        /* \"#utility.yul\":7139:7144   */\n      dup3\n        /* \"#utility.yul\":7133:7137   */\n      dup3\n        /* \"#utility.yul\":7129:7145   */\n      shl\n        /* \"#utility.yul\":7108:7145   */\n      swap1\n      pop\n        /* \"#utility.yul\":7045:7152   */\n      swap3\n      swap2\n      pop\n      pop\n      jump\t// out\n        /* \"#utility.yul\":7158:7551   */\n    tag_104:\n        /* \"#utility.yul\":7227:7233   */\n      0x00\n        /* \"#utility.yul\":7277:7278   */\n      0x08\n        /* \"#utility.yul\":7265:7275   */\n      dup4\n        /* \"#utility.yul\":7261:7279   */\n      mul\n        /* \"#utility.yul\":7300:7397   */\n      tag_191\n        /* \"#utility.yul\":7330:7396   */\n      0xffffffffffffffffffffffffffffffffffffffffffffffffffffffffffffffff\n        /* \"#utility.yul\":7319:7328   */\n      dup3\n        /* \"#utility.yul\":7300:7397   */\n      tag_103\n      jump\t// in\n    tag_191:\n        /* \"#utility.yul\":7418:7457   */\n      tag_192\n        /* \"#utility.yul\":7448:7456   */\n      dup7\n        /* \"#utility.yul\":7437:7446   */\n      dup4\n        /* \"#utility.yul\":7418:7457   */\n      tag_103\n      jump\t// in\n    tag_192:\n        /* \"#utility.yul\":7406:7457   */\n      swap6\n      pop\n        /* \"#utility.yul\":7490:7494   */\n      dup1\n        /* \"#utility.yul\":7486:7495   */\n      not\n        /* \"#utility.yul\":7479:7484   */\n      dup5\n        /* \"#utility.yul\":7475:7496   */\n      and\n        /* \"#utility.yul\":7466:7496   */\n      swap4\n      pop\n        /* \"#utility.yul\":7539:7543   */\n      dup1\n        /* \"#utility.yul\":7529:7537   */\n      dup7\n        /* \"#utility.yul\":7525:7544   */\n      and\n        /* \"#utility.yul\":7518:7523   */\n      dup5\n        /* \"#utility.yul\":7515:7545   */\n      or\n        /* \"#utility.yul\":7505:7545   */\n      swap3\n      pop\n        /* \"#utility.yul\":7234:7551   */\n      pop\n      pop\n        /* \"#utility.yul\":7158:7551   */\n      swap4\n      swap3\n      pop\n      pop\n      pop\n      jump\t// out\n        /* \"#utility.yul\":7557:7617   */\n    tag_105:\n        /* \"#utility.yul\":7585:7588   */\n      0x00\n        /* \"#utility.yul\":7606:7611   */\n      dup2\n        /* \"#utility.yul\":7599:7611   */\n      swap1\n      pop\n        /* \"#utility.yul\":7557:7617   */\n      swap2\n      swap1\n      pop\n      jump\t// out\n        /* \"#utility.yul\":7623:7765   */\n    tag_106:\n        /* \"#utility.yul\":7673:7682   */\n      0x00\n        /* \"#utility.yul\":7706:7759   */\n      tag_195\n        /* \"#utility.yul\":7724:7758   */\n      tag_196\n        /* \"#utility.yul\":7733:7757   */\n      tag_197\n        /* \"#utility.yul\":7751:7756   */\n      dup5\n        /* \"#utility.yul\":7733:7757   */\n      tag_80\n      jump\t// in\n    tag_197:\n        /* \"#utility.yul\":7724:7758   */\n      tag_105\n      jump\t// in\n    tag_196:\n        /* \"#utility.yul\":7706:7759   */\n      tag_80\n      jump\t// in\n    tag_195:\n        /* \"#utility.yul\":7693:7759   */\n      swap1\n      pop\n        /* \"#utility.yul\":7623:7765   */\n      swap2\n      swap1\n      pop\n      jump\t// out\n        /* \"#utility.yul\":7771:7846   */\n    tag_107:\n        /* \"#utility.yul\":7814:7817   */\n      0x00\n        /* \"#utility.yul\":7835:7840   */\n      dup2\n        /* \"#utility.yul\":7828:7840   */\n      swap1\n      pop\n        /* \"#utility.yul\":7771:7846   */\n      swap2\n      swap1\n      pop\n      jump\t// out\n        /* \"#utility.yul\":7852:8121   */\n    tag_108:\n        /* \"#utility.yul\":7962:8001   */\n      tag_200\n        /* \"#utility.yul\":7993:8000   */\n      dup4\n        /* \"#utility.yul\":7962:8001   */\n      tag_106\n      jump\t// in\n    tag_200:\n        /* \"#utility.yul\":8023:8114   */\n      tag_201\n        /* \"#utility.yul\":8072:8113   */\n      tag_202\n        /* \"#utility.yul\":8096:8112   */\n      dup3\n        /* \"#utility.yul\":8072:8113   */\n      tag_107\n      jump\t// in\n    tag_202:\n        /* \"#utility.yul\":8064:8070   */\n      dup5\n        /* \"#utility.yul\":8057:8061   */\n      dup5\n        /* \"#utility.yul\":8051:8062   */\n      sload\n        /* \"#utility.yul\":8023:8114   */\n      tag_104\n      jump\t// in\n    tag_201:\n        /* \"#utility.yul\":8017:8021   */\n      dup3\n        /* \"#utility.yul\":8010:8115   */\n      sstore\n        /* \"#utility.yul\":7928:8121   */\n      pop\n        /* \"#utility.yul\":7852:8121   */\n      pop\n      pop\n      pop\n      jump\t// out\n        /* \"#utility.yul\":8127:8200   */\n    tag_109:\n        /* \"#utility.yul\":8172:8175   */\n      0x00\n        /* \"#utility.yul\":8193:8194   */\n      0x00\n        /* \"#utility.yul\":8186:8194   */\n      swap1\n      pop\n        /* \"#utility.yul\":8127:8200   */\n      swap1\n      jump\t// out\n        /* \"#utility.yul\":8206:8395   */\n    tag_110:\n        /* \"#utility.yul\":8283:8315   */\n      tag_205\n      tag_109\n      jump\t// in\n    tag_205:\n        /* \"#utility.yul\":8324:8389   */\n      tag_206\n        /* \"#utility.yul\":8382:8388   */\n      dup2\n        /* \"#utility.yul\":8374:8380   */\n      dup5\n        /* \"#utility.yul\":8368:8372   */\n      dup5\n        /* \"#utility.yul\":8324:8389   */\n      tag_108\n      jump\t// in\n    tag_206:\n        /* \"#utility.yul\":8259:8395   */\n      pop\n        /* \"#utility.yul\":8206:8395   */\n      pop\n      pop\n      jump\t// out\n        /* \"#utility.yul\":8401:8587   */\n    tag_111:\n        /* \"#utility.yul\":8461:8581   */\n    tag_208:\n        /* \"#utility.yul\":8478:8481   */\n      dup2\n        /* \"#utility.yul\":8471:8476   */\n      dup2\n        /* \"#utility.yul\":8468:8482   */\n      lt\n        /* \"#utility.yul\":8461:8581   */\n      iszero\n      tag_210\n      jumpi\n        /* \"#utility.yul\":8532:8571   */\n      tag_211\n        /* \"#utility.yul\":8569:8570   */\n      0x00\n        /* \"#utility.yul\":8562:8567   */\n      dup3\n        /* \"#utility.yul\":8532:8571   */\n      tag_110\n      jump\t// in\n    tag_211:\n        /* \"#utility.yul\":8505:8506   */\n      0x01\n        /* \"#utility.yul\":8498:8503   */\n      dup2\n        /* \"#utility.yul\":8494:8507   */\n      add\n        /* \"#utility.yul\":8485:8507   */\n      swap1\n      pop\n        /* \"#utility.yul\":8461:8581   */\n      jump(tag_208)\n    tag_210:\n        /* \"#utility.yul\":8401:8587   */\n      pop\n      pop\n      jump\t// out\n        /* \"#utility.yul\":8593:9136   */\n    tag_112:\n        /* \"#utility.yul\":8694:8696   */\n      0x1f\n        /* \"#utility.yul\":8689:8692   */\n      dup3\n        /* \"#utility.yul\":8686:8697   */\n      gt\n        /* \"#utility.yul\":8683:9129   */\n      iszero\n      tag_213\n      jumpi\n        /* \"#utility.yul\":8728:8766   */\n      tag_214\n        /* \"#utility.yul\":8760:8765   */\n      dup2\n        /* \"#utility.yul\":8728:8766   */\n      tag_101\n      jump\t// in\n    tag_214:\n        /* \"#utility.yul\":8812:8841   */\n      tag_215\n        /* \"#utility.yul\":8830:8840   */\n      dup5\n        /* \"#utility.yul\":8812:8841   */\n      tag_102\n      jump\t// in\n    tag_215:\n        /* \"#utility.yul\":8802:8810   */\n      dup2\n        /* \"#utility.yul\":8798:8842   */\n      add\n        /* \"#utility.yul\":8995:8997   */\n      0x20\n        /* \"#utility.yul\":8983:8993   */\n      dup6\n        /* \"#utility.yul\":8980:8998   */\n      lt\n        /* \"#utility.yul\":8977:9026   */\n      iszero\n      tag_216\n      jumpi\n        /* \"#utility.yul\":9016:9024   */\n      dup2\n        /* \"#utility.yul\":9001:9024   */\n      swap1\n      pop\n        /* \"#utility.yul\":8977:9026   */\n    tag_216:\n        /* \"#utility.yul\":9039:9119   */\n      tag_217\n        /* \"#utility.yul\":9095:9117   */\n      tag_218\n        /* \"#utility.yul\":9113:9116   */\n      dup6\n        /* \"#utility.yul\":9095:9117   */\n      tag_102\n      jump\t// in\n    tag_218:\n        /* \"#utility.yul\":9085:9093   */\n      dup4\n        /* \"#utility.yul\":9081:9118   */\n      add\n        /* \"#utility.yul\":9068:9079   */\n      dup3\n        /* \"#utility.yul\":9039:9119   */\n      tag_111\n      jump\t// in\n    tag_217:\n        /* \"#utility.yul\":8698:9129   */\n      pop\n      pop\n        /* \"#utility.yul\":8683:9129   */\n    tag_213:\n        /* \"#utility.yul\":8593:9136   */\n      pop\n      pop\n      pop\n      jump\t// out\n        /* \"#utility.yul\":9142:9259   */\n    tag_113:\n        /* \"#utility.yul\":9196:9204   */\n      0x00\n        /* \"#utility.yul\":9246:9251   */\n      dup3\n        /* \"#utility.yul\":9240:9244   */\n      dup3\n        /* \"#utility.yul\":9236:9252   */\n      shr\n        /* \"#utility.yul\":9215:9252   */\n      swap1\n      pop\n        /* \"#utility.yul\":9142:9259   */\n      swap3\n      swap2\n      pop\n      pop\n      jump\t// out\n        /* \"#utility.yul\":9265:9434   */\n    tag_114:\n        /* \"#utility.yul\":9309:9315   */\n      0x00\n        /* \"#utility.yul\":9342:9393   */\n      tag_221\n        /* \"#utility.yul\":9390:9391   */\n      0x00\n        /* \"#utility.yul\":9386:9392   */\n      not\n        /* \"#utility.yul\":9378:9383   */\n      dup5\n        /* \"#utility.yul\":9375:9376   */\n      0x08\n        /* \"#utility.yul\":9371:9384   */\n      mul\n        /* \"#utility.yul\":9342:9393   */\n      tag_113\n      jump\t// in\n    tag_221:\n        /* \"#utility.yul\":9338:9394   */\n      not\n        /* \"#utility.yul\":9423:9427   */\n      dup1\n        /* \"#utility.yul\":9417:9421   */\n      dup4\n        /* \"#utility.yul\":9413:9428   */\n      and\n        /* \"#utility.yul\":9403:9428   */\n      swap2\n      pop\n        /* \"#utility.yul\":9316:9434   */\n      pop\n        /* \"#utility.yul\":9265:9434   */\n      swap3\n      swap2\n      pop\n      pop\n      jump\t// out\n        /* \"#utility.yul\":9439:9734   */\n    tag_115:\n        /* \"#utility.yul\":9515:9519   */\n      0x00\n        /* \"#utility.yul\":9661:9690   */\n      tag_223\n        /* \"#utility.yul\":9686:9689   */\n      dup4\n        /* \"#utility.yul\":9680:9684   */\n      dup4\n        /* \"#utility.yul\":9661:9690   */\n      tag_114\n      jump\t// in\n    tag_223:\n        /* \"#utility.yul\":9653:9690   */\n      swap2\n      pop\n        /* \"#utility.yul\":9723:9726   */\n      dup3\n        /* \"#utility.yul\":9720:9721   */\n      0x02\n        /* \"#utility.yul\":9716:9727   */\n      mul\n        /* \"#utility.yul\":9710:9714   */\n      dup3\n        /* \"#utility.yul\":9707:9728   */\n      or\n        /* \"#utility.yul\":9699:9728   */\n      swap1\n      pop\n        /* \"#utility.yul\":9439:9734   */\n      swap3\n      swap2\n      pop\n      pop\n      jump\t// out\n        /* \"#utility.yul\":9739:11134   */\n    tag_59:\n        /* \"#utility.yul\":9856:9893   */\n      tag_225\n        /* \"#utility.yul\":9889:9892   */\n      dup3\n        /* \"#utility.yul\":9856:9893   */\n      tag_83\n      jump\t// in\n    tag_225:\n        /* \"#utility.yul\":9958:9976   */\n      0xffffffffffffffff\n        /* \"#utility.yul\":9950:9956   */\n      dup2\n        /* \"#utility.yul\":9947:9977   */\n      gt\n        /* \"#utility.yul\":9944:10000   */\n      iszero\n      tag_226\n      jumpi\n        /* \"#utility.yul\":9980:9998   */\n      tag_227\n      tag_100\n      jump\t// in\n    tag_227:\n        /* \"#utility.yul\":9944:10000   */\n    tag_226:\n        /* \"#utility.yul\":10024:10062   */\n      tag_228\n        /* \"#utility.yul\":10056:10060   */\n      dup3\n        /* \"#utility.yul\":10050:10061   */\n      sload\n        /* \"#utility.yul\":10024:10062   */\n      tag_51\n      jump\t// in\n    tag_228:\n        /* \"#utility.yul\":10109:10176   */\n      tag_229\n        /* \"#utility.yul\":10169:10175   */\n      dup3\n        /* \"#utility.yul\":10161:10167   */\n      dup3\n        /* \"#utility.yul\":10155:10159   */\n      dup6\n        /* \"#utility.yul\":10109:10176   */\n      tag_112\n      jump\t// in\n    tag_229:\n        /* \"#utility.yul\":10203:10204   */\n      0x00\n        /* \"#utility.yul\":10227:10231   */\n      0x20\n        /* \"#utility.yul\":10214:10231   */\n      swap1\n      pop\n        /* \"#utility.yul\":10259:10261   */\n      0x1f\n        /* \"#utility.yul\":10251:10257   */\n      dup4\n        /* \"#utility.yul\":10248:10262   */\n      gt\n        /* \"#utility.yul\":10276:10277   */\n      0x01\n        /* \"#utility.yul\":10271:10889   */\n      dup2\n      eq\n      tag_231\n      jumpi\n        /* \"#utility.yul\":10933:10934   */\n      0x00\n        /* \"#utility.yul\":10950:10956   */\n      dup5\n        /* \"#utility.yul\":10947:11024   */\n      iszero\n      tag_232\n      jumpi\n        /* \"#utility.yul\":10999:11008   */\n      dup3\n        /* \"#utility.yul\":10994:10997   */\n      dup8\n        /* \"#utility.yul\":10990:11009   */\n      add\n        /* \"#utility.yul\":10984:11010   */\n      mload\n        /* \"#utility.yul\":10975:11010   */\n      swap1\n      pop\n        /* \"#utility.yul\":10947:11024   */\n    tag_232:\n        /* \"#utility.yul\":11050:11117   */\n      tag_233\n        /* \"#utility.yul\":11110:11116   */\n      dup6\n        /* \"#utility.yul\":11103:11108   */\n      dup3\n        /* \"#utility.yul\":11050:11117   */\n      tag_115\n      jump\t// in\n    tag_233:\n        /* \"#utility.yul\":11044:11048   */\n      dup7\n        /* \"#utility.yul\":11037:11118   */\n      sstore\n        /* \"#utility.yul\":10906:11128   */\n      pop\n        /* \"#utility.yul\":10241:11128   */\n      jump(tag_230)\n        /* \"#utility.yul\":10271:10889   */\n    tag_231:\n        /* \"#utility.yul\":10323:10327   */\n      0x1f\n        /* \"#utility.yul\":10319:10328   */\n      not\n        /* \"#utility.yul\":10311:10317   */\n      dup5\n        /* \"#utility.yul\":10307:10329   */\n      and\n        /* \"#utility.yul\":10357:10394   */\n      tag_234\n        /* \"#utility.yul\":10389:10393   */\n      dup7\n        /* \"#utility.yul\":10357:10394   */\n      tag_101\n      jump\t// in\n    tag_234:\n        /* \"#utility.yul\":10416:10417   */\n      0x00\n        /* \"#utility.yul\":10430:10638   */\n    tag_235:\n        /* \"#utility.yul\":10444:10451   */\n      dup3\n        /* \"#utility.yul\":10441:10442   */\n      dup2\n        /* \"#utility.yul\":10438:10452   */\n      lt\n        /* \"#utility.yul\":10430:10638   */\n      iszero\n      tag_237\n      jumpi\n        /* \"#utility.yul\":10523:10532   */\n      dup5\n        /* \"#utility.yul\":10518:10521   */\n      dup10\n        /* \"#utility.yul\":10514:10533   */\n      add\n        /* \"#utility.yul\":10508:10534   */\n      mload\n        /* \"#utility.yul\":10500:10506   */\n      dup3\n        /* \"#utility.yul\":10493:10535   */\n      sstore\n        /* \"#utility.yul\":10574:10575   */\n      0x01\n        /* \"#utility.yul\":10566:10572   */\n      dup3\n        /* \"#utility.yul\":10562:10576   */\n      add\n        /* \"#utility.yul\":10552:10576   */\n      swap2\n      pop\n        /* \"#utility.yul\":10621:10623   */\n      0x20\n        /* \"#utility.yul\":10610:10619   */\n      dup6\n        /* \"#utility.yul\":10606:10624   */\n      add\n        /* \"#utility.yul\":10593:10624   */\n      swap5\n      pop\n        /* \"#utility.yul\":10467:10471   */\n      0x20\n        /* \"#utility.yul\":10464:10465   */\n      dup2\n        /* \"#utility.yul\":10460:10472   */\n      add\n        /* \"#utility.yul\":10455:10472   */\n      swap1\n      pop\n        /* \"#utility.yul\":10430:10638   */\n      jump(tag_235)\n    tag_237:\n        /* \"#utility.yul\":10666:10672   */\n      dup7\n        /* \"#utility.yul\":10657:10664   */\n      dup4\n        /* \"#utility.yul\":10654:10673   */\n      lt\n        /* \"#utility.yul\":10651:10830   */\n      iszero\n      tag_238\n      jumpi\n        /* \"#utility.yul\":10724:10733   */\n      dup5\n        /* \"#utility.yul\":10719:10722   */\n      dup10\n        /* \"#utility.yul\":10715:10734   */\n      add\n        /* \"#utility.yul\":10709:10735   */\n      mload\n        /* \"#utility.yul\":10767:10815   */\n      tag_239\n        /* \"#utility.yul\":10809:10813   */\n      0x1f\n        /* \"#utility.yul\":10801:10807   */\n      dup10\n        /* \"#utility.yul\":10797:10814   */\n      and\n        /* \"#utility.yul\":10786:10795   */\n      dup3\n        /* \"#utility.yul\":10767:10815   */\n      tag_114\n      jump\t// in\n    tag_239:\n        /* \"#utility.yul\":10759:10765   */\n      dup4\n        /* \"#utility.yul\":10752:10816   */\n      sstore\n        /* \"#utility.yul\":10674:10830   */\n      pop\n        /* \"#utility.yul\":10651:10830   */\n    tag_238:\n        /* \"#utility.yul\":10876:10877   */\n      0x01\n        /* \"#utility.yul\":10872:10873   */\n      0x02\n        /* \"#utility.yul\":10864:10870   */\n      dup9\n        /* \"#utility.yul\":10860:10874   */\n      mul\n        /* \"#utility.yul\":10856:10878   */\n      add\n        /* \"#utility.yul\":10850:10854   */\n      dup9\n        /* \"#utility.yul\":10843:10879   */\n      sstore\n        /* \"#utility.yul\":10278:10889   */\n      pop\n      pop\n      pop\n        /* \"#utility.yul\":10241:11128   */\n    tag_230:\n      pop\n        /* \"#utility.yul\":9831:11134   */\n      pop\n      pop\n      pop\n        /* \"#utility.yul\":9739:11134   */\n      pop\n      pop\n      jump\t// out\n        /* \"#utility.yul\":11140:11373   */\n    tag_71:\n        /* \"#utility.yul\":11179:11182   */\n      0x00\n        /* \"#utility.yul\":11202:11226   */\n      tag_241\n        /* \"#utility.yul\":11220:11225   */\n      dup3\n        /* \"#utility.yul\":11202:11226   */\n      tag_80\n      jump\t// in\n    tag_241:\n        /* \"#utility.yul\":11193:11226   */\n      swap2\n      pop\n        /* \"#utility.yul\":11248:11314   */\n      0xffffffffffffffffffffffffffffffffffffffffffffffffffffffffffffffff\n        /* \"#utility.yul\":11241:11246   */\n      dup3\n        /* \"#utility.yul\":11238:11315   */\n      sub\n        /* \"#utility.yul\":11235:11338   */\n      tag_242\n      jumpi\n        /* \"#utility.yul\":11318:11336   */\n      tag_243\n      tag_98\n      jump\t// in\n    tag_243:\n        /* \"#utility.yul\":11235:11338   */\n    tag_242:\n        /* \"#utility.yul\":11365:11366   */\n      0x01\n        /* \"#utility.yul\":11358:11363   */\n      dup3\n        /* \"#utility.yul\":11354:11367   */\n      add\n        /* \"#utility.yul\":11347:11367   */\n      swap1\n      pop\n        /* \"#utility.yul\":11140:11373   */\n      swap2\n      swap1\n      pop\n      jump\t// out\n\n    auxdata: 0xa2646970667358221220b79866c597ca7b0f25e2e502d3e3d3d3ec6eefd7fbfa2de13eef3ee4cea75ba864736f6c634300081c0033\n}\n",
				"bytecode": {
					"linkReferences": {},
					"object": "608060405260055f555f6001553480156016575f5ffd5b50610ad6806100245f395ff3fe608060405234801561000f575f5ffd5b5060043610610086575f3560e01c80639507d39a116100595780639507d39a14610100578063d4da005a14610130578063e7c898ef1461014e578063f0ba84401461016c57610086565b80630bfb06861461008a578063492bfa18146100a657806365372147146100c45780636588103b146100e2575b5f5ffd5b6100a4600480360381019061009f91906104a8565b61019c565b005b6100ae6101dc565b6040516100bb9190610556565b60405180910390f35b6100cc610268565b6040516100d99190610590565b60405180910390f35b6100ea61027a565b6040516100f791906105b8565b60405180910390f35b61011a600480360381019061011591906105d1565b610280565b6040516101279190610556565b60405180910390f35b6101386103a6565b60405161014591906105b8565b60405180910390f35b6101566103ab565b60405161016391906106b3565b60405180910390f35b610186600480360381019061018191906105d1565b610451565b60405161019391906105b8565b60405180910390f35b5f81836101a99190610700565b905060ff8111156101bd576101bc610733565b5b600160045f6101000a81548160ff021916908315150217905550505050565b600380546101e99061078d565b80601f01602080910402602001604051908101604052809291908181526020018280546102159061078d565b80156102605780601f1061023757610100808354040283529160200191610260565b820191905f5260205f20905b81548152906001019060200180831161024357829003601f168201915b505050505081565b60045f9054906101000a900460ff1681565b60015481565b6060600582146102d3576040518060400160405280600a81526020017f486579206e6f7420352000000000000000000000000000000000000000000000815250600390816102ce919061098a565b610318565b6040518060400160405280601c81526020017f486579207468652076616c7565206f66206d79204e756d20697320350000000081525060039081610317919061098a565b5b80546103239061078d565b80601f016020809104026020016040519081016040528092919081815260200182805461034f9061078d565b801561039a5780601f106103715761010080835404028352916020019161039a565b820191905f5260205f20905b81548152906001019060200180831161037d57829003601f168201915b50505050509050919050565b5f5481565b60605b600560015410156103fd5760015f8154809291906103cb90610a59565b91905055506002600154908060018154018082558091505060019003905f5260205f20015f90919091909150556103ae565b600280548060200260200160405190810160405280929190818152602001828054801561044757602002820191905f5260205f20905b815481526020019060010190808311610433575b5050505050905090565b60028181548110610460575f80fd5b905f5260205f20015f915090505481565b5f5ffd5b5f819050919050565b61048781610475565b8114610491575f5ffd5b50565b5f813590506104a28161047e565b92915050565b5f5f604083850312156104be576104bd610471565b5b5f6104cb85828601610494565b92505060206104dc85828601610494565b9150509250929050565b5f81519050919050565b5f82825260208201905092915050565b8281835e5f83830152505050565b5f601f19601f8301169050919050565b5f610528826104e6565b61053281856104f0565b9350610542818560208601610500565b61054b8161050e565b840191505092915050565b5f6020820190508181035f83015261056e818461051e565b905092915050565b5f8115159050919050565b61058a81610576565b82525050565b5f6020820190506105a35f830184610581565b92915050565b6105b281610475565b82525050565b5f6020820190506105cb5f8301846105a9565b92915050565b5f602082840312156105e6576105e5610471565b5b5f6105f384828501610494565b91505092915050565b5f81519050919050565b5f82825260208201905092915050565b5f819050602082019050919050565b61062e81610475565b82525050565b5f61063f8383610625565b60208301905092915050565b5f602082019050919050565b5f610661826105fc565b61066b8185610606565b935061067683610616565b805f5b838110156106a657815161068d8882610634565b97506106988361064b565b925050600181019050610679565b5085935050505092915050565b5f6020820190508181035f8301526106cb8184610657565b905092915050565b7f4e487b71000000000000000000000000000000000000000000000000000000005f52601160045260245ffd5b5f61070a82610475565b915061071583610475565b925082820190508082111561072d5761072c6106d3565b5b92915050565b7f4e487b71000000000000000000000000000000000000000000000000000000005f52600160045260245ffd5b7f4e487b71000000000000000000000000000000000000000000000000000000005f52602260045260245ffd5b5f60028204905060018216806107a457607f821691505b6020821081036107b7576107b6610760565b5b50919050565b7f4e487b71000000000000000000000000000000000000000000000000000000005f52604160045260245ffd5b5f819050815f5260205f209050919050565b5f6020601f8301049050919050565b5f82821b905092915050565b5f600883026108467fffffffffffffffffffffffffffffffffffffffffffffffffffffffffffffffff8261080b565b610850868361080b565b95508019841693508086168417925050509392505050565b5f819050919050565b5f61088b61088661088184610475565b610868565b610475565b9050919050565b5f819050919050565b6108a483610871565b6108b86108b082610892565b848454610817565b825550505050565b5f5f905090565b6108cf6108c0565b6108da81848461089b565b505050565b5b818110156108fd576108f25f826108c7565b6001810190506108e0565b5050565b601f82111561094257610913816107ea565b61091c846107fc565b8101602085101561092b578190505b61093f610937856107fc565b8301826108df565b50505b505050565b5f82821c905092915050565b5f6109625f1984600802610947565b1980831691505092915050565b5f61097a8383610953565b9150826002028217905092915050565b610993826104e6565b67ffffffffffffffff8111156109ac576109ab6107bd565b5b6109b6825461078d565b6109c1828285610901565b5f60209050601f8311600181146109f2575f84156109e0578287015190505b6109ea858261096f565b865550610a51565b601f198416610a00866107ea565b5f5b82811015610a2757848901518255600182019150602085019450602081019050610a02565b86831015610a445784890151610a40601f891682610953565b8355505b6001600288020188555050505b505050505050565b5f610a6382610475565b91507fffffffffffffffffffffffffffffffffffffffffffffffffffffffffffffffff8203610a9557610a946106d3565b5b60018201905091905056fea2646970667358221220b79866c597ca7b0f25e2e502d3e3d3d3ec6eefd7fbfa2de13eef3ee4cea75ba864736f6c634300081c0033",
					"opcodes": "PUSH1 0x80 PUSH1 0x40 MSTORE PUSH1 0x5 PUSH0 SSTORE PUSH0 PUSH1 0x1 SSTORE CALLVALUE DUP1 ISZERO PUSH1 0x16 JUMPI PUSH0 PUSH0 REVERT JUMPDEST POP PUSH2 0xAD6 DUP1 PUSH2 0x24 PUSH0 CODECOPY PUSH0 RETURN INVALID PUSH1 0x80 PUSH1 0x40 MSTORE CALLVALUE DUP1 ISZERO PUSH2 0xF JUMPI PUSH0 PUSH0 REVERT JUMPDEST POP PUSH1 0x4 CALLDATASIZE LT PUSH2 0x86 JUMPI PUSH0 CALLDATALOAD PUSH1 0xE0 SHR DUP1 PUSH4 0x9507D39A GT PUSH2 0x59 JUMPI DUP1 PUSH4 0x9507D39A EQ PUSH2 0x100 JUMPI DUP1 PUSH4 0xD4DA005A EQ PUSH2 0x130 JUMPI DUP1 PUSH4 0xE7C898EF EQ PUSH2 0x14E JUMPI DUP1 PUSH4 0xF0BA8440 EQ PUSH2 0x16C JUMPI PUSH2 0x86 JUMP JUMPDEST DUP1 PUSH4 0xBFB0686 EQ PUSH2 0x8A JUMPI DUP1 PUSH4 0x492BFA18 EQ PUSH2 0xA6 JUMPI DUP1 PUSH4 0x65372147 EQ PUSH2 0xC4 JUMPI DUP1 PUSH4 0x6588103B EQ PUSH2 0xE2 JUMPI JUMPDEST PUSH0 PUSH0 REVERT JUMPDEST PUSH2 0xA4 PUSH1 0x4 DUP1 CALLDATASIZE SUB DUP2 ADD SWAP1 PUSH2 0x9F SWAP2 SWAP1 PUSH2 0x4A8 JUMP JUMPDEST PUSH2 0x19C JUMP JUMPDEST STOP JUMPDEST PUSH2 0xAE PUSH2 0x1DC JUMP JUMPDEST PUSH1 0x40 MLOAD PUSH2 0xBB SWAP2 SWAP1 PUSH2 0x556 JUMP JUMPDEST PUSH1 0x40 MLOAD DUP1 SWAP2 SUB SWAP1 RETURN JUMPDEST PUSH2 0xCC PUSH2 0x268 JUMP JUMPDEST PUSH1 0x40 MLOAD PUSH2 0xD9 SWAP2 SWAP1 PUSH2 0x590 JUMP JUMPDEST PUSH1 0x40 MLOAD DUP1 SWAP2 SUB SWAP1 RETURN JUMPDEST PUSH2 0xEA PUSH2 0x27A JUMP JUMPDEST PUSH1 0x40 MLOAD PUSH2 0xF7 SWAP2 SWAP1 PUSH2 0x5B8 JUMP JUMPDEST PUSH1 0x40 MLOAD DUP1 SWAP2 SUB SWAP1 RETURN JUMPDEST PUSH2 0x11A PUSH1 0x4 DUP1 CALLDATASIZE SUB DUP2 ADD SWAP1 PUSH2 0x115 SWAP2 SWAP1 PUSH2 0x5D1 JUMP JUMPDEST PUSH2 0x280 JUMP JUMPDEST PUSH1 0x40 MLOAD PUSH2 0x127 SWAP2 SWAP1 PUSH2 0x556 JUMP JUMPDEST PUSH1 0x40 MLOAD DUP1 SWAP2 SUB SWAP1 RETURN JUMPDEST PUSH2 0x138 PUSH2 0x3A6 JUMP JUMPDEST PUSH1 0x40 MLOAD PUSH2 0x145 SWAP2 SWAP1 PUSH2 0x5B8 JUMP JUMPDEST PUSH1 0x40 MLOAD DUP1 SWAP2 SUB SWAP1 RETURN JUMPDEST PUSH2 0x156 PUSH2 0x3AB JUMP JUMPDEST PUSH1 0x40 MLOAD PUSH2 0x163 SWAP2 SWAP1 PUSH2 0x6B3 JUMP JUMPDEST PUSH1 0x40 MLOAD DUP1 SWAP2 SUB SWAP1 RETURN JUMPDEST PUSH2 0x186 PUSH1 0x4 DUP1 CALLDATASIZE SUB DUP2 ADD SWAP1 PUSH2 0x181 SWAP2 SWAP1 PUSH2 0x5D1 JUMP JUMPDEST PUSH2 0x451 JUMP JUMPDEST PUSH1 0x40 MLOAD PUSH2 0x193 SWAP2 SWAP1 PUSH2 0x5B8 JUMP JUMPDEST PUSH1 0x40 MLOAD DUP1 SWAP2 SUB SWAP1 RETURN JUMPDEST PUSH0 DUP2 DUP4 PUSH2 0x1A9 SWAP2 SWAP1 PUSH2 0x700 JUMP JUMPDEST SWAP1 POP PUSH1 0xFF DUP2 GT ISZERO PUSH2 0x1BD JUMPI PUSH2 0x1BC PUSH2 0x733 JUMP JUMPDEST JUMPDEST PUSH1 0x1 PUSH1 0x4 PUSH0 PUSH2 0x100 EXP DUP2 SLOAD DUP2 PUSH1 0xFF MUL NOT AND SWAP1 DUP4 ISZERO ISZERO MUL OR SWAP1 SSTORE POP POP POP POP JUMP JUMPDEST PUSH1 0x3 DUP1 SLOAD PUSH2 0x1E9 SWAP1 PUSH2 0x78D JUMP JUMPDEST DUP1 PUSH1 0x1F ADD PUSH1 0x20 DUP1 SWAP2 DIV MUL PUSH1 0x20 ADD PUSH1 0x40 MLOAD SWAP1 DUP2 ADD PUSH1 0x40 MSTORE DUP1 SWAP3 SWAP2 SWAP1 DUP2 DUP2 MSTORE PUSH1 0x20 ADD DUP3 DUP1 SLOAD PUSH2 0x215 SWAP1 PUSH2 0x78D JUMP JUMPDEST DUP1 ISZERO PUSH2 0x260 JUMPI DUP1 PUSH1 0x1F LT PUSH2 0x237 JUMPI PUSH2 0x100 DUP1 DUP4 SLOAD DIV MUL DUP4 MSTORE SWAP2 PUSH1 0x20 ADD SWAP2 PUSH2 0x260 JUMP JUMPDEST DUP3 ADD SWAP2 SWAP1 PUSH0 MSTORE PUSH1 0x20 PUSH0 KECCAK256 SWAP1 JUMPDEST DUP2 SLOAD DUP2 MSTORE SWAP1 PUSH1 0x1 ADD SWAP1 PUSH1 0x20 ADD DUP1 DUP4 GT PUSH2 0x243 JUMPI DUP3 SWAP1 SUB PUSH1 0x1F AND DUP3 ADD SWAP2 JUMPDEST POP POP POP POP POP DUP2 JUMP JUMPDEST PUSH1 0x4 PUSH0 SWAP1 SLOAD SWAP1 PUSH2 0x100 EXP SWAP1 DIV PUSH1 0xFF AND DUP2 JUMP JUMPDEST PUSH1 0x1 SLOAD DUP2 JUMP JUMPDEST PUSH1 0x60 PUSH1 0x5 DUP3 EQ PUSH2 0x2D3 JUMPI PUSH1 0x40 MLOAD DUP1 PUSH1 0x40 ADD PUSH1 0x40 MSTORE DUP1 PUSH1 0xA DUP2 MSTORE PUSH1 0x20 ADD PUSH32 0x486579206E6F7420352000000000000000000000000000000000000000000000 DUP2 MSTORE POP PUSH1 0x3 SWAP1 DUP2 PUSH2 0x2CE SWAP2 SWAP1 PUSH2 0x98A JUMP JUMPDEST PUSH2 0x318 JUMP JUMPDEST PUSH1 0x40 MLOAD DUP1 PUSH1 0x40 ADD PUSH1 0x40 MSTORE DUP1 PUSH1 0x1C DUP2 MSTORE PUSH1 0x20 ADD PUSH32 0x486579207468652076616C7565206F66206D79204E756D206973203500000000 DUP2 MSTORE POP PUSH1 0x3 SWAP1 DUP2 PUSH2 0x317 SWAP2 SWAP1 PUSH2 0x98A JUMP JUMPDEST JUMPDEST DUP1 SLOAD PUSH2 0x323 SWAP1 PUSH2 0x78D JUMP JUMPDEST DUP1 PUSH1 0x1F ADD PUSH1 0x20 DUP1 SWAP2 DIV MUL PUSH1 0x20 ADD PUSH1 0x40 MLOAD SWAP1 DUP2 ADD PUSH1 0x40 MSTORE DUP1 SWAP3 SWAP2 SWAP1 DUP2 DUP2 MSTORE PUSH1 0x20 ADD DUP3 DUP1 SLOAD PUSH2 0x34F SWAP1 PUSH2 0x78D JUMP JUMPDEST DUP1 ISZERO PUSH2 0x39A JUMPI DUP1 PUSH1 0x1F LT PUSH2 0x371 JUMPI PUSH2 0x100 DUP1 DUP4 SLOAD DIV MUL DUP4 MSTORE SWAP2 PUSH1 0x20 ADD SWAP2 PUSH2 0x39A JUMP JUMPDEST DUP3 ADD SWAP2 SWAP1 PUSH0 MSTORE PUSH1 0x20 PUSH0 KECCAK256 SWAP1 JUMPDEST DUP2 SLOAD DUP2 MSTORE SWAP1 PUSH1 0x1 ADD SWAP1 PUSH1 0x20 ADD DUP1 DUP4 GT PUSH2 0x37D JUMPI DUP3 SWAP1 SUB PUSH1 0x1F AND DUP3 ADD SWAP2 JUMPDEST POP POP POP POP POP SWAP1 POP SWAP2 SWAP1 POP JUMP JUMPDEST PUSH0 SLOAD DUP2 JUMP JUMPDEST PUSH1 0x60 JUMPDEST PUSH1 0x5 PUSH1 0x1 SLOAD LT ISZERO PUSH2 0x3FD JUMPI PUSH1 0x1 PUSH0 DUP2 SLOAD DUP1 SWAP3 SWAP2 SWAP1 PUSH2 0x3CB SWAP1 PUSH2 0xA59 JUMP JUMPDEST SWAP2 SWAP1 POP SSTORE POP PUSH1 0x2 PUSH1 0x1 SLOAD SWAP1 DUP1 PUSH1 0x1 DUP2 SLOAD ADD DUP1 DUP3 SSTORE DUP1 SWAP2 POP POP PUSH1 0x1 SWAP1 SUB SWAP1 PUSH0 MSTORE PUSH1 0x20 PUSH0 KECCAK256 ADD PUSH0 SWAP1 SWAP2 SWAP1 SWAP2 SWAP1 SWAP2 POP SSTORE PUSH2 0x3AE JUMP JUMPDEST PUSH1 0x2 DUP1 SLOAD DUP1 PUSH1 0x20 MUL PUSH1 0x20 ADD PUSH1 0x40 MLOAD SWAP1 DUP2 ADD PUSH1 0x40 MSTORE DUP1 SWAP3 SWAP2 SWAP1 DUP2 DUP2 MSTORE PUSH1 0x20 ADD DUP3 DUP1 SLOAD DUP1 ISZERO PUSH2 0x447 JUMPI PUSH1 0x20 MUL DUP3 ADD SWAP2 SWAP1 PUSH0 MSTORE PUSH1 0x20 PUSH0 KECCAK256 SWAP1 JUMPDEST DUP2 SLOAD DUP2 MSTORE PUSH1 0x20 ADD SWAP1 PUSH1 0x1 ADD SWAP1 DUP1 DUP4 GT PUSH2 0x433 JUMPI JUMPDEST POP POP POP POP POP SWAP1 POP SWAP1 JUMP JUMPDEST PUSH1 0x2 DUP2 DUP2 SLOAD DUP2 LT PUSH2 0x460 JUMPI PUSH0 DUP1 REVERT JUMPDEST SWAP1 PUSH0 MSTORE PUSH1 0x20 PUSH0 KECCAK256 ADD PUSH0 SWAP2 POP SWAP1 POP SLOAD DUP2 JUMP JUMPDEST PUSH0 PUSH0 REVERT JUMPDEST PUSH0 DUP2 SWAP1 POP SWAP2 SWAP1 POP JUMP JUMPDEST PUSH2 0x487 DUP2 PUSH2 0x475 JUMP JUMPDEST DUP2 EQ PUSH2 0x491 JUMPI PUSH0 PUSH0 REVERT JUMPDEST POP JUMP JUMPDEST PUSH0 DUP2 CALLDATALOAD SWAP1 POP PUSH2 0x4A2 DUP2 PUSH2 0x47E JUMP JUMPDEST SWAP3 SWAP2 POP POP JUMP JUMPDEST PUSH0 PUSH0 PUSH1 0x40 DUP4 DUP6 SUB SLT ISZERO PUSH2 0x4BE JUMPI PUSH2 0x4BD PUSH2 0x471 JUMP JUMPDEST JUMPDEST PUSH0 PUSH2 0x4CB DUP6 DUP3 DUP7 ADD PUSH2 0x494 JUMP JUMPDEST SWAP3 POP POP PUSH1 0x20 PUSH2 0x4DC DUP6 DUP3 DUP7 ADD PUSH2 0x494 JUMP JUMPDEST SWAP2 POP POP SWAP3 POP SWAP3 SWAP1 POP JUMP JUMPDEST PUSH0 DUP2 MLOAD SWAP1 POP SWAP2 SWAP1 POP JUMP JUMPDEST PUSH0 DUP3 DUP3 MSTORE PUSH1 0x20 DUP3 ADD SWAP1 POP SWAP3 SWAP2 POP POP JUMP JUMPDEST DUP3 DUP2 DUP4 MCOPY PUSH0 DUP4 DUP4 ADD MSTORE POP POP POP JUMP JUMPDEST PUSH0 PUSH1 0x1F NOT PUSH1 0x1F DUP4 ADD AND SWAP1 POP SWAP2 SWAP1 POP JUMP JUMPDEST PUSH0 PUSH2 0x528 DUP3 PUSH2 0x4E6 JUMP JUMPDEST PUSH2 0x532 DUP2 DUP6 PUSH2 0x4F0 JUMP JUMPDEST SWAP4 POP PUSH2 0x542 DUP2 DUP6 PUSH1 0x20 DUP7 ADD PUSH2 0x500 JUMP JUMPDEST PUSH2 0x54B DUP2 PUSH2 0x50E JUMP JUMPDEST DUP5 ADD SWAP2 POP POP SWAP3 SWAP2 POP POP JUMP JUMPDEST PUSH0 PUSH1 0x20 DUP3 ADD SWAP1 POP DUP2 DUP2 SUB PUSH0 DUP4 ADD MSTORE PUSH2 0x56E DUP2 DUP5 PUSH2 0x51E JUMP JUMPDEST SWAP1 POP SWAP3 SWAP2 POP POP JUMP JUMPDEST PUSH0 DUP2 ISZERO ISZERO SWAP1 POP SWAP2 SWAP1 POP JUMP JUMPDEST PUSH2 0x58A DUP2 PUSH2 0x576 JUMP JUMPDEST DUP3 MSTORE POP POP JUMP JUMPDEST PUSH0 PUSH1 0x20 DUP3 ADD SWAP1 POP PUSH2 0x5A3 PUSH0 DUP4 ADD DUP5 PUSH2 0x581 JUMP JUMPDEST SWAP3 SWAP2 POP POP JUMP JUMPDEST PUSH2 0x5B2 DUP2 PUSH2 0x475 JUMP JUMPDEST DUP3 MSTORE POP POP JUMP JUMPDEST PUSH0 PUSH1 0x20 DUP3 ADD SWAP1 POP PUSH2 0x5CB PUSH0 DUP4 ADD DUP5 PUSH2 0x5A9 JUMP JUMPDEST SWAP3 SWAP2 POP POP JUMP JUMPDEST PUSH0 PUSH1 0x20 DUP3 DUP5 SUB SLT ISZERO PUSH2 0x5E6 JUMPI PUSH2 0x5E5 PUSH2 0x471 JUMP JUMPDEST JUMPDEST PUSH0 PUSH2 0x5F3 DUP5 DUP3 DUP6 ADD PUSH2 0x494 JUMP JUMPDEST SWAP2 POP POP SWAP3 SWAP2 POP POP JUMP JUMPDEST PUSH0 DUP2 MLOAD SWAP1 POP SWAP2 SWAP1 POP JUMP JUMPDEST PUSH0 DUP3 DUP3 MSTORE PUSH1 0x20 DUP3 ADD SWAP1 POP SWAP3 SWAP2 POP POP JUMP JUMPDEST PUSH0 DUP2 SWAP1 POP PUSH1 0x20 DUP3 ADD SWAP1 POP SWAP2 SWAP1 POP JUMP JUMPDEST PUSH2 0x62E DUP2 PUSH2 0x475 JUMP JUMPDEST DUP3 MSTORE POP POP JUMP JUMPDEST PUSH0 PUSH2 0x63F DUP4 DUP4 PUSH2 0x625 JUMP JUMPDEST PUSH1 0x20 DUP4 ADD SWAP1 POP SWAP3 SWAP2 POP POP JUMP JUMPDEST PUSH0 PUSH1 0x20 DUP3 ADD SWAP1 POP SWAP2 SWAP1 POP JUMP JUMPDEST PUSH0 PUSH2 0x661 DUP3 PUSH2 0x5FC JUMP JUMPDEST PUSH2 0x66B DUP2 DUP6 PUSH2 0x606 JUMP JUMPDEST SWAP4 POP PUSH2 0x676 DUP4 PUSH2 0x616 JUMP JUMPDEST DUP1 PUSH0 JUMPDEST DUP4 DUP2 LT ISZERO PUSH2 0x6A6 JUMPI DUP2 MLOAD PUSH2 0x68D DUP9 DUP3 PUSH2 0x634 JUMP JUMPDEST SWAP8 POP PUSH2 0x698 DUP4 PUSH2 0x64B JUMP JUMPDEST SWAP3 POP POP PUSH1 0x1 DUP2 ADD SWAP1 POP PUSH2 0x679 JUMP JUMPDEST POP DUP6 SWAP4 POP POP POP POP SWAP3 SWAP2 POP POP JUMP JUMPDEST PUSH0 PUSH1 0x20 DUP3 ADD SWAP1 POP DUP2 DUP2 SUB PUSH0 DUP4 ADD MSTORE PUSH2 0x6CB DUP2 DUP5 PUSH2 0x657 JUMP JUMPDEST SWAP1 POP SWAP3 SWAP2 POP POP JUMP JUMPDEST PUSH32 0x4E487B7100000000000000000000000000000000000000000000000000000000 PUSH0 MSTORE PUSH1 0x11 PUSH1 0x4 MSTORE PUSH1 0x24 PUSH0 REVERT JUMPDEST PUSH0 PUSH2 0x70A DUP3 PUSH2 0x475 JUMP JUMPDEST SWAP2 POP PUSH2 0x715 DUP4 PUSH2 0x475 JUMP JUMPDEST SWAP3 POP DUP3 DUP3 ADD SWAP1 POP DUP1 DUP3 GT ISZERO PUSH2 0x72D JUMPI PUSH2 0x72C PUSH2 0x6D3 JUMP JUMPDEST JUMPDEST SWAP3 SWAP2 POP POP JUMP JUMPDEST PUSH32 0x4E487B7100000000000000000000000000000000000000000000000000000000 PUSH0 MSTORE PUSH1 0x1 PUSH1 0x4 MSTORE PUSH1 0x24 PUSH0 REVERT JUMPDEST PUSH32 0x4E487B7100000000000000000000000000000000000000000000000000000000 PUSH0 MSTORE PUSH1 0x22 PUSH1 0x4 MSTORE PUSH1 0x24 PUSH0 REVERT JUMPDEST PUSH0 PUSH1 0x2 DUP3 DIV SWAP1 POP PUSH1 0x1 DUP3 AND DUP1 PUSH2 0x7A4 JUMPI PUSH1 0x7F DUP3 AND SWAP2 POP JUMPDEST PUSH1 0x20 DUP3 LT DUP2 SUB PUSH2 0x7B7 JUMPI PUSH2 0x7B6 PUSH2 0x760 JUMP JUMPDEST JUMPDEST POP SWAP2 SWAP1 POP JUMP JUMPDEST PUSH32 0x4E487B7100000000000000000000000000000000000000000000000000000000 PUSH0 MSTORE PUSH1 0x41 PUSH1 0x4 MSTORE PUSH1 0x24 PUSH0 REVERT JUMPDEST PUSH0 DUP2 SWAP1 POP DUP2 PUSH0 MSTORE PUSH1 0x20 PUSH0 KECCAK256 SWAP1 POP SWAP2 SWAP1 POP JUMP JUMPDEST PUSH0 PUSH1 0x20 PUSH1 0x1F DUP4 ADD DIV SWAP1 POP SWAP2 SWAP1 POP JUMP JUMPDEST PUSH0 DUP3 DUP3 SHL SWAP1 POP SWAP3 SWAP2 POP POP JUMP JUMPDEST PUSH0 PUSH1 0x8 DUP4 MUL PUSH2 0x846 PUSH32 0xFFFFFFFFFFFFFFFFFFFFFFFFFFFFFFFFFFFFFFFFFFFFFFFFFFFFFFFFFFFFFFFF DUP3 PUSH2 0x80B JUMP JUMPDEST PUSH2 0x850 DUP7 DUP4 PUSH2 0x80B JUMP JUMPDEST SWAP6 POP DUP1 NOT DUP5 AND SWAP4 POP DUP1 DUP7 AND DUP5 OR SWAP3 POP POP POP SWAP4 SWAP3 POP POP POP JUMP JUMPDEST PUSH0 DUP2 SWAP1 POP SWAP2 SWAP1 POP JUMP JUMPDEST PUSH0 PUSH2 0x88B PUSH2 0x886 PUSH2 0x881 DUP5 PUSH2 0x475 JUMP JUMPDEST PUSH2 0x868 JUMP JUMPDEST PUSH2 0x475 JUMP JUMPDEST SWAP1 POP SWAP2 SWAP1 POP JUMP JUMPDEST PUSH0 DUP2 SWAP1 POP SWAP2 SWAP1 POP JUMP JUMPDEST PUSH2 0x8A4 DUP4 PUSH2 0x871 JUMP JUMPDEST PUSH2 0x8B8 PUSH2 0x8B0 DUP3 PUSH2 0x892 JUMP JUMPDEST DUP5 DUP5 SLOAD PUSH2 0x817 JUMP JUMPDEST DUP3 SSTORE POP POP POP POP JUMP JUMPDEST PUSH0 PUSH0 SWAP1 POP SWAP1 JUMP JUMPDEST PUSH2 0x8CF PUSH2 0x8C0 JUMP JUMPDEST PUSH2 0x8DA DUP2 DUP5 DUP5 PUSH2 0x89B JUMP JUMPDEST POP POP POP JUMP JUMPDEST JUMPDEST DUP2 DUP2 LT ISZERO PUSH2 0x8FD JUMPI PUSH2 0x8F2 PUSH0 DUP3 PUSH2 0x8C7 JUMP JUMPDEST PUSH1 0x1 DUP2 ADD SWAP1 POP PUSH2 0x8E0 JUMP JUMPDEST POP POP JUMP JUMPDEST PUSH1 0x1F DUP3 GT ISZERO PUSH2 0x942 JUMPI PUSH2 0x913 DUP2 PUSH2 0x7EA JUMP JUMPDEST PUSH2 0x91C DUP5 PUSH2 0x7FC JUMP JUMPDEST DUP2 ADD PUSH1 0x20 DUP6 LT ISZERO PUSH2 0x92B JUMPI DUP2 SWAP1 POP JUMPDEST PUSH2 0x93F PUSH2 0x937 DUP6 PUSH2 0x7FC JUMP JUMPDEST DUP4 ADD DUP3 PUSH2 0x8DF JUMP JUMPDEST POP POP JUMPDEST POP POP POP JUMP JUMPDEST PUSH0 DUP3 DUP3 SHR SWAP1 POP SWAP3 SWAP2 POP POP JUMP JUMPDEST PUSH0 PUSH2 0x962 PUSH0 NOT DUP5 PUSH1 0x8 MUL PUSH2 0x947 JUMP JUMPDEST NOT DUP1 DUP4 AND SWAP2 POP POP SWAP3 SWAP2 POP POP JUMP JUMPDEST PUSH0 PUSH2 0x97A DUP4 DUP4 PUSH2 0x953 JUMP JUMPDEST SWAP2 POP DUP3 PUSH1 0x2 MUL DUP3 OR SWAP1 POP SWAP3 SWAP2 POP POP JUMP JUMPDEST PUSH2 0x993 DUP3 PUSH2 0x4E6 JUMP JUMPDEST PUSH8 0xFFFFFFFFFFFFFFFF DUP2 GT ISZERO PUSH2 0x9AC JUMPI PUSH2 0x9AB PUSH2 0x7BD JUMP JUMPDEST JUMPDEST PUSH2 0x9B6 DUP3 SLOAD PUSH2 0x78D JUMP JUMPDEST PUSH2 0x9C1 DUP3 DUP3 DUP6 PUSH2 0x901 JUMP JUMPDEST PUSH0 PUSH1 0x20 SWAP1 POP PUSH1 0x1F DUP4 GT PUSH1 0x1 DUP2 EQ PUSH2 0x9F2 JUMPI PUSH0 DUP5 ISZERO PUSH2 0x9E0 JUMPI DUP3 DUP8 ADD MLOAD SWAP1 POP JUMPDEST PUSH2 0x9EA DUP6 DUP3 PUSH2 0x96F JUMP JUMPDEST DUP7 SSTORE POP PUSH2 0xA51 JUMP JUMPDEST PUSH1 0x1F NOT DUP5 AND PUSH2 0xA00 DUP7 PUSH2 0x7EA JUMP JUMPDEST PUSH0 JUMPDEST DUP3 DUP2 LT ISZERO PUSH2 0xA27 JUMPI DUP5 DUP10 ADD MLOAD DUP3 SSTORE PUSH1 0x1 DUP3 ADD SWAP2 POP PUSH1 0x20 DUP6 ADD SWAP5 POP PUSH1 0x20 DUP2 ADD SWAP1 POP PUSH2 0xA02 JUMP JUMPDEST DUP7 DUP4 LT ISZERO PUSH2 0xA44 JUMPI DUP5 DUP10 ADD MLOAD PUSH2 0xA40 PUSH1 0x1F DUP10 AND DUP3 PUSH2 0x953 JUMP JUMPDEST DUP4 SSTORE POP JUMPDEST PUSH1 0x1 PUSH1 0x2 DUP9 MUL ADD DUP9 SSTORE POP POP POP JUMPDEST POP POP POP POP POP POP JUMP JUMPDEST PUSH0 PUSH2 0xA63 DUP3 PUSH2 0x475 JUMP JUMPDEST SWAP2 POP PUSH32 0xFFFFFFFFFFFFFFFFFFFFFFFFFFFFFFFFFFFFFFFFFFFFFFFFFFFFFFFFFFFFFFFF DUP3 SUB PUSH2 0xA95 JUMPI PUSH2 0xA94 PUSH2 0x6D3 JUMP JUMPDEST JUMPDEST PUSH1 0x1 DUP3 ADD SWAP1 POP SWAP2 SWAP1 POP JUMP INVALID LOG2 PUSH5 0x6970667358 0x22 SLT KECCAK256 0xB7 SWAP9 PUSH7 0xC597CA7B0F25E2 0xE5 MUL 0xD3 0xE3 0xD3 0xD3 0xEC PUSH15 0xEFD7FBFA2DE13EEF3EE4CEA75BA864 PUSH20 0x6F6C634300081C00330000000000000000000000 "
				},
				"gasEstimates": {
					"creation": {
						"codeDepositCost": "554800",
						"executionCost": "27695",
						"totalCost": "582495"
					},
					"external": {
						"checkOverFlow(uint256,uint256)": "infinite",
						"data(uint256)": "infinite",
						"get(uint256)": "infinite",
						"myNum()": "2446",
						"myString()": "infinite",
						"nftCollection()": "2492",
						"result()": "2511",
						"whileLoop()": "infinite"
					}
				},
				"methodIdentifiers": {
					"checkOverFlow(uint256,uint256)": "0bfb0686",
					"data(uint256)": "f0ba8440",
					"get(uint256)": "9507d39a",
					"myNum()": "d4da005a",
					"myString()": "492bfa18",
					"nftCollection()": "6588103b",
					"result()": "65372147",
					"whileLoop()": "e7c898ef"
				}
			},
			"storageLayout": {
				"storage": [
					{
						"astId": 4,
						"contract": "contracts/7_IfElse.sol:IfElse",
						"label": "myNum",
						"offset": 0,
						"slot": "0",
						"type": "t_uint256"
					},
					{
						"astId": 7,
						"contract": "contracts/7_IfElse.sol:IfElse",
						"label": "nftCollection",
						"offset": 0,
						"slot": "1",
						"type": "t_uint256"
					},
					{
						"astId": 10,
						"contract": "contracts/7_IfElse.sol:IfElse",
						"label": "data",
						"offset": 0,
						"slot": "2",
						"type": "t_array(t_uint256)dyn_storage"
					},
					{
						"astId": 12,
						"contract": "contracts/7_IfElse.sol:IfElse",
						"label": "myString",
						"offset": 0,
						"slot": "3",
						"type": "t_string_storage"
					},
					{
						"astId": 14,
						"contract": "contracts/7_IfElse.sol:IfElse",
						"label": "result",
						"offset": 0,
						"slot": "4",
						"type": "t_bool"
					}
				],
				"types": {
					"t_array(t_uint256)dyn_storage": {
						"base": "t_uint256",
						"encoding": "dynamic_array",
						"label": "uint256[]",
						"numberOfBytes": "32"
					},
					"t_bool": {
						"encoding": "inplace",
						"label": "bool",
						"numberOfBytes": "1"
					},
					"t_string_storage": {
						"encoding": "bytes",
						"label": "string",
						"numberOfBytes": "32"
					},
					"t_uint256": {
						"encoding": "inplace",
						"label": "uint256",
						"numberOfBytes": "32"
					}
				}
			},
			"userdoc": {
				"kind": "user",
				"methods": {},
				"version": 1
			}
		}
	}
}