{
	"data": {
		"bytecode": {
			"linkReferences": {},
			"object": "6080604052348015600e575f80fd5b505f805f6101000a81548160ff02191690836004811115602f57602e6038565b5b02179055506065565b7f4e487b71000000000000000000000000000000000000000000000000000000005f52602160045260245ffd5b610936806100725f395ff3fe608060405234801561000f575f80fd5b5060043610610086575f3560e01c8063d826f88f11610059578063d826f88f146100ee578063ea8a1af0146100f8578063ef8a923514610102578063ff3c1a8f1461012057610086565b806324b8ba5f1461008a5780636d4ce63c146100a6578063aab27ef7146100c4578063d629546c146100e4575b5f80fd5b6100a4600480360381019061009f9190610468565b61013e565b005b6100ae610169565b6040516100bb9190610506565b60405180910390f35b6100cc61017d565b6040516100db939291906105a7565b60405180910390f35b6100ec6102a0565b005b6100f6610362565b005b610100610374565b005b61010a61039f565b6040516101179190610506565b60405180910390f35b6101286103af565b60405161013591906105ea565b60405180910390f35b805f806101000a81548160ff0219169083600481111561016157610160610493565b5b021790555050565b5f805f9054906101000a900460ff16905090565b6001805f01805461018d90610637565b80601f01602080910402602001604051908101604052809291908181526020018280546101b990610637565b80156102045780601f106101db57610100808354040283529160200191610204565b820191905f5260205f20905b8154815290600101906020018083116101e757829003601f168201915b50505050509080600101805461021990610637565b80601f016020809104026020016040519081016040528092919081815260200182805461024590610637565b80156102905780601f1061026757610100808354040283529160200191610290565b820191905f5260205f20905b81548152906001019060200180831161027357829003601f168201915b5050505050908060020154905083565b60405180606001604052806040518060400160405280600c81526020017f41746f6d6963206861626974000000000000000000000000000000000000000081525081526020016040518060400160405280600b81526020017f4a616d657320436c65617200000000000000000000000000000000000000000081525081526020016107d081525060015f820151815f01908161033c9190610831565b5060208201518160010190816103529190610831565b5060408201518160020155905050565b5f806101000a81549060ff0219169055565b60045f806101000a81548160ff0219169083600481111561039857610397610493565b5b0217905550565b5f8054906101000a900460ff1681565b606060015f0180546103c090610637565b80601f01602080910402602001604051908101604052809291908181526020018280546103ec90610637565b80156104375780601f1061040e57610100808354040283529160200191610437565b820191905f5260205f20905b81548152906001019060200180831161041a57829003601f168201915b5050505050905090565b5f80fd5b60058110610451575f80fd5b50565b5f8135905061046281610445565b92915050565b5f6020828403121561047d5761047c610441565b5b5f61048a84828501610454565b91505092915050565b7f4e487b71000000000000000000000000000000000000000000000000000000005f52602160045260245ffd5b600581106104d1576104d0610493565b5b50565b5f8190506104e1826104c0565b919050565b5f6104f0826104d4565b9050919050565b610500816104e6565b82525050565b5f6020820190506105195f8301846104f7565b92915050565b5f81519050919050565b5f82825260208201905092915050565b8281835e5f83830152505050565b5f601f19601f8301169050919050565b5f6105618261051f565b61056b8185610529565b935061057b818560208601610539565b61058481610547565b840191505092915050565b5f819050919050565b6105a18161058f565b82525050565b5f6060820190508181035f8301526105bf8186610557565b905081810360208301526105d38185610557565b90506105e26040830184610598565b949350505050565b5f6020820190508181035f8301526106028184610557565b905092915050565b7f4e487b71000000000000000000000000000000000000000000000000000000005f52602260045260245ffd5b5f600282049050600182168061064e57607f821691505b6020821081036106615761066061060a565b5b50919050565b7f4e487b71000000000000000000000000000000000000000000000000000000005f52604160045260245ffd5b5f819050815f5260205f209050919050565b5f6020601f8301049050919050565b5f82821b905092915050565b5f600883026106f07fffffffffffffffffffffffffffffffffffffffffffffffffffffffffffffffff826106b5565b6106fa86836106b5565b95508019841693508086168417925050509392505050565b5f819050919050565b5f61073561073061072b8461058f565b610712565b61058f565b9050919050565b5f819050919050565b61074e8361071b565b61076261075a8261073c565b8484546106c1565b825550505050565b5f90565b61077661076a565b610781818484610745565b505050565b5b818110156107a4576107995f8261076e565b600181019050610787565b5050565b601f8211156107e9576107ba81610694565b6107c3846106a6565b810160208510156107d2578190505b6107e66107de856106a6565b830182610786565b50505b505050565b5f82821c905092915050565b5f6108095f19846008026107ee565b1980831691505092915050565b5f61082183836107fa565b9150826002028217905092915050565b61083a8261051f565b67ffffffffffffffff81111561085357610852610667565b5b61085d8254610637565b6108688282856107a8565b5f60209050601f831160018114610899575f8415610887578287015190505b6108918582610816565b8655506108f8565b601f1984166108a786610694565b5f5b828110156108ce578489015182556001820191506020850194506020810190506108a9565b868310156108eb57848901516108e7601f8916826107fa565b8355505b6001600288020188555050505b50505050505056fea2646970667358221220a1fe458a5955e70003ed9fca54da03ed0c54aee64b54962c4c3efbfe37eb936564736f6c634300081a0033",
			"opcodes": "PUSH1 0x80 PUSH1 0x40 MSTORE CALLVALUE DUP1 ISZERO PUSH1 0xE JUMPI PUSH0 DUP1 REVERT JUMPDEST POP PUSH0 DUP1 PUSH0 PUSH2 0x100 EXP DUP2 SLOAD DUP2 PUSH1 0xFF MUL NOT AND SWAP1 DUP4 PUSH1 0x4 DUP2 GT ISZERO PUSH1 0x2F JUMPI PUSH1 0x2E PUSH1 0x38 JUMP JUMPDEST JUMPDEST MUL OR SWAP1 SSTORE POP PUSH1 0x65 JUMP JUMPDEST PUSH32 0x4E487B7100000000000000000000000000000000000000000000000000000000 PUSH0 MSTORE PUSH1 0x21 PUSH1 0x4 MSTORE PUSH1 0x24 PUSH0 REVERT JUMPDEST PUSH2 0x936 DUP1 PUSH2 0x72 PUSH0 CODECOPY PUSH0 RETURN INVALID PUSH1 0x80 PUSH1 0x40 MSTORE CALLVALUE DUP1 ISZERO PUSH2 0xF JUMPI PUSH0 DUP1 REVERT JUMPDEST POP PUSH1 0x4 CALLDATASIZE LT PUSH2 0x86 JUMPI PUSH0 CALLDATALOAD PUSH1 0xE0 SHR DUP1 PUSH4 0xD826F88F GT PUSH2 0x59 JUMPI DUP1 PUSH4 0xD826F88F EQ PUSH2 0xEE JUMPI DUP1 PUSH4 0xEA8A1AF0 EQ PUSH2 0xF8 JUMPI DUP1 PUSH4 0xEF8A9235 EQ PUSH2 0x102 JUMPI DUP1 PUSH4 0xFF3C1A8F EQ PUSH2 0x120 JUMPI PUSH2 0x86 JUMP JUMPDEST DUP1 PUSH4 0x24B8BA5F EQ PUSH2 0x8A JUMPI DUP1 PUSH4 0x6D4CE63C EQ PUSH2 0xA6 JUMPI DUP1 PUSH4 0xAAB27EF7 EQ PUSH2 0xC4 JUMPI DUP1 PUSH4 0xD629546C EQ PUSH2 0xE4 JUMPI JUMPDEST PUSH0 DUP1 REVERT JUMPDEST PUSH2 0xA4 PUSH1 0x4 DUP1 CALLDATASIZE SUB DUP2 ADD SWAP1 PUSH2 0x9F SWAP2 SWAP1 PUSH2 0x468 JUMP JUMPDEST PUSH2 0x13E JUMP JUMPDEST STOP JUMPDEST PUSH2 0xAE PUSH2 0x169 JUMP JUMPDEST PUSH1 0x40 MLOAD PUSH2 0xBB SWAP2 SWAP1 PUSH2 0x506 JUMP JUMPDEST PUSH1 0x40 MLOAD DUP1 SWAP2 SUB SWAP1 RETURN JUMPDEST PUSH2 0xCC PUSH2 0x17D JUMP JUMPDEST PUSH1 0x40 MLOAD PUSH2 0xDB SWAP4 SWAP3 SWAP2 SWAP1 PUSH2 0x5A7 JUMP JUMPDEST PUSH1 0x40 MLOAD DUP1 SWAP2 SUB SWAP1 RETURN JUMPDEST PUSH2 0xEC PUSH2 0x2A0 JUMP JUMPDEST STOP JUMPDEST PUSH2 0xF6 PUSH2 0x362 JUMP JUMPDEST STOP JUMPDEST PUSH2 0x100 PUSH2 0x374 JUMP JUMPDEST STOP JUMPDEST PUSH2 0x10A PUSH2 0x39F JUMP JUMPDEST PUSH1 0x40 MLOAD PUSH2 0x117 SWAP2 SWAP1 PUSH2 0x506 JUMP JUMPDEST PUSH1 0x40 MLOAD DUP1 SWAP2 SUB SWAP1 RETURN JUMPDEST PUSH2 0x128 PUSH2 0x3AF JUMP JUMPDEST PUSH1 0x40 MLOAD PUSH2 0x135 SWAP2 SWAP1 PUSH2 0x5EA JUMP JUMPDEST PUSH1 0x40 MLOAD DUP1 SWAP2 SUB SWAP1 RETURN JUMPDEST DUP1 PUSH0 DUP1 PUSH2 0x100 EXP DUP2 SLOAD DUP2 PUSH1 0xFF MUL NOT AND SWAP1 DUP4 PUSH1 0x4 DUP2 GT ISZERO PUSH2 0x161 JUMPI PUSH2 0x160 PUSH2 0x493 JUMP JUMPDEST JUMPDEST MUL OR SWAP1 SSTORE POP POP JUMP JUMPDEST PUSH0 DUP1 PUSH0 SWAP1 SLOAD SWAP1 PUSH2 0x100 EXP SWAP1 DIV PUSH1 0xFF AND SWAP1 POP SWAP1 JUMP JUMPDEST PUSH1 0x1 DUP1 PUSH0 ADD DUP1 SLOAD PUSH2 0x18D SWAP1 PUSH2 0x637 JUMP JUMPDEST DUP1 PUSH1 0x1F ADD PUSH1 0x20 DUP1 SWAP2 DIV MUL PUSH1 0x20 ADD PUSH1 0x40 MLOAD SWAP1 DUP2 ADD PUSH1 0x40 MSTORE DUP1 SWAP3 SWAP2 SWAP1 DUP2 DUP2 MSTORE PUSH1 0x20 ADD DUP3 DUP1 SLOAD PUSH2 0x1B9 SWAP1 PUSH2 0x637 JUMP JUMPDEST DUP1 ISZERO PUSH2 0x204 JUMPI DUP1 PUSH1 0x1F LT PUSH2 0x1DB JUMPI PUSH2 0x100 DUP1 DUP4 SLOAD DIV MUL DUP4 MSTORE SWAP2 PUSH1 0x20 ADD SWAP2 PUSH2 0x204 JUMP JUMPDEST DUP3 ADD SWAP2 SWAP1 PUSH0 MSTORE PUSH1 0x20 PUSH0 KECCAK256 SWAP1 JUMPDEST DUP2 SLOAD DUP2 MSTORE SWAP1 PUSH1 0x1 ADD SWAP1 PUSH1 0x20 ADD DUP1 DUP4 GT PUSH2 0x1E7 JUMPI DUP3 SWAP1 SUB PUSH1 0x1F AND DUP3 ADD SWAP2 JUMPDEST POP POP POP POP POP SWAP1 DUP1 PUSH1 0x1 ADD DUP1 SLOAD PUSH2 0x219 SWAP1 PUSH2 0x637 JUMP JUMPDEST DUP1 PUSH1 0x1F ADD PUSH1 0x20 DUP1 SWAP2 DIV MUL PUSH1 0x20 ADD PUSH1 0x40 MLOAD SWAP1 DUP2 ADD PUSH1 0x40 MSTORE DUP1 SWAP3 SWAP2 SWAP1 DUP2 DUP2 MSTORE PUSH1 0x20 ADD DUP3 DUP1 SLOAD PUSH2 0x245 SWAP1 PUSH2 0x637 JUMP JUMPDEST DUP1 ISZERO PUSH2 0x290 JUMPI DUP1 PUSH1 0x1F LT PUSH2 0x267 JUMPI PUSH2 0x100 DUP1 DUP4 SLOAD DIV MUL DUP4 MSTORE SWAP2 PUSH1 0x20 ADD SWAP2 PUSH2 0x290 JUMP JUMPDEST DUP3 ADD SWAP2 SWAP1 PUSH0 MSTORE PUSH1 0x20 PUSH0 KECCAK256 SWAP1 JUMPDEST DUP2 SLOAD DUP2 MSTORE SWAP1 PUSH1 0x1 ADD SWAP1 PUSH1 0x20 ADD DUP1 DUP4 GT PUSH2 0x273 JUMPI DUP3 SWAP1 SUB PUSH1 0x1F AND DUP3 ADD SWAP2 JUMPDEST POP POP POP POP POP SWAP1 DUP1 PUSH1 0x2 ADD SLOAD SWAP1 POP DUP4 JUMP JUMPDEST PUSH1 0x40 MLOAD DUP1 PUSH1 0x60 ADD PUSH1 0x40 MSTORE DUP1 PUSH1 0x40 MLOAD DUP1 PUSH1 0x40 ADD PUSH1 0x40 MSTORE DUP1 PUSH1 0xC DUP2 MSTORE PUSH1 0x20 ADD PUSH32 0x41746F6D69632068616269740000000000000000000000000000000000000000 DUP2 MSTORE POP DUP2 MSTORE PUSH1 0x20 ADD PUSH1 0x40 MLOAD DUP1 PUSH1 0x40 ADD PUSH1 0x40 MSTORE DUP1 PUSH1 0xB DUP2 MSTORE PUSH1 0x20 ADD PUSH32 0x4A616D657320436C656172000000000000000000000000000000000000000000 DUP2 MSTORE POP DUP2 MSTORE PUSH1 0x20 ADD PUSH2 0x7D0 DUP2 MSTORE POP PUSH1 0x1 PUSH0 DUP3 ADD MLOAD DUP2 PUSH0 ADD SWAP1 DUP2 PUSH2 0x33C SWAP2 SWAP1 PUSH2 0x831 JUMP JUMPDEST POP PUSH1 0x20 DUP3 ADD MLOAD DUP2 PUSH1 0x1 ADD SWAP1 DUP2 PUSH2 0x352 SWAP2 SWAP1 PUSH2 0x831 JUMP JUMPDEST POP PUSH1 0x40 DUP3 ADD MLOAD DUP2 PUSH1 0x2 ADD SSTORE SWAP1 POP POP JUMP JUMPDEST PUSH0 DUP1 PUSH2 0x100 EXP DUP2 SLOAD SWAP1 PUSH1 0xFF MUL NOT AND SWAP1 SSTORE JUMP JUMPDEST PUSH1 0x4 PUSH0 DUP1 PUSH2 0x100 EXP DUP2 SLOAD DUP2 PUSH1 0xFF MUL NOT AND SWAP1 DUP4 PUSH1 0x4 DUP2 GT ISZERO PUSH2 0x398 JUMPI PUSH2 0x397 PUSH2 0x493 JUMP JUMPDEST JUMPDEST MUL OR SWAP1 SSTORE POP JUMP JUMPDEST PUSH0 DUP1 SLOAD SWAP1 PUSH2 0x100 EXP SWAP1 DIV PUSH1 0xFF AND DUP2 JUMP JUMPDEST PUSH1 0x60 PUSH1 0x1 PUSH0 ADD DUP1 SLOAD PUSH2 0x3C0 SWAP1 PUSH2 0x637 JUMP JUMPDEST DUP1 PUSH1 0x1F ADD PUSH1 0x20 DUP1 SWAP2 DIV MUL PUSH1 0x20 ADD PUSH1 0x40 MLOAD SWAP1 DUP2 ADD PUSH1 0x40 MSTORE DUP1 SWAP3 SWAP2 SWAP1 DUP2 DUP2 MSTORE PUSH1 0x20 ADD DUP3 DUP1 SLOAD PUSH2 0x3EC SWAP1 PUSH2 0x637 JUMP JUMPDEST DUP1 ISZERO PUSH2 0x437 JUMPI DUP1 PUSH1 0x1F LT PUSH2 0x40E JUMPI PUSH2 0x100 DUP1 DUP4 SLOAD DIV MUL DUP4 MSTORE SWAP2 PUSH1 0x20 ADD SWAP2 PUSH2 0x437 JUMP JUMPDEST DUP3 ADD SWAP2 SWAP1 PUSH0 MSTORE PUSH1 0x20 PUSH0 KECCAK256 SWAP1 JUMPDEST DUP2 SLOAD DUP2 MSTORE SWAP1 PUSH1 0x1 ADD SWAP1 PUSH1 0x20 ADD DUP1 DUP4 GT PUSH2 0x41A JUMPI DUP3 SWAP1 SUB PUSH1 0x1F AND DUP3 ADD SWAP2 JUMPDEST POP POP POP POP POP SWAP1 POP SWAP1 JUMP JUMPDEST PUSH0 DUP1 REVERT JUMPDEST PUSH1 0x5 DUP2 LT PUSH2 0x451 JUMPI PUSH0 DUP1 REVERT JUMPDEST POP JUMP JUMPDEST PUSH0 DUP2 CALLDATALOAD SWAP1 POP PUSH2 0x462 DUP2 PUSH2 0x445 JUMP JUMPDEST SWAP3 SWAP2 POP POP JUMP JUMPDEST PUSH0 PUSH1 0x20 DUP3 DUP5 SUB SLT ISZERO PUSH2 0x47D JUMPI PUSH2 0x47C PUSH2 0x441 JUMP JUMPDEST JUMPDEST PUSH0 PUSH2 0x48A DUP5 DUP3 DUP6 ADD PUSH2 0x454 JUMP JUMPDEST SWAP2 POP POP SWAP3 SWAP2 POP POP JUMP JUMPDEST PUSH32 0x4E487B7100000000000000000000000000000000000000000000000000000000 PUSH0 MSTORE PUSH1 0x21 PUSH1 0x4 MSTORE PUSH1 0x24 PUSH0 REVERT JUMPDEST PUSH1 0x5 DUP2 LT PUSH2 0x4D1 JUMPI PUSH2 0x4D0 PUSH2 0x493 JUMP JUMPDEST JUMPDEST POP JUMP JUMPDEST PUSH0 DUP2 SWAP1 POP PUSH2 0x4E1 DUP3 PUSH2 0x4C0 JUMP JUMPDEST SWAP2 SWAP1 POP JUMP JUMPDEST PUSH0 PUSH2 0x4F0 DUP3 PUSH2 0x4D4 JUMP JUMPDEST SWAP1 POP SWAP2 SWAP1 POP JUMP JUMPDEST PUSH2 0x500 DUP2 PUSH2 0x4E6 JUMP JUMPDEST DUP3 MSTORE POP POP JUMP JUMPDEST PUSH0 PUSH1 0x20 DUP3 ADD SWAP1 POP PUSH2 0x519 PUSH0 DUP4 ADD DUP5 PUSH2 0x4F7 JUMP JUMPDEST SWAP3 SWAP2 POP POP JUMP JUMPDEST PUSH0 DUP2 MLOAD SWAP1 POP SWAP2 SWAP1 POP JUMP JUMPDEST PUSH0 DUP3 DUP3 MSTORE PUSH1 0x20 DUP3 ADD SWAP1 POP SWAP3 SWAP2 POP POP JUMP JUMPDEST DUP3 DUP2 DUP4 MCOPY PUSH0 DUP4 DUP4 ADD MSTORE POP POP POP JUMP JUMPDEST PUSH0 PUSH1 0x1F NOT PUSH1 0x1F DUP4 ADD AND SWAP1 POP SWAP2 SWAP1 POP JUMP JUMPDEST PUSH0 PUSH2 0x561 DUP3 PUSH2 0x51F JUMP JUMPDEST PUSH2 0x56B DUP2 DUP6 PUSH2 0x529 JUMP JUMPDEST SWAP4 POP PUSH2 0x57B DUP2 DUP6 PUSH1 0x20 DUP7 ADD PUSH2 0x539 JUMP JUMPDEST PUSH2 0x584 DUP2 PUSH2 0x547 JUMP JUMPDEST DUP5 ADD SWAP2 POP POP SWAP3 SWAP2 POP POP JUMP JUMPDEST PUSH0 DUP2 SWAP1 POP SWAP2 SWAP1 POP JUMP JUMPDEST PUSH2 0x5A1 DUP2 PUSH2 0x58F JUMP JUMPDEST DUP3 MSTORE POP POP JUMP JUMPDEST PUSH0 PUSH1 0x60 DUP3 ADD SWAP1 POP DUP2 DUP2 SUB PUSH0 DUP4 ADD MSTORE PUSH2 0x5BF DUP2 DUP7 PUSH2 0x557 JUMP JUMPDEST SWAP1 POP DUP2 DUP2 SUB PUSH1 0x20 DUP4 ADD MSTORE PUSH2 0x5D3 DUP2 DUP6 PUSH2 0x557 JUMP JUMPDEST SWAP1 POP PUSH2 0x5E2 PUSH1 0x40 DUP4 ADD DUP5 PUSH2 0x598 JUMP JUMPDEST SWAP5 SWAP4 POP POP POP POP JUMP JUMPDEST PUSH0 PUSH1 0x20 DUP3 ADD SWAP1 POP DUP2 DUP2 SUB PUSH0 DUP4 ADD MSTORE PUSH2 0x602 DUP2 DUP5 PUSH2 0x557 JUMP JUMPDEST SWAP1 POP SWAP3 SWAP2 POP POP JUMP JUMPDEST PUSH32 0x4E487B7100000000000000000000000000000000000000000000000000000000 PUSH0 MSTORE PUSH1 0x22 PUSH1 0x4 MSTORE PUSH1 0x24 PUSH0 REVERT JUMPDEST PUSH0 PUSH1 0x2 DUP3 DIV SWAP1 POP PUSH1 0x1 DUP3 AND DUP1 PUSH2 0x64E JUMPI PUSH1 0x7F DUP3 AND SWAP2 POP JUMPDEST PUSH1 0x20 DUP3 LT DUP2 SUB PUSH2 0x661 JUMPI PUSH2 0x660 PUSH2 0x60A JUMP JUMPDEST JUMPDEST POP SWAP2 SWAP1 POP JUMP JUMPDEST PUSH32 0x4E487B7100000000000000000000000000000000000000000000000000000000 PUSH0 MSTORE PUSH1 0x41 PUSH1 0x4 MSTORE PUSH1 0x24 PUSH0 REVERT JUMPDEST PUSH0 DUP2 SWAP1 POP DUP2 PUSH0 MSTORE PUSH1 0x20 PUSH0 KECCAK256 SWAP1 POP SWAP2 SWAP1 POP JUMP JUMPDEST PUSH0 PUSH1 0x20 PUSH1 0x1F DUP4 ADD DIV SWAP1 POP SWAP2 SWAP1 POP JUMP JUMPDEST PUSH0 DUP3 DUP3 SHL SWAP1 POP SWAP3 SWAP2 POP POP JUMP JUMPDEST PUSH0 PUSH1 0x8 DUP4 MUL PUSH2 0x6F0 PUSH32 0xFFFFFFFFFFFFFFFFFFFFFFFFFFFFFFFFFFFFFFFFFFFFFFFFFFFFFFFFFFFFFFFF DUP3 PUSH2 0x6B5 JUMP JUMPDEST PUSH2 0x6FA DUP7 DUP4 PUSH2 0x6B5 JUMP JUMPDEST SWAP6 POP DUP1 NOT DUP5 AND SWAP4 POP DUP1 DUP7 AND DUP5 OR SWAP3 POP POP POP SWAP4 SWAP3 POP POP POP JUMP JUMPDEST PUSH0 DUP2 SWAP1 POP SWAP2 SWAP1 POP JUMP JUMPDEST PUSH0 PUSH2 0x735 PUSH2 0x730 PUSH2 0x72B DUP5 PUSH2 0x58F JUMP JUMPDEST PUSH2 0x712 JUMP JUMPDEST PUSH2 0x58F JUMP JUMPDEST SWAP1 POP SWAP2 SWAP1 POP JUMP JUMPDEST PUSH0 DUP2 SWAP1 POP SWAP2 SWAP1 POP JUMP JUMPDEST PUSH2 0x74E DUP4 PUSH2 0x71B JUMP JUMPDEST PUSH2 0x762 PUSH2 0x75A DUP3 PUSH2 0x73C JUMP JUMPDEST DUP5 DUP5 SLOAD PUSH2 0x6C1 JUMP JUMPDEST DUP3 SSTORE POP POP POP POP JUMP JUMPDEST PUSH0 SWAP1 JUMP JUMPDEST PUSH2 0x776 PUSH2 0x76A JUMP JUMPDEST PUSH2 0x781 DUP2 DUP5 DUP5 PUSH2 0x745 JUMP JUMPDEST POP POP POP JUMP JUMPDEST JUMPDEST DUP2 DUP2 LT ISZERO PUSH2 0x7A4 JUMPI PUSH2 0x799 PUSH0 DUP3 PUSH2 0x76E JUMP JUMPDEST PUSH1 0x1 DUP2 ADD SWAP1 POP PUSH2 0x787 JUMP JUMPDEST POP POP JUMP JUMPDEST PUSH1 0x1F DUP3 GT ISZERO PUSH2 0x7E9 JUMPI PUSH2 0x7BA DUP2 PUSH2 0x694 JUMP JUMPDEST PUSH2 0x7C3 DUP5 PUSH2 0x6A6 JUMP JUMPDEST DUP2 ADD PUSH1 0x20 DUP6 LT ISZERO PUSH2 0x7D2 JUMPI DUP2 SWAP1 POP JUMPDEST PUSH2 0x7E6 PUSH2 0x7DE DUP6 PUSH2 0x6A6 JUMP JUMPDEST DUP4 ADD DUP3 PUSH2 0x786 JUMP JUMPDEST POP POP JUMPDEST POP POP POP JUMP JUMPDEST PUSH0 DUP3 DUP3 SHR SWAP1 POP SWAP3 SWAP2 POP POP JUMP JUMPDEST PUSH0 PUSH2 0x809 PUSH0 NOT DUP5 PUSH1 0x8 MUL PUSH2 0x7EE JUMP JUMPDEST NOT DUP1 DUP4 AND SWAP2 POP POP SWAP3 SWAP2 POP POP JUMP JUMPDEST PUSH0 PUSH2 0x821 DUP4 DUP4 PUSH2 0x7FA JUMP JUMPDEST SWAP2 POP DUP3 PUSH1 0x2 MUL DUP3 OR SWAP1 POP SWAP3 SWAP2 POP POP JUMP JUMPDEST PUSH2 0x83A DUP3 PUSH2 0x51F JUMP JUMPDEST PUSH8 0xFFFFFFFFFFFFFFFF DUP2 GT ISZERO PUSH2 0x853 JUMPI PUSH2 0x852 PUSH2 0x667 JUMP JUMPDEST JUMPDEST PUSH2 0x85D DUP3 SLOAD PUSH2 0x637 JUMP JUMPDEST PUSH2 0x868 DUP3 DUP3 DUP6 PUSH2 0x7A8 JUMP JUMPDEST PUSH0 PUSH1 0x20 SWAP1 POP PUSH1 0x1F DUP4 GT PUSH1 0x1 DUP2 EQ PUSH2 0x899 JUMPI PUSH0 DUP5 ISZERO PUSH2 0x887 JUMPI DUP3 DUP8 ADD MLOAD SWAP1 POP JUMPDEST PUSH2 0x891 DUP6 DUP3 PUSH2 0x816 JUMP JUMPDEST DUP7 SSTORE POP PUSH2 0x8F8 JUMP JUMPDEST PUSH1 0x1F NOT DUP5 AND PUSH2 0x8A7 DUP7 PUSH2 0x694 JUMP JUMPDEST PUSH0 JUMPDEST DUP3 DUP2 LT ISZERO PUSH2 0x8CE JUMPI DUP5 DUP10 ADD MLOAD DUP3 SSTORE PUSH1 0x1 DUP3 ADD SWAP2 POP PUSH1 0x20 DUP6 ADD SWAP5 POP PUSH1 0x20 DUP2 ADD SWAP1 POP PUSH2 0x8A9 JUMP JUMPDEST DUP7 DUP4 LT ISZERO PUSH2 0x8EB JUMPI DUP5 DUP10 ADD MLOAD PUSH2 0x8E7 PUSH1 0x1F DUP10 AND DUP3 PUSH2 0x7FA JUMP JUMPDEST DUP4 SSTORE POP JUMPDEST PUSH1 0x1 PUSH1 0x2 DUP9 MUL ADD DUP9 SSTORE POP POP POP JUMPDEST POP POP POP POP POP POP JUMP INVALID LOG2 PUSH5 0x6970667358 0x22 SLT KECCAK256 LOG1 INVALID GASLIMIT DUP11 MSIZE SSTORE 0xE7 STOP SUB 0xED SWAP16 0xCA SLOAD 0xDA SUB 0xED 0xC SLOAD 0xAE 0xE6 0x4B SLOAD SWAP7 0x2C 0x4C RETURNDATACOPY 0xFB INVALID CALLDATACOPY 0xEB SWAP4 PUSH6 0x64736F6C6343 STOP ADDMOD BYTE STOP CALLER "
		},
		"gasEstimates": {
			"creation": {
				"codeDepositCost": "471600",
				"executionCost": "24800",
				"totalCost": "496400"
			},
			"external": {
				"cancel()": "24451",
				"currentStatus()": "2595",
				"get()": "2584",
				"getTitle()": "infinite",
				"myBook()": "infinite",
				"reset()": "24384",
				"set(uint8)": "24646",
				"setBook()": "infinite"
			}
		},
		"methodIdentifiers": {
			"cancel()": "ea8a1af0",
			"currentStatus()": "ef8a9235",
			"get()": "6d4ce63c",
			"getTitle()": "ff3c1a8f",
			"myBook()": "aab27ef7",
			"reset()": "d826f88f",
			"set(uint8)": "24b8ba5f",
			"setBook()": "d629546c"
		}
	},
	"abi": [
		{
			"inputs": [],
			"stateMutability": "nonpayable",
			"type": "constructor"
		},
		{
			"inputs": [],
			"name": "cancel",
			"outputs": [],
			"stateMutability": "nonpayable",
			"type": "function"
		},
		{
			"inputs": [],
			"name": "currentStatus",
			"outputs": [
				{
					"internalType": "enum Shipping.Status",
					"name": "",
					"type": "uint8"
				}
			],
			"stateMutability": "view",
			"type": "function"
		},
		{
			"inputs": [],
			"name": "get",
			"outputs": [
				{
					"internalType": "enum Shipping.Status",
					"name": "",
					"type": "uint8"
				}
			],
			"stateMutability": "view",
			"type": "function"
		},
		{
			"inputs": [],
			"name": "getTitle",
			"outputs": [
				{
					"internalType": "string",
					"name": "",
					"type": "string"
				}
			],
			"stateMutability": "view",
			"type": "function"
		},
		{
			"inputs": [],
			"name": "myBook",
			"outputs": [
				{
					"internalType": "string",
					"name": "Title",
					"type": "string"
				},
				{
					"internalType": "string",
					"name": "Author",
					"type": "string"
				},
				{
					"internalType": "uint256",
					"name": "years_of_publication",
					"type": "uint256"
				}
			],
			"stateMutability": "view",
			"type": "function"
		},
		{
			"inputs": [],
			"name": "reset",
			"outputs": [],
			"stateMutability": "nonpayable",
			"type": "function"
		},
		{
			"inputs": [
				{
					"internalType": "enum Shipping.Status",
					"name": "_status",
					"type": "uint8"
				}
			],
			"name": "set",
			"outputs": [],
			"stateMutability": "nonpayable",
			"type": "function"
		},
		{
			"inputs": [],
			"name": "setBook",
			"outputs": [],
			"stateMutability": "nonpayable",
			"type": "function"
		}
	]
}